:020000040800F2
:10000000F8050020392C0008412A0008432A00087E
:1000100000000000000000000000000000000000E0
:10002000000000000000000000000000452A000859
:100030000000000000000000472A0008492A0008CC
:10004000A7090008000000007F0B0008F70E000859
:10005000570F00085B0F0008CB150008FB2B0008AA
:1000600000000000072C0008652C0008672C000821
:10007000912A0008692C00086B2C00080000000081
:100080006D2C00086F2C0008712C0008732C0008E0
:10009000752C0008772C0008792C00087B2C0008B0
:1000A0007D2C00087F2C0008812C0008832C000880
:1000B000852C0008872C000810B5040001D1012010
:1000C00010BD3D20205C002804D13C21605420005C
:1000D00000F0B5FCFFE702203D216054211D20689F
:1000E00000F08AFA0120482160543E2160543F21EB
:1000F00060544021605441216054422160544321A6
:100100006054442160544521605446216054472185
:1001100060543D216054002010BD10B5040001D191
:10012000012010BD3D20205C002804D13C216054FA
:10013000200000F023FDCEE738B50400002901D1EE
:100140003E2010E0042901D13F200CE0082901D114
:10015000402008E00C2901D1412004E0102901D100
:10016000422000E04320205C012801D0012032BD64
:100170000220002901D13E2210E0042901D13F22B2
:100180000CE0082901D1402208E00C2901D14122CC
:1001900004E0102901D1422200E04322A0540122B0
:1001A000206800F0F3FB2268134814498A4207D004
:1001B000824205D0124B9A4202D0124B9A4204D18D
:1001C000536C80252D021D435564236801228B4208
:1001D00004D00D498B4201D0834207D199684C4825
:1001E0000840062805D01104884202D0186802434E
:1001F0001A60002032BD000000400140002C014088
:1002000000440140004801400004004070B5040073
:100210000D000022B1E038B50400002901D13E20D4
:1002200010E0042901D13F200CE0082901D1402031
:1002300008E00C2901D1412004E0102901D142201D
:1002400000E04320205C012801D0012032BD0220C3
:10025000002902D13E23E05450E0042905D13F2279
:10026000A0542068C26804230EE0082905D140226A
:10027000A0542068C268082306E00C292ED1412230
:10028000A0542068C26810231343C3600122206871
:1002900000F07CFB22681F481F498A4207D0824237
:1002A00005D01E4B9A4202D01D4B9A4204D1536C8A
:1002B00080252D021D435564236801228B4204D002
:1002C00018498B4201D083421DD1996810480840DB
:1002D00006281BD01104884218D014E0102902D13E
:1002E0004222A054D2E74323E0540A0006D0042956
:1002F000B7D00829BDD00C29C3D0C7E72268D3687E
:100300001843D060C2E7186802431A60002032BD6B
:100310000700010000400140002C01400044014062
:10032000004801400004004004000D0006D0042DE8
:100330000BD0082D10D00C2D15D01CE02068C16802
:10034000304A0A40C260606A13E02068C1682E4AE1
:100350000A40C260A06A0CE02068C1682B4A0A40CB
:10036000C260E06A05E02068C168294A0A40C260AC
:10037000206B00F005FC00222900206800F006FB3D
:100380002268244824491E4B9A4208D01B4B9A42AB
:1003900005D0224B9A4202D0214B9A4209D1136ACE
:1003A0000B4006D1136A034003D1536C1D4E1E400F
:1003B00056642268136A194006D1116A084003D1B5
:1003C00010680121884310600120002D01D13E21D9
:1003D00010E0042D01D13F210CE0082D01D1402176
:1003E00008E00C2D01D1412104E0102D01D1422162
:1003F00000E043216054002070BD00000040014037
:10040000002C0140FFFDFFFFFFFBFFFFFFF7FFFF99
:10041000FFEFFFFF44040000111100000044014001
:1004200000480140FF7FFFFFF1B53C23C05C01287D
:1004300001D10220F2BD0120009B3C241855082761
:100440003C4EC5020C00002A0AD0042A18D0082A03
:1004500028D00C2A36D0102A46D0142A54D064E072
:100460000098006800F000F90098006881690F4367
:1004700087618169042291438161816922690EE06B
:100480000098006800F02AF90098006881690D431F
:10049000856181690E4086618169226912020A4381
:1004A000826142E00098006800F04CF90098006812
:1004B000C1690F43C761C16904229143C161C16928
:1004C00022690EE00098006800F06EF9009800685C
:1004D000C1690D43C561C1690E40C661C169226928
:1004E00012020A43C26120E00098006800F092F90D
:1004F00000980068416D0F434765416D04229143A8
:100500004165416D22690EE00098006800F0AEF987
:1005100000980068416D0D434565416D0E4046658C
:10052000416D226912020A434265002000993C2273
:100530008854F2BDFFFBFFFF70B504003C20205C37
:10054000012801D1022070BD26003C3601253570FE
:1005500002203D22A05420688268264B134083600D
:10056000086802003CD010283AD0202838D0302823
:1005700036D040282DD050281DD0602822D0702899
:1005800003D06B0398420AD02EE0CB684A68896892
:10059000206800F0CFF920688168772208E0CB68F6
:1005A0004A688968206800F0C5F920688168AA0354
:1005B0000A43826018E0CA684968206800F08AF936
:1005C00050210EE0CA684968206800F094F9602163
:1005D00007E0CA684968206800F07CF9402100E023
:1005E0000100206800F09CF93D2025540020307067
:1005F00070BD00008800CEFFF0B506687F4A804BD2
:10060000804C814DA84201D0A04206D17027BE4344
:1006100037004E683E43A8420BD0A04209D07B4C25
:10062000A04206D0984204D0904202D08D4CA04205
:1006300003D1774C3440CE6826438024A6434C69CE
:10064000344304608C68C4620C688462A84206D09B
:10065000984204D0904202D0824A904201D1096966
:10066000016301214161F0BDF8B5026A01239A439B
:100670000262036A426884697B4D25400C682C4302
:1006800000940224A3438C681C435C4B5C4D5E4E7B
:10069000B04206D0A84204D0984202D0714FB8426E
:1006A0000CD10827BC432700CC683C430427BC433B
:1006B000B04206D0A84204D0984202D0694B98427A
:1006C00005D1534B13404D691D438A692A4342604B
:1006D000009A8261496841630462F1BD70B5026AA3
:1006E00010239A430262026A43688469744D25406C
:1006F0000C6824022C432025AA438D682D01154344
:10070000414A904208D1802295432E00CA681501C3
:1007100035434022954308E0394A904205D0374A94
:10072000904202D04F4A904206D1814A1A404B690A
:100730008E691E43B300134343608461496881633B
:10074000056270BD70B5026A5E4B13400362046AB5
:100750004268C369444D1D400B682B435A4D2540E8
:100760008C6824022C43284DA84207D1574D2540C0
:10077000CC6826022E43564C344008E0204DA84257
:1007800005D01E4DA84202D0364DA84206D16E4D6E
:1007900015404A698E69164332012A434260C3619B
:1007A0004968C163046270BD30B5026A5B4B134097
:1007B0000362036A4268C469414D25400C68240203
:1007C0002C43624D1D408B681B032B430E4DA842EA
:1007D00008D00B4DA84205D0084DA84202D0214DAB
:1007E000A84204D15A4D15404A6992012A434260F9
:1007F000C46149680164036230BD000000440140E7
:100800000040014000040040002C01400020004056
:10081000FFFCFFFF70B54F4A036A13400362046A8E
:100820004368456D4C4E2E400D6835434B4E264077
:100830008C68240434434A4EB04208D0494EB0423A
:1008400005D0494EB04202D0484EB04203D11A40C2
:100850004B691B0213434360456549688165046227
:1008600070BD0000004801408CFFFEFF30B5026AF9
:100870003F4B13400362036A4268446D3D4D25407F
:100880000C6824022C433C4D1D408B681B052B43F8
:10089000334DA84208D0334DA84205D0324DA8426E
:1008A00002D0324DA84204D1344D15404A6992021B
:1008B0002A43426044654968C165036230BD000057
:1008C000FF8CFFFEFFFEFFFFFFFDFFFFFFF7FFFFB7
:1008D000FFFBFFFF30B5036A046A0125AC430462E5
:1008E0008469F025AC431201224382610A229343BA
:1008F0001943016230BD30B5036A1024A34303627B
:100900008469036A1F4D254012032A438261A02295
:10091000934309011943016230BD0000FFEFFFFF5F
:100920008268174B1340194307220A4382607047BD
:10093000FFF3FFFF30B58468134D254029430A4378
:1009400019021143816030BDFFCFFFFFFFDFFFFFC2
:10095000FFBFFFFFFFFFFEFF8FFFFEFFFFFFFDFF5B
:10096000002C01400040014000440140004801408B
:10097000FFFFEFFFFF8FFFFEFFFFDFFFFFFFFBFF2C
:100980008FFFCFFFFF0FFFFFFF00FFFF10B5C9066E
:10099000C90E036A01248C40A3430362036A8A40A0
:1009A0001A43026210BDFEE780B56B480121426820
:1009B0000A43426042681140009100998021490534
:1009C00002680A4302600068014000910098C0205C
:1009D000C00000F029F901BD10B586B00400142252
:1009E000002101A800F02EF920685C49884224D13A
:1009F0005B4880214903C2680A43C260C268114053
:100A000000910099012102680A43026000680140D8
:100A10000091009810200190032002900020039084
:100A200001A9A020C00500F017F9002200210C2028
:100A300000F0E9F90C2000F0EBF906B010BD81B030
:100A400001684548474A914201D1C10C0DE0464A30
:100A5000914205D1022102680A430260006808E061
:100A6000424A914208D18021490242680A434260C9
:100A7000406801400091009801B0704770B586B0A1
:100A8000040014220021684600F0DCF8256838488C
:100A900001210222324C0023324EB54208D1256892
:100AA00015432560246814400594059C08240AE039
:100AB0002D4EB5420CD1256815432560246814409D
:100AC0000594059C102400940192029303930FE077
:100AD00026498D4210D121681143216021681140BF
:100AE0000591059951030091019202930393052109
:100AF0000491694600F0B0F806B070BD10B586B03C
:100B000004001422002101A800F09CF82068194973
:100B100088421ED112488021C901C2680A43C260BE
:100B2000C268114000910099042102680A430260E2
:100B3000006801400091009830200190022002904E
:100B40000020039004900120059001A90A4800F0BC
:100B500083F806B010BD00003C10024000240140A4
:100B600034100240002C01400004004000400140CD
:100B70000004005000380140000800507047FEE7B4
:100B8000F8B50021002401262522825C022A03D028
:100B90000421C16301242EE0026813680E25AB43D3
:100BA000136002681368B3431360436C144A1D68F2
:100BB00015401D60114B1D68AC464025475D1C2546
:100BC0003D400127AF4065462F431F60C36C856CD5
:100BD0006B60036D002B06D01B681A40036D1A6012
:100BE000826D436D5A602522865424228154816B84
:100BF000002900D088472000F2BD00000400024018
:100C0000FFFEFFFF10B500240B480168820D0A4368
:100C10000260002000F022F9002801D0012401E048
:100C2000FFF7C2FE200010BD04490A68044B1340C0
:100C30001843086070470000002002400000014097
:100C4000FFF9FFFF10B504000800110002002000AA
:100C500000F02AF9200010BDFEB500222CE0052688
:100C600002E0544FB842FAD1AE402643009C2660C1
:100C7000514C2568DC4325404E68F60300D51D43E2
:100C80004D4E3560756825404F68BF0300D51D4344
:100C900075604A4D2E6826404D68ED0200D51E4312
:100CA000464D2E606E6834404E68B60202D526006E
:100CB0001C0034436C60521C0B681C00D44072D082
:100CC000012595402B40F6D054000327A740FE4352
:100CD00001964E68012E05D0022E03D0112E01D0B0
:100CE000122E0ED18768019E3E40CF68A740374341
:100CF00087604668AE434D68EF06FF0F9740374365
:100D00004760C568019E2E408D68A5403543C5608B
:100D10004D68022D01D0122D19D1D508AD0045190D
:100D20002E6A029697001C263E406F463E70029E39
:100D3000B4460F276E463678B7406646BE43B44683
:100D40000F696E463678B740664637432F620768AC
:100D50000326019D3D404F683740BC46270064464E
:100D6000BC402C4304604C68E400A4D5144C9508A6
:100D7000AD00641900942468D70018253D400F2762
:100D8000AF40BC43A027FF05B84201D100266BE766
:100D90000C4FB84201D1012666E70B4FB84200D094
:100DA0005FE7022660E7F7BD002A01D08161704746
:100DB00081627047000C0050801802400018024009
:100DC00060180240000400500008005010B5C20036
:100DD00018231340FF249C40E2438907090E9940E1
:100DE000030004D419489B089B00C01806E0184B68
:100DF0000007000F083880088000181803681A40A0
:100E00001143016010BD80B5FFF7E0FF01BD000098
:100E1000010005D40121C006C00E81400D480160CB
:100E2000704710B5401E80214904884201D301203B
:100E300010BD094C606003210020C043FFF7C6FFCE
:100E40000020A0600721216010BD000000E400E048
:100E50001CED00E000E100E010E000E070B50600ED
:100E600000240F4D2978002916D0FA20800000F0C8
:100E700057F801000B48006800F052F8FFF7D1FF67
:100E8000002809D1042E07D2002231000020C043DF
:100E9000FFF7B9FFAE6000E00124200070BD00BF85
:100EA000000000200C0000201206130A1A43130C45
:100EB0001A4300BF094205D0830705D00270401CC9
:100EC000491EF9D1704700001300103906D330B421
:100ED0001400150010393CC0FCD230BC490700D3C7
:100EE0000CC000D504C0890002D30280801C0029F8
:100EF00000D502707047FEE7CA0F00D049420310C8
:100F00005A400DD004B500D3404200F009F8009AD1
:100F1000D20701D34942124200D5404204BD00002D
:100F2000094214D088420FD30122030C01D10004DE
:100F30001204002300185B418B4200D35B1A52411C
:100F4000F8D319001000704701000020704708B561
:100F500000F002F808BDFEE77047FEE710B5042375
:100F60001940436907248C40A3438A401A434261D5
:100F700010BDC068C02109010140481E8041C00F5A
:100F80007047FEB50500002601960096002D01D1A0
:100F90000120FEBD2C0054346068002804D12800D4
:100FA000FFF71AFDA66026702868816880277F05F4
:100FB000394011D18168814A0A403A4382608048B1
:100FC00000688049FFF7ACFF400001E00098401E38
:100FD000009000980028F9D129688868074008D156
:100FE0006068102202436260A06801220243A2608E
:100FF000012688686268D20600D4400700D5D5E093
:101000006068714A02400220104360608A68802054
:101010000006D20732D4CA6818239A43AB68134338
:10102000CB60C02109066A680A402B6C13436A6CC6
:101030001A43AB6C1343EA6C1A4301923C22AA5C3C
:10104000012A03D1019A0123134301932A681769E6
:101050005E4B3B40019F1F4317616A688A420DD077
:1010600041088A420AD0824208D059490F68594B38
:101070003B40F027BF0317401F430F60296B002937
:1010800000D0C10C2A69104002D05000400801E095
:10109000802080030090A87E2A7E93036A7ED2037C
:1010A0001A43430313431943EA680A43009911435F
:1010B0002C22AA5C57000F432021695C01290ED124
:1010C000002804D1380080277F02074307E06068CA
:1010D000202101436160A06801210143A160686A89
:1010E000002806D0E02149000140A86A084338439F
:1010F00007002868C168384A0A403A43C260286835
:101100000169364A0A400199114301616A6B002165
:101110002868FFF723FFAA6B31492868FFF71EFFF5
:101120002869002806D12868816A0F22D2430A4321
:10113000826221E08021890388421DD10022E1687A
:1011400090000B00C3401807000F0F2802D0521C5C
:10115000082AF5D30F20C043012A04D129688A6ADE
:101160001043886208E02A68936AEB695B1E5B079C
:10117000DB0E9840014391620220C0432968C96890
:10118000184A0A40BA4207D10021A16061680840AC
:101190000121014361600EE06168084010210143B4
:1011A00061600126A0683043A06004E060681021FF
:1011B0000143616001263000FEBD0000E8FFFF7FB3
:1011C0000C000020400D0300FFFEFFFF02FCFF1F8C
:1011D00008270140FFFFC3FF1902FEFF02FCFFDFEB
:1011E00004FFFF07E7FF3F83F8B5040020680568A8
:1011F0004768A8070FD5B8070DD5A06DC00604D461
:10120000A06D802109010143A165200000F0DAF9F9
:101210000220216808600426354201D0374203D1FC
:10122000280732D5380730D5A06DC00603D4A06D8D
:10123000F1010143A1652068FFF79BFE00281ED045
:10124000A07E00281BD120680068000717D5206801
:10125000816801200E400BD1216849680C2291431E
:1012600022685160A16D314A0A401043A06506E032
:10127000A16D20220A43A265E16D0843E0652000CC
:1012800000F0A1F90C202168086028060BD5802603
:10129000374208D0A06D71020143A165200000F023
:1012A00093F920680660E8050CD580267600374261
:1012B00008D0A06D71020143A165200000F086F9FD
:1012C000206806608026B60035420AD0374208D032
:1012D000A06D71020143A165200000F078F920683B
:1012E00006601026354215D0374213D0206B0028F7
:1012F00003D02068C06880070AD0A06DB101014307
:10130000A165E06D02210143E165200000F060F974
:10131000206806607602354006D0374004D02000B1
:1013200000F057F920680660F1BD0000FFFEFFFFE6
:10133000F1B585B000206A4650700190059854229E
:10134000805C012801D1022021E1059854300290EF
:101350000125057005980668B068400700D509E1C9
:1013600001910598006903900198406804908949AB
:10137000894A8A4880231B06049C022C039C00D1C6
:10138000CEE09C4201D0844207D101980068B46A43
:101390004003400B2043B06280E0019800680F24B6
:1013A000470302D14000C50E47E0284244D18707D9
:1013B00043D4450701D502253FE00825284201D046
:1013C00003253AE0C70601D5042536E0870601D596
:1013D000052532E0470601D506252EE0070601D592
:1013E00007252AE0C70528D4850501D5092524E06D
:1013F000450501D50A2520E0050501D50B251CE092
:10140000C50401D50C2518E0850401D50D2514E08F
:10141000450401D50E2510E0050401D50F250CE08B
:10142000C50301D5102508E0850301D5112504E089
:10143000400301D5122500E000250498C006C00E27
:101440006F4638700298C768BC46684607780F2018
:10145000B840674687436846007885403D43029818
:10146000C56001984068059DED6987087F1CBD42F5
:1014700014D3019D2D68C006C00E6F463870B76A40
:10148000BC46684607780F20B84067468743A80ED9
:1014900004406846007884403C43B4620198806808
:1014A000019C2568059C24682D026669AE4328408E
:1014B0003B4D05403543656101980468234061D088
:1014C0001368C8431840374B9C4217D180231B0434
:1014D000184257D11468214008430343136032482F
:1014E00000683249FFF71CFD0C214843401C019065
:1014F0000198002846D00198401EF8E72C4B9C42EA
:1015000002D180235B0404E02A4B9C423AD1802321
:10151000DB03184236D1146821400843034327E017
:101520009C4201D0844206D101980068B46A40030D
:10153000400B8443B46201980468234022D01368AE
:10154000C8431840174B9C4203D1136819401A4BEB
:101550000CE0174B9C4203D113681940174B05E070
:10156000144B9C420ED113681940154B03400B439A
:10157000136007E00298406820210143029841600F
:10158000684645700020029908706846407806B0A9
:10159000F0BD0000FFFF3FFE08270140040000806F
:1015A00000FFFF07001000B00C000020400D0300FA
:1015B000004000B8002000B4FFFF7FFFFFFFFFFEE8
:1015C000FFFFBFFF704770477047FEE770477047E7
:1015D00070477047FEB507001BD0A84C3878C0078D
:1015E00019D5A16838200840E1688025AD0210288F
:1015F00008D18807800F032806D0796868088142DF
:1016000034D13BE00828F8D12068054003D0786841
:10161000002800D1B7E1387880077BD5A068382151
:101620000140E268B948BA4D10294ED19207920F95
:10163000022A4CD0F968002900D196E021680840C0
:101640003969014321602068A10D0143216000F048
:10165000BFFA3E0007002068400500D57DE000F09D
:10166000B7FAC01B0328F6D30320FEBDA022D20286
:10167000914207D1216882000A4322602168084311
:10168000206007E02068A349014021602068A2494A
:1016900001402160786800280BD000F099FA06001C
:1016A00020682840B7D100F093FA801B6528F7D353
:1016B000DAE700F08DFA060020682840ABD000F091
:1016C00087FA801B6528F7D3CEE70029B2D12268BC
:1016D000520502D5FA68002A3ED0626815407A6940
:1016E00012022A43626000290ED12168084039693C
:1016F00001432160A648012122689204520F9140C3
:10170000FFF70EFCA3490860A3480068FFF7A6FB9B
:10171000002821D10225387800070AD5A068382191
:101720000140182931D1206E284002D0B869002824
:1017300012D03878400700D4A9E000200190A068BA
:1017400038210140202942D1E06D054000D19EE0C2
:10175000B868002800D09AE015E16068054070691B
:101760000002284360603700D4E720688B490140BD
:10177000216000F02DFA050020684005CAD500F070
:1017800027FA401B0328F7D36EE7B8690028206EBC
:101790000ED001210143216600F01AFA0600206EE6
:1017A0002840C6D100F014FA801B0328F7D35BE76A
:1017B00001218843206600F00BFA0600206E2840C5
:1017C000B7D000F005FA801B0328F7D34CE7E806F2
:1017D000E16B014008D1E16B0143E163E16B08403B
:1017E00000900098012001906D4D2868C00512D42A
:1017F000A00D0090286800990143296000F0E8F9E5
:10180000060028680099014005D100F0E1F9801B2D
:101810000328F6D328E7B8680121012805D0052858
:10182000E06D06D104220243E265E06D0143E1650B
:1018300005E08843E065E06D04218843E065022609
:10184000B86800280CD000F0C3F90500E06D304006
:1018500016D100F0BDF9401BA6498842F6D303E734
:1018600000F0B6F90500E06D304009D000F0B0F9A5
:10187000401BA0498842F6D3F6E600BF00100240A4
:101880000198002803D0E06B9B490140E163F869AF
:1018900000287AD0A16838220A40102A54D0802625
:1018A000B60496490228206838D10140216000F032
:1018B0008FF905002068304005D000F089F9401B01
:1018C0000328F7D3D0E6E0688D490140386A084321
:1018D000796A0143B86A00020843F96A0143386B28
:1018E0000843E0602068710801432160E068F1006E
:1018F0000143E16000F06CF905002068304044D1FC
:1019000000F066F9401B0328F7D3ADE6FFC7FFFFE1
:10191000FF80FFFFFFFFFEFFFFFFFBFF0140216095
:10192000E06803218843E060E0689E490140E1608F
:1019300000F04EF905002068304026D000F048F94C
:10194000401B0328F7D38FE601281CD0E0688107ED
:10195000890F3A6A914216D1702101407A6A914208
:1019600011D1FE21C9010140BA6A120291420AD185
:10197000F82189030140FA6A914204D1400F4007DF
:10198000396B884201D00120FEBD0020FEBD000061
:101990000024F4000C00002008000020FFFEFFFFE0
:1019A00000700040F8B5070066D000917E480068DE
:1019B0004007400F884218D27B4C2068072188439B
:1019C00000990143216000F003F9009D06002068A2
:1019D0004007400FA84207D000F0FAF8801B4549A5
:1019E0008842F4D30320F2BD00953968704C022080
:1019F00001420CD0490704D5A168E022D2010A4374
:101A0000A260A168694A0A40B9681143A16007252C
:101A1000ED433978C90732D57968012918D1206892
:101A2000800329D5A06828400143A16000F0D0F8C8
:101A30003E000700A068382101407068C000814264
:101A40001CD000F0C5F8C01B2A498842F2D3C9E770
:101A5000022902D12068800103E0002903D1206817
:101A60004005DFD408E0032903D1226E1040D9D10C
:101A700002E0E26D1040D5D10120F2BD37000098A0
:101A8000494909684907490F884217D24648006802
:101A90000540009828434449086000F099F8009DEB
:101AA0000600414800684007400FA84206D000F0F9
:101AB0008FF8801B0F498842F3D393E738784007AB
:101AC00005D5A0683B490140F8680843A06000F0D4
:101AD00019F83949A2681205120F9200895CC906EB
:101AE000C90EC8403549086035480068FFF7B6F9A7
:101AF000F2BD000089130000FFFFFFEFFFFFFFFEB4
:101B00008C80C11F30B507212F48294C3823A2688B
:101B10001A4006D123680122DB0A19408A401100CD
:101B20001EE04208A5681D40082D01D1100030BDFF
:101B3000A5681D40102D16D1E368E5682D092940E0
:101B4000491C7F259B079B0F032B00D11000FFF73B
:101B5000E7F9E168090A0D406843E168490F491C4B
:101B6000FFF7DEF930BDA0681840202802D18020A0
:101B7000000230BDA0680340182B02D1FA20C0013A
:101B800030BD002030BD0F4801680C4800680F4A86
:101B90004904490F8900515CC906C90EC840704705
:101BA00000000000FFFFFEEF00200240FFF0FFFFFB
:101BB00000100240FF8FFFFFB82A00080C00002031
:101BC00008000020081002400024F400B02B000898
:101BD00001484068704700BF00000020F0B59BB08E
:101BE000FFF710F800F002FA142200216846FFF710
:101BF00029F80427CC48016839430160016839405D
:101C00000591059901260168314301600168314061
:101C100005910599022102680A43026000680140AB
:101C20000591059800222021A020C005FFF7BCF8EF
:101C3000BE4D002280212800FFF7B6F87003009007
:101C400000240194029469462800FFF705F820203B
:101C500000900196029403946946A020C005FEF707
:101C6000FBFFC02080000090019402946946A020F0
:101C7000C005FEF7F1FF80200090019602940394C6
:101C800069462800FEF7E8FF0C2200216846FEF7AF
:101C9000D9FFD14DD1482860B0076860AC60EC60D6
:101CA0002C616F612C83AC76EE6120216C546C62E8
:101CB000AC622C216C542C636C63AC633C216C547F
:101CC000EC642800FFF75DF9002801D000F030FA3D
:101CD000C34800900194029469462800FFF728FB4E
:101CE000002801D000F024FA1022002117A8FEF7E6
:101CF000A9FF0C2200216846FEF7A4FF1C22002148
:101D000010A8FEF79FFF3422002103A8FEF79AFFD8
:101D1000B44FB54838607C60BC60D448F8603C6122
:101D20007C61BC613800FEF7C7F9002801D000F0E3
:101D3000FFF93003179017A93800FEF7FDFB0028C4
:101D400001D000F0F5F93800FEF7E7F9002801D0DE
:101D500000F0EEF90094019402946946380000F016
:101D6000EFF9002801D000F0E3F960201090119401
:101D700012941394149415941694042210A9380004
:101D8000FEF752FB002801D000F0D2F9039404942E
:101D90000594069407947003089009940A940B9490
:101DA00000030C900D940E940F9403A9380000F0DA
:101DB000F8F9002801D000F0BBF93800FEF75EFE0C
:101DC000102200210AA8FEF73DFF0C2200216846E0
:101DD000FEF738FF1C22002103A8FEF733FFBB48A3
:101DE000BB4908604C608C60A048C860084604612C
:101DF0008461FEF761F9002801D000F099F9300301
:101E00000A900AA9B248FEF797FB002801D000F01B
:101E10008FF9AF48FEF781F9002801D000F088F96A
:101E2000009402946946AA4800F08AF9002801D07B
:101E300000F07EF96020039004940594079400223A
:101E400003A9A348FEF7F0FA002801D000F070F9CA
:101E50009F48FEF713FE102200210AA8FEF7F2FEAB
:101E60000C2200216846FEF7EDFE1C22002103A88B
:101E7000FEF7E8FE342200210EA8FEF7E3FEA64E90
:101E8000A64830607460B4607848F0603461746172
:101E9000B4613000FEF710F9002801D000F048F9D5
:101EA000802040010A900AA93000FEF745FB002877
:101EB00001D000F03DF93000FEF72FF9002801D0E5
:101EC00000F036F9009402946946300000F038F9C9
:101ED000002801D000F02CF96020039004940594B0
:101EE0000694079408940994002203A93000FEF791
:101EF0009BFA002801D000F01BF90E940F94109467
:101F00001194129480208001139014941A940EA9B5
:101F1000300000F046F9002801D000F009F9300047
:101F2000FEF7ACFD7E4803E034100240000800508C
:101F3000686696208001A866EC662C676C670C20AA
:101F4000A867EC6780202C5084202C5088202C50CF
:101F50008C202C502800643000F08AF9002801D031
:101F600000F0E6F800212800643000F022FC002890
:101F700001D000F0DDF800212800643000F032FCD0
:101F8000002801D000F0D4F82800643000F0F4FB01
:101F9000002801D000F0CCF8FA239B000A2200BFF1
:101FA00064A12800643000F099F900213000FEF7A8
:101FB00032F900214648FEF72EF904213800FEF7D9
:101FC0002AF9584C200000F053F8200000F06DF87A
:101FD000200000F07FF8FEE71C00002000240140F4
:101FE0001000001010010020002C014010B598B026
:101FF000342200210BA8FEF725FE1022002168469E
:10200000FEF720FE1C22002104A8FEF71BFE802004
:10201000800000F03DFC02200B90FE300E9000246A
:102020000F944020109012940BA8FFF7D3FA0028C9
:1020300001D000F07DF807200090019402940394F1
:1020400000216846FFF7AEFC002801D072B6FEE71B
:10205000354804900594099404A800F03FFC00283A
:1020600001D072B6FEE718B010BD0000FFFF0000FF
:1020700018B587B004001C2200216846FEF7E2FD77
:10208000602000900194002002900390049005903D
:102090000690264C04212000FEF7B8F80422694679
:1020A0002000FEF7C1F9042130E018B587B0040024
:1020B0001C2200216846FEF7C5FD602000900194B7
:1020C000002002900490024C16E000000004004042
:1020D0005C01002018B587B004001C22002168466E
:1020E000FEF7B0FD60200090019400200290039064
:1020F000049005900690084C00212000FEF786F819
:10210000002269462000FEF78FF900212000FEF72B
:1021100013F808B010BD0000A801002000400140E5
:1021200000380140709400000140000010010020C0
:1021300072B6FEE74D6F726E696E27210D0A0000C0
:10214000F0B53C22825C012A01D10220F0BD0122BF
:102150003C23C25402233D24035505686E68AB68D6
:10216000354CA54203D1354F37404E683E4370276A
:10217000BE430F6837436F600568A54205D0304CF9
:10218000A54202D02F4CA54204D18024A3438968E4
:102190001943A9603D21425400213C228154002072
:1021A000F0BD10B53C22825C012A01D1022010BD95
:1021B00001223C23C254CA68234B13408A681A4345
:1021C000224B13404A681A43214B13400A681A43B2
:1021D000204B13400A691A43164B13404A691A43AD
:1021E0001D4B13400A6B1A431C4C14408A6913049C
:1021F00023430268104CA24214D1194C1C40CB69F5
:1022000023430E4C1C408B6A1B052343154C1C407A
:102210000B6A2343144C1C404B6A2343134C1C4051
:10222000CB6A2343536400E0000000213C22815428
:10223000002010BDFFDFFFFF002C0140FFFF0FFF5C
:102240000004004000400140FFFCFFFFFFFBFFFFD8
:10225000FFF7FFFFFFEFFFFFFFBFFFFFFFFFF0FFF5
:10226000FFFFFFEFFFFFFFFEFFFFFFFDFFFFFFDFB1
:1022700038B5040014D0250080356868002803D1E3
:1022800028702000FEF73AFC24206860206801686E
:10229000012291430160200000F09CF8012801D147
:1022A000012032BDA06A002802D0200000F052F9BF
:1022B00020684168084A0A404260206881682A22F2
:1022C00091438160FFE72068016801220A430260B0
:1022D000200000F0A7F932BDFFB7FFFFF1B584B0D1
:1022E0001C00803001904068202870D10D000FD074
:1022F00068460280002A0BD080277F0104988068FE
:10230000B84207D104980069002803D1E80701D535
:1023100001205DE001980078012858D00120019942
:10232000087000260198C660212001994860FFF7D7
:102330004FFC04995431029169460988029A118030
:1023400069460988029A518004998968B94203D183
:1023500004990969002901D029000025019A167005
:10236000049E029407000C0010E021788162641C36
:1023700007E03068002CF8D12988C905C90D8162B1
:10238000AD1C300054304188491E4180300054302B
:10239000408800280AD0029800903B00002280214B
:1023A000300000F07BF90028E3D009E030003B006A
:1023B000029900910022402100F070F9002801D01C
:1023C000032005E0202001994860002000E0022061
:1023D00005B0F0BDF8B504000027002520680168AD
:1023E0008E4A0A40A168114322690A436169114378
:1023F000E2690A43616E114301604168884A0A40FC
:10240000E1681143416081689E4A0A40A169114315
:10241000226A0A438260C16A0F229143626A0A43B8
:10242000C262994A1021994B984208D110688007DE
:10243000800F1ED0022810D011D303280BE0944B3C
:10244000984210D110680C22024012D0042A06D003
:10245000082A02D00C2A04D00CE002210AE0042150
:1024600008E0082106E08B4A904202D08A4A904256
:1024700000D1002131A6B34880221202E3699342C1
:102480002AD1002906D0022908D004291FD0082902
:1024900020D049E0FFF777FB002846D06168009123
:1024A000616A4900715AFEF73BFD400000994908F6
:1024B00040180099FEF734FD80B201001039A24A9D
:1024C000914231D202400007400F104324E0FFF751
:1024D00019FBE1E71000E1E7002906D0022908D046
:1024E00004291CD008291DD01EE0FFF74CFB002852
:1024F0001BD061680091616A4900715AFEF710FDB6
:102500000099490840180099FEF70AFD80B20100C1
:1025100010398D4A914207D22168C86005E0FFF763
:10252000F1FAE4E71000E4E701252000683001211A
:10253000418001808760C7602800F2BD0100020071
:102540000400060008000A000C00100020004000F3
:10255000800000012821415CC90706D501684A684E
:102560007A4B1340C26A1A434A602821415C8907AA
:1025700006D501684A68764B1340026B1A434A60DD
:102580002821415C490706D501684A68714B134010
:10259000426B1A434A602821415C090706D501684D
:1025A0004A686D4B1340826B1A434A602821415C94
:1025B000C90606D501688A68684B1340C26B1A4386
:1025C0008A602821415C890606D501688A68644BC7
:1025D0001340026C1A438A602821415C490611D5D8
:1025E00001684A685F4B1340426C1A434A60426C70
:1025F00080235B039A4205D14A685B4B1340826C8F
:102600001A434A602821415C090606D501684A68D8
:10261000564B1340C06C184348607047F369FFCFB6
:10262000FFCFFFFFF8B5040000258030C560FFF73D
:10263000CFFA07004E4E20680068000709D50096C3
:102640003B00002280218903200000F027F80028A9
:102650000DD12068006840070BD500963B00002292
:102660008021C903200000F019F8002801D00320C0
:10267000F2BD21008031202048608860E5660D7041
:102680000020F2BDFFF4FF11541002400038014059
:102690000044004000480040004C0040FEB5089F48
:1026A00080242401002506000191684602700293EF
:1026B0003068C069019901400198814201D101202F
:1026C00000E0002069460978884238D10020C043E4
:1026D0008742EDD0FFF77CFA0299401A874201D376
:1026E000002F11D130680168224A0A400260306828
:1026F0008168012291438160300080302021416057
:10270000816005700320FEBD306800684007CFD5AA
:102710003068C0692040CBD03068046230680168FE
:10272000144A0A4002603068816801229143816046
:1027300030008030202141608160C160E1E70020ED
:10274000FEBD00000024F400F0FF0000FFFFFDFFCD
:10275000FFFFFEFFFFFFFBFFFF7FFFFFFFEFFFFF1E
:10276000FFDFFFFFFFFFEFFFFFFF9FFFFFFFF7FF11
:10277000FFFFFF015FFEFFFF30B5010080310A78E7
:10278000012A01D1022030BD01220A7024224A60B0
:102790000268136814680125AC4314600022426685
:1027A000224C1C4000680460202048600A70002011
:1027B00030BD70B50400250080352878012801D18E
:1027C000022070BD012028702420686020680668FF
:1027D000026801239A43026020688268D200D2080E
:1027E000114317E070B504002500803528780128D2
:1027F00001D1022070BD012028702420686020686B
:102800000668026801239A43026020688268084BC8
:10281000134019438160200000F00CF82068066026
:10282000202068600020287070BD0000FFFFFFDFDF
:10283000FFFFFFF1FFB502A911A218CA18C169462E
:1028400011A218CA18C104006834416E002902D1CF
:102850000120608012E00068816809014D0F8068E6
:10286000410F6E4602AF785CC000715CFEF744FB1E
:102870006080785DC000715DFEF73EFB2080FFBD8B
:10288000010101030701000008040204080101011D
:1028900010B50E4C21680E4A0A4002432260610DB9
:1028A000884210D10B480068062148430A49FEF7C8
:1028B00037FB401C00E0401E6169490503D5002834
:1028C000F9D1032010BD002010BD000000700040B1
:1028D000FFF9FFFF0C00002040420F00FEB504008E
:1028E00000206A4610704E4D2168890355D501902D
:1028F00080204005296B014008D1296B01432963E1
:10290000296B08400190019801200190454800681A
:10291000A90D014343480160FFF75AF906004148F9
:102920000068C00505D4FFF753F9801B0328F6D3D0
:1029300023E0296DC020800008403B4F00280ED0C6
:10294000A16988420BD0286D3840296D802252023F
:102950000A432A65296D354A0A402A652865C00759
:102960000FD5FFF735F90600286D800709D4FFF76A
:102970002FF9801B2E498842F6D303206946087040
:1029800004E0286D0740A0693843286501980028B5
:1029900003D0286B2749014029632078C00705D55B
:1029A000A86C0321884361680143A96420788007EB
:1029B00005D5A86C0C218843A1680143A96420783F
:1029C000800605D5A86C1C490140E0680843A8644E
:1029D0008020C001216801400DD0A96C89008908C0
:1029E00062690A43AA6461690204914203D12968B9
:1029F00082000A432A60216809050DD5A96C0F4A97
:102A00000A4021691143A9642169814204D12868DF
:102A1000802149020143296068460078FEBD00001C
:102A20000C10024000700040FFFCFFFFFFFFFEFFA4
:102A300089130000FFFFFFEFFFCFFFFFFF3FFFFF06
:102A4000FEE7FEE77047704770B500F02DF81349B8
:102A500013488288531801221C0401D102700A23F2
:102A6000C4886418250401D14270192405896D18A1
:102A70002E0401D182706425468971180E0402D19A
:102A8000C270FA2189008380C4800581418170BDB4
:102A900080B50448FEF7A8FB01BD0000FFFF000061
:102AA000100000201C0000200248416802788918AC
:102AB000416070470000002000000000000000009E
:102AC0000000000000000000000000000000000006
:102AD00000000000000000000100000002000000F3
:102AE00003000000040000000600000007000000D2
:102AF000080000000900000070B40123002413E066
:102B00000168001D194202D04D466D1E49190C6026
:102B1000091D121F042AFAD20D00960701D50C8058
:102B2000AD1C1A4000D02C700268001D002AE7D1AD
:102B300070BC704730B401220EE00368C3184468CB
:102B40000830144202D04D466D1E64191D68256080
:102B50001B1D241D091FF9D10168001D0029ECD19E
:102B600030BC704710B5074979441831064C7C4495
:102B7000163404E0081D0A68891888470100A1423C
:102B8000F8D110BD08000000280000006DFFFFFF15
:102B9000D80100001C0000200000000099FFFFFF8A
:102BA0001C00000078000000000000200000000071
:102BB0000000000000000000000000000000000015
:102BC00001000000020000000300000004000000FB
:102BD00000F00DF8002801D0FFF7C4FF00BF00BFD0
:102BE000002000BF00BFFEF7F9FF00F002F801204F
:102BF000704780B500F002F801BDFEE70746384691
:102C000000F002F8FBE7FEE780B500BF00BF024A14
:102C100011001820ABBEFBE72600020001000000F7
:102C200000000000040000000024F4000000000088
:102C30000A0019006400E803014880470148004782
:102C4000492C0008592C0008802000050149086023
:102C50007047000008ED00E000BF00BF00BF00BFEC
:102C6000FFF7B6FFFEE7FEE7FEE7FEE7FEE7FEE75B
:102C7000FEE7FEE7FEE7FEE7FEE7FEE7FEE7FEE72C
:082C8000FEE7FEE7FEE7FEE7B8
:0400000508002C596A
:00000001FF
