:020000040800F2
:1000000080540020F97B0008D97A0008DB7A0008C8
:10001000DD7A0008DF7A0008E17A000800000000BD
:10002000000000000000000000000000656C0008F7
:10003000E37A0008000000000D6C00082954000855
:10004000457C0008497C00084D7C0008517C000874
:10005000557C0008597C00085D7C0008617C000824
:10006000657C0008697C00086D7C0008717C0008D4
:10007000757C0008797C00087D7C0008817C000884
:10008000857C0008897C0008E57A00088D7C0008E2
:10009000917C0008957C0008997C00089D7C0008F4
:1000A000A17C0008A57C0008A97C0008AD7C0008A4
:1000B000B17C0008B57C0008EB7A0008B97C000828
:1000C000BD7C0008C17C0008C57C0008C97C000814
:1000D000CD7C0008D17C0008D57C0008D97C0008C4
:1000E000DD7C0008E17C0008E57C0008E97C000874
:1000F000ED7C0008F17C0008F57C0008F97C000824
:10010000FD7C0008017D0008057D0008097D0008D0
:100110000D7D0008117D0008F17A0008157D0008AA
:10012000F77A0008197D00081D7D0008217D000870
:10013000257D00080000000000000000297D000867
:100140002D7D0008317D0008357D0008397D0008CF
:100150003D7D0008417D0008457D0008497D00087F
:100160004D7D0008517D0008557D0008597D00082F
:100170005D7D0008617D0008657D000800000000CD
:1001800000000000697D0008000000000000000081
:100190006D7D00080000000000000000717D000877
:1001A000000000000000000000000000757D000855
:1001B000797D00087D7D0008817D0008857D00082F
:1001C000897D00082DE9F14FB0B0924604910DF100
:1001D00042013A9A2B9199464A7000200AE01AF897
:1001E000011B0498309A90470028049000F06B8619
:1001F0000D98401C0D909AF8000050B12528EED1C2
:10020000002100220791089209910A920B910C9209
:1002100004E00D9800F059BE41F001011AF8010FF9
:100220002028F9D023280CD02B2804D02D2805D045
:10023000302809D00BE041F00201EFE741F0040162
:10024000ECE741F00801E9E741F01001E6E72A2870
:100250000FD1D9F8002052F8040BC9F8002000286B
:100260000F9003D540420F9041F004010AF1010ABA
:1002700014E00F92DFF8583C0AE00F98984205DA34
:1002800000EB800402EB4402303A0F920AF1010ABB
:100290009AF80020A2F130000A28EED39AF8000064
:1002A0002E2803D04FF0FF320E9229E01AF8010FEA
:1002B0002A2809D1D9F8000050F8042BC9F8000009
:1002C0000E920AF1010A1BE02D280CBF0AF1010A67
:1002D000002000220E92DFF8F84B0BE040B90E9A96
:1002E000A24205DA02EB820503EB4503303B0E9395
:1002F0000AF1010A9AF80030A3F130020A2AEDD37C
:10030000ADF840100FF6CC309AF8001000F00EFF58
:1003100008B11AF8010B8DF842009DF842006828D8
:1003200005D19AF8000068280CD1622106E06C28FB
:1003300004BF9AF800006C2804D171218DF8421096
:100340000AF1010A12A806901AF801BBBBF12501B7
:100350002CD01C3900F0D781091F022940F2D3812B
:10036000133900F0E284093900F0CD81891E00F0D4
:100370007785491E00F02485491E022940F2C38179
:10038000091F00F01D85491F00F03281491E00F051
:10039000CC84491E00F0D880C91E0DD0891E00F003
:1003A000C484C91E00F0C18400F065BD25238DF80A
:1003B0004830012100F06ABDD9F8000050F8044B24
:1003C000C9F80000002C059440F0AB802B994878C8
:1003D000002800F0A1804FF0FF340FF6003000F04D
:1003E000B5FE201A40F06F8500F051BD01236A462A
:1003F00002A9304600F042FE002840F064856D1EE0
:10040000F4D13096079D12AF75B1309E17F8012BCD
:1004100002A9304600F022FE002801D46D1EF5D15D
:100420000028309640F04F850A9D3020002D8DF831
:1004300000000CDD309E01236A4602A9304600F020
:100440001DFE002840F03F856D1EF4D13096059FBB
:10045000089D75B1309E17F8012B02A9304600F0B7
:10046000FDFD002801D46D1EF5D10028309640F026
:100470002A850B9D3020002D8DF800000CDD309E6C
:1004800001236A4602A9304600F0F8FD002840F03A
:100490001A856D1EF4D1309605980899099D471864
:1004A00075B1309E17F8012B02A9304600F0D6FD39
:1004B000002801D46D1EF5D10028309640F0038548
:1004C0000C9D3020002D8DF800000CDD309E0123A6
:1004D0006A4602A9304600F0D1FD002840F0F384BE
:1004E0006D1EF4D130969DF8400041077FF583AE34
:1004F0002020002C8DF800007FF77DAE309D012379
:100500006A4602A9284600F0B9FD002840F0DB84C5
:10051000641EF4D130956EE60FF6C030059000F001
:10052000B6BC0E9D002D04D5204600F02FFE0446DB
:1005300007E02A46204600F033FE002814BF041BC3
:100540002C46089400F0A3BCD9F8001051F8040B15
:10055000C9F8001020F00004002121F0FF3512AB93
:10056000CDE902450593DDE9022306993C2413B940
:100570000AB90E98A8B102F00F053035641EEEB22C
:100580003A2E08DA120942EA03721B090D5508BF18
:10059000002A02D105E02735F4E705980D19A84295
:1005A000E9D308190590C4F13C020E9808928242E2
:1005B0000ADABDF84010821A4FF6EF7001400A9235
:1005C000ADF8401000F063BC002840F160849DF855
:1005D000400000F01400102840F059840F9B079948
:1005E0000A985B1A1B1A9A1A002A40F350849AE35D
:1005F0002B99487820B14FF0FF340FF6B020EEE68B
:100600009DF84200622860D0682817D06A283FD041
:100610006C2806D0712847D074282CD07A281DD099
:1006200062E0D9F8001051F8040BC9F80010002856
:1006300066D14FF0FF340FF68C20D0E6D9F80010C9
:1006400051F8040BC9F8001020B94FF0FF340FF631
:100650007420C4E60D99018000F019BCD9F800108F
:1006600051F8040BC9F80010002849D14FF0FF34AD
:100670000FF65020B3E6D9F8001051F8040BC9F872
:10068000001000283CD14FF0FF340FF63820A6E6CA
:10069000D9F8001051F8040BC9F8001080B94FF0D8
:1006A000FF340FF620209AE6D9F8001051F8040B19
:1006B000C9F8001020B94FF0FF340FF608208EE67D
:1006C0000D9AD317C0E90023E1E3D9F8001051F8DF
:1006D000040BC9F8001020B94FF0FF340FF6E410F6
:1006E0007DE60D990170D2E3D9F8001051F8040BA2
:1006F000C9F8001020B94FF0FF340FF6C8106EE6AD
:100700000D990160C3E3D9F80020D21D22F0070241
:10071000C9F80020D2E900010832C9F80020CDE96B
:100720000201C80F02D007982D210AE0BDF8400051
:10073000810702D507982B2103E0C00705D507984C
:10074000202112AA1154401C079012A80799DDE934
:10075000024543184BF020006128059321AE0BD0D1
:100760000E98002802D506200E9005E001BF4BF040
:100770002000672801210E91DDE9020148004015A3
:10078000401C0A460DD109030BD0ABF161070320D1
:100790001A2F089002D20FF648110DE00FF64411FF
:1007A0000AE070B912030CD1ABF1610703201A2FD4
:1007B00008901CD30FF634110322184600F01CFDDC
:1007C00065E3DDE902016A4600F022FDCDE90201A0
:1007D0004BF02000612811D1059830210170821C56
:1007E000BBF1610F05920CBF7821582102E00FF692
:1007F000F801E1E741700798801C0790DDE90201EC
:1008000020F0000231F0004308BF002A02D1002589
:10081000002445E14BF02008B8F1610F40F09580CD
:100820000E98002847BF21210191401C0190019F93
:100830007F1C2046294600220023DDE9024500F006
:100840001FFD00998DF8842038BF85F00045091FF1
:10085000002F00910DF1850034DD06462046294623
:100860000022002300F026FD2BD21C2200F03CFDCC
:1008700004460D4600F0D6FDFF1F002F804609DD1F
:1008800000F0ECFD02460B462046294600F0B6FE7D
:1008900004460D46F01D0721B8F1000F0CDD491E7E
:1008A0005EBF08F00F0200F8012D4FEA2818F3D5BB
:1008B00002E0002200F8012D491EFAD5C61D002FC6
:1008C000CCDC30460DF18501401A0199054688427D
:1008D000C8BF0D46002D0DF185062FD4854206DADE
:1008E0000DF18500415D0829A8BF0F2000DA002026
:1008F000294621AA0A4400E06D1E12F80139491E5A
:100900008342F9D00F2804D10DF18500425C521CBE
:100910004254002904D50098001D21AE6D1C0090A2
:10092000681E0BD431180A783032D3B23A2BA4BFE8
:100930005A443A3A401E01F80129F4D50E9800288D
:1009400040F1AD80691E0E91A9E00099DFF8FC2608
:1009500047F29750414391FBF2F2009225F0004597
:10096000C2F10702002A04DD2046294600F04AFBB6
:100970000BE052420020DFF8D81600F043FB02469D
:100980000B462046294600F0ABFE0446B8F1660F40
:100990000E9806BF009F0A3706273F18142FC8BFBE
:1009A000142730208DF884000D460DF1850000E0FD
:1009B0003046002F35DD06462046294600F0B4FFBC
:1009C00001460A4606F1080304200A26B2FBF6F6A1
:1009D00006EB860EA2EB4E02303203F8012C0A22FF
:1009E000B6FBF2F202EB820EA6EB4E063036401E4C
:1009F00003F8026DE9D1083F002F03F10806D7DDA7
:100A0000084600F0A3FF02460B462046294600F0A8
:100A1000F5FD0022DFF83C3600F0A6FF04460D4647
:100A2000CAE70DF18501401A0DF1850604E0009931
:100A3000491E401E0091761C31783029F7D0B8F15C
:100A4000660F02D10099491C04E0B8F1650F0CBF94
:100A5000012100210E9D4D19A842B8BF451E002D51
:100A60001DD4854204DA705D3428C8BF392000DC0B
:100A700030202946721E531800E06D1E13F80149FC
:100A8000491E8442F9D0392802D1705C401C705450
:100A9000002904D50098401C16466D1C0090009C4F
:100AA00001F038F8406A0778DDF8388028B200286D
:100AB00002DC01250FF238664BF02000662808BFE3
:100AC000641C16D0672846D120B210F1040F48DB11
:100AD000404546DA9DF84000641C010703D428B263
:100AE0004045D8BF804620B2B8EB000848BF4FF061
:100AF00000080FFA84FBBBF1000F00F3B5800898E3
:100B0000411C0891302205990A54B8F1000F03DC0A
:100B10009DF84000010704D50898411C08910599EB
:100B20000F5418EB0B0FB8BFC8F1000424B2604299
:100B30000B90A0442AB29045B8BF4546059B089843
:100B40002DB209952A463146184400F055FBA8EB12
:100B500005000C90D2E0BBF1610F17D14FF0700B84
:100B600019E028B2404504DA9DF840100A0758BF42
:100B70008046B8F1010848BF4FF00008BBF1670F8D
:100B800014BF4FF0450B4FF0650B04E0BBF1410F74
:100B900008BF4FF0500B0898411C0891B8F1000FA6
:100BA000059916F8012B0A5403DC9DF84000010753
:100BB0001AD50898411C0891B8F1000F05990F54F7
:100BC00012DD6D1E28B280450598089BB8BF4546CA
:100BD0002AB23146184400F00FFB08992DB269186B
:100BE0000891A8EB05000B9005980899084421B2DC
:100BF000002980F800B003D42B224270821C04E04C
:100C00002D2242700C46821C644200212CAB2046EF
:100C10000AE004460A2094FBF0F000EB8005A4EB08
:100C2000450403F8014B491C00B20028F1DC0129FE
:100C300006DC4BF02000652804BF302002F8010BD1
:100C400000292CAB08D1302002F8010B06E0491E28
:100C5000585C303002F8010B0029F8DC059908983F
:100C60000844121A099249E028B221B288421CDADB
:100C70000598089B2AB23146184400F0BDFA08993D
:100C80002DB269180891ABEB0500B8F1000F0B907D
:100C900003DC9DF84000020704D5059847540999E4
:100CA000491C0991CDF8308028E00598089B22B2B4
:100CB0003146184400F0A0FA08982D1B5844B8F1AA
:100CC000000F089003DC9DF840100A0703D5411C73
:100CD000089105990F5428B280450598089BB8BF24
:100CE00045462AB206EB0B01184400F085FA089835
:100CF0002DB228180890A8EB05000B909DF8400035
:100D000000F01400102840F0C280079A08990B9850
:100D10008A18099982180C988A1882180F988242AA
:100D200080F2B580821A0A92B1E09DF842006228F2
:100D300008D068280ED06A2814D06C281FD07128DB
:100D400010D01CE0D9F8001051F8040BC9F80010BD
:100D5000C0B21AE0D9F8001051F8040BC9F800101D
:100D600080B212E0D9F80020D21D22F00702C9F8A3
:100D70000020D2E900010832C9F8002006E0D9F8C5
:100D8000001051F8040BC9F800100021CDE9020150
:100D90009DF8400001075AD5DDE90223002B08BF6A
:100DA000002A54D04BF02000782850D1079812A97F
:100DB00030220A54401C431C079301F800B046E05F
:100DC0009DF84200622808D068280ED06A2814D006
:100DD0006C281FD0712810D01CE0D9F8001051F8F1
:100DE000040BC9F8001040B21AE0D9F8001051F80D
:100DF000040BC9F8001000B212E0D9F80020D21D8F
:100E000022F00702C9F80020D2E900010832C9F82F
:100E1000002006E0D9F8001051F8040BC9F80010C2
:100E2000C117CDE90201002902D507982D210AE05A
:100E3000BDF84000810702D507982B2103E0C007C9
:100E400005D50798202112AA1154401C079012A81A
:100E500007990144059102A8594600F04DF816E0A3
:100E600001200790D9F8000050F8041BC9F80000D1
:100E70008DF848100BE025210122BBF1000F8DF801
:100E80004810079203D08DF849B0022107910F9ABC
:100E900007980A990C9C121A0898521A0B99121A60
:100EA0000998521A121A9DF84000141B41073FF589
:100EB000A9AA2020002C8DF800007FF7A3AA309E5D
:100EC0002546FFF793BA4FF0FF3031B0BDE8F08F01
:100ED000CBCCCC0C686A6C747A4C00007072696E72
:100EE00074665F733A2062616420257320617267C3
:100EF000756D656E740000002DE9FC4304466F2992
:100F0000256908BF082605D041F02000782814BFC5
:100F10000A2610263C27D4E90023642918BF692932
:100F20009046994605D1002B03D5D8F1000869EB0E
:100F30004909B9F1000F08BFB8F1000F0CD1206BBF
:100F400050B9082E3AD194F83800010736D5302030
:100F50003B2785F83B0031E08DF8001040464946BC
:100F60003246F31700F0DAFD3032D0B27F1E3A2855
:100F700001970EDAEA55404649463246F31700F02B
:100F8000CDFD80465FEA010908BFB8F1000F05D129
:100F900008E09DF800001218513AEBE7E068E91903
:100FA0008842DBD3082E09D194F83800010705D513
:100FB000E85D302802D07F1E3020E855C7F13C02A2
:100FC000A261E919E160206B824208DA821A22628A
:100FD0004FF6EF70218F01402187BDE8F383002891
:100FE0000ED594F8380000F01400102808D1636B77
:100FF0006169206A5B1A1B1A9A1A002AC8BF22620A
:10100000BDE8F3832DE9D04306460F4614464FF062
:101010000008DFF8449012E0E00707D542464B464F
:101020003046394600F0A0FC06460F464046494689
:1010300042464B4600F098FC641080468946002CDE
:10104000EAD130463946BDE8D0830000A0860100D1
:101050000000F03F84D797410000244010B50346BC
:101060000C461146A0689847A06020B1E06A401C79
:10107000E062002010BD4FF0FF3010BDF8B505460E
:101080000E4617461C4600205CB117F8011BB068DD
:10109000A847B06030B1F06A401CF0620020641EC6
:1010A000F3D1F2BD4FF0FF30F2BD00007072696EF7
:1010B00074665F733A20256E20646973616C6C6F8F
:1010C000776564007072696E74663A2062616420AC
:1010D000256E20617267756D656E740000000000FA
:1010E0006E616E004E414E00696E6600494E4600CC
:1010F000300030B5016884684218416802EB510342
:10110000C90703D54C4401E0491C08D19A4218BFD5
:1011100012F9011B01D10C3030BD12F8015B00291E
:1011200004F8015BF0D4491EF7D5EFE7C9B20278A5
:101130008A421AB11CBF10F8012FF9E718BF00202E
:1011400070470268531C03601170704780B500B986
:1011500006A005490B681BB122220021984701E037
:1011600000F05FFD222002BD7C500020636F6E7393
:10117000747261696E742068616E646C65723A2085
:10118000626164206D6573736167650000F101033E
:1011900010F8011B11B110F8011BFBE7C01A7047D2
:1011A000C9B2830706D0521E22D310F8013B9942E0
:1011B000F7D11FE0083A13D302F1040241EA0121FA
:1011C00041EA014150F8043B121F21BF4B40A3F1FB
:1011D000013C2CEA030C1CF0803FF3D0C9B2001F85
:1011E000083210F8013B521E28BF91EA030FF8D8CD
:1011F00018BF0120401E70474AB1000011F8013BA2
:10120000521E00F8013B1CBF11F8013BF8E7704784
:1012100010B5144600F002F8226010BDC1F30A5365
:1012200043B14A0012F5001F28D2A3F2FE32A1EB0F
:101230000251704750EA410C20D001F0004C31EAD5
:101240000C01B1FA81F204BFB0FA80F3D2180B3A64
:10125000B2F120032CBF00FA03F1914041EA0C01E6
:101260003EBFC2F1200C20FA0CF3194390405242C9
:1012700040F2FD33D21A01EB035170470022704750
:1012800041EA030C50EA4C0C52EA0C0C4FF4001CDF
:1012900009D307D01CEB410F9CBF1CEB430F8B42C3
:1012A00008BF824270471CEB430FFBD8994208BF2E
:1012B0009042704741EA030C50EA4C0C52EA0C0C85
:1012C0004FF4001C09D307D01CEB410F9CBF1CEB53
:1012D000430F994208BF904270471CEB410FFBD867
:1012E0008B4208BF82427047124254D440F2FF7CC6
:1012F0001CEA11530FD0634531D09B1863453CBFA6
:1013000001EB0251704701F0004141EA0C5100200D
:10131000AFF30080704750EA410320D001F0004C49
:1013200091EA0C011CD0B1FA81F30B3B9A420DD922
:10133000D21A994051EA0C01C3F1200C20FA0CFC9E
:1013400061449840531C40F2FF7CD7E7914041EA4A
:101350000C01C2F1200C20FA0CF3194390407047A5
:10136000B0FA80F31533202BE0D3202AEED3203AB5
:10137000203B9A4209D9D21A00FA03F141EA0C0142
:101380000020531C40F2FF7CB8E700FA02F141EA6A
:101390000C0100207047524240F2FF7C1CEA1153BE
:1013A0000DD06345DBD0B2EB030C3CBFA1EB025187
:1013B00070470CF1010221EA035141F4801150EA17
:1013C000410CCCD001F0004C352A27DC30B481EA46
:1013D0000C01B2F1200309DAC2F12003044601FA3C
:1013E00003F5D0402843D1409C400CE0C3F12002DB
:1013F000450020FA03F418BF44F0010421FA03F079
:1014000091400C43002174F1004550F1000051EB74
:101410000C01244230BC7FF47BAF70476146002052
:1014200076E72E00C1F30A5340F21E42D31A0CDDB8
:10143000CA0283F3070342EA505242F00042DA4004
:1014400002EBE17282EAE17070476FEAE17203F247
:10145000E13008B182F000407047000010F0004118
:1014600060B148BF4042B0FA80F29040D21CC2F551
:10147000846241EA025202EBD0214005704700002D
:1014800070B491EA030F4FF0004540F1BF806B400C
:10149000841A71EB030604D26E40001BB14112198D
:1014A00073414FF4001C1CEB410F34BF7CEB43062F
:1014B00083E00C0DA4EB1356362E00F37C80012E36
:1014C00045EAC32341DC43EA525312BFD2029202DF
:1014D0005B08240545EAC12141EA5051D2EBC02006
:1014E000994125D407D1B0FA80F610FA06F162D0FE
:1014F0000020203608E0B1FA81F6B140C6F12002A2
:1015000020FA02F21143B0404FEAF474B4EB4654AF
:1015100034F001064FEA74040AD8D6F50016760DA9
:1015200004F00044F04061FA06F25040F1404840B7
:10153000C00A40EA415021F0004128BF5FEA50054F
:1015400050F1000044EBD12135E0DB0A45EAC1212E
:10155000C90AB6F120050EDD42EA0242120CC5F1BD
:10156000200603FA06F6EB4042EA06056D42984172
:1015700061F100010DE062FA06F5F240554063FAB0
:1015800006FC82EA0C02F3405A406D42904161EB46
:10159000030111F4801F05D1641E620502D06D00A5
:1015A0004041494121F48011430875F1004350F155
:1015B000000041EB045170BC70471CEB410F15D289
:1015C00023F0004352EA43060BD04FEA4C0CBCEB2D
:1015D000410F04D80C0D661E342EB7DDEBE7801AE0
:1015E000994150EA410608BF0021E4E708BF1CEB1F
:1015F000430F28BF6FF00001DDE7000070B491EAEF
:10160000030F4FF000457FF543AF6B40841A71EB39
:10161000030603D2001BB141121973414FF4001CA1
:101620001CEB410F34BF7CEB430442E00C0DA4EBF8
:101630001356352E4FDC45EAC323DB0A45EAC121A8
:10164000C912B6F120050DDD63FA05F6EB4086EA16
:101650000305124218BF45F00105C01851F1000101
:101660000CD213E062FA06F5F2405540F3415A40BD
:10167000B340F3405A408018594107D349085FEA04
:1016800030005FEA350528BF45F0010501F58011FE
:10169000420875F1004250F1000041EB04514E0048
:1016A00016F5001F70BC38BF70470020090D0905F2
:1016B00070471CEB410F10D252EA43060BD0BCEB33
:1016C000410F05D80C0DAB43661E342EB6DD02E08B
:1016D000AB438018594170BC704770BC7047000024
:1016E000F0B540F2FF7581EA030C0CF0004C15EAEE
:1016F00011541DBF15EA1357AC42AF42E5E0BC419F
:10170000C1F31301C3F31303801A994143F4801307
:1017100004D2641E0018494180185941C90241EAA7
:101720005051B1FBF3F603FB1611A2FB0675D7EB84
:10173000C020A94102D2761E80185941C90241EA4F
:101740005051B1FBF3FE03FB1E11A2FB0E75D7EB4C
:10175000C020A94103D2AEF1010E8018594189027F
:1017600041EA9051760546EA8E2EB1FBF3F603FB73
:101770001611A2FB0675D7EB8020A94102D2761E76
:1017800080185941C90241EA50514EEA060EB1FB98
:10179000F3F603FB1611A2FB0675D7EBC020A94197
:1017A00002D2761E80185941C90241EA5051B1FB5C
:1017B000F3F703FB1711A2FB0735D3EBC020A941B8
:1017C00067F100070CBF004247F0010766F3D52719
:1017D0004FEA1E31B80814F5806412DDBD0775F1BB
:1017E000004250EB0E5051EB045111F5801F5CBFCD
:1017F00041EA0C01F0BD4CF07F6141F0E041002076
:10180000F0BDBD076D0840EA0E5041F48011D4F1DF
:101810000104B4F120060ADAC4F120060200E04017
:1018200001FA06F3E1401843B24015430EE0342CB0
:1018300013DCC6F1200445EA40056D0820FA06F2E3
:10184000154321FA06F0A1400D43002175F1004235
:1018500050F1000051EB0C01F0BD00205FEA0C01DB
:10186000F0BDCFB992185B41B3FA83F704BFB2FA67
:1018700082F6BF190B3FB7F120062FBF02FA06F31D
:10188000BB40C7F1200622FA06F638BF3343BA4000
:101890001CB1E419641E33E77F4231F00041B1FA14
:1018A00081F404BFB0FA80F6A4190B3CB4F1200611
:1018B0002FBF00FA06F1A140C4F1200620FA06F677
:1018C00038BF3143A0403C1B1AE7AC421ABF05EABF
:1018D0001357AF4212E050EA41061CBF52EA4306DA
:1018E000BFE750EA4107304661461CBF41EA055157
:1018F000F0BD52EA430C08BFC143F0BD00204FF4D5
:10190000001616EB410F98BF16EB430F08BF16EBFE
:10191000410F24BFC14305E016EB430F0CBF6146E6
:101920004CEA0551F0BD0000400D40F21E4C40EA6B
:10193000C120BCEB115C40F0004003D48CF30701E4
:10194000C84070476FEAE1707047000050B1B0FACC
:1019500080F18840C91CC1F58461090501EBD021E3
:10196000400570470146704730B540F2FF7C1CEAE5
:1019700011541DBF1CEA1355644565453FE06419C9
:1019800081EA030C6FF35F530CF0004C43F48013B7
:10199000C90241F0004141EA505EC5021100A5FBB9
:1019A000020200284FF00000EEFB01204FF0000182
:1019B000E3FB052118BF42F0010240180021494114
:1019C000E3FB0E01A4F580640D0302D2921840419E
:1019D000494154F1010470DD450872F1004250F1B3
:1019E000000051EB0451A1F5801102D441EA0C0131
:1019F00030BD40F2FF7E4CEA0E51002030BD0CEAB3
:101A00001355644518BF654581EA030C0CF0004C82
:101A100041D050EA410E1CBF52EA430E02E061463B
:101A2000002030BD24422C441BD15FEA050EF6D0C5
:101A3000090302BF01460020AEF1140EB1FA81F590
:101A4000AEEB050401FA05FE0C35C5F1200100FAE4
:101A500005F5C8404EEA000E6FF35F5343F4801360
:101A60009CE733F00043B3FA83F504BFB2FA82FE79
:101A700075440B3D641BB5F1200E2FBF02FA0EF327
:101A8000AB40C5F1200E22FA0EFE38BF43EA0E032A
:101A9000AA40641C7CE750EA410E14BF52EA430E90
:101AA0006FF000014FF4001515EB430F8EBF194680
:101AB00015EB410F9DE7B4D830BDD4F10104B4F16A
:101AC00020050FDAC4F12005520828BF42F00102B8
:101AD00010FA05FE01FA05F57244E2BFE040284322
:101AE000E1400FE0352C9ADCC5F1200452EA4002B7
:101AF00020FA05F218BF42F0010231FA05F0A140C8
:101B00000A43002172F1004250F1000051EB0C0138
:101B100030BD00000048704788000020D3BBD9B119
:101B2000B2F5803F5BD2022A1ED98C46B1FBF2F19E
:101B300002FB11C31B0443EA1043B3FBF2FC02FB9C
:101B40001C3380B240EA0343B3FBF2F002FB1032D5
:101B500040EA0C4000237047022A05D98446B0FBB6
:101B6000F2F002FB10C270474AB105D100F0010249
:101B700049085FEA3000704700220023704700F0F8
:101B800053B80B000200002100207047F7D3002259
:101B900000237047904271EB030CF2D370B5B1FA99
:101BA00081F4B3FA83F52C1BA340C4F1200532FA6B
:101BB00005F63343A2405FF00046E64002E05B08D2
:101BC0005FEA3202841A71EB030524BF20462946DE
:101BD0007641F4D302000B003000002170BD70B5D7
:101BE000B1FA81F4B2FA82F5C4F120046419B4F1B7
:101BF0002006DAD3B2405FF00044F440002502E052
:101C000052085FEA3303C61A71EB020E24BF304656
:101C1000714664416D41F3D302000B00200029009E
:101C200070BD012000F002B87047000080B5AFF32E
:101C30000080024A11001820ABBEFBE7260002001C
:101C40000000000000000000000000000000000094
:101C50000000000000000000000000000000000084
:101C6000000000000000000C000C000C000C000C38
:101C7000000C000C000C000C000C000C0000000C10
:101C8000000C0000000000000000001B001B001BF7
:101C9000001B001B0000000000000000000000000E
:101CA000000000000000000000000000000080199B
:101CB000801980198019C07FC07F80190033C07FD0
:101CC000C07F003300330033003300000000000009
:101CD0000000001E003F807580650074003C001EFF
:101CE00000078005806580658075003F001E000448
:101CF000000400000000007000D840D8C0D880D98F
:101D000000730006000C801BC036C066C046C006CB
:101D100080030000000000000000001E003F0033B0
:101D200000330033001E000CC03CC066806380613D
:101D30008063C03E801C0000000000000000000C1A
:101D4000000C000C000C000C000000000000000063
:101D50000000000000000000000000000000000083
:101D6000800000010003000600060004000C000CC7
:101D7000000C000C000C000C000400060006000320
:101D800000018000002000100018000C000C00046E
:101D90000006000600060006000600060004000C0F
:101DA000000C0018001000200000000C002D003F67
:101DB000001E0033000000000000000000000000D2
:101DC0000000000000000000000000000000000013
:101DD0000000000C000C000C000CC0FFC0FF000C49
:101DE000000C000C000C00000000000000000000CF
:101DF00000000000000000000000000000000000E3
:101E000000000000000000000000000C000C0004B6
:101E100000040008000000000000000000000000B6
:101E2000000000000000001E001E00000000000076
:101E300000000000000000000000000000000000A2
:101E40000000000000000000000000000000000092
:101E50000000000C000C0000000000000000000367
:101E6000000300030006000600060006000C000C3C
:101E7000000C000C00180018001800000000000002
:101E80000000001E003F0033806180618061806D32
:101E9000806D8061806180610033003F001E000022
:101EA0000000000000000006000E001E00360026A4
:101EB00000060006000600060006000600060006F2
:101EC00000060000000000000000001E003F8073BC
:101ED00080618061800100030006000C0018003062
:101EE0000060807F807F0000000000000000001C78
:101EF000003E006300630003000E000E000380013B
:101F0000800180618073003F001E0000000000001F
:101F100000000006000E000E001E001E0016003617
:101F200000360066807F807F000600060006000005
:101F3000000000000000007F007F00600060006083
:101F4000006E007F80638001800180618073003FAC
:101F5000001E0000000000000000001E003F803353
:101F600080610060006E007F8073806180618061AD
:101F70008033003F001E0000000000000000807F52
:101F8000807F80010003000300060006000C000CA7
:101F9000000C0008001800180018000000000000E5
:101FA0000000001E003F8063806180610021001EF0
:101FB000003F8061806180618061003F001E000001
:101FC000000000000000001E003F0073806180617F
:101FD00080618073803F801D800180610073003FBD
:101FE000001E0000000000000000000000000000D3
:101FF0000000000C000C00000000000000000000C9
:102000000000000C000C00000000000000000000B8
:102010000000000000000000000C000C00000000A8
:10202000000000000000000C000C00040004000888
:10203000000000000000000080008003000E003857
:1020400000600038000E80038000000000000000E7
:102050000000000000000000000000000000807F81
:10206000807F00000000807F807F00000000000073
:102070000000000000000000000000000000000060
:1020800000400070001C000780010007001C007069
:102090000040000000000000000000000000001FE1
:1020A000803FC071C060C000C00180030007000E07
:1020B000000C000C0000000C000C000000000000F0
:1020C0000000001E003F803180718063806F806D52
:1020D000806D806F806700600032003E001C000051
:1020E000000000000000000E000E001B001B001B83
:1020F000001B80318031803F803F8031C060C060F4
:10210000C0600000000000000000007C007E006352
:10211000006300630063007E007E00638061806175
:102120008063007F007E0000000000000000001EB1
:10213000003F8031806100600060006000600060EE
:10214000006080618031003F001E00000000000040
:102150000000007C007F006380638061806180619B
:1021600080618061806100630063007E007C00000C
:10217000000000000000807F807F00600060006041
:102180000060007F007F0060006000600060807F72
:10219000807F0000000000000000807F807F0060E2
:1021A000006000600060007F007F006000600060F1
:1021B0000060006000600000000000000000001EE1
:1021C000003F803180610060006000608063806358
:1021D000806180618031803F001E000000000000AF
:1021E0000000806180618061806180618061807FAA
:1021F000807F80618061806180618061806100009A
:10220000000000000000003F003F000C000C000C2C
:10221000000C000C000C000C000C000C000C003F2B
:10222000003F0000000000000000800180018001EC
:1022300080018001800180018001800180618061D6
:102240008073003F001E0000000000000000C0601E
:102250008061006300660066006C0078007C0066A8
:102260000066006380618061C060000000000000C3
:1022700000000060006000600060006000600060BE
:1022800000600060006000600060807F807F000070
:10229000000000000000C071C071C07BC07AC06A3D
:1022A000C06AC06EC064C060C060C060C060C06012
:1022B000C060000000000000000080718071807923
:1022C00080798079806D806D806D806580678067A2
:1022D0008067806380630000000000000000001E33
:1022E000003F003380618061806180618061806136
:1022F000806180610033003F001E0000000000008C
:102300000000007E007F8063806180618061806367
:10231000007F007E006000600060006000600000E0
:10232000000000000000001E003F0033806180615B
:102330008061806180618061806580670033803F5B
:10234000401E0000000000000000007E007F80634F
:10235000806180618063007F007E006600630063AF
:1023600080618061C0600000000000000000000E7D
:10237000001F8031803100300038001E00078003CC
:10238000806180618031003F001E0000000000007D
:102390000000C0FFC0FF000C000C000C000C000C83
:1023A000000C000C000C000C000C000C000C0000D9
:1023B00000000000000080618061806180618061B8
:1023C0008061806180618061806180618073003F95
:1023D000001E0000000000000000C060C060C0607F
:1023E000803180318031001B001B001B001B000E60
:1023F000000E000E00040000000000000000C0C03D
:10240000C0C0C0C0C0C0C0C0C0CC804C804C805ECA
:102410008052805280738061806100000000000063
:102420000000C0C0806080610033003B001E000CD3
:10243000000C001E001F003B80718061C0C00000C6
:10244000000000000000C0C08061806100330033E4
:10245000001E001E000C000C000C000C000C000CF8
:10246000000C0000000000000000803F803F800161
:10247000000300030006000C000C001800180030D8
:102480000060807F807F000000000000000F000FD0
:10249000000C000C000C000C000C000C000C000CDC
:1024A000000C000C000C000C000C000C000F000FC6
:1024B0000000001800180018000C000C000C000CA4
:1024C00000060006000600060003000300030000EB
:1024D00000000000001E001E0006000600060006A8
:1024E00000060006000600060006000600060006BC
:1024F00000060006001E001E0000000C000C001E5E
:102500000012003300338061806100000000000091
:1025100000000000000000000000000000000000BB
:1025200000000000000000000000000000000000AB
:10253000000000000000000000000000E0FF0000BC
:10254000000000380018000C00000000000000002F
:10255000000000000000000000000000000000007B
:102560000000000000000000000000000000001F4C
:10257000803F80618001801F803F80618063807F19
:10258000C038000000000000000000600060006033
:102590000060006E007F8073806180618061806177
:1025A0008073007F006E000000000000000000004B
:1025B000000000000000001E003F8073806100608A
:1025C000006080618073003F001E0000000000007A
:1025D00000008001800180018001801D803F8073A8
:1025E00080618061806180618073803F801D000018
:1025F0000000000000000000000000000000001EBD
:10260000003F00738061807F807F00608071003FA9
:10261000001E0000000000000000C007C00F000CFA
:10262000000C807F807F000C000C000C000C000C64
:10263000000C000C000C0000000000000000000076
:1026400000000000801D803F807380618061806198
:1026500080618073803F801D80018063007F003E29
:1026600000000060006000600060006F807F80718B
:102670008061806180618061806180618061000033
:102680000000000000000006000600000000003E00
:10269000003E0006000600060006000600060006D2
:1026A0000006000000000000000600060000000018
:1026B000003E003E0006000600060006000600067A
:1026C0000006000600060046007E003C0000006098
:1026D000006000600060806100630066006C007C48
:1026E0000076006300638061C060000000000000AD
:1026F0000000003E003E0006000600060006000640
:10270000000600060006000600060006000600009F
:10271000000000000000000000000000000080DD5C
:10272000C0FFC0CEC0CCC0CCC0CCC0CCC0CCC0CC14
:10273000C0CC00000000000000000000000000000D
:102740000000006F807F80718061806180618061A6
:1027500080618061806100000000000000000000D6
:10276000000000000000001E003F80738061806157
:10277000806180618073003F001E00000000000047
:102780000000000000000000006E007F8073806188
:102790008061806180618073007F006E00600060F6
:1027A000006000600000000000000000801D803F0D
:1027B000807380618061806180618073803F801D53
:1027C0008001800180018001000000000000000005
:1027D00000000067803F00390030003000300030DA
:1027E0000030003000300000000000000000000059
:1027F000000000000000001E803F80610060007F3C
:10280000803F80018061007F001E0000000000000A
:1028100000000000000800180018007F007F00186A
:1028200000180018001800180018801F800F000002
:1028300000000000000000000000000000008061B7
:102840008061806180618061806180618063807F60
:10285000803D0000000000000000000000000000BB
:102860000000C060803180318031001B001B001BE4
:10287000000E000E00060000000000000000000036
:1028800000000000000080DD80DD80DD0055005587
:1028900000550077007700220022000000000000B1
:1028A00000000000000000000000806100330033E1
:1028B000001E000C000C001E00330033806100007D
:1028C0000000000000000000000000008061806146
:1028D000803100330033001B001B001B000E000E74
:1028E000000E001C007C00700000000000000000D2
:1028F0000000C07FC07F800100030006000C0018AC
:102900000030C07FC07F000000000000800380070F
:1029100000060006000600060006000E001C001C53
:10292000000E000600060006000600068007800371
:102930000006000600060006000600060006000667
:102940000006000600060006000600060006000657
:10295000000600060038003C000C000C000C000CC7
:10296000000C000E00070007000E000C000C000C0D
:10297000000C000C003C00380000000000000000CB
:102980000000000000008038807F00470000000049
:1029900000000000000000000000000038B5040046
:1029A00001D1012032BD00F087F918B900F0F0FB29
:1029B00000F046FE6EE090F83D10012901D00120A4
:1029C0007047022180F83D10DFF8B422016891427F
:1029D00018BFB1F1804F17D0DFF8A82291421CBF79
:1029E000DFF8A43299420FD0DFF8A02291421CBF39
:1029F000DFF89C32994207D0DFF8982291421CBF41
:102A0000DFF89432994205D1896801F0070106295F
:102A100004D001680A6842F001020A600020704791
:102A200090F83D10012901D001207047022180F863
:102A30003D100168CA6842F00102CA600168DFF80F
:102A40004022914218BFB1F1804F17D0DFF83422F5
:102A500091421CBFDFF8303299420FD0DFF82C22B0
:102A600091421CBFDFF82832994207D0DFF82422B8
:102A700091421CBFDFF82032994205D1896801F0EC
:102A80000701062904D001680A6842F001020A60C1
:102A90000020704702206870211D206800F092FB22
:102AA0000120A872A870E87028716871A871E87197
:102AB000287268726870002032BD05460C4628688E
:102AC000002200F00ABD38B5040001D1012032BD5A
:102AD00000F0F2F818B900F05BFB00F09EFDD9E7BA
:102AE00010B5044604F13E0009B9027807E0042954
:102AF00008BF427803D008290CBF8278C278012A27
:102B000001D0012010BD11B9022202700AE004298F
:102B100002D10222427005E0082907BF022282701A
:102B20000223C3702068012200F0D7FC00F02BF8CC
:102B300018BF884200F02EF818BFB0F1804F12D0B5
:102B400000F01DF81CBFDFF8403198420BD000F0B8
:102B500012F818BF884206D000F066F81CBFDFF8F4
:102B60003821904203D100F05AF802D0206800F0DA
:102B700072F8002010BDDFF8142190427047DFF892
:102B80000421904270472068DFF8F420DFF800113C
:102B90009042704703D1436C43F400434364206880
:102BA0009042704770B5FFF788FF00F02AF81CBF0D
:102BB000DFF8DC60B04200F058F806D1036A134237
:102BC00004BF036A0B4200F055F800F016F804BF8A
:102BD000006A084200F01AF814B9012101700AE0F5
:102BE000042C02D10121417005E0082C07BF01210E
:102BF00081700122C270002070BD2868036A1342F0
:102C000070472868DFF878309842704704D1296807
:102C1000086840084000086005F13E007047806881
:102C200000F00700062870471A498842704720685C
:102C3000C26842F0100270472068C26842F0020287
:102C400070472068C26842F0080270472068C26876
:102C500042F004027047016841F0010101607047D1
:102C60000446002504F13E00704740F2444141F221
:102C70001112704703D1436C23F40043436470473F
:102C8000000001400004004000080040000C00402B
:102C900000040140004001400018004038B5040025
:102CA00001D1012032BD00F007F818B900F070FA28
:102CB00000F050FDFFF7EEBE04F13C056878704768
:102CC000C2600122206800F008BC38B5FFF7C8FFD9
:102CD00011B9027803790AE0042902D142784379D4
:102CE00005E0082907BF82788379C278C379012A71
:102CF00008BF012B01D0012032BD19B90222027098
:102D000002711BE0042905D1022242704271FFF7D3
:102D10009DFF15E0082905D1022282708271FFF71C
:102D200090FF0DE00222C270C271080006D0042993
:102D3000EDD00829F3D00C2924D026E0FFF77CFF42
:102D4000FFF7BEFF00F02FF818BFB0F1804F14D08E
:102D500000F025F81CBFDFF85C2090420DD000F099
:102D60001AF81CBFDFF84820904206D0FFF75CFF3E
:102D70001CBFDFF84420904209D1FFF750FF08D074
:102D8000206804E0FFF753FFDAE7012501E0FFF7D1
:102D900062FF284632BDDFF8241088427047DFF812
:102DA0002010884270472068DFF81810884270476A
:102DB000000401400008004000180040000C0040E2
:102DC000000400400000014010B50446206801697D
:102DD0008A0715D5C1688A0712D56FF00201016113
:102DE00001222277806910F0030F204602D000F004
:102DF000B3FC03E001F07AF800F087F800202077B8
:102E0000206801694A0715D5C1684A0712D56FF0D5
:102E10000401016102222277806910F4407F20467C
:102E200002D000F099FC03E001F060F800F06DF8CA
:102E300000202077206801690A0715D5C1680A07B4
:102E400012D56FF00801016104222277C06910F0E9
:102E5000030F204602D000F07FFC03E001F046F8AB
:102E600000F053F80020207720680169CA0615D5C4
:102E7000C168CA0612D56FF01001016108222277DD
:102E8000C06910F4407F204602D000F065FC03E0EA
:102E900001F02CF800F039F8002020772068016953
:102EA000CA0708D5C168CA0705D56FF001010161DD
:102EB000204600F0C4FF206801690A0608D5C168F1
:102EC0000A0605D56FF080010161204601F00FF878
:102ED000206801694A0608D5C1684A0605D56FF021
:102EE00040010161204601F003F8206801698A066B
:102EF0000AD5C1688A0607D56FF020010161204616
:102F0000BDE8104000F0F5BF10BD204600F0F2BF54
:102F1000F8B500F0D8F801D10220F2BD012084F804
:102F20003C007AB9F36872683168206800F043FAAF
:102F30002168886920F00C0088618A69B0680243C2
:102F40008A615DE0042A10D1F368726831682068F4
:102F500000F089FA2068816921F44061816181690A
:102F6000B26841EA022181614AE0082A21D1216840
:102F7000F068726833681C311B024F6827F4807751
:102F80004F6003F420630F68D1F804C0BF0842EA21
:102F9000870260F307122CF420600A6003434B6041
:102FA000086820F00C0008600A68B06802430A60F4
:102FB00026E00C2A23D12068F168726833681C303F
:102FC0001B03476827F48057476003F420430768D2
:102FD000D0F804C027F4407747EA022761F30F379F
:102FE0002CF4204107600B434360016821F44061E9
:102FF00001600268B16842EA0122026000E0012536
:1030000000F001F8F2BD002084F83C00284670472B
:1030100070B500F058F801D1022070BD012084F88D
:103020003C0032B1042A15D0082A25D00C2A34D00D
:1030300045E0206800F011F92168886940F0080037
:103040008861886920F0040088618A6930690243D8
:103050008A6135E0206800F02CF92068816941F42C
:1030600000618161816921F48061816181693269D6
:1030700041EA0221816123E0206800F04AF92168D9
:10308000C86940F00800C861C86920F00400C86140
:10309000CA6930690243CA6112E0206800F068F929
:1030A0002068C16941F40061C161C16921F4806196
:1030B000C161C169326941EA0221C16100E00125B3
:1030C000FFF7A1FF70BD0446002594F83C000128DD
:1030D0000E46704770B5064606F13C050024287878
:1030E000012801D1022070BD0120287002226A70DF
:1030F000DFF8240332689368034093600868020095
:1031000018BF102830D0202818BF30282CD04028D5
:1031100026D0502819D060281BD0702806D0B0F5D2
:10312000805F27D0B0F5005F07D022E000F02BF8D9
:103130003068816841F0770105E000F024F83068DC
:10314000816841F48041816014E000F018F850215A
:103150000BE0CA684968306800F09BF9602104E020
:1031600000F00DF8402100E00146306800F0A3F9BE
:1031700000E001240120687000F00AF870BDCA6800
:103180004968306860E1CB684A68896830689AE1CC
:1031900000212970204670470246002031B10429E1
:1031A00007D0082908D00C2909D070471068406B57
:1031B00070471068806B70471068C06B704710686C
:1031C000006C7047F0B5954C0568954B954E964F41
:1031D000DFF858C2A04218BFB0F1804F07D0604559
:1031E00018BFB84203D0B04218BF98420DD14A6808
:1031F00025F070051543A04218BFB0F1804F17D0DD
:1032000060451CBFB842B04212D098421CBF884AE9
:1032100090420DD0874EB0421CBF874A904207D0E3
:10322000864EB0421FBF864A9042864EB04203D1BE
:10323000CA6825F4407515434A6925F08005154391
:103240000560A0428D68C5620A68826212BF98421A
:103250000969016301224261F0BDF0B5026A6F4F56
:10326000520852000262066A446885690B688A68DF
:1032700025F0730526F002061D431643684BB8423D
:1032800018BF984207D1CA6826F008061643B8420C
:1032900026F0040601D0984205D14B698A6924F4CE
:1032A00040741C431443446085614968416306626D
:1032B000F0BDF0B5026A594E22F010020262B0422F
:1032C000056A436884690A6824F4E64444EA0224EF
:1032D0008A6825F0200545EA0215514A18BF904238
:1032E00008D1CF6825F0800545EA0715B04225F0E2
:1032F000400501D0904206D14E698A6923F44063AB
:10330000164343EA8603436084614968816305622A
:10331000F0BDF0B5026A22F480720262056A436869
:10332000C4698E680A6825F4007524F0730445EAC0
:1033300006251443394E3A4AB04218BF904208D18C
:10334000CF6825F4006545EA0725B04225F480657D
:1033500001D0904206D14E698A6923F44053164346
:1033600043EA06134360C4614968C1630562F0BD66
:1033700070B5026A294E22F480520262B042046A99
:103380004268C3690D6823F4E64343EA05238D6868
:1033900024F4005444EA05341CBF214DA84204D152
:1033A0004D6922F4804242EA85124260C361496855
:1033B0000164046270BDF0B5046A184E64086400CC
:1033C0000462B0428469056A18BFB0F1804F11D021
:1033D000164EB0421CBF144FB8420BD0114EB04233
:1033E0001CBF0F4FB84205D0114EB0421CBF134F47
:1033F000B84203D1A40842EA840201E044F0010289
:1034000063F3071225F00A0501F00A0182612943DE
:103410000162F0BD000000008800FFFF00000140D5
:1034200000040140000C004000080040000400407F
:1034300000400140004401400048014000180040A5
:10344000001C00400020004010B5036A046A6408B4
:103450006400046223F00A03846924F0F00444EA5F
:103460000214846144E030B5046A24F0100404625C
:1034700009018469056A24F4407444EA022463F370
:103480000F3425F0A00501F0A001846129430162F9
:1034900030BD10B5036A23F0100303628369046A28
:1034A00023F4704343EA023324F0A004836144EA26
:1034B0000114046210BD826822F07002114341F0D1
:1034C00007018160704710B5846824F47F4421436C
:1034D000114341EA0321816010BD10B501F01F01C5
:1034E000036A01248C40A343036202FA01F1036AD8
:1034F0001943016210BD000082B00020009000223C
:103500008948416841F480414160416801F480414B
:103510000091009900920F21036843F080530360EB
:10352000006800F08050009000986FF0010002B039
:1035300000F0FCBC38B586B000F0C7F821687B48C5
:1035400081423DD100227A487A4D0092416941F48E
:1035500080714161416901F480710091009900928C
:103560000221036843F001030360032200F0D0F856
:1035700001A900F00DFD7048286000216960E96034
:103580004FF400604FF48061686129614FF48070EE
:1035900000224FF40051E861AA60A9612A626A62C0
:1035A000284600F0F1FD08B100F09EFCA563AC6375
:1035B00000220521122000F0B9FC122000F0D3FCFB
:1035C00007B030BD10B586B000F07FF821685C48C8
:1035D000814220D10022564C00921222206840F0F5
:1035E00002002060216801F002010091C02100F07A
:1035F00065F8032204210591049201A900F0C8FC9A
:1036000000200090216941F400112161206900F43B
:1036100000100090009806B010BD81B000684A49C3
:1036200088420BD1002240480092016841F002011B
:103630000160006800F002000090009801B070473F
:1036400010B586B000F041F82168404A38489142F0
:1036500024D100210091026942F00402026100229B
:10366000016901F004010091009900924FF480710A
:10367000036843F0020303600222006800F00200C6
:10368000009000F01BF800F03DF8002205211E20FC
:1036900000F04CFC1E2000F066FC0DE02C4A91422C
:1036A0000AD100210091426942F002024261406960
:1036B00000F002000090009806B010BD009821486C
:1036C00001910292002103917047044614220021C7
:1036D00001A800F009BF10B586B0FFF7F6FF21681A
:1036E000194881420CD1002211480092022201683F
:1036F00041F001010160402100F00AF800F002F8F9
:1037000006B010BD04910221059101A900F040BC52
:10371000006800F0010000900098084801910292B2
:103720000021039170470000403802400020014012
:1037300030380240BC4E00201064024000000240BD
:103740000054004000040240000400400008004013
:103750000004014070470000F8B50546287F0428A2
:103760004AD1DFF8E846207888B908212846FFF7D3
:1037700013FDE060002329680A6A22F420620A62CD
:1037800001200A6A42F400720A624B6233E00821A7
:103790002846FFF701FD0021261D04EB4102D388D6
:1037A00026F81130491C0129F7DD81B23A2291FB3C
:1037B000F2F1218100220021231DCEB233F81670D0
:1037C000491CD219CEB2022EF7DD0321B2FBF1F172
:1037D0001F29DFF8B8662CBF1E230B46B385A161F5
:1037E000626120610020296848620A6A22F420622E
:1037F0000A620A6A0A622070F1BD2DE9F8438AB0B4
:1038000000F07CFE00F0A9F9142101A800F090FE60
:103810000020DFF83C46DFF83C66DFF83C560090BD
:10382000216841F0010121600021206800F00100C1
:103830000090009800912021226842F0020222604C
:103840000022206800F0020000900098304600F04E
:103850007AFC00220221284600F075FC202101910B
:103860000122002103910491029201A9304600F047
:103870008FFB012202920221019103910022049206
:1038800001A9284600F084FB4FF46040002101901C
:1038900002910391284601A900F07AFBDFF8BC15DC
:1038A000DFF8BC55DFF8BC056960286000224FF4E2
:1038B0008041AA60EA6029616A61AA61EA612A62BC
:1038C000284600F039FE08B100F00EFB0021CDE9DA
:1038D000001102A81C2100F02BFEDFF88C056865A2
:1038E0001F21A9650020E86542F210716866E8664C
:1038F000296605F15400FFF7E6F808B100F0F4FA84
:1039000000210091019105F15400694601F07AF817
:1039100008B100F0E9FA60210291002203920492BA
:10392000069202A905F15400FFF772FB08B100F0FE
:10393000DBFA05F15400FFF7CEFE02A800210022B9
:103940000023002680E84E00CDE90012DFF81C6558
:10395000DFF81C1531600F207060B2604FF6FF7702
:1039600032617261B261F7603046FFF717F808B153
:1039700000F0BAFA4FF48058CDF8088002A930461A
:10398000FFF7A8FB08B100F0AFFA00210091019108
:103990003046694601F036F808B100F0A5FA00207B
:1039A00000900022216841F48001216005212068F7
:1039B00000F48000009000240098382000F0B6FA4F
:1039C000382000F0D0FA684600210022002380E869
:1039D0001E00DFF8A004DFF8A044DFF8A014A06206
:1039E00021600120E06160616260A2602261227654
:1039F00084F82020E262E26084F83020204601F062
:103A000047F808B100F070FA012000900190002200
:103A100002926946204601F02DFA08B100F064FADE
:103A200006A80021002200238C4680E80E1002A880
:103A300080E80E10CDE9001205F19C090F20DFF897
:103A40004014C9F80400C9F80010C9F80820C9F8E2
:103A50001020C9F81820C9F80C704846FEF79EFFE0
:103A600008B100F041FACDF8188006A94846FFF7E2
:103A700031FB08B100F038FA4846FFF70FF908B1FA
:103A800000F032FA0021009101914846694600F0A9
:103A9000B9FF08B100F028FA002101220291039237
:103AA00004910591082202A94846FFF731FA08B1AE
:103AB00000F01AFA002105F15400FFF711F8304622
:103AC000FEF779FF08214846FFF7FFF80122DFF8EB
:103AD000B413204601F036F901F0C6FA002001F0D7
:103AE00003FC01F0AEFCDFF8E8430FF2F1002246E0
:103AF000002101F0D0FCC9F8480004F124020021A3
:103B00000FF2F50001F0C7FCC9F84C0004F14802BF
:103B100000210FF2E51001F0BEFCC9F8500004F1DD
:103B20006C0200210FF2452001F0B5FCC9F85400E9
:103B300004F1900200210FF2492001F0ACFCC9F819
:103B4000580004F1B40200210FF2692001F0A3FC37
:103B5000C9F85C0001F084FCFEE700B593B03421A5
:103B600006A800F0E5FC142101A800F0E1FC00200B
:103B700000900123C448016841F080510160002198
:103B8000006800F0805000900098D24800910268D0
:103B900022F4404242F4804202600222006800F4B3
:103BA0004040009006A80099069210210022099337
:103BB0000A910C9201F00BFD08B172B6FEE70F20DE
:103BC00001900021029103910491059101A801F057
:103BD000ABFE08B172B6FEE713B000BD80B502F0CF
:103BE0001FF9009020219B4800F0B1FA4FF47A7140
:103BF00000F022F9F6E7000070B52DED068B82B0DB
:103C000002F00EF90090B1EE048AFAEE048A9F4E9B
:103C100007E0B4EE689AF1EE10FA33D5B0EE689A88
:103C200030E0B08AB18D96ED12AA401A00EE100A6B
:103C3000F8EEC09ADFED960A706D69EEA0AA02F068
:103C4000F9FA044639EE8A0A0D4610EE100A02F01F
:103C5000F1FA00228F4BFDF787FE8F4A8F4BFDF75D
:103C600083FE22462B46FDF70BFC02F007FB09EE14
:103C7000100ADFED8B0AB4EE609AF1EE10FAC8DBA1
:103C8000B2EE049A39EECA0A10EE100A02F0D2FA25
:103C90004FF03332834BFDF723FD4FF08042824BD0
:103CA000FDF762FE02F0EAFA00EE100ADFED7F0A8D
:103CB000B4EE600AF1EE10FAA8BFB0EE480A9FED2C
:103CC000861AB4EE410AF1EE10FA48BFB0EE480A87
:103CD0007AEE890A70EE800AC6ED130AC6ED129AD2
:103CE00086ED160A86ED159AC6ED14AAC6ED119A50
:103CF00000F0A1F895E7000010B52DED068B82B01D
:103D000002F08EF800909FED6A8B9FED6B9BBAEEF0
:103D100006AA5E4C07E0B4EE4A0AF1EE10FA0DD5A1
:103D200084ED13AA0AE094ED130ADFED650AB4EE00
:103D3000600AF1EE10FAEEDB624AE264E06C02F037
:103D400079FA0022654BFDF7CBFC53EC192BFDF7FC
:103D50000BFE53EC182BFDF793FBFDF7E5FDE0633D
:103D600080B202F0BFFA00F066F8DCE780B502F03E
:103D700057F8009001F0FDFA212100F05DF8F9E715
:103D80001CB502F04DF80090334C01220221204670
:103D900000F0D9F93548006800214162416A0A29DA
:103DA000FCD300220221204600F0CDF9322100F0A0
:103DB00043F8EAE7F8B502F033F800902E4C334DA3
:103DC000298F0122204600F0BDFF002005F13003BD
:103DD00005EB40014A8E23F81020401C0128F7DD36
:103DE000288FA8860026002005F13001C2B231F8E4
:103DF0001230401CF618C7B2022FF7DD0322B6FBC3
:103E0000F2F26A87688FFDF7A1FD00222E4BFDF7C5
:103E1000ABFD00222D4BFDF7A7FD02460B4600200F
:103E20002F49FDF7EBFBFDF7FDFAA8822E64642114
:103E300000F002F8C4E74B21684601F02ABF006891
:103E40002849884208BF02F06FBA704754500020DA
:103E5000303802400000024000040240A086010009
:103E6000244D00200054004000040040644F002016
:103E7000000401400100000F1C4F00200020014001
:103E80000008004048000020403802401000002098
:103E90009A99993F0000E03F333333F351B88E3F96
:103EA000010020413333B33F3333E33F0100484245
:103EB00000000000004887400000000000002E4085
:103EC00001003041000030410000303F000036402A
:103ED000C879000800700040000048C20000264079
:103EE000000039400010004072B6FEE7704770478E
:103EF00070477047704700000901020002D41F4854
:103F0000815470471E4B02F00F021A4402F8041C41
:103F100070471C4B19684FF6FF020002114000F475
:103F2000E0600843184908431860704770B5154BA6
:103F30001C68C4F302230124C3F10705052D2EBF1D
:103F40000F2504FA05F56D1E1E1D072E34BF002334
:103F5000DB1E2940994004FA03F3BDE870405B1E64
:103F60001A401143C8E7010007D4012200F01F01E5
:103F7000064B8A40400943F82020704700E400E0E7
:103F800018ED00E00CED00E00000FA0500E100E0B3
:103F90002DE9F84F0D4600267149724A0F23044659
:103FA00001202F68B04000EA0708804540F0C58036
:103FB0004FEA460C032707FA0CF76FEA070E6F6803
:103FC00007F00309B9F1010F1CBF07F00307022F27
:103FD00012D1A768D5F80C900EEA070709FA0CF978
:103FE00049EA0707A760676827EA00006F68C7F318
:103FF0000017B74038436060B0002F7907F003071F
:10400000032F21D0E768D5F808900EEA070709FAD0
:104010000CF949EA0707E7602F7907F00307022F39
:1040200012D1F70804EB870700F01C09D7F820A08D
:1040300003FA09FB2AEA0B0AD5F810B00BFA09F9C2
:1040400049EA0A09C7F8209027680EEA070E2F7977
:1040500007F0030707FA0CF747EA0E0727606F68B7
:1040600017F4403F69D0002700974FEA960C176875
:1040700047F48047176000F00C00176807F480478A
:10408000009703FA00FE009F374F57F82C7027EA7D
:104090000E0E364FBC4208BF00271DD0344FBC4225
:1040A00008BF012718D0334FBC4208BF022713D0E6
:1040B000314FBC4208BF03270ED0304FBC4208BF6F
:1040C000042709D02E4FBC4208BF052704D02D4F2E
:1040D000BC420CBF0627072707FA00F0224F40EA30
:1040E0000E0047F82C006FEA08000F6800EA070C82
:1040F0006F68FF0348BF48EA0C0CC1F800C04F6866
:1041000000EA070C6F68BF0348BF48EA0C0CC1F80F
:1041100004C08F6800EA070C6F68FF0248BF48EAD6
:104120000C0CC1F808C0CF6800EA070C6868800270
:1041300048BF48EA0C0CC1F80CC0761C0F2E7FF665
:104140002FAFBDE8F18F02B9090481617047426960
:1041500001EA0203914341EA034181617047000093
:10416000003C014044380240083801400000024051
:104170000004024000080240000C0240001002400F
:10418000001402400018024070B5044602F0D4F852
:1041900006460CB9012070BD04F134050220687098
:1041A00000212970206802685208520002602268CB
:1041B0001068C1070AD502F0BFF8801B0628F6D3A5
:1041C0002020286203216970032070BD1368DFF886
:1041D000900261680340A0680B43E16803432069D3
:1041E0000B4361690343A0690B43E1690343206A00
:1041F0000B43616A0343042903D1E16A206B0B433B
:104200000343136023685A69606AD208042840EAAD
:10421000C2020AD1A66AE16A324331B1A06988B903
:10422000002E18BF022E1FD016D35A61204600F070
:1042300043F9A96A3F228A40826000202862012156
:10424000697070BDB0F5005F0AD1032EEDD8DFE8CC
:1042500006F00D0B0D03E8E7B1F1C07FE5D105E0F5
:10426000022E03D9F61EE0D1C801DED54021296215
:104270000120687070BDF8B5044604F134060025CD
:104280003078776A012801D10220F2BD0120307018
:10429000707801281CD1022070703562204600F031
:1042A000FBF8B06A3F2101FA00F0B86020680168AD
:1042B00041F016010160F06820B12068016841F00A
:1042C000080101602068016841F00101016001E01E
:1042D000357002252846F2BD2DE9FC41044604F163
:1042E000340600205F4900904FF41650776A0A6840
:1042F0003D68B2FBF0F8B06A082100F0B6F80ED0C5
:104300002068026853070AD5026822F0040202609E
:10431000B06A8140B960316A41F001013162B06A2E
:1043200025FA00F1CA070BD521684A69110607D59D
:10433000012202FA00F0B860306A40F002003062F8
:10434000042100F091F808D021680A68930704D589
:10435000B860306A40F004003062102100F084F848
:104360001BD021680A68130717D5B8602068016858
:104370004A0307D5006801030BD5716969B120466E
:1043800088470AE00168CA0503D4016821F00801E2
:104390000160F16809B120468847B06A202100F029
:1043A00064F83FD021680A68D3063BD5B86020681E
:1043B000717805291CD1026822F01602026000F013
:1043C00058F8F068002804BF7069002801D000F098
:1043D0005CF83F22B06A8240BA600121717000200F
:1043E000F1693070002939D02046BDE8FC4108470A
:1043F00001684A0307D5006801030FD4316989B108
:10440000204688470EE00168CA0507D4016821F0FC
:10441000100101600120707000213170B16809B194
:1044200020468847306AC8B1306AC10710D50520D8
:10443000707000F024F80098401C8045009003D371
:1044400020680168CA07F6D401207070002131701D
:10445000B16919B12046BDE8FC410847BDE8F381C8
:104460003F8010F084000020B06A01FA00F005429D
:1044700070472068416921F08001416170472068E0
:10448000016849084900016070472068016821F00F
:10449000080101607047000030B50468256825F404
:1044A0008025256063608068402802D1A260E160B9
:1044B00030BDA160E26030BD30B501461823086808
:1044C00007A400F0FF02103AB2FBF3F2800AA55CE9
:1044D000CD658002042A28BF001D886530BD00001C
:1044E000000610160006101610B5044610460A46BF
:1044F0000146204601F026FF204610BD80B50B483E
:10450000016841F400710160026842F48062026057
:10451000016841F4807101600320FFF7FAFC0F206D
:1045200001F01AFFFEF7E8FF002002BD003C024048
:10453000002201F053BF0000F8B5040025D004F1BB
:104540003C05697821B9002028702046FFF73AF829
:1045500024216970206802685208520002602068B5
:10456000016841F4004101602068026822F40042C1
:10457000026001F05FFA01466068DFF86C22904249
:1045800005D2DFF86832994205D20120F2BDDFF88A
:1045900060028142F9D32068DFF858324668B1FBE7
:1045A000F3F3B60943EA861646602668376A606800
:1045B000904206D34FF4967043434FF47A70B3FBA6
:1045C000F0F35B1CBF0943EA87133362491E23687B
:1045D000DE696768974206D27F0000F043F804293D
:1045E00013D2042111E0A06820B907EB470700F0BF
:1045F00039F805E01920474300F034F841F48041D0
:1046000008050CBF012141F40041DFF8EC01064030
:104610000E43DE6122681368E169206A23F0C0035B
:104620000B43034313602268DFF8D00193682169CC
:104630000340E0680B43034393602168CA68A369A1
:104640006069120A034343EA0222CA6020680168D3
:1046500041F0010101600020686020216970206341
:10466000A870F2BDB1FBF7F1491CC1F30B01704713
:104670002DE9F84304460E461546994601F05CFEC6
:1046800000F0C6F808D1CDF8008019230122DFF828
:10469000701100F0DFF800287DD1387801287AD039
:1046A0000121397000F0BFF821207870102100F04E
:1046B0008BF82085DFF84C01E062E16A082918BF19
:1046C000012904D081421CBF206B122801D100F0C7
:1046D000B8F8CDF800800022089D2B4600F0B8F80D
:1046E00038B120680168CA054ED54FF40070786073
:1046F0004AE02069B0F5804F08BF06F0FE0610D0F2
:10470000F109206801F0060141F0F0010161434622
:104710002A46DFF8F410204600F0D0F8002833D104
:10472000F6B22068DFF8E410066143462A462046C8
:1047300000F0C4F8002827D100F070F889690091D2
:10474000009A208D002821D04246294600F08CF89E
:10475000A8B900F02DF8401E208521684A6953074A
:1047600006D580B220B1606A02780A6100F016F8BE
:1047700042462946204600F00EF90028E1D078682C
:10478000042801D100F069F8012005E000F065F887
:1047900000F022F800E00220BDE8F283606A411CCC
:1047A0006162608D411E6185208D411E21857047AB
:1047B000606A226801781161606A411C6162608DE3
:1047C000411E6185208D7047B97000207860656258
:1047D000A4F82A90608D7047202078700021B9706D
:1047E0000020387070470000A186010080841E0000
:1047F00000093D0040420F000030FFFF007CFFFF3A
:10480000020010000000FFFF08000100020001008C
:1048100004F13C0780467878202870470090216892
:104820004A690092704720680268D10703D4026881
:1048300042F0010202602068016821F40061016019
:1048400070472068016841F4807101607047002260
:104850004FF00111204600F009B82068016841F4CA
:104860000071016070474146204669E02DE9F04142
:10487000069F05460E4690461C4631022868090EE2
:1048800001290CBF40698069304080B2B1B28842D2
:104890000CBF0120002040450DD114F1010FECD0D8
:1048A00001F04AFDC01B844201D3002CE5D100F089
:1048B00064F8012000E00020BDE8F081F8B505466D
:1048C0000E4614461F463102090E286801291AD1E6
:1048D0004169314089B2B2B291421AD04069410572
:1048E00019D5286800F025F82A685061002105F1E3
:1048F0003C002963202242708170426842F0040229
:104900004260017013E08169314089B2B2B29142D4
:10491000E4D10020F2BD14F1010FD4D001F00CFD60
:10492000C01B844201D3002CCDD100F026F8012019
:10493000F2BD026842F4007202606FF4806070475A
:1049400070B505460C46164628684169080612D41B
:10495000284600F03DF808B1012070BD14F1010FA8
:10496000F2D001F0E9FC801B844201D3002CEBD192
:1049700000F003F8F0E7002070BD0020286320213C
:1049800005F13C00002241708270416841F0200135
:1049900041600270704770B505460C46164628689F
:1049A0004169480712D4284600F012F808B10120E6
:1049B00070BD14F1010FF2D001F0BEFC801B8442E7
:1049C00001D3002CEBD1FFF7D8FFF0E7002070BD3A
:1049D00010B501684A6953050DD56FF480644C61C8
:1049E000002101633C30202343708170436843F011
:1049F00004034360017012F4806018BF0120C0B24C
:104A000010BD000070B500F13C031A78012A01D1F5
:104A1000022070BD01221A7002245C7005686E6865
:104A2000AC680A6826F0700616436E60026811488A
:104A3000824218BFB2F1804F11D0114882421CBF90
:104A4000104DAA420BD00D4882421CBF0E4DAA4207
:104A500005D0094882421CBF0C4DAA4204D14868C7
:104A600024F08004044394600121597000201870E0
:104A700070BD00000000014000400140000C0040FB
:104A800000040040000800400004014000180040FD
:104A900070B5044600250CB9012070BD04F1300644
:104AA000306920B92046FEF745FD756135733069E0
:104AB000C10600F192803069DFF8001520F48850BB
:104AC00040F002003061086820F4403008600A6855
:104AD000606802430A602068416821F48071416087
:104AE00020684168226941EA0221416020684168EA
:104AF00021F04071416021684A68A06802434A6021
:104B00002068816821F40061816021688A68E0681A
:104B100002438A602068A16ADFF8A4249142816878
:104B200021F0706181600CD021688A68A06A02431C
:104B30008A6000F05BF821688A68E06A02438A6054
:104B400001E000F053F82068816821F0020100F0D4
:104B500049F8227E41EA4201816094F820002168F0
:104B6000002848680FD040F4006048602068416821
:104B700021F46041416020684168626A521E41EA46
:104B80004231416002E020F4006048602068C16A60
:104B900021F47001C1622068C16AE269521E41EAD3
:104BA0000251C1622068816821F4007100F01AF896
:104BB000327841EA422100F015F821F4806100F0DA
:104BC00011F8626941EA822181607561316921F0E1
:104BD000020141F00101316100E001250020307344
:104BE000284670BD816020688168704720688168B0
:104BF00021F0405181607047126802F01F02102AB4
:104C00007047016841F0804101607047816841F060
:104C100080418160704738B50446206801680246CB
:104C20008907506829D5800627D5216CC80603D48A
:104C3000216C41F400712164916811F0405F04BF60
:104C4000207E002812D1D06A10F4700F02D0916833
:104C500048050BD4506820F020005060206C20F4F0
:104C600080702064206CC10400F066F8204601F0DA
:104C7000CEFB21686FF0120008602268116850684E
:104C8000490730D500062ED5216CC80603D4216C07
:104C900041F400512164916811F4401F1CD1916BC3
:104CA00011F4401F02D09168480515D450684105A1
:104CB00012D4916811F0405F04BF207E00280BD110
:104CC000506820F080005060206C20F480502064F8
:104CD000206CC10500F030F8204601F099FB2168F6
:104CE0006FF00C000860206802684168D2070FD599
:104CF00049060DD50068C1070AD5206C40F4803004
:104D00002064204601F085FB21686FF001000860F7
:104D100020680268416892060DD549010BD5626C86
:104D200042F0020262646FF020050560204601F047
:104D300071FB2068056031BD03D4206C40F0010098
:104D400020647047F8B50446002004F13C0300904D
:104D50001D78012D01D10220F2BD012018702068BC
:104D60008568EE070DD485689B4E45F0010585608A
:104D70009A480568B5FBF6F606EB4606009600F085
:104D800015F920688568EE0503D5856825F48075DA
:104D900085602568A868C60762D55F688C480740AB
:104DA00047F480775F606868450505D5586820F44A
:104DB000005040F4805058605868C50446BF986859
:104DC00020F006000020986000251D70A36B0FF2F4
:104DD0001520D863A36B0FF275201864A36B0FF234
:104DE0007520D8646FF02200256828602068436829
:104DF00043F08063436013462068856845F48075FE
:104E000085600A46206800F14C01A06BFFF733FA79
:104E100020686A4A6F49136813F01F0F16D1884241
:104E20000DD06849884204D1126812F01F0F1FD1BB
:104E300005E0654988421BD1FFF7DEFE18D2816884
:104E400011F0405F14D1FFF7E1FE11E0884202BF8C
:104E50005E48016811F0405F0AD1FFF7D2FE07E01B
:104E6000586840F010005860986840F00100986061
:104E70000020F2BD78B502460020009092F83C3048
:104E8000012B01D1022072BD012082F83C000724D1
:104E90000B6810680A2B12D30A3BC56803EB430367
:104EA0009C4025EA0404C460C3680D688C68A5F1C1
:104EB0000A0606EB4606B4402343C3600FE00569CB
:104EC00003EB430304FA03F325EA030303610369D5
:104ED0000D688C6805EB4505AC40234303611F2436
:104EE0004B68072B0CD25B1E456B00F059F84463EE
:104EF000436B4D680C886E1E00F04DF843631BE059
:104F00000D2B0CD2DB1F056B00F04AF80463036B1A
:104F10004D680C88EE1F00F03EF803630CE00D3B7B
:104F2000C56A00F03DF8C462C36A4D680C88A5F1FB
:104F30000D0600F030F8C362264B984226D10C686B
:104F40001E48122C07D1036823F400030360046891
:104F500044F4800404600B68214CA34218BF112B59
:104F600014D1036823F480030360056845F4000549
:104F700005600868A04209D11849174C0B68B3FBBB
:104F8000F4F40A204443009400F010F8002182F861
:104F90003C10002072BD06EB8606B44023437047E8
:104FA00003EB83039C4025EA0404704702E0009869
:104FB000401E009000980028F9D17047042301405A
:104FC0000100000F002101400022014008200140A3
:104FD000FEF9FFFF0020014040420F008400002046
:104FE00012000010816B0A6C12F0500F24D1086C73
:104FF00040F4007008640A68906810F0405F04BFD5
:10500000087E002815D1D06A10F4700F02D0906885
:1050100043050ED4506820F020005060086C20F446
:1050200080700864086CC20403D4086C40F001006E
:105030000864084601F0EBB90A6CD30644BF084681
:1050400001F0E8B9896BCA6C10470000806B01F071
:10505000E2B90000806B40210164426C42F004021E
:10506000426401F0D7B9000080B5AE2200F060F8CC
:10507000202200F05DF8102200F05AF8B02200F073
:1050800057F8C82200F054F800F051F8102200F050
:105090004FF8402200F04CF8812200F049F8FF223E
:1050A00000F046F8A12200F043F8A62200F040F8F4
:1050B000A82200F03DF83F2200F03AF8A42200F0C8
:1050C00037F8D32200F034F800F031F8D52200F0A0
:1050D0002FF8F02200F02CF8D92200F029F8222233
:1050E00000F026F8DA2200F023F8122200F020F86F
:1050F000DB2200F01DF8202200F01AF88D2200F0CB
:1051000017F8142200F014F8AF2200F011F82E2244
:1051100000F00EF8002000F027F800F00CF8DFF89F
:10512000BC010021012301604371012002BD002266
:1051300000217820C1E038B50024DFF8A45104F143
:10514000B002D2B2FFF7F4FFFFF7F1FF1022FFF732
:10515000EFFF802305EBC4124021782000F097F880
:10516000641C082CEBDB31BD00280CBF0022FF22A1
:105170004FF48061DFF8680101F02CB9802800DB72
:10518000704770B540290EDACB08DFF85051DFF8D0
:10519000504100EBC3102B7933B13AB100F00AF85B
:1051A00022EA0101215470BD012AF7D100F002F872
:1051B0001143F7E78D0801EB5576F608225C0123D1
:1051C000A1EBC60103FA01F17047DFF8102110804E
:1051D000518070472DE9F84F0D46DFF800412978DE
:1051E000B4F80080414491468029BFBF61886A7845
:1051F0005218402AA8BF00202FDA00268DF80000A0
:1052000000E0761C6878864222D29DF800106A6819
:105210006788203900FB016032F810A04FF0000BC6
:10522000F71904E0B9F101029241D20F09E02878A0
:105230008345E6D20AFA0BF109040BEB0800F1D51D
:105240004A46B9B280B2FFF799FF0BF1010BEEE7C6
:105250002878404420809DF80000BDE8F28F70B5AA
:1052600004460D46164600E0641C207830B13246F4
:105270002946FFF7AFFF21788842F5D0207870BD2E
:1052800080B50020FFF770FFBDE8014053E730B55F
:10529000C1B08DF80410002104E001AD545C0D4450
:1052A000491C6C709942F8DB64245B1C0146009435
:1052B0009BB200F00EF841B030BD1CB58DF8041063
:1052C0008DF80520642401460094022300F001F8C3
:1052D00013BD01AA0348FFF7CBB9000070500020AE
:1052E0009C450020244D0020F8B5424D040028784C
:1052F000687035D1FFF7C4FF00211220FFF765FF6A
:1053000001223D4940A03D4EFFF7A9FF1421002096
:10531000FFF75BFF012231463EA0FFF7A0FF3848B0
:105320003F21C1811422028214215B20FFF74DFF2F
:105330002FA700F019F823210020FFF746FF0122D4
:105340004FEA060136A0FFF78AFF2E483F21C181B0
:105350002322028223215B20FFF737FF00F004F8AD
:10536000FFF7E9FE2C70F1BD012231463846FFF708
:1053700076BF78B51F4C2078002887B024D1214D06
:10538000298AE8891D4EFFF720FFA87C40B100F074
:105390001FF86946201D01F03FF800F01EF801E0FB
:1053A00000F020F8164D298AE889FFF70EFFA87C47
:1053B00040B100F00DF86946201D01F02DF800F015
:1053C0000CF801E000F00EF8FFF7B5FE08B070BD74
:1053D000AA8A2946684601F02BB801223146684660
:1053E000FFF73DBF0122314605F10A00FFF737BF45
:1053F000636D0000345000200800002000000020F1
:10540000280000201000002044697374616E6365F9
:105410000000000043757272656E743A000000006F
:105420005461726765743A0080B5DFF80401016861
:1054300000F070FE012803D0BDE8014001F0B4B8CF
:1054400001BDEFF3058000B16EE0DFF8E8100868F9
:1054500010B901220A6070474FF0FF30704700001A
:1054600080B5EFF3058000B10FE0DFF8C8000168F8
:10547000012909D1DFF8C01000220A70022303605D
:1054800000F03EFC002002BD02E06FF0050002BD0E
:105490004FF0FF3002BDF8B584B000230393EFF363
:1054A0000583002B3DD103003BD080251826002426
:1054B0005AB3136803B11C4693691BB11E0004D094
:1054C000392E02D21379DF0701D500202AE0536973
:1054D00003B19D08D2F80CC0976887B1BCF15C0F8E
:1054E0001FD31269002A18BF002B1AD001920B4655
:1054F000029700962A46214600F0D0FA10E0BCF14F
:10550000000F04BF1269002A0BD103AB0193009670
:105510000B46AAB2214600F0F0FA012801D0002083
:105520000390039805B0F0BD6FF0050070470000D0
:1055300010E000E0785000201FED00E0002008603F
:1055400000F0FABE2DE95041DFF8CC43DFF8C0632C
:105550006068DFF8C08300F00C00042804D008283D
:1055600004D00C2815D027E0404626E000F027F8AC
:1055700047BFC0F38816A8FB0601C0F38818A6FB36
:105580000801FCF7CBFA2168C1F30141491C49002D
:105590000FE000F014F847BFC0F38816A8FB06011F
:1055A000C0F38818A6FB0801FCF7B8FA2168C1F31C
:1055B0000271B0FBF1F000E03046BDE850810023FD
:1055C000226820684102206802F03F0270472DE9FE
:1055D000F84304001BD02078DFF84063C10718D5DA
:1055E00000F08EF904280DD000F08AF9082802D1C5
:1055F0007068410206D400F083F90C2845D1706828
:10560000410242D53068810303D56068002800F06C
:105610006E812078DFF8087381071FD5B06810F01D
:105620000C0F0DD000F06CF9082802D1706841020F
:1056300006D500F065F90C285CD17068410259D498
:105640003068810703D5E068012840F05081316857
:10565000206921F0F80141EAC00131602178080792
:1056600079D56069DFF8BC12002868D001220A6091
:1056700000F062FE0546706F81076CD400F05CFE9E
:10568000401B0228F7D9032034E16068B0F5803F61
:1056900004D1306840F48030306011E0B0F5A02FC4
:1056A000306806D140F480203060316841F48031A8
:1056B00005E020F480303060316821F480213160D1
:1056C000606858B100F038FE054630688103A0D408
:1056D00000F032FE401B6528F7D3D4E700F02CFE23
:1056E00005463068810394D500F026FE401B6528EE
:1056F000F7D3C8E7E068A8B10121396000F01CFECB
:1057000005463068810705D400F016FE401B0228CC
:10571000F7D9B8E73068216920F0F80040EAC10005
:1057200030609BE7386000F007FE05463168880767
:1057300094D500F001FE401B0228F7D9A3E7FFF73C
:10574000FEFE0546706F810705D500F0F5FD401B94
:105750000228F7D997E7207841075FD5306C0025FC
:10576000C1000AD400950125316C41F080513164AB
:10577000306C00F0805000900098DFF88081D8F8FD
:105780000000C10513D4D8F8000040F48070C8F8B8
:10579000000000F0D1FD8146D8F80000C10506D414
:1057A00000F0CAFDA0EB09000228F5D96BE7A0685C
:1057B000012805D00528306F06D140F0040030677D
:1057C000306F40F0010005E0400840003067306F66
:1057D00020F00400306741F28938A06860B100F021
:1057E000ABFD8146306F810713D400F0A5FDA0EB1F
:1057F00009004045F6D346E700F09EFD8146306F34
:10580000810706D500F098FDA0EB09004045F6D3CE
:1058100039E71DB1306C20F080503064A069002859
:1058200067D0B16801F00C01082938D002282AD1CC
:1058300000F06AF805463068810105D500F07CFD6E
:10584000401B0228F7D91EE7E069216A626A084313
:10585000A16A490840EA8210491E40EA0140E16A13
:10586000226B40EA016040EA02707060012000F0A3
:105870004CF80446306881013BD400F05DFD001B0C
:105880000228F7D9FFE600F03FF8044630688101AE
:105890002FD500F051FD001B0228F7D9F3E60128AF
:1058A00025D07068E26900F48001914202BF00F0E7
:1058B0003F01226A914201BF47F6C0710140626A0E
:1058C000B1EB821F13D1A26A520800F44031521E7C
:1058D000B1EB024F02BF00F07061E26AB1EB026F00
:1058E00002BF00F0E040216BB0EB017F01D001204E
:1058F00000E00020BDE8F2830000000000700040DE
:10590000B06800F00C0070470020386600F014BD4D
:105910000024F40040787D01043802400038024041
:1059200000004742800E47422DE9F04104000F4637
:1059300054D0534E306800F00F00B84202D200F04D
:1059400073F84BD120684F4D810712D5400703D51E
:10595000A96841F4E051A9602078010703D5A8683F
:1059600040F46040A860A968A06821F0F0010143FC
:10597000A9602178C80729D56068012802D1296863
:105980008A0305E0022818BF032803D129688A0189
:1059900003D423E029688A0720D5A968890840EA4A
:1059A0008100A86000F0C8FC8046A868616800F02B
:1059B0000C00B0EB810F09D000F0BEFCA0EB08009A
:1059C00041F289318842F0D303202BE0306800F0A7
:1059D0000F00874204D200F027F801D0012021E017
:1059E0002078410705D5AA68E06822F4E052024316
:1059F000AA602178080706D5A968206921F46041CA
:105A000041EAC001A960FFF79DFDAA681E491F4B2E
:105A1000C2F30312895CC84018601D48006800F09A
:105A20009BFC0020BDE8F0813770316801F00F0168
:105A3000B94270471548174A006813681649C3F3FE
:105A40008222FFE7895CC840704710B50F220260D0
:105A5000104A136803F003034360146804F0F00471
:105A60008460136803F4E053C3601268D20802F440
:105A7000E05202610248026802F00F020A6010BDA3
:105A8000003C024000380240887B0008840000206F
:105A900080000020083802403C7C0008F0B585B04A
:105AA00050260B9D25B986F3118800F05DFAFEE7BC
:105AB0000C9C24B986F3118800F056FAFEE75C27A7
:105AC0000097009F5C2F04D086F3118800F04CFAF9
:105AD000FEE7009E25630026022584F8595004AF96
