:020000040800F2
:10000000200A00208D2B0008792800087B28000892
:1000100000000000000000000000000000000000E0
:100020000000000000000000000000007D28000823
:1000300000000000000000007F2800088128000860
:1000400007170008000000004F2B00085B2B00087A
:100050009D2B00089F2B0008A12B0008A32B000854
:1000600000000000A52B0008A72B0008A92B000802
:10007000AB2B0008AD2B0008AF2B000800000000E0
:10008000B12B0008B32B0008B52B0008B72B0008D4
:10009000B92B0008BB2B0008BD2B0008BF2B0008A4
:1000A000C12B0008C32B0008C52B0008C928000875
:1000B0004D290008D129000838B5040014D02500C6
:1000C00080356868002803D12870200000F024FDE6
:1000D00024206860206801680122914301602000AB
:1000E00000F02EFA012801D1012032BDA06A0028BB
:1000F00002D0200000F0E2FA20684168084A0A4075
:100100004260206881682A2291438160FFE720686D
:10011000016801220A430260200000F035FB32BD75
:10012000FFB7FFFFF1B584B01C008030019040683C
:10013000202870D10D000FD068460280002A0BD015
:1001400080277F0104988068B84207D1049800692D
:10015000002803D1E80701D501205DE0019800786F
:10016000012858D001200199087000260198C66026
:1001700021200199486000F091FD049954310291C9
:1001800069460988029A118069460988029A518055
:1001900004998968B94203D104990969002901D0F9
:1001A00029000025019A1670049E029407000C0095
:1001B00010E021788162641C07E03068002CF8D1DF
:1001C0002988C905C90D8162AD1C300054304188B1
:1001D000491E418030005430408800280AD00298DF
:1001E00000903B0000228021300000F00DFB002831
:1001F000E3D009E030003B00029900910022402149
:1002000000F002FB002801D0032005E02020019926
:100210004860002000E0022005B0F0BDFEB50400FB
:100220002268D069114609689368009325005C35FF
:1002300020230B4001932023034002930026B94B57
:1002400003400FD1029B002B12D0019B002B03D146
:10025000009BDB0000D48CE06969002901D02000FC
:100260008847F7BD009BB04F1F4003D1AF4B0B40F9
:1002700000D17EE0C30706D5CB0504D50123136268
:100280002A6B13432B630422830708D5009BDB07EB
:1002900005D5022327683B622B6B13432B63104267
:1002A00008D0009BDB0705D523681A622A6B02235E
:1002B00013432B6302070CD5019A002A03D1009A3D
:1002C000994B134005D0082223681A622B6B1A43FE
:1002D0002A6380221201104007D0480105D520680A
:1002E0000262286B202101432963286B002836D045
:1002F000029800280AD00198002802D10098C00076
:1003000004D56969002901D020008847286B40275F
:1003100021688968394002D12821014024D0200079
:1003200000F0F8FA20688068074019D0EFF31080D9
:10033000012181F3108821688A6840239A438A60EA
:1003400080F31088286A00280AD079498163286AD6
:1003500000F0E6FC002802D0286A816B8847F7BDD0
:10036000200000F01FFDF7BD200000F01BFD2E63F4
:10037000F7BD2B69012B00D090E01023184200D06C
:10038000194200D18AE013621020C04321688968B5
:10039000490649D5296A0A68526892B2002AE7D00C
:1003A0005C23E35A9A42E3DA6A800968096889069D
:1003B00034D4EFF31081012282F31088226813688D
:1003C0005C4F1F40176081F31088EFF3108101220A
:1003D00082F31088226893680127BB43936081F3FE
:1003E0001088EFF31081012282F31088226893684D
:1003F0004027BB43936081F310882021E9622E617E
:10040000EFF31081012282F31088226813681840EC
:10041000106081F31088286A00F046FC5C20205AA6
:100420006988411A89B235E05C21615A6A88891A63
:100430006A4611806988002972D0694609880029B6
:100440006ED0EFF31081012282F3108822681368C6
:10045000394F1F40176081F31088EFF3108101229C
:1004600082F3108822689368344F1F40976081F3AD
:1004700010882021E9622E616E61EFF31081012264
:1004800082F31088226813681840106081F3108886
:1004900068460188200000F086FCF7BD80235B03DE
:1004A000184207D0009F7F0204D51362200000F09D
:1004B0007BFCF7BDDA00802318420AD00B4002D142
:1004C000009B134005D0A969002929D02000884746
:1004D000F7BD4023184214D00B4012D0EFF3108028
:1004E000012181F3108821680A6840239A430A6039
:1004F00080F310882020A862AE61200000F055FC37
:10050000F7BD024005D04A0003D5200000F04EFCA4
:10051000F7BDC00104D5002902D5200000F047FC3A
:10052000F7BD00000F0800000100001020010004CA
:1005300081090008FFFEFFFFDFFEFFFFFEFFFFEF68
:10054000F8B5050000270024286801688D4A0A4094
:10055000A96811432A690A4369691143EA690A4390
:1005600002604168A04A0A40E9681143416081681D
:100570009E4A0A40A96911432A6A0A438260C16AF5
:100580000F2291436A6A0A43C262994A1021994B29
:10059000984208D110688007800F1ED0022810D022
:1005A00011D303280BE0944B984210D110680C2211
:1005B000024012D0042A06D0082A02D00C2A04D005
:1005C0000CE002210AE0042108E0082106E08B4A41
:1005D000904202D08A4A904200D1002131A6894837
:1005E00080221202EB69934229D1002906D0022908
:1005F00008D004291ED008291FD048E000F0ADFE25
:10060000002845D069680091696A4900715A00F074
:10061000DDFE4000009949084018009900F0D6FE20
:1006200001001039B04A914231D202400007400F18
:10063000104324E000F050FEE2E71000E2E700295A
:1006400006D0022908D004291CD008291DD01EE09C
:1006500000F083FE00281BD069680091696A490098
:10066000715A00F0B3FE009949084018009900F053
:10067000ADFE010010399C4A914208D280B229682F
:10068000C86005E000F028FEE4E71000E4E701247C
:10069000280068300121418001808760C760200008
:1006A000F2BD0000010002000400060008000A007C
:1006B0000C00100020004000800000012821415C57
:1006C000C90706D501684A68884B1340C26A1A43B5
:1006D0004A602821415C890706D501684A68844B35
:1006E0001340026B1A434A602821415C490706D532
:1006F00001684A687F4B1340426B1A434A602821C5
:10070000415C090706D501684A687B4B1340826B40
:100710001A434A602821415CC90606D501688A68E7
:10072000764B1340C26B1A438A602821415C8906CC
:1007300006D501688A68724B1340026C1A438A60BE
:100740002821415C490611D501684A686D4B134068
:10075000426C1A434A60426C80235B039A4205D183
:100760004A68694B1340826C1A434A602821415CF5
:10077000090606D501684A68644B1340C06C1843EB
:1007800048607047F369FFCFF8B50400002580305A
:10079000C56000F083FA07005D4E2068006800071E
:1007A00009D500963B00002280218903200000F03B
:1007B0002BF800280DD12068006840070BD5009663
:1007C0003B0000228021C903200000F01DF8002812
:1007D00001D00320F2BD21008031202048608860D4
:1007E000E5660D700020F2BDFFCFFFFFFFF4FF11A3
:1007F00054100240003801400044004000480040CE
:10080000004C00400024F400FEB5089F8024240121
:100810000025060001916846027002933068C069A5
:10082000019901400198814201D1012000E000209E
:1008300069460978884254D10020C0438742EDD0F0
:1008400000F02CFA0299401A874201D3002F1FD1E1
:10085000EFF31080012181F3108831680A68454B5D
:1008600013400B6080F31088EFF31080012181F3B7
:10087000108831688A6801239A438A6080F310885F
:100880003000803020214160816005700320FEBD72
:10089000306800684007C1D53068C0692040BDD0CD
:1008A00030680462EFF31080012181F31088316811
:1008B0000A68304B13400B6080F31088EFF3108010
:1008C000012181F3108831688A6801239A438A6084
:1008D00080F3108830008030202141608160C16049
:1008E000D3E70020FEBD0000F0FF0000FFFFFDFF8A
:1008F000FFFFFEFFFFFFFBFFFF7FFFFFFFEFFFFF9D
:10090000FFDFFFFFFFFFEFFFFFFF9FFFFFFFF7FF8F
:10091000FFFFFF0110B5EFF31081012282F3108871
:1009200002681368144C1C40146081F31088EFF3C4
:100930001081012282F31088026893680F4C1C40DA
:10094000946081F31088C16E01290BD1EFF31081FF
:10095000012282F31088026813681024A3431360F5
:1009600081F310882021882281500021C16601670F
:1009700010BD00005FFEFFFFDFFEFFFFFEFFFFEF89
:1009800080B5806A0100563100220A810A8000F099
:1009900009FA01BD80B5B648012142680A434260A8
:1009A00042681140009100998021490502680A437C
:1009B00002600068014000910098C020C00000F073
:1009C00051FD01BD38B586B004001422002101A8F4
:1009D00000F056FD20684E4988422DD14D488021B7
:1009E0004903C2680A43C260C2681140009100997D
:1009F000012102680A4302600268114000910099D7
:100A0000022102680A4302600068014000910098D8
:100A100010200190032402940025039501A9A02031
:100A2000C00500F037FD802000010190029403957D
:100A300001A9904800F02EFD07B030BD10B586B07A
:100A400004001422002101A800F01AFD20688A4940
:100A500088421FD102202F4C216801432160216868
:100A6000084000900098C020800001901220029061
:100A70000020039004900620059001A97D4800F015
:100A800009FD80208003A1680143A160A16808409E
:100A90000090009806B010BD70B586B00400142216
:100AA0000021684600F0ECFC2068744988422DD192
:100AB0001848810CC2680A43C260C268114005919F
:100AC00005990126016831430160016831400591B3
:100AD00005990224016821430160006820400590C7
:100AE0000598E02000900194002502950395049557
:100AF0006946A020C00500F0CDFC00960194029547
:100B00000395049569465B4800F0C4FC06B070BDCF
:100B10000024014034100240F8B586B004001422CD
:100B20000021684600F0ACFC236801200422022466
:100B300053490025534EB3421FD18303CE681E4351
:100B4000CE60CE6833400593059B0B6813430B6062
:100B500009680A4005920599302100910194029597
:100B6000039504906946484800F094FC0022002157
:100B70001B2000F076FD1B2076E0A026F605434FF3
:100B8000BB421FD142048B6813438B608B681A40B1
:100B90000592059A0A6802430A60096801400591B6
:100BA00005990C21009101940295039504906946E2
:100BB000300000F06FFC002200211C2000F051FDED
:100BC0001C2051E0324FBB422BD182048B6813436F
:100BD0008B608B681A400592059A08220B681343B4
:100BE0000B600B681A400592059A0A6802430A6076
:100BF0000968084005900598C02080000090019485
:100C00000295039504956946224800F043FCA00331
:100C100000900194029503950520049069463000E8
:100C20001AE01D4EB34221D1C3048E681E438E606C
:100C30008E6833400593059B0B6813430B6009686E
:100C40000A4005920599C02109010091019402957D
:100C50000395049069460C4800F01CFC002200211A
:100C60001D2000F0FEFC1D2000F000FD07B0F0BDCF
:100C70003C1002400004005000540040003001408D
:100C80003410024000380140000800500044004089
:100C900000480040000C0050004C004001484068F3
:100CA000704700BF40040020F0B5002809D00100C3
:100CB000243100222523C35C022B04D00423C36308
:100CC0000A700120F0BD03681C680E25AC431C604F
:100CD000446C334B25681D40256004682568012657
:100CE000B54325602D4C2568AC464025475D1C2545
:100CF0003D400127AF4065462F432760C46C856C9B
:100D00006C60046D002C06D024682340046D2360C1
:100D1000836D446D63602523C6540A700020F0BDC6
:100D2000F8B50021002401262522825C022A03D086
:100D30000421C16301242EE0026813680E25AB4331
:100D4000136002681368B3431360436C144A1D6850
:100D500015401D60114B1D68AC464025475D1C25A4
:100D60003D400127AF4065462F431F60C36C856C33
:100D70006B60036D002B06D01B681A40036D1A6070
:100D8000826D436D5A602522865424228154816BE2
:100D9000002900D088472000F2BD00000400024076
:100DA000FFFEFFFF704770477047704770477047FE
:100DB000FEB507001BD0A84C3878C00719D5A1682C
:100DC00038200840E1688025AD02102808D1880746
:100DD000800F032806D079686808814234D13BE04F
:100DE0000828F8D12068054003D07868002800D191
:100DF000B5E1387880077BD5A06838210140E268EA
:100E0000B948BA4D10294ED19207920F022A4CD000
:100E1000F968002900D196E021680840396901434A
:100E200021602068A10D01432160FFF737FF3E00DC
:100E300007002068400500D57DE0FFF72FFFC01BAD
:100E40000328F6D30320FEBDA022D202914207D18F
:100E5000216882000A43226021680843206007E07D
:100E60002068A349014021602068A2490140216017
:100E7000786800280BD0FFF711FF06002068284093
:100E8000B7D1FFF70BFF801B6528F7D3DAE7FFF731
:100E900005FF060020682840ABD0FFF7FFFE801B4F
:100EA0006528F7D3CEE70029B2D12268520502D5D2
:100EB000FA68002A3ED0626815407A6912022A4315
:100EC000626000290ED12168084039690143216020
:100ED000A448012122689204520F914000F076FA52
:100EE000A1490860A148006800F0E6FB002821D174
:100EF0000225387800070AD5A06838210140182952
:100F000031D1206E284002D0B869002812D038783C
:100F1000400700D4A9E000200190A06838210140DA
:100F2000202942D1E06D054000D19EE0B86800283C
:100F300000D09AE013E16068054070690002284320
:100F400060603700D4E72068894901402160FFF7DD
:100F5000A5FE050020684005CAD5FFF79FFE401B8F
:100F60000328F7D36EE7B8690028206E0ED0012160
:100F700001432166FFF792FE0600206E2840C6D18D
:100F8000FFF78CFE801B0328F7D35BE70121884322
:100F90002066FFF783FE0600206E2840B7D0FFF7DB
:100FA0007DFE801B0328F7D34CE7E806E16B014088
:100FB00008D1E16B0143E163E16B084000900098C8
:100FC000012001906B4D2868C00512D4A00D00903F
:100FD0002868009901432960FFF760FE0600286831
:100FE0000099014005D1FFF759FE801B0328F6D375
:100FF00028E7B8680121012805D00528E06D06D151
:1010000004220243E265E06D0143E16505E08843A7
:10101000E065E06D04218843E0650226B868002899
:101020000CD0FFF73BFE0500E06D304016D1FFF716
:1010300035FE401BA4498842F6D303E7FFF72EFE96
:101040000500E06D304009D0FFF728FE401B9E49A7
:101050008842F6D3F6E600BF00100240019800284F
:1010600003D0E06B99490140E163F869002855D04D
:10107000A16838220A40102A52D08026B60494492A
:101080000228206838D101402160FFF707FE0500E3
:101090002068304005D0FFF701FE401B0328F7D33E
:1010A000D0E6E0688B490140386A0843796A014319
:1010B000B86A00020843F96A0143386B0843E060EC
:1010C0002068710801432160E068F1000143E1609C
:1010D000FFF7E4FD0500206830401FD1FFF7DEFD7B
:1010E000401B0328F7D3ADE6FFC7FFFFFF80FFFFDC
:1010F000FFFFFEFFFFFFFBFF01402160FFF7CEFD7A
:1011000005002068304005D0FFF7C8FD401B0328CC
:10111000F7D397E6E06898490140E1600020FEBD02
:1011200001281CD0E0688107890F3A6A914216D1E4
:10113000702101407A6A914211D1FE21C90101401A
:10114000BA6A120291420AD1F82189030140FA6A6F
:10115000914204D1400F4007396B8842DED0012014
:10116000FEBD00000024F4004C04002048040020D0
:10117000FFFEFFFF00700040F8B5070066D0009149
:101180007E4800684007400F884218D27B4C206898
:1011900007218843009901432160FFF77FFD009DEF
:1011A000060020684007400FA84207D0FFF776FDF1
:1011B000801B45498842F4D30320F2BD009539686D
:1011C000704C022001420CD0490704D5A168E022EE
:1011D000D2010A43A260A168694A0A40B968114372
:1011E000A1600725ED433978C90732D5796801290F
:1011F00018D12068800329D5A06828400143A16048
:10120000FFF74CFD3E000700A068382101407068E0
:10121000C00081421CD0FFF741FDC01B2A49884213
:10122000F2D3C9E7022902D12068800103E0002936
:1012300003D120684005DFD408E0032903D1226EE2
:101240001040D9D102E0E26D1040D5D10120F2BDAD
:1012500037000098494909684907490F884217D261
:101260004648006805400098284344490860FFF755
:1012700015FD009D0600414800684007400FA84248
:1012800006D0FFF70BFD801B0F498842F3D393E78D
:101290003878400705D5A0683B490140F868084305
:1012A000A06000F019F83949A2681205120F9200E7
:1012B000895CC906C90EC8403549086035480068D0
:1012C00000F0FAF9F2BD000089130000FFFFFFEF04
:1012D000FFFFFFFE8C80C11F30B507212F48294C2E
:1012E0003823A2681A4006D123680122DB0A19407C
:1012F0008A4011001EE04208A5681D40082D01D15A
:10130000100030BDA5681D40102D16D1E368E568BA
:101310002D092940491C7F259B079B0F032B00D1DA
:10132000100000F053F8E168090A0D406843E168D5
:10133000490F491C00F04AF830BDA0681840202829
:1013400002D18020000230BDA0680340182B02D1DA
:10135000FA20C00130BD002030BD0F4801680C48A4
:1013600000680F4A4904490F8900515CC906C90E3B
:10137000C840704700000000FCFFFEEF0020024064
:10138000FFF0FFFF00100240FF8FFFFF402A000820
:101390004C04002048040020081002400024F400FF
:1013A000042B0008CA0F00D0494203105A400DD048
:1013B00004B500D3404200F009F8009AD20701D3E7
:1013C0004942124200D5404204BD0000094214D0F7
:1013D00088420FD30122030C01D100041204002320
:1013E00000185B418B4200D35B1A5241F8D31900BD
:1013F0001000704701000020704708B500F082F926
:1014000008BD30B501684118446862088A188368CD
:10141000E40704D54C461B1901E0641C09D1914234
:1014200003D00C7864B2491C01E00C3030BD0D785B
:10143000491C1D705B1C002CEFD4641EF7D5EEE731
:1014400010B500240B480168820D0A430260032096
:1014500000F032F9002801D0012401E0FFF79AFAE8
:10146000200010BD04490A68044B1340184308606B
:10147000704700000020024000000140FFF9FFFF1C
:1014800010B50400080011000200200000F03CF933
:10149000200010BDFFB500220F2302932CE005268B
:1014A00002E05B4FB842FAD1AE402643009C266072
:1014B000584C2568DC4325404E68F60200D51D4394
:1014C000544E3560756825404F68BF0200D51D43F6
:1014D0007560514D6E6826404D68AD0300D51E43C2
:1014E0004D4D6E602E6834404E68F60302D52600DE
:1014F0001C0034432C60521C0B681C00D44079D073
:10150000012595402B40F6D054000327A740FE4309
:1015100001964E68B707BF0F012F03D0B607B60F6D
:10152000022E0ED18768019E3E40CF68A740374308
:1015300087604668AE434D68EF06FF0F974037431C
:1015400047600D79AD07AD0F032D25D0C568019E0D
:101550002E408D68A5403543C5600D79AD07AD0FB0
:10156000022D19D1D508AD0045192E6A03969700B2
:101570001C263E406F463E70039EB446029F6E4658
:101580003678B7406646BE43B4460F696E46367835
:10159000B740664637432F6207680326019D3D40EA
:1015A0004F683740BC4627006446BC402C4304606B
:1015B0004C68350425409ED0184C9508AD00641940
:1015C0000094009C2468D70018253D40029FAF403E
:1015D000BC43A027FF05B84201D1002664E7104FA5
:1015E000B84201D101265FE70E4FB84200D058E75C
:1015F000022659E7FFBD0069084000D00120C0B2B3
:101600007047002A01D081617047816270470000F5
:10161000000C005000180240801802406018024080
:10162000000400500008005010B5C20018231340F9
:10163000FF249C40E2438907090E9940030004D42B
:1016400019489B089B00C01806E0184B0007000FC4
:10165000083880088000181803681A401143016098
:1016600010BD80B5FFF7E0FF01BD0000010005D40B
:101670000121C006C00E81400D480160704710B5C1
:10168000401E80214904884201D3012010BD094C2D
:10169000606003210020C043FFF7C6FF0020A06068
:1016A0000721216010BD000000E400E01CED00E017
:1016B00000E100E010E000E070B5060000240F4DEE
:1016C0002978002916D0FA208000FFF77FFE01005C
:1016D0000B480068FFF77AFEFFF7D1FF002809D119
:1016E000042E07D2002231000020C043FFF7B9FFCB
:1016F000AE6000E00124200070BD00BF4004002067
:101700004C0400207047FEE7094202D0491E4254B3
:10171000FCD17047EFF31081012282F31088026838
:1017200020231343036081F310887047F8B586B017
:10173000FFF786FE00F054FA142200216846FFF7F6
:101740009FFED948016804220A430260016804220E
:10175000114005910599016801220A430260016860
:10176000CA07D20F05920599022102680A43026056
:101770000268114005910599016808220A43026038
:1017800000680821084005900598C84CC84D002203
:1017900021002800FFF735FF00940120019000266A
:1017A0000296039669462800FFF774FE280D009004
:1017B0000196029669460005FFF76CFE282000900E
:1017C0000196029669462800FFF764FEB94FBA48B1
:1017D000F621490078509620800179184860F6205B
:1017E000400038188660F62040003818C660F620A1
:1017F0004000381806610C20F6214900791848612C
:10180000F620400038188661F62040003818C6617E
:10181000F620400038180662F6204000381846626C
:10182000F620400038188662002300220021F620AE
:101830004000381800F036FA002801D000F030FAE5
:101840009E483900643188669620800139006431F1
:10185000C866380064300667380064304667380070
:10186000643086670C2438006430C467E4203E503E
:101870003800E43046603800E43086603800E430F8
:10188000C6603800E43006613800CC30FEF714FC46
:10189000002801D000F004FA00213800CC3000F01C
:1018A00060FA002801D000F0FBF900213800CC30AC
:1018B00000F070FA002801D000F0F2F93800CC30C6
:1018C00000F032FA002801D000F0EAF93800E430E4
:1018D000C049816796218901C167B220400038184C
:1018E000066046608660C460066146618661C661C6
:1018F0000662AE2040003818FEF7DEFB002801D05B
:1019000000F0CEF90021AE204000381800F029FA8E
:10191000002801D000F0C4F90021AE2040003818A2
:1019200000F038FA002801D000F0BAF9AE204000EB
:10193000381800F0F9F9002801D000F0B1F99F2023
:1019400080003818A44901609621890141608660B1
:10195000C660066144618661C6610662466286624F
:10196000FEF7AAFB002801D000F09AF90C22002112
:101970006846FFF785FD994838608020C00578608B
:10198000BE60FE60802000063861042078613E83DE
:10199000BE760120F861202178547E62BE622C213F
:1019A0007E543E637E633C217E54FE64380000F02A
:1019B00056FA002801D000F073F9AA4800900120DF
:1019C00001906946380000F05BFB002801D000F070
:1019D00067F9A54800906946380000F051FB0028DF
:1019E00001D000F05DF9C32080003C189F482060C2
:1019F0009F486060A6600120E06026616661A66184
:101A0000E6612662200000F085FC002801D000F08D
:101A100047F90021200000F0D7FC002801D000F099
:101A20003FF90021200000F0ECFC002801D000F07C
:101A300037F9904890494160822149008160C66031
:101A4000E021C9000161466186618021C902C1614E
:101A5000066246628662C662072101634663082108
:101A600081633800683000F0F5FC002801D000F0F8
:101A700017F91248FFF74EFE5648FFF74BFE0E4887
:101A8000FFF748FE5448FFF745FE380064300090E9
:101A90009F20800038180290F620400038180190EE
:101AA000A025ED0567E000BF341002401050000093
:101AB00000040050A8000020004800400038014009
:101AC0000120009948706D480078002833D06B4998
:101AD0000E706420385C01004031009A9170401C07
:101AE00000990870FA239B000122390066310198A1
:101AF000FEF718FBFA239B00012239006631029899
:101B0000FEF710FB6420385C3B2814DB00990E7054
:101B10000A2000998870FA24A400230001223900C9
:101B200066310198FEF7FEFA230001223900663182
:101B30000298FEF7F7FA52480078012803D150497D
:101B40000E7000F073FD4F480078012803D14D4915
:101B50000E7000F06BFD4C4800F06EFD002802D1C5
:101B6000494800F0FBFC494800F066FD002802D11E
:101B7000464800F069FD46480078002801D04449F5
:101B80000E7044480078002801D042490E70424847
:101B90000078002897D040490E708021C90028465F
:101BA000FFF729FDC0008BD18024E400210028002C
:101BB000FFF721FD800083D121002800FFF71BFDE6
:101BC0004000F8D121002800FFF715FD002800D1C2
:101BD00077E775E700440040004C004000240140D6
:101BE00010B598B0342200210BA8FFF749FC102251
:101BF00000216846FFF744FC1C22002104A8FFF7DF
:101C00003FFC8020800000F053FD02200B90FE304E
:101C10000E9000240F944020109012940BA8FFF710
:101C2000C7F8002801D000F03BF80720009001948D
:101C30000294039400216846FFF79EFA002801D021
:101C400000F02EF815480490059406940794099422
:101C500004A800F053FD002801D000F021F818B0CE
:101C600010BD0000100000100080003C0054004037
:101C70005B3D30000C010020003001405304002087
:101C80000F0000205A05002000040020200400203E
:101C90005004002051040020520400202340000082
:101CA00072B6FEE7F2B5040017001D00002C14D038
:101CB000260080367068002803D130702000FEF7BF
:101CC0002BFF24207060206801680122914301608D
:101CD0002000FEF735FC012801D10120F2BDA06AE9
:101CE000002802D02000FEF7E9FC009821688A68ED
:101CF0008023DB0113438B6021688A68374B1340D4
:101D00001843886020680168354A0A407905114304
:101D10002A040A4302602068016801220A43026023
:101D20002000FEF731FDF2BD30B5010080310A78A8
:101D3000012A01D1022030BD01220A7024224A600A
:101D40000268136814680125AC43146000224266DF
:101D5000244C1C4000680460202048600A70002069
:101D600030BD70B50400250080352878012801D1E8
:101D7000022070BD01202870242068602068066859
:101D8000026801239A43026020688268D200D20868
:101D9000114317E070B5040025008035287801282C
:101DA00001D1022070BD01202870242068602068C5
:101DB0000668026801239A430260206882680A4B21
:101DC000134019438160200000F010F8206806607D
:101DD000202068600020287070BD0000FF7FFFFF9A
:101DE000FFFF00FCFFFFFFDFFFFFFFF1F8B504007E
:101DF000606E002802D10120012517E0206881686B
:101E00000901490F00918068410F00BF0CA600BF77
:101E100009A7785CC000715CFFF7C4FA0500009860
:101E2000385CC0000099715CFFF7BCFA2100683192
:101E30004D800880F1BD0000010101030701000091
:101E4000080402040801010110B504231940436984
:101E500007248C40A3438A401A43426110BDFEB55B
:101E60000500002600200090002D01D10120FEBDBC
:101E70002C0054346068002805D12800FEF7A2FD2C
:101E80000020A060207028688168C90014D481688F
:101E9000724A0A40802149051143816070480068F8
:101EA0007049FFF793FA401C400001E00098401E83
:101EB000009000980028F9D1296888681027C00090
:101EC00007D4606838436060A06801220243A260C2
:101ED0000126886862683A4000D0B9E0400700D522
:101EE000B6E06068604A0240022010436060886883
:101EF000C00772D4286B002801D03A0200E000220B
:101F00002869002802D54000400800E078040190CC
:101F1000A87E6B461870AB68287E800318436B7EE2
:101F2000DB03034368460078400318430243E86834
:101F30001043019A02432C20285C400010432022C9
:101F4000AA5C012A0FD16A461278002A03D1020046
:101F50003803104307E06268202313436360A268DC
:101F600001231343A3606A6A002A05D0E0235B00C3
:101F700013400343A86A1843CA683C4B13401843F4
:101F8000C8606868810F8907E86C08433C21695C78
:101F9000012907D1296C0143686C0843A96C0143EE
:101FA0000120084329680A69314B1340184308612E
:101FB0006868C021090688420FD0494288420CD087
:101FC00080210906884208D02A490B682A4A1A400B
:101FD000F0239B03034013430B606A6B00212868C6
:101FE000FFF732FFAA6B25492868FFF72DFF296903
:101FF0000F20C043002904D129688A6A10438862EF
:102000000CE07A04914209D129688A6AEA69521E71
:102010005207D20E9040E26802438A622868416902
:102020000220C0434907490F6A6B914207D1002142
:10203000A160616808400121014361600CE06168B2
:102040000840074367600126A0683043A06003E0B2
:1020500060680743676001263000FEBDE8FFFF7F30
:102060004C040020400D0300FFFEFFFF0102FEFFB5
:1020700002FCFF1F08270140FFFFC3FF04FFFF070B
:10208000F1B585B000206A46507001900598542241
:10209000805C012801D1022021E105985430029092
:1020A0000125057005980668B068400700D509E16C
:1020B000019105980069039001984068049089494E
:1020C000894A8A4880231B06049C022C039C00D169
:1020D000CEE09C4201D0844207D101980068B46AE6
:1020E0004003400B2043B06280E0019800680F2459
:1020F000470302D14000C50E47E0284244D187077C
:1021000043D40425284201D002253EE0070701D52B
:1021100003253AE0C70638D4850601D5052534E005
:10212000450601D5062530E0050601D507252CE03A
:10213000C50501D5082528E0850501D5092524E038
:10214000450501D50A2520E0050501D50B251CE034
:10215000C50401D50C2518E0850401D50D2514E032
:10216000450401D50E2510E0050401D50F250CE02E
:10217000C50301D5102508E0850301D5112504E02C
:10218000400301D5122500E000250498C006C00ECA
:102190006F4638700298C768BC46684607780F20BB
:1021A000B840674687436846007885403D430298BB
:1021B000C56001984068059DED6987087F1CBD4298
:1021C00014D3019D2D68C006C00E6F463870B76AE3
:1021D000BC46684607780F20B84067468743A80E7C
:1021E00004406846007884403C43B46201988068AB
:1021F000019C2568059C24682D026669AE43284031
:102200003B4D05403543656101980468234061D02A
:102210001368C8431840374B9C4217D180231B04D6
:10222000184257D1146821400843034313603248D1
:1022300000683249FFF7CAF8401C0C21484301905E
:102240000198002846D00198401EF8E72C4B9C428C
:1022500002D180235B0404E02A4B9C423AD18023C4
:10226000DB03184236D1146821400843034327E0BA
:102270009C4201D0844206D101980068B46A4003B0
:10228000400B8443B46201980468234022D0136851
:10229000C8431840174B9C4203D1136819401A4B8E
:1022A0000CE0174B9C4203D113681940174B05E013
:1022B000144B9C420ED113681940154B03400B433D
:1022C000136007E0029840682021014302984160B2
:1022D000684645700020029908706846407806B04C
:1022E000F0BD0000FFFF3FFE082701400400008012
:1022F00000FFFF07001000B04C040020400D030059
:10230000004000B8002000B4FFFF7FFFFFFFFFFE8A
:10231000FFFFBFFF70B5040001D1012070BD250093
:10232000403500266878002803D12E702000FEF783
:1023300085FB2420687020680168012291430160B8
:1023400060681E4901402068016121681C488A6854
:1023500002408A60E1680129A16801D1C24301E01D
:10236000842212020A4321688A60E168022903D1AB
:10237000802109012268516021684A68114B13438A
:102380004B602168CA681040C860206961690143D8
:10239000A069000208432168C860E069216A01431E
:1023A000206801602068016801220A4302606E60B3
:1023B000202068702663AE70002070BDFFFFFFF024
:1023C000FF7FFFFF0080000270B5020040325378AB
:1023D000202B14D14023C35C012B10D00123137098
:1023E00024245470046825689D432560046825688A
:1023F000164E2E4026600468256829431CE0022002
:1024000070BD70B5020040325378202B12D14023AA
:10241000C35C012B0ED00123137024245470046874
:1024200025689D43256004682568094E2E400902F1
:10243000314301E0022070BD2160006801680B4358
:102440000360202050700020107070BDFFEFFFFF70
:10245000FFF0FFFFF8B5040001D10120F2BD822793
:102460007F000025606A002804D16068B84203D06C
:10247000E56101E025616561A56226005C36707842
:10248000002803D135702000FEF706FB0220707093
:1024900020680168402291430160E368E022D20095
:1024A000F0200001934203D90021834204D104E0CB
:1024B00080214901934200D0A562012263681F4038
:1024C000BC46A76884231B023B4067463B439C46AF
:1024D000277C02231F4063461F43636913403B432D
:1024E0009C46A76953021F4063461F43BC46277F93
:1024F00038233B4067463B439C462023E75C8023D0
:102500001F4063461F43BC46A36A57033B406746D0
:102510003B4327683B60A3691F0C04231F40BC4654
:102520002423E35C10273B4067463B439C4634230F
:10253000E75C08231F4063461F43E36818403843A5
:102540000143206841602068C169034B0B40C361AF
:10255000756072700020F2BDFFF7FFFFF0B5354ADD
:10256000937B03240226002101251F0005D0022BA6
:1025700035D010D3032B45D024E0917344684678BE
:10258000A45D242C1ED15173436844781B5D1370E5
:102590000123537316E09573547B45684778ED5DCE
:1025A0001555641CE5B2062D0BD1D378472B14D1F9
:1025B0001379472B11D15379412B0ED10623137375
:1025C0000223547393734278521C4270047AD3B23C
:1025D000A34200D300224270F0BD0023F1E79673BE
:1025E00045684678AD5D167B97193D740D2D01D079
:1025F0000A2D00D10023952E00DB00232A2D11D1B6
:1026000003230FE0947344684678A65D147B171982
:102610003E740D2E01D00A2E01D1D5730023952CC6
:1026200000DB0023147B641C1473CBE700200149FA
:10263000C873704700000020010000200A78497824
:102640008A4200D101207047B0B500210122174B0A
:102650005C78002C02D0012C0CD01CE0446845783A
:10266000645D242C17D11A7044684578645D1C7130
:102670005A7010E044684578645D1D785F193C71BC
:102680000D2C01D00A2C01D19A705970312D00DB2C
:1026900059706D1C1D704278521C4270047AD3B27E
:1026A000A34200D300224270B0BD000058050020B4
:1026B00010B50E4C21680E4A0A4002432260610D9B
:1026C000884210D10B480068062148430A49FEF7AA
:1026D0007DFE401C00E0401E6169490503D50028CD
:1026E000F9D1032010BD002010BD00000070004093
:1026F000FFF9FFFF4C04002040420F00FEB504002C
:1027000000206A4610704E4D2168890355D501900E
:1027100080204005296B014008D1296B01432963C2
:10272000296B0840019001980120019045480068FC
:10273000A90D014343480160FEF7B0FA0600414885
:102740000068C00505D4FEF7A9FA801B0328F6D35C
:1027500023E0296DC020800008403B4F00280ED0A8
:10276000A16988420BD0286D3840296D8022520221
:102770000A432A65296D354A0A402A652865C0073B
:102780000FD5FEF78BFA0600286D800709D4FEF7F7
:1027900085FA801B2E498842F6D3032069460870CB
:1027A00004E0286D0740A069384328650198002897
:1027B00003D0286B2749014029632078C00705D53D
:1027C000A86C0321884361680143A96420788007CD
:1027D00005D5A86C0C218843A1680143A964207821
:1027E000800605D5A86C1C490140E0680843A86430
:1027F0008020C001216801400DD0A96C89008908A2
:1028000062690A43AA6461690204914203D129689A
:1028100082000A432A60216809050DD5A96C0F4A78
:102820000A4021691143A9642169814204D12868C1
:10283000802149020143296068460078FEBD0000FE
:102840000C10024000700040FFFCFFFFFFFFFEFF86
:1028500089130000FFFFFFEFFFCFFFFFFF3FFFFFE8
:10286000EFF31081012282F31088026880239A43DB
:10287000026081F310887047FEE7FEE770477047FB
:1028800010B500F0D5F85C495C48828853180122E5
:102890001C0401D102700A238380C3885B181C04C6
:1028A00001D142701923C38003895B181C0401D134
:1028B000827064230381438959180B0402D1C270CA
:1028C000FA218900418110BD38B54D4CE2692021C3
:1028D0000A4010D0226811400DD0626A49494B6805
:1028E0000D785A550A78521C0A700D7AD3B2AB4251
:1028F00000D300220A70226880210A4012D0E269C7
:1029000011400FD040494A780B789A421AD04B6850
:102910009B5CA362521C4A700D7AD3B2AB4200D3C7
:1029200000224A7021684020014003D0E169014043
:1029300000D02062A068C00700D5E0693348FDF7E9
:102940006DFC31BD2000FFF78BFFEBE738B5304C55
:10295000E26920210A4010D0226811400DD0626A3D
:102960002C494B680D785A550A78521C0A700D7A1A
:10297000D3B2AB4200D300220A70226880210A4001
:1029800012D0E26911400FD023494A780B789A425D
:102990001AD04B689B5CA362521C4A700D7AD3B26A
:1029A000AB4200D300224A7021684020014003D08E
:1029B000E169014000D02062A068C00700D5E0694D
:1029C0001648FDF72BFC31BD2000FFF749FFEBE770
:1029D00080B51348C26920210A4005D00268114021
:1029E00002D0406A0F4908700F48FDF717FC0F48E6
:1029F000FDF714FC01BD0000FFFF000050040020A3
:102A00000038014000040020100400207401002060
:102A10000044004020040020300400200402002074
:102A2000004C0040180600209402002024030020DF
:102A300002484168027889184160704740040020CC
:102A40000000000000000000000000000000000086
:102A50000000000000000000000000000000000076
:102A6000010000000200000003000000040000005C
:102A70000600000007000000080000000900000038
:102A800070B40123002413E00168001D194202D034
:102A90004D466918491E0C60091D121F042AFAD2FE
:102AA0000D00960701D50C80AD1C1A4000D02C708B
:102AB0000268001D002AE7D170BC704710B50749B5
:102AC00079441831064C7C44163404E0081D0A6829
:102AD000891888470100A142F8D110BD0800000004
:102AE000240000009DFFFFFFC00100005C040020E7
:102AF000000000000FE9FFFFD2000000CC00000042
:102B000000000020000000000000000000000000A5
:102B100000000000010000000200000003000000AF
:102B20000400000000F00DF8002801D0FFF7C6FFF8
:102B300000BF00BF002000BF00BFFEF7F7FD00F0A0
:102B400002F80120704780B500F002F801BDFEE7F1
:102B50000746384600F002F8FBE7FEE780B500BF05
:102B600000BF024A11001820ABBEFBE7260002009E
:102B70000548014603B4684680F3098800BF00BFDA
:102B800000BF00BFFFF7CEFFA5EDF5FE014880476F
:102B900001480047C92B0008712B0008FEE7FEE73B
:102BA000FEE7FEE7FEE7FEE7FEE7FEE7FEE7FEE7FD
:102BB000FEE7FEE7FEE7FEE7FEE7FEE7FEE7FEE7ED
:102BC000FEE7FEE7FEE700007047F0000524474EF1
:102BD00047474181008800000F810081008100810A
:102BE0000081008500045C040020FAFC000238012A
:102BF00040FC00049005002032FC0002380140FC3B
:102C00000004F80500201EFC0002440040FC000403
:102C1000C405002032FC000344004001F900000418
:102C2000FC000124F4FB00070A0019006400E8031B
:0400000508002B7153
:00000001FF
