:020000040800F2
:10000000100400203D0E0008190E00081B0E000809
:100010001D0E00081F0E0008210E00080000000041
:10002000000000000000000000000000230E000897
:10003000250E000800000000270E0008290E000809
:100040005D0E0008610E0008650E0008690E0008CC
:100050006D0E0008710E0008750E0008790E00087C
:100060007D0E0008810E0008850E0008890E00082C
:100070008D0E0008910E0008950E0008990E0008DC
:100080009D0E000800000000A10E0008A50E00084B
:10009000A90E0008AD0E0008B10E0008B50E00084C
:1000A000B90E0008BD0E0008C10E0008C50E0008FC
:1000B000C90E0008CD0E0008D10E0008D50E0008AC
:1000C000D90E0008DD0E0008E10E0008E50E00085C
:1000D000E90E0008ED0E0008F10E0008F50E00080C
:1000E000F90E0008FD0E0008010F0008050F0008BA
:1000F000090F00080D0F0008110F00080000000094
:1001000000000000150F000800000000190F000893
:100110001D0F000800000000210F0008250F000837
:10012000290F00082D0F0008310F0008350F0008B7
:10013000390F000800000000000000003D0F00081B
:10014000410F0008450F00080000000000000000FB
:10015000000000000000000000000000000000009F
:10016000000000000000000000000000490F00082F
:100170004D0F00080000000000000000000000001B
:1001800000000000510F0008000000000000000007
:10019000000000000000000000000000000000005F
:1001A0000000000000000000550F0008590F000873
:1001B0005D0F0008610F0008650F000800000000D7
:1001C00000000000690F00080000000000000000AF
:1001D0006D0F0008710F00082DE9F84304006DD081
:1001E0002078DFF8C065C10717D500F0D0F90CD131
:1001F00001F0030103290AD06068B0F5803F2AD1DD
:10020000306840F48030306037E00828F4D130683E
:10021000810302D56068002850D02178880759D51D
:1002200000F0B5F943D101F00301022941D0E068A3
:1002300000286AD0316841F48071316000F0CCFA56
:100240000546306841055DD400F0C6FA401B03281E
:10025000F7D3032091E1B0F5A02F306806D140F428
:1002600080203060316841F4803105E020F4803036
:100270003060316821F480213160606858B100F04D
:10028000ABFA054630688103C7D400F0A5FA401BDD
:100290006528F7D3DDE700F09FFA05463068810353
:1002A000BBD500F099FA401B6528F7D3D1E70428A5
:1002B000BDD13068410503D5E068002800F05A81BF
:1002C00000F05DF9DFF8E804006800F08BFA002820
:1002D00040F050812078DFF8DC74010734D5606984
:1002E0000028786821D040F00100786000F074FAAE
:1002F00005467868810727D400F06EFA401B032872
:10030000F7D3A6E700F03BF9E4E7306820F480700B
:10031000306000F061FA054630684105DAD500F03A
:100320005BFA401B0328F7D393E74008400078604E
:1003300000F052FA05467868810705D500F04CFABE
:10034000401B0328F7D384E72078410763D5B06DBD
:100350000025C10009D4B06D40F08050B065012582
:10036000B06D00F0805000900098DFF84C84D8F811
:100370000000C10513D4D8F8000040F48070C8F81C
:10038000000000F029FA8146D8F80000C10506D423
:1003900000F022FAA0EB09000328F5D359E7A06882
:1003A000012804D1386840F00100386010E00528C9
:1003B000386806D140F004003860396841F0010126
:1003C00005E0400840003860396821F004013960D8
:1003D000A06841F2893860B100F0FEF981463868C2
:1003E000810713D400F0F8F9A0EB09004045F6D3DB
:1003F0002FE700F0F1F981463868810706D500F053
:10040000EBF9A0EB09004045F6D322E71DB1B06D32
:1004100020F08050B0652078810621D5A0690028A1
:10042000B8680ED040F00100B86000F0D5F905467C
:10043000B868810714D400F0CFF9401B0328F7D324
:1004400007E740084000B86000F0C6F90546B86804
:10045000810705D500F0C0F9401B0328F7D3F8E663
:10046000E069002800F08880B16801F00C010C29D7
:1004700055D00228306820F0807030603AD100F00A
:10048000ABF905463068810105D500F0A5F9401BA0
:100490000328F7D3DDE6F068DFF82013226A08406E
:1004A000616A1043491E40EA0110226BA16A52089A
:1004B00040EA0120616B521E490840EA4250491E41
:1004C00040EA4160E16A40EAC160F060306840F0B3
:1004D00080703060F16841F08071F16000F07CF96B
:1004E00004463068810147D400F076F9001B0328E8
:1004F000F7D3AEE6F168DFF8C80289088900F16039
:10050000F1680140F16000F067F90446306881014C
:1005100032D500F061F9001B0328F7D399E60128D2
:1005200028D0F068226A00F00301914201BF00F078
:10053000F001626A521EB1EB021F1BD1A26A00F4E5
:10054000FE41B1EB022F02BF00F07841E26AB1EB4D
:10055000C26F0FD1226B520800F4C001521EB1EBE2
:10056000425F07D1616B490800F0C060491EB0EBE3
:10057000416F01D0012000E00020BDE8F2837068E7
:10058000216920F0FE4040EA016070607047B06869
:10059000F16800F00C000C2870472DE9F047044684
:1005A0000026002C6CD0DFF81C723868894600F0F9
:1005B0000F00484506D200F0C0F8386800F00F0080
:1005C00048455DD12168DFF8DC51C80741F2893820
:1005D00058D56068DFF8F0A1032827D12868820188
:1005E0004ED5EA68E868C0F30310401C02F003022D
:1005F000032A0CBFDFF8D421DFF8B021B2FBF0F200
:10060000E868C0F306204243E868C0F34160401C3C
:100610004000B2FBF0F0504518D3AA6812F0F00F7A
:100620000DD0890712D5A06880B908E00228286893
:1006300024D1810324D500F086F8504506D3A8685C
:1006400020F0F00040F08000A8608026A968606873
:10065000890840EA8101A96000F0BEF88246A868D6
:10066000616800F00C00B0EB810F0BD000F0B4F823
:10067000A0EB0A004045F2D303205CE04105DAD448
:10068000012058E02068810715D5400703D5A968E7
:1006900041F4E061A9602078010705D5A86820F43D
:1006A000605040F4E060A860A968A06821F0F00103
:1006B0000143A96005E0802E03D1A86820F0F00076
:1006C000A860386800F00F0081450FD200F035F8BF
:1006D00000F082F80646386800F00F00484505D063
:1006E00000F07AF8801B4045F5D3C5E72078410734
:1006F00005D5AA68E06822F4E0620243AA60217886
:10070000080706D5A968206921F4605141EAC001B3
:10071000A96000F018F8AA682D49C2F30312895C99
:10072000214A01F01F01C8401060BDE8F047204891
:10073000006800F057B8BDE8F0873968090949EA50
:100740000111396070472349086800F00C00042843
:1007500001D116487047086800F00C00082801D144
:100760001A487047086800F00C000C2818D14A6835
:100770004868C0F30310401C02F00302032A0CBFB8
:10078000124A0A4AB2FBF0F24868C0F3062042431C
:100790004868C0F34160401C4000B2FBF0F0704775
:1007A00000207047001002400C0000200024F400DC
:1007B0000400002090100240007000400C809F0157
:1007C000FFFFEEFE0020024001B4C40400127A00D4
:1007D000A40D00080810024001480068704700BFDF
:1007E0000000002070B50E4E0446B0680025A0B190
:1007F0004FF47A710B4AB1FBF0F11068B0FBF1F0E5
:1008000000F04AF848B9102C07D2002221464FF0D8
:10081000FF3000F023F8746000E00125284670BD29
:10082000000000200C0000200901020002D424482E
:1008300081547047234B02F00F021A4402F8041C43
:100840007047214B19684FF6FF020002114000F477
:10085000E06008431D4908431860704770B51A4BA3
:100860001C68C4F302230124C3F10705052D2EBF24
:100870000F2504FA05F56D1E1E1D072E34BF00233B
:10088000DB1E2940994004FA03F3BDE870405B1E6B
:100890001A401143C8E7000010B5401EB0F1807F38
:1008A00001D3012010BD0A4C60600F214FF0FF30D2
:1008B000FFF7BAFF0021A16007202060002010BDD3
:1008C00000E400E018ED00E00CED00E00000FA05A7
:1008D00010E000E02DE9F84F0027664A664B4FF024
:1008E0000F0805460E4634E0644CA54214BF0624AA
:1008F00005248C40624944EA0E0441F82C40C1436F
:10090000146801EA040C7468E40348BF40EA0C0C64
:10091000C2F800C0546801EA040C7468A40348BF1C
:1009200040EA0C0CC2F804C0946801EA040C746834
:10093000E40248BF40EA0C0CC2F808C0D46801EADF
:10094000040C7168890248BF40EA0C0CC2F80CC064
:100950007F1C316831FA07F000F085800124BC402B
:1009600014EA0100F4D04FEA470C032101FA0CF11C
:100970006FEA010E7168012918BF022903D01129FD
:1009800018BF122912D1A968D6F80C900EEA0101FD
:1009900009FA0CF949EA0101A960696821EA04042D
:1009A0007168C1F30011B9400C436C60E968B46828
:1009B0000EEA010104FA0CF42143E960B9007468FD
:1009C000022C18BF122C12D1FC0805EB840401F094
:1009D0001C09D4F820A008FA09FB2AEA0B0AD6F869
:1009E00010B00BFA09F949EA0A09C4F820902C68FA
:1009F0000EEA040E347904F0030404FA0CF444EA19
:100A00000E042C607468E400A2D51C6844F0010454
:100A10001C604FEA970C1C6804F00104009401F07C
:100A20000C01009C164C54F82C4008FA01FE24EAF4
:100A30000E0EB5F1904F08BF002413D0114CA54203
:100A400008BF01240ED0104CA54208BF022409D0D3
:100A50000E4CA54208BF032404D00D4CA5427FF4E0
:100A600043AF042445E7BDE8F18F0AB181617047C7
:100A70008162704700040140601002400014004889
:100A8000080001400004004800080048000C00482D
:100A90000010004880B586B000F08CF800F043F8F4
:100AA00000F06EF81A48016841F001010160026827
:100AB00002F0010205920599026842F0020202600A
:100AC0000022006800F0020005909F2105984FF079
:100AD0009040FFF7CAFF9F2100910122019202215D
:100AE00002910022039269464FF09040FFF7F2FE18
:100AF0004FF4C05000F010F84FF09040FFF7EAFEBE
:100B0000F02000F009F80348FFF7E4FEFEE70000DC
:100B10004C10024000040048002100900191022284
:100B200002926946704700B593B03822002105A8AB
:100B300000F04FF800F024F84FF4007000F054F883
:100B400002214FF480720591089240210022099100
:100B50000C9205A8FFF740FB08B172B6FEE7012131
:100B600001910F2000900022002102920391049233
:100B70006846FFF712FD08B172B6FEE713B000BD7C
:100B800014220021684600F024B80EE00268436891
:100B9000024408305FEAC37C44BF4B445B1E52F8FA
:100BA00004CB43F804CB091FF9D150F8041B0029EA
:100BB000ECD17047032010B5FFF743FE0F20FFF77D
:100BC00011FE0024002814BF012400F065F820461F
:100BD00010BD10B5044610460A460146204600F0F6
:100BE00075F8204610BD000010B53222DFF89C30A9
:100BF000DFF89440DFF88C1048B900F01EF820F4BC
:100C00008070206017D100F01FF80CD413E0B0F50D
:100C1000007F0AD100F011F840F4807020600AD102
:100C200000F012F807D5032010BD0A6822F4C06254
:100C300042F480620A60002010BD086800F4C060C1
:100C4000B0F5806F206870470C6824F4C06444F4E9
:100C500000740C601868DFF838304243B2FBF3F0E0
:100C6000401C00E0401E4A69530501D50028F9D117
:100C70004869410570470748016841F480410160B7
:100C80007047000000700040807000400C000020A1
:100C900040420F00087000400B4882B0816841F06C
:100CA00001018160816801F00101009100990268F1
:100CB00042F080520260006800F08050009000987E
:100CC00002B0FFF7D8BF00BF5810024062F30F22F6
:100CD00062F31F42401810F0030308D0C91A1FD353
:100CE000DB0748BF00F8012D28BF20F8022D1300B4
:100CF00030B414461546103928BF20E93C00FAD814
:100D0000490728BF20E90C0048BF40F8042D89009E
:100D100028BF20F8022D48BF00F8012D30BC7047D5
:100D2000C91818BF00F8012DCB0728BF00F8012D06
:100D30007047000010B5074979441831064C7C44CF
:100D4000163404E00A68081D114488470146A14290
:100D5000F8D110BD2C0000003C0000004EF6885178
:100D6000CEF20001086840F470000860BFF34F8FB6
:100D7000BFF36F8F4FF00070E1EE100A7047000074
:100D80000BFEFFFF10000000C40000000000002068
:100D9000000000000248016841F4700101607047E2
:100DA00088ED00E0000000000000000001020304E4
:100DB0000607080900F00DF8002801D0FFF7BAFF78
:100DC000AFF300800020AFF30080FFF763FE00F078
:100DD00002F80120704700F001B8000007463846CD
:100DE00000F002F8FBE7000080B5AFF30080024A94
:100DF00011001820ABBEFBE72600020005480146A3
:100E000003B4684680F30988AFF30080FFF7A6FFBC
:100E1000FFF7D0FFA5EDF5FEFEE7FEE7FEE7FEE7F4
:100E2000FEE770477047704700F000B802490A6853
:100E3000886882180A6070470000002001488047D7
:100E400001480047950D0008FD0D00080000000056
:100E500010000000010000000024F400FFF7FEBFB6
:100E6000FFF7FEBFFFF7FEBFFFF7FEBFFFF7FEBFB6
:100E7000FFF7FEBFFFF7FEBFFFF7FEBFFFF7FEBFA6
:100E8000FFF7FEBFFFF7FEBFFFF7FEBFFFF7FEBF96
:100E9000FFF7FEBFFFF7FEBFFFF7FEBFFFF7FEBF86
:100EA000FFF7FEBFFFF7FEBFFFF7FEBFFFF7FEBF76
:100EB000FFF7FEBFFFF7FEBFFFF7FEBFFFF7FEBF66
:100EC000FFF7FEBFFFF7FEBFFFF7FEBFFFF7FEBF56
:100ED000FFF7FEBFFFF7FEBFFFF7FEBFFFF7FEBF46
:100EE000FFF7FEBFFFF7FEBFFFF7FEBFFFF7FEBF36
:100EF000FFF7FEBFFFF7FEBFFFF7FEBFFFF7FEBF26
:100F0000FFF7FEBFFFF7FEBFFFF7FEBFFFF7FEBF15
:100F1000FFF7FEBFFFF7FEBFFFF7FEBFFFF7FEBF05
:100F2000FFF7FEBFFFF7FEBFFFF7FEBFFFF7FEBFF5
:100F3000FFF7FEBFFFF7FEBFFFF7FEBFFFF7FEBFE5
:100F4000FFF7FEBFFFF7FEBFFFF7FEBFFFF7FEBFD5
:100F5000FFF7FEBFFFF7FEBFFFF7FEBFFFF7FEBFC5
:100F6000FFF7FEBFFFF7FEBFFFF7FEBFFFF7FEBFB5
:040F7000FFF7FEBFCA
:0400000508000DFDE5
:00000001FF
