:020000040800F2
:1000000030050020211B0008151A0008171A0008E7
:1000100000000000000000000000000000000000E0
:10002000000000000000000000000000191A000895
:1000300000000000000000001B1A00081D1A000844
:10004000E310000800000000E7100008EB100008B3
:10005000131A00082B1C0008371C0008711C00082C
:1000600000000000731C0008751C0008771C0008C5
:10007000791C00087B1C0008000000007D1C0008A3
:100080000000000000000000000000000000000070
:100090007F1C00080000000000000000811C000818
:1000A00000000000831C00080000000000000000A9
:1000B000851C0008651A0008000000000000000010
:1000C000FEB504002368D869194609689A682500B6
:1000D000583520260E400096202606400196002620
:1000E000A94F07400BD1019F002F0CD0009F002F7C
:1000F00009D0E968002901D020008847F7BDD7075B
:1001000002D4A24F0F4078D0C70706D5CF0504D53B
:1001100001271F62AB6A1F43AF62830708D5D3076D
:1001200006D5022327683B62AB6A04271F43AF62F0
:100130000423184207D0D70705D527683B62AB6A6E
:1001400002271F43AF620823184209D0009F002FE7
:1001500001D1D20704D522681362AA6A1343AB62A5
:1001600080221201104007D0480105D520680262A4
:10017000A86A20210143A962A86A002833D0019807
:10018000002807D00098002804D0E968002901D091
:1001900020008847A86A402721688968394002D131
:1001A0002821014024D0200000F008FB206880684E
:1001B000074019D0EFF31080012181F310882168E6
:1001C0008A6840239A438A6080F31088A8690028CF
:1001D0000AD06F498163A86900F055FB002802D05E
:1001E000A869816B8847F7BD200000F073FBF7BD5D
:1001F000200000F06FFBAE62F7BDAF68012F00D0AA
:1002000094E01027384200D0394200D18EE01F62BE
:100210001020C0430121C9432268926852064AD582
:10022000AA6913685B689BB2002BE5D05827E75B8F
:10023000BB42E1DA6B8012681268920635D4EFF3A4
:1002400010820092012282F3108822681368514FB5
:100250001F401760009A82F31088EFF31082012389
:1002600083F3108823689F683940996082F310886F
:10027000EFF31081012282F31088226893684027EF
:10028000BB43936081F3108820216962AE60EFF375
:100290001081012282F310882268136818401060D0
:1002A00081F31088A86900F0C9FA5820205A69889B
:1002B000411A89B236E05822A25A6B88D21A6B468C
:1002C0001A806A88002A5ED06A461288002A5AD0AC
:1002D000EFF310820192012282F3108822681368E2
:1002E0002D4F1F401760019A82F31088EFF31082A0
:1002F000012383F3108823689F683940996082F353
:10030000108820216962AE60EE60EFF31081012257
:1003100082F31088226813681840106081F31088F7
:1003200068460188200000F0D6FAF7BD80277F03D9
:10033000384206D0520204D51F62200000F0CCFAE9
:10034000F7BD8022104207D00A4005D02969002954
:1003500019D020008847F7BD4022104013D00A4032
:1003600011D0EFF31080012181F3108821680A6811
:1003700040239A430A6080F31088202028622E616F
:10038000200000F0AAFAF7BD0F08000020010004C9
:1003900029080008FFFEFFFFDFFEFFFFF1B582B076
:1003A0000024056828687149014002988068084364
:1003B0000299096901430298406908430299C96991
:1003C0000143296068686A4901400298C06808438F
:1003D000686002988069994FBD4203D0010002987D
:1003E000006A0843A968964A0A401043A860954BE2
:1003F00010269548854228D1D86C0C21014036D072
:10040000042938D0082934D00C2936D01020009087
:100410008E488108F202BD424AD1009D002D06D0CF
:10042000022D2CD0042D2FD0082D30D094E000F0D8
:1004300078FD00284ED002994A68510089188842F8
:1004400002D31103814224D286E0BD42DED1D86CB2
:10045000C021090101400AD0180D81420BD0400093
:10046000814206D0C0200001814206D0CEE70020A4
:10047000CDE70220CBE70420C9E70820C7E71A68C8
:100480001640D8D00800D6E700F012FDD1E71000E2
:10049000D1E7070E06025008002180197941002398
:1004A00000F066FD82494118824A914254D245E0EB
:1004B000B94D029FFF699742009F27D1002F06D0B8
:1004C000022F19D0042F1CD0082F1DD044E000F0BB
:1004D00028FD002841D00299496840004A08801848
:1004E00000F084FD80B201001039A94234D20540E9
:1004F0000007400F284321E01A681640EBD008009F
:10050000E9E700F0D5FCE4E71000E4E7002F06D0AF
:10051000022F17D0042F1AD0082F1BD01CE000F098
:1005200000FD002819D0029949684A08801800F097
:100530005DFD80B201001039A9420DD2029909680F
:10054000C8600AE01A681640EDD00800EBE700F03A
:10055000AFFCE6E71000E6E70124002002994866B8
:10056000029988662000FEBD00000000F369FFEFDD
:10057000FFCFFFFF2421415CC90706D501684A6807
:10058000864B1340826A1A434A602421415C8907E2
:1005900006D501684A68824B1340C26A1A434A6012
:1005A0002421415C490706D501684A687D4B134008
:1005B000026B1A434A602421415C090706D5016891
:1005C0004A68794B1340426B1A434A602421415CCC
:1005D000C90606D501688A68744B1340826B1A43BA
:1005E0008A602421415C890606D501688A68704BBF
:1005F0001340C26B1A438A602421415C490611D51D
:1006000001684A686B4B1340026C1A434A60026CE3
:1006100080235B039A4205D14A68674B1340426CC2
:100620001A434A602421415C090606D501684A68DC
:10063000794B1340806C1843486070470048004075
:10064000FFF4FFFF00100240004400400024F400CB
:10065000F8B5040000257430C56000F001FD070006
:100660006E4E20680068000709D500963B00002206
:1006700080218903200000F01FF800280DD1206898
:10068000006840070BD500963B0000228021C9037B
:10069000200000F011F8002801D00320F2BD210055
:1006A000743120204860886025660D700020F2BDFE
:1006B00000FDFFFF00FD0F00FEB5089F8024240110
:1006C0000025060001916846027002933068C069F7
:1006D000019901400198814201D1012000E00020F0
:1006E00069460978884254D10020C0438742EDD042
:1006F00000F0B6FC0299401A874201D3002F1FD1A7
:10070000EFF31080012181F3108831680A68444BAF
:1007100013400B6080F31088EFF31080012181F308
:10072000108831688A6801239A438A6080F31088B0
:100730003000743020214160816005700320FEBDCF
:10074000306800684007C1D53068C0692040BDD01E
:1007500030680462EFF31080012181F31088316862
:100760000A682F4B13400B6080F31088EFF3108062
:10077000012181F3108831688A6801239A438A60D5
:1007800080F3108830007430202141608160C160A6
:10079000D3E70020FEBD0000F0FF0000FFFFFDFFDB
:1007A000FFFFFEFFFFFFFBFFFF7FFFFFFFEFFFFFEE
:1007B000FFDFFFFFFFFFEFFFFFFF9FFF10B5EFF32E
:1007C0001081012282F3108802681368154C1C40C6
:1007D000146081F31088EFF31081012282F31088F6
:1007E000026893680124A343936081F31088016E2B
:1007F00001290BD1EFF31081012282F310880268E6
:1008000013681024A343136081F310882021C1676B
:1008100000210166416610BDFFFFF7FFFFFFFF01EA
:100820005FFEFFFFDFFEFFFF80B5806A01005231EF
:1008300000220A810A8000F04DF801BD30B50100A8
:10084000243100222523C35C022B04D00423C3637C
:100850000A70012030BD03681C680E25AC431C6083
:1008600003681C680125AC431C6001234424045D1B
:100870001C2525400124AC40056C6C6025240355E3
:100880000A70002030BD70B500220024012125230C
:10089000C35C022B03D00422C263012418E0036866
:1008A0001D680E26B5431D6003681D688D431D60DD
:1008B0004423C35C1C251D400123AB40056C6B60C9
:1008C0002523C15424214254816B002900D088473C
:1008D000200070BD7047704770477047FEB5060036
:1008E00060D0BB4CE0680C2101400091E0688021A1
:1008F0004902084001903078C0070ED54F0000989B
:10090000082804D00C2872D1019888426FD1206841
:10091000074002D07068002844D03078800733D573
:10092000F0682021084204D0226811432160202170
:100930008843BB4F0921C943009A042A05D00C2AD9
:1009400001D1019A002A00D08CE02268520701D51B
:10095000002827D062681740326912023A43626069
:10096000226811400843206000F0A2FAAD49E26815
:100970001206120F895CC840BC490860BC48006878
:1009800000F074FB010031D1A70D3078C00600D40F
:10099000B4E00098002800D091E02068800503D5DD
:1009A000B069002800D1A4E16068B2490140306A12
:1009B0000843606060680002000AF16909060143AB
:1009C00061600120316A490B491C8840C003954988
:1009D000E2681206120F895CC840A4490860A44866
:1009E000006800F043FB010000D187E0FEBD7068A5
:1009F000884201D1206809E0A021C902884220680C
:100A000006D17900014321602068790801430AE09A
:100A1000BA49014021602068790808400290029894
:100A20002068B74901402160706800280DD000F0AF
:100A300017FB05002068384000D06EE700F010FB7F
:100A4000401B6528F6D30320FEBD00F009FB05001E
:100A50002068384000D160E700F002FB401B6528A9
:100A6000F6D3F0E704220192002817D02268114043
:100A70000843206000F0F4FA050020680199014065
:100A800005D100F0EDFA401B0228F6D9DBE76068DB
:100A90000740306900023843606075E72068012133
:100AA0008843206000F0DCFA0500206801990140CD
:100AB000F3D000F0D5FA401B0228F6D9C3E7B0699D
:100AC0000028206830D03843206000F0C9FA0500C3
:100AD0002068800505D400F0C3FA401B0228F7D92E
:100AE000B1E7606863490140306A0843606060684C
:100AF0000002000AF16909060143616030780007CD
:100B000030D570690028206D1DD001210143216579
:100B100000F0A6FA0500206D800723D400F0A0FAAB
:100B2000401B0228F7D98EE776490140216000F08A
:100B300097FA050020688005E0D500F091FA401B87
:100B40000228F7D97FE701218843206500F088FA61
:100B50000500206D800705D500F082FA401B0228B1
:100B6000F7D970E73078400765D500200190380547
:100B7000A16B014004D1A16B0843A0630120019047
:100B800061480068384011D15F48006838435E49C9
:100B9000086000F065FA05005B480068384005D140
:100BA00000F05EFA401B6528F6D34CE7B168B94205
:100BB0000AD0564800290DD0A022D200914209D176
:100BC000206D210D01432165206D0743276508E055
:100BD00000100240216D4B4A0A402265216D0840F9
:100BE0002065670DB06800280CD000F039FA0500C8
:100BF000206D384018D100F033FA401BA8498842D4
:100C0000F6D320E700F02CFA0500206D38400BD019
:100C100000F026FA401BA2498842F6D313E700BF32
:100C2000FFE0FFFFE41B00080198002803D0A06B41
:100C30009C490140A163706A00285CD000990C298E
:100C400042D08027BF049849022820682ED1014055
:100C5000216000F005FA0500206838400CD000F053
:100C6000FFF9401B0228F7D9EDE600BFAC000020D9
:100C7000A8000020FF1FFFFFE0688C490140B06A18
:100C80000843F16A0143306B0843E060206879084B
:100C90000143216000F0E4F90500206838402AD1C2
:100CA00000F0DEF9401B0228F7D9CCE601402160B4
:100CB00000F0D6F90500206838401CD000F0D0F9CB
:100CC000401B0228F7D9BEE6012812D0E068802137
:100CD00049020140B26A91420BD1F02189030140DF
:100CE000F26A914205D1C02109040140306B814272
:100CF00001D00120FEBD0020FEBD00BFFFFFFEFFB2
:100D0000FFFFFBFFFFFEFFFF00700040FFFBFFFF48
:100D1000F1B582B000285CD00091614F874800682F
:100D2000C107C90F0098814217D2844C2068012165
:100D3000884300990143216000F092F9009D06006C
:100D40002068C107C90FA94206D000F089F9801BAD
:100D5000B842F5D30320FEBD0095794C0298007887
:100D6000800706D5E068F02188430299896801432D
:100D7000E1603E4602980078C0074DD50298406871
:100D8000022819D12168890323D5E1680322914300
:100D90000843E06000F064F90700029840680C2501
:100DA000022818D1E0682840082835D000F058F90A
:100DB000C01BB042F6D3CDE7032802D121688901D8
:100DC00003E00128216802D14907DED401E089054A
:100DD000DBD40120FEBD032809D1E06828400C289F
:100DE0001AD000F03DF9C01BB042F6D3B2E701289B
:100DF00009D1E068284004280ED000F031F9C01B6A
:100E0000B042F6D3A6E7E068284005D000F028F904
:100E1000C01BB0429ED2F6E7009848490968CA074D
:100E2000D20F904215D2454D286801218843009980
:100E30000143296000F014F907002868C107C90FB1
:100E40000098814205D000F00BF9C01BB042F4D3EA
:100E500080E702980078400706D5E06839490140EC
:100E60000298C0680843E06002980078000707D540
:100E7000E0683549014002980069C0000843E0601D
:100E800000F016F83149E2681206120F895CC8407A
:100E90002F4908602F48006800F0E8F8FEBD000008
:100EA00089130000FFFFFFEFFFFFFFFEFFFF02FFC0
:100EB00050B5234AD16810230C200840042804D0E0
:100EC000082809D00C2809D023E01068034001D07D
:100ED000224850BD224850BD224850BD22488C02B5
:100EE000240F005D09028C0F641C0021D668F603F4
:100EF00001D51C4A03E01268134002D0174A0023B0
:100F000000E0174A00F0D4F82200002300F030F887
:100F100050BD506801210004400F401C8140C803AF
:100F200050BD0B48006811490B4A12685205FFE793
:100F3000520F895CC840704700000000002002404A
:100F400000100240FFF8FFFFFFC7FFFFE41B00088F
:100F5000AC000020A80000200C10024000093D0059
:100F60000024F40000127A00F41B0008681C00083A
:100F700012422DD0994231D970B500251B4209D0BB
:100F80000C00002112E0110000F030F80A000021EE
:100F9000002370BD0942F6D000240126491864419F
:100FA000944200D3A41A7641F8D33100012601E01F
:100FB000764109D2001864416D41A41A9D41F7D2CF
:100FC000A4185D41B619F5D3300022002B0070BD86
:100FD0001B42CFD108B500F085F808BD01D1904281
:100FE000CAD202000B00002100207047094214D031
:100FF00088420FD30122030C01D100041204002304
:1010000000185B418B4200D35B1A5241F8D31900A0
:101010001000704701000020704708B500F064F828
:1010200008BD30B501684118446862088A188368B1
:10103000E40704D54C461B1901E0641C09D1914218
:1010400003D00C7864B2491C01E00C3030BD0D783F
:10105000491C1D705B1C002CEFD4641EF7D5EEE715
:1010600001484068704700BFA000002038B5050067
:101070000D4CFA2080002178FFF7B8FF01000B48E3
:101080000068FFF7B3FF00F05BF800280AD1042DD9
:1010900008D2002229000020C04300F044F8A560D7
:1010A000002032BD012032BDA0000020AC00002095
:1010B00030B4434351435D18010C0C00130C5C43E6
:1010C0002D1980B2434392B251430024C9186441A0
:1010D00024040B04090C09195043C018694130BCA1
:1010E0007047FEE77047FEE77047FEE710B5C200A5
:1010F00018231340FF249C40E2438907090E9940BE
:10110000030004D418489B089B00C01806E0174B46
:101110000007000F083880088000181803681A407C
:101120001143016010BD80B5FFF7E0FF01BD010074
:1011300005D40121C006C00E81400D4801607047F2
:1011400010B5401E80214904884201D3012010BD02
:10115000084C606003210020C043FFF7C7FF002058
:10116000A0600721216010BD00E400E01CED00E05C
:1011700000E100E010E000E0F8B586B000F0D4F93E
:1011800000F09BF814220021684600F0E1F90126E6
:101190007948016831430160016831400591059942
:1011A000022102680A430260006801400591059827
:1011B000724CA027FF0500222100380000F092FAAF
:1011C000002209216E4800F08DFA00940196002556
:1011D000029503956946380000F0C4F90920009093
:1011E0000196029503956946654800F0BBF9300207
:1011F0000090019502956946380000F0B3F9614C02
:10120000614E666096208001A060E56025616561A1
:101210000C20A061E5616562A56200230022002127
:10122000201D00F077FA002801D000F073F9EFF3E9
:101230001080012181F31088316820220A43326036
:1012400080F31088AB4FA026F6053878002802D02E
:101250003D7000F09BF8A8480078002801D0A6490E
:101260000D70A6480078002814D0A4490D70802184
:101270004900300000F030FA010009D161780129FD
:1012800006D1A178491CCAB2042A00DB0021A17052
:10129000207060709A4800780028D6D098490D7068
:1012A0008021C900300000F023FAE078401CE07093
:1012B000A178C0B200F044F8C7E710B598B0342266
:1012C00000210BA800F044F914220021684600F028
:1012D0003FF91822002105A800F03AF98948016871
:1012E000894A0A40C10C1143016010200B90012073
:1012F000119000241294A0200002139014940BA8C3
:10130000FFF7ECFA002801D000F004F90F2000905C
:10131000019402940394049400216846FFF7F8FCBA
:10132000002801D000F0F6F804200590089405A8E4
:1013300000F036FA002801D000F0ECF818B010BD2B
:1013400070B50207120F000973A4A35C245C012589
:10135000012626431D43012904D007D3032903D0C6
:1013600003D303E02B0001E02B0034006749CC706D
:101370008B7048700A7070BD2C100240F51C000084
:10138000000400500000002000480040F8B55F4C09
:101390002079012141406846017080273F01A02546
:1013A000ED055B4E007801284ED10022012130006E
:1013B00000F098F9A078C0090122424001212800DC
:1013C00000F090F9A0784006C10F01224A40390090
:1013D000280000F087F9A0788006C10F01224A405A
:1013E0000421280000F07EF9A078C006C10F012278
:1013F0004A407900280000F075F9A0780007C10F75
:1014000001224A401021280000F06CF9A078400722
:10141000C10F01224A402021280000F063F9A07882
:101420008007C10F01224A404021280000F05AF9EC
:10143000A078C107C90F01224A408021280000F08E
:1014400051F9012208214DE000220821300000F06E
:1014500049F9E078C009012242400121280000F04A
:1014600041F9E0784006C10F01224A4039002800C6
:1014700000F038F9E0788006C10F01224A400421CB
:10148000280000F02FF9E078C006C10F01224A4081
:101490007900280000F026F9E0780007C10F01224A
:1014A0004A401021280000F01DF9E0784007C10FE4
:1014B00001224A402021280000F014F9E07880073A
:1014C000C10F01224A404021280000F00BF9E078CA
:1014D000C107C90F01224A408021280000F002F90B
:1014E00001220121300000F0FDF8684600782071EB
:1014F000F1BD0000B0000020B1000020B2000020CB
:10150000B300002000700040FFE7FFFF240100202F
:101510000004005072B6FEE7FC60DAF266B6BEE088
:10152000FEF6EE3E9C7A9E8E10B5002407480168B8
:1015300040220A4302600320FFF798FD002801D0F3
:10154000012401E000F0E6F9200010BD0020024077
:1015500010B50400080011000200200000F032FA6B
:10156000200010BDF0B585B000220F23039331E0B9
:10157000062303E0624B9842FAD10223B3402B4387
:101580002360604B1D68019BDC4325404B68DB03F7
:1015900002D52B00019D1D435A4B1D605D682540FF
:1015A0004E68B60302D52E00019D35435D609D68EF
:1015B00025404E68F60202D52E00019D35439D6000
:1015C000DD682C404D68AD0202D52500019C2C43FE
:1015D000DC60521C0B681C00D4407BD0012494407A
:1015E00023400193019B002BF3D0530003259D4022
:1015F000EE4302964D68AE07B60F012E03D0AD073D
:10160000AD0F022D0ED18568029E2E40CD689D4003
:10161000354385604568A5434C68E606F60F96405D
:101620002E43466094006D466C7003244D6825403F
:10163000032D25D0C568029E2E408D689D40354300
:10164000C5604D682540022D1AD1D508AD00451959
:101650002E6A04966E4677781C263E406F463E7092
:10166000049EB446039F6E463678B7406646BE4336
:10167000B4460F696E463678B740664637432F62E8
:101680000568029E2E404D682C409C403443046007
:101690004B68C024A4021C409BD001231A4C246830
:1016A0001C43194D2C60194C9508AD006419256830
:1016B0006E4677780C263E40039FB740BD43A02777
:1016C000FF05B84201D1002358E7114FB84200D0BE
:1016D00050E753E705B0F0BD0069084000D0012095
:1016E000C0B27047002A01D08161704781627047A3
:1016F00042690B0013401B049143194381617047F9
:10170000000800500004014034100240080001406D
:1017100000040050F2B5040017001D00002C14D086
:10172000260074367068002803D13070200000F065
:10173000FCF8242070602068016801229143016058
:101740002000FEF72BFE012801D10120F2BD606AC6
:10175000002802D02000FEF70DFF009821688A685B
:101760008023DB0113438B6021688A680A4B134096
:101770001843886020680168084A0A4079051143C7
:101780002A040A4302602068016801220A430260B9
:101790002000FEF75DFFF2BDFF7FFFFFFFFF00FCB3
:1017A000FEB5070000200190504C3878800676D5B1
:1017B00080204005A16B014004D1A16B0843A063C8
:1017C00001200190A50D4A480068284013D14848DF
:1017D00000900068284300990860FFF741FC06006C
:1017E00000980068284006D1FFF73AFC801B652866
:1017F000F6D30320FEBD21687868C02292030A4018
:10180000C021890301408A420BD0C02189020140D6
:10181000C0229202914204D12168890301D501209E
:10182000FEBDC026B602216D314020D0304081423D
:101830001DD0387880061AD5216D2E480840216DBC
:10184000EA020A432265216D2B4A0A40226520657F
:1018500005400CD0FFF704FC0500206D800506D480
:10186000FFF7FEFB401B25498842F6D3C1E77868A5
:1018700031000140B14206D12168214A0A403101BC
:10188000014011432160206D79680E4006432665B2
:101890000198002803D0A06B1A490140A163387851
:1018A000800705D5E06C0C218843B9680143E164E9
:1018B0003878400705D5E06C13490140F8680843C3
:1018C000E0643878000705D5E06C104901403869BC
:1018D0000843E0643878000605D5E06C0C49014007
:1018E00078690843E0640020FEBD0000001002405B
:1018F00000700040FFFFFCFFFFFFF7FF89130000AF
:10190000FFFFCFFFFFFFFFEFFFF3FFFFFFCFFFFF63
:10191000FFFFF3FF2748016801220A430260416884
:10192000802252050A434260704770B586B00400B9
:10193000142200216846FFF70BFE20681E498842EA
:1019400035D11E48C1688022D2020A43C2600121FB
:1019500002680A4302600268114005910599022459
:1019600001682143016000682040059005980A2025
:10197000009001940026029603250395062004900A
:101980006946A020C005FFF7EDFD00940194029682
:1019900003950420049069460948FFF7E3FD0022FF
:1019A00000211D20FFF7BFFB1D20FFF7C0FB06B085
:1019B00070BD000034100240004800402C1002406E
:1019C000000400501206130A1A43130C1A4300BFF6
:1019D000094205D0830705D00270401C491EF9D189
:1019E000704700001300103906D330B414001500FE
:1019F00010393CC0FCD230BC490700D30CC000D524
:101A000004C0890002D30280801C002900D5027026
:101A10007047FEE7FEE7FEE77047704710B500F03D
:101A200077F8354935488288531801221C0401D1C2
:101A300002700A238380C3885B181C0401D14270A2
:101A40001923C38003895B181C0401D182706423AD
:101A50000381438959180B0402D1C270FA2189000D
:101A6000418110BD38B52648C3692022134010D0EB
:101A700003681A400DD0436A224A546815786355AA
:101A800013785B1C1370157ADCB2AC4200D30023D0
:101A9000137003688022134012D0C3691A400FD01C
:101AA000194A53781478A3421AD05468E45C8462CB
:101AB0005B1C5370157ADCB2AC4200D30023537028
:101AC000026840210A4003D0C2690A4000D0016286
:101AD0008168C90700D5C0690C48FEF7F1FA31BD2D
:101AE000EFF31081012282F31088026880239A4369
:101AF000026081F31088E3E7FFFF0000B0000020E0
:101B000000480040880000209400002004000020CD
:101B1000024841680278891841607047A00000209F
:101B2000094880F3088804200168090E1F229142A9
:101B300005D10648012101600548002101600548E2
:101B4000804705480047000030050020341002405F
:101B500000000140E11B00084D1C000870B4012387
:101B6000002413E00168001D194202D04D46691897
:101B7000491E0C60091D121F042AFAD20D00960797
:101B800001D50C80AD1C1A4000D02C700268001DDD
:101B9000002AE7D170BC704710B507497944183165
:101BA000064C7C44163404E0081D0A6889188847EE
:101BB0000100A142F8D110BD08000000240000007F
:101BC0009DFFFFFF70000000BC000020000000002F
:101BD00053F4FFFFB2000000560000000000002098
:101BE0007047000000000000000000000102030434
:101BF00006070809030406080C101820300000002E
:101C000000F00DF8002801D0FFF7C6FF00BF00BFAD
:101C1000002000BF00BFFFF7AFFA00F002F801207C
:101C2000704780B500F002F801BDFEE70746384670
:101C300000F002F8FBE7FEE780B500BF00BF024AF4
:101C400011001820ABBEFBE7260002000548014644
:101C500003B4684680F3098800BF00BF00BF00BF1F
:101C6000FFF7CEFFA5EDF5FE000000000102030422
:101C7000FEE7FEE7FEE7FEE7FEE7FEE7FEE7FEE73C
:101C8000FEE7FEE7FEE7FE018100F50004BC000070
:101C90002032F90004F000002032FD000001F900BC
:101CA0000004FB000020FB00070A0019006400E8A4
:011CB0000330
:0400000508001C4D86
:00000001FF
