:020000040800F2
:1000000010050020F51D0008AD1C0008AF1C0008FD
:1000100000000000000000000000000000000000E0
:10002000000000000000000000000000B11C0008FB
:100030000000000000000000B31C0008B51C000810
:10004000AB080008270900082B090008430E000828
:1000500063180008B71D0008C31D0008051E00082E
:1000600000000000071E0008091E00080B1E000803
:100070000D1E00080F1E000800000000111E0008E1
:100080000000000000000000000000000000000070
:10009000131E000800000000151E0008171E0008AF
:1000A00000000000191E0008000000000000000011
:1000B0001B1E00081D1E00080000000000000000BC
:1000C000FEB5060060D0BB4CE0680C2101400091F9
:1000D000E06880214902084001903078C0070ED5C1
:1000E0004F000098082804D00C2872D1019888424B
:1000F0006FD12068074002D07068002844D0307863
:10010000800733D5F0682021084204D022681143CB
:10011000216020218843BB4F0921C943009A042A4A
:1001200005D00C2A01D1019A002A00D08CE0226867
:10013000520701D5002827D06268174032691202A1
:100140003A436260226811400843206000F0A4FA3C
:10015000AD49E2681206120F895CC840BC490860CC
:10016000BC48006800F0E8FA010031D1A70D3078F2
:10017000C00600D4B4E00098002800D091E02068C8
:10018000800503D5B069002800D1A4E16068B249B8
:100190000140306A0843606060680002000AF1694B
:1001A0000906014361600120316A490B491C8840FE
:1001B000C0039549E2681206120F895CC840A44941
:1001C0000860A448006800F0B7FA010000D187E099
:1001D000FEBD7068884201D1206809E0A021C902F3
:1001E0008842206806D1790001432160206879089F
:1001F00001430AE0BA4901402160206879080840BB
:10020000029002982068B749014021607068002878
:100210000DD000F0B3FA05002068384000D06EE73A
:1002200000F0ACFA401B6528F6D30320FEBD00F0B9
:10023000A5FA05002068384000D160E700F09EFA7A
:10024000401B6528F6D3F0E704220192002817D05E
:10025000226811400843206000F090FA05002068F1
:100260000199014005D100F089FA401B0228F6D916
:10027000DBE760680740306900023843606075E77B
:10028000206801218843206000F078FA050020688A
:1002900001990140F3D000F071FA401B0228F6D911
:1002A000C3E7B0690028206830D03843206000F0F0
:1002B00065FA05002068800505D400F05FFA401B50
:1002C0000228F7D9B1E7606863490140306A084302
:1002D000606060680002000AF1690906014361601C
:1002E0003078000730D570690028206D1DD00121BD
:1002F0000143216500F042FA0500206D800723D4F8
:1003000000F03CFA401B0228F7D98EE776490140FD
:10031000216000F033FA050020688005E0D500F088
:100320002DFA401B0228F7D97FE701218843206579
:1003300000F024FA0500206D800705D500F01EFAB4
:10034000401B0228F7D970E73078400765D50020B8
:1003500001903805A16B014004D1A16B0843A06353
:100360000120019061480068384011D15F48006861
:1003700038435E49086000F001FA05005B480068F8
:10038000384005D100F0FAF9401B6528F6D34CE758
:10039000B168B9420AD0564800290DD0A022D20037
:1003A000914209D1206D210D01432165206D074344
:1003B000276508E000100240216D4B4A0A40226583
:1003C000216D08402065670DB06800280CD000F052
:1003D000D5F90500206D384018D100F0CFF9401B49
:1003E000A9498842F6D320E700F0C8F90500206D3E
:1003F00038400BD000F0C2F9401BA3498842F6D325
:1004000013E700BFFFE0FFFF701D00080198002800
:1004100003D0A06B9D490140A163706A00285CD0A5
:1004200000990C2942D08027BF04994902282068EE
:100430002ED10140216000F0A1F90500206838406C
:100440000CD000F09BF9401B0228F7D9EDE600BF65
:10045000B0000020AC000020FF1FFFFFE0688D49C6
:100460000140B06A0843F16A0143306B0843E06021
:10047000206879080143216000F080F905002068B8
:1004800038402AD100F07AF9401B0228F7D9CCE68F
:100490000140216000F072F90500206838401CD04E
:1004A00000F06CF9401B0228F7D9BEE6012812D0F3
:1004B000E068802149020140B26A91420BD1F021EB
:1004C00089030140F26A914205D1C021090401402B
:1004D000306B814201D00120FEBD0020FEBD00BF77
:1004E000FFFFFEFFFFFFFBFFFFFEFFFF007000406E
:1004F000FFFBFFFFF1B582B000285CD00091624F96
:1005000082480068C107C90F0098814217D27F4C0A
:1005100020680121884300990143216000F02EF9F1
:10052000009D06002068C107C90FA94206D000F04F
:1005300025F9801BB842F5D30320FEBD0095744C0D
:1005400002980078800706D5E068F0218843029978
:1005500089680143E1603E4602980078C0074DD5A6
:1005600002984068022819D12168890323D5E168DF
:10057000032291430843E06000F000F9070002986D
:1005800040680C25022818D1E0682840082835D09A
:1005900000F0F4F8C01BB042F6D3CDE7032802D137
:1005A0002168890103E00128216802D14907DED4CE
:1005B00001E08905DBD40120FEBD032809D1E068F4
:1005C00028400C281AD000F0D9F8C01BB042F6D34E
:1005D000B2E7012809D1E068284004280ED000F0D5
:1005E000CDF8C01BB042F6D3A6E7E068284005D09E
:1005F00000F0C4F8C01BB0429ED2F6E70098434911
:100600000968CA07D20F904215D2404D28680121CF
:10061000884300990143296000F0B0F8070028687A
:10062000C107C90F0098814205D000F0A7F8C01B90
:10063000B042F4D380E702980078400706D5E0681E
:10064000344901400298C0680843E060029800788D
:10065000000707D5E0683049014002980069C000F2
:100660000843E06000F018F82C49E2681206120F07
:10067000895CC8402A4908602A48006800F05CF894
:10068000010000D10020FEBD89130000FFFFFFEF35
:10069000FFFFFFFEFFFF02FF50B51D4AD168102388
:1006A0000C200840042804D0082809D00C2809D0C0
:1006B00023E01068034001D01B4850BD1B4850BDCB
:1006C0001B4850BD1B488C02240F005D09028C0F93
:1006D000641C0021D668F60301D5154A03E01268B0
:1006E000134002D0104A002300E0104A00F04CF8FA
:1006F0002200002300F061F850BD50680121000481
:10070000400F401C8140C80350BD00000020024043
:1007100000100240FFF8FFFFFFC7FFFF701D000839
:10072000B0000020AC00002000093D000024F400CF
:1007300000127A00801D000838B505000D4CFA2023
:100740008000217800F096F801000B48006800F066
:1007500091F800F0CCF800280AD1042D08D200222C
:1007600029000020C04300F0BEF8A560002032BD83
:10077000012032BDA4000020B000002001484068E4
:10078000704700BFA400002030B4434351435D18BC
:10079000010C0C00130C5C432D1980B2434392B240
:1007A00051430024C918644124040B04090C09199D
:1007B0005043C018694130BC704712422DD0994255
:1007C00031D970B500251B4209D00C00002112E080
:1007D000110000F04FF80A000021002370BD09420B
:1007E000F6D00024012649186441944200D3A41A8B
:1007F0007641F8D33100012601E0764109D2001894
:1008000064416D41A41A9D41F7D2A4185D41B61907
:10081000F5D3300022002B0070BD1B42CFD108B5AC
:1008200000F080F808BD01D19042CAD202000B004E
:1008300000210020704730B5016841184468620803
:100840008A188368E40704D54C461B1901E0641C30
:1008500009D1914203D00C7864B2491C01E00C30FC
:1008600030BD0D78491C1D705B1C002CEFD4641E3C
:10087000F7D5EEE7094214D088420FD30122030CCA
:1008800001D100041204002300185B418B4200D305
:100890005B1A5241F8D31900100070470100002084
:1008A000704708B500F040F808BDFEE710B5C2007B
:1008B00018231340FF249C40E2438907090E994006
:1008C000030004D414489B089B00C01806E0134B97
:1008D0000007000F083880088000181803681A40C5
:1008E0001143016010BD80B5FFF7E0FF01BD10B5F9
:1008F000401E80214904884201D3012010BD084CCC
:10090000606003210020C043FFF7D0FF0020A060FB
:100910000721216010BD000000E400E01CED00E0B4
:1009200010E000E07047FEE77047FEE7F0B587B0E3
:1009300000F088FA00F05AF9142101A800F096FAA4
:1009400001200090A848016801220A430260016862
:10095000009A0A4006920699022601683143016016
:100960000068304006900698A027FF0500228021ED
:10097000380000F048FB00220221BC4800F043FB95
:1009800013200190002402940098039001A93800DC
:1009900000F074FA682001900294039401A93800D1
:1009A00000F06CFA8025019500980290039404945D
:1009B00001A9380000F062FA0196009802900394B1
:1009C000049401A9A94800F059FA08200190029462
:1009D0000098039001A9A54800F050FA01950294EF
:1009E000039401A9A14800F049FAAB4DAB48286136
:1009F000E120C0006861AC610098E8612C626C6223
:100A0000AC62EC622C632800103000F00FFB002871
:100A100001D000F013FA00212800103000F0E2FCB1
:100A2000002801D000F00AFA00212800103000F060
:100A3000F6FC002801D000F001FA01A800210022F4
:100A400006C0002300252EC0B24DB348A860EC605C
:100A50002C61B2486861AC61EC612800083000F09C
:100A600007FD002801D000F0E9F90194029401A9E2
:100A70002800083000F0F6FE002801D000F0DEF972
:100A800060270397049405940694042203A9280080
:100A9000083000F0D8FD002801D000F0CFF9280080
:100AA000083000F053FF01A80021002206C00023F7
:100AB00000264EC09A4E9B4830607460B4609748E0
:100AC000F06034617461300000F0D2FC002801D085
:100AD00000F0B4F90194029401A9300000F0C2FEC4
:100AE000002801D000F0AAF9039704940594069415
:100AF000002203A9300000F0A6FD002801D000F07C
:100B00009DF9300000F022FF04212800083000F099
:100B100033FD0021300000F02FFDE02000F012F93D
:100B2000E22000F00FF9E42000F00CF9E62000F0DC
:100B300009F97D4F4D4E31E0002000F099F87B48D7
:100B40000078002801D079490C7079480078002895
:100B500018D077490C70A879002805D0AC71002214
:100B60000221300000F04FFA687900280AD0A879F5
:100B7000002807D16C710098A87101220221300071
:100B800000F041FA6B480078002801D069490C70E8
:100B900069480078002801D067490C70387800282F
:100BA00000D03C70654800780028C8D063490C70BC
:100BB00000F044FF287000F079FF614800780128B8
:100BC00002D1287800F006FF6878002804D0E87881
:100BD000002801D10120B0E7A8780028ACD02879FE
:100BE0000028A9D10220A8E72C10024010B598B027
:100BF00034210BA800F03AF91421684600F036F9C8
:100C0000182105A800F032F988480168884A0A408E
:100C1000C10C1143016010200B90012011900024A1
:100C20001294A0200002139014940BA8FFF748FA26
:100C3000002801D000F002F90F20009001940294E6
:100C40000394049400216846FFF754FC002801D067
:100C500072B6FEE708200590099405A800F062FF2F
:100C6000002801D072B6FEE718B010BD0004005095
:100C700010B5704C002804D0022806D000D310BD57
:100C8000200000F00DF8002003E0002000F008F83C
:100C9000200000F022F810BD0000002000540040A9
:100CA00038B584B0694600220023002400253CC1E9
:100CB00060210091019002920392164C04212000C1
:100CC000083000F036FC042269462000083000F0AD
:100CD000BAFC04212000083018E038B584B0694619
:100CE00000220023002400253CC1602100910190D6
:100CF000029203920A4C0021200000F01AFC00220C
:100D00006946200000F09FFC0021200000F0D3FB8A
:100D100005B030BD5C00002000080140FFFF00006E
:100D2000B400002000140140F4000020F600002070
:100D3000F7000020F8000020F9000020F500002056
:100D40000A010020F1B582B001A800BF3CA10A88C9
:100D50000280394E0027FF430097012301AA68460D
:100D6000017A3000103000F0B5F9002501AC258083
:100D70000097022301AA6846017A3000103000F083
:100D8000A9F90120207065700097022301AA684626
:100D9000017A3000103000F09DF90220207065705B
:100DA0000097022301AA6846017A3000103000F053
:100DB00091F90320207065700097022301AA68460C
:100DC000017A3000103000F085F904202070657041
:100DD0000097022301AA6846017A3000103000F023
:100DE00079F90520207065700097022301AA6846F2
:100DF000017A3000103000F06DF906202070657027
:100E00000097022301AA6846017A3000103000F0F2
:100E100061F90720207065700097022301AA6846D7
:100E2000017A3000103000F055F9F7BD0070004035
:100E3000FFE7FFFF204E00000000002072B6FEE733
:100E40002100FEE710B500240748016840220A434C
:100E500002600320FFF770FC002801D0012401E0AC
:100E600000F02EFD200010BD00200240002200BF37
:100E7000094202D0491E4254FCD17047F0B585B0FA
:100E800000220F23039331E0062303E0614B9842D5
:100E9000FAD10523B3402B4323605F4B1D68019BB0
:100EA000DC4325404B68DB0302D52B00019D1D432D
:100EB000594B1D605D6825404E68B60302D52E0073
:100EC000019D35435D609D6825404E68F60202D560
:100ED0002E00019D35439D60DD682C404D68AD02BC
:100EE00002D52500019C2C43DC60521C0B681C00C1
:100EF000D44000D17FE00124944023400193019B22
:100F0000002BF2D0530003259D40EE4302964D681E
:100F1000AE07B60F012E03D0AD07AD0F022D0ED1D7
:100F20008568029E2E40CD689D40354385604568AA
:100F3000A5434C68E606F60F96402E4346609400A3
:100F40006D466C7003244D682540032D25D0C5687F
:100F5000029E2E408D689D403543C5604D682540FA
:100F6000022D1AD1D508AD0045192E6A04966E4699
:100F700077781C263E406F463E70049EB446039F21
:100F80006E463678B7406646BE43B4460F696E4635
:100F90003678B740664637432F620568029E2E407A
:100FA0004D682C409C40344304604B68C024A4022C
:100FB0001C409AD00123194C24681C43174D2C6007
:100FC000174C9508AD00641925686E4677780C2695
:100FD0003E40039FB740BD43A027FF05B84201D163
:100FE000002357E70F4FB842FBD00F4B984200D079
:100FF0004CE702234EE705B0F0BD0069084000D081
:101000000120C0B27047002A01D08161704781621F
:1010100070470000001C00500004014034100240E2
:1010200008000140000400500008005070B50400A2
:1010300001D1012070BD25004035002668780028C8
:1010400003D12E70200000F046FC24206870206838
:10105000016801229143016060686C490140206889
:10106000016121686A488A6802408A60E168012952
:10107000A16801D1C24301E0842212020A4321681F
:101080008A60E168022903D1802109012268516048
:1010900021684A685F4B13434B602168CA6810405F
:1010A000C860206961690143A069000208432168A2
:1010B000C860E069216A0143206801602068016816
:1010C00001220A4302606E60202068702663AE70C1
:1010D000002070BDFEB504000F0016001D0040305A
:1010E0004078202800D08FE04020205C012800D1EB
:1010F0008AE0012040216054FFF740FB01900090FE
:1011000019230122D103200000F09AF8002879D198
:10111000212021004031487010202100403188708A
:1011200000202100403148606662658560633A486E
:10113000089E618DFF290BD9FF2121850090802316
:101140005B04FF223900200000F035F9019D11E019
:10115000628D2285009080239B04D2B2F2E7FF20AB
:1011600020850020009080235B04FF2239002000AE
:1011700000F021F9608D00282DD02A0031002000D8
:1011800000F08AF800283DD1606A00782168886202
:10119000606A401C60622148618D09186185218D5B
:1011A00008182085618D0029E4D00004E2D1009563
:1011B000330000228021200000F042F8002821D1D5
:1011C000608DFF28CBD8628D22850020009080237F
:1011D0009B04D2B2CAE731002A00200000F085F853
:1011E00001000DD120202268D061226853680C4D87
:1011F0001D405560220040325070002090701070E9
:10120000080002D00120FEBD0220FEBDFFFFFFF05E
:10121000FF7FFFFF0080000200200080FFFF000032
:1012200000E800FE00688169890701D5002181621C
:10123000012182690A4002D18269114381617047AC
:10124000F8B5002405000F00684602701E002868EB
:1012500080693840B84201D1012000E00020694691
:101260000978884216D10020C0438642EFD0FFF7AC
:1012700085FA0699401A864201D3002EE7D128004C
:101280004030202142680A434260417084700470FB
:101290000120F2BD0020F2BD70B504000D00160063
:1012A0002068806980071ED432002900200000F0E9
:1012B00042F8002801D0012070BD0020C0438542C3
:1012C000EED0FFF75BFA801B854201D3002DE7D1FA
:1012D00020004030202142680A43426041700021D2
:1012E00081700170E7E7002070BDF8B5202504008B
:1012F0000E0017002068806928401AD13A0031009A
:10130000200000F018F8002807D1FFF737FAC01BBB
:10131000864204D3002EEDD101E00120F2BD200071
:10132000403041682943416045700021817001705F
:10133000F3E70020F2BDF8B5036810249D6925404D
:1013400037D05D68AD0103D45D68A6022E435E60B0
:1013500005000F000092202628688169314011D1D4
:101360000020C0438742F7D0FFF708FA0099401ADF
:10137000874201D3002FEFD128004030416831432C
:10138000416010E0C4612868C6612800FFF74AFF89
:1013900028684168114A0A4042602800403041688C
:1013A00004220A43426046700021817001700120CE
:1013B000F2BD0020F2BDF0B5059C00684568660DE1
:1013C000074F3743BD438905890D294312040A435A
:1013D00013431C434460F0BD0000000000E800FE21
:1013E000FF63FF0370B5020040325378202B14D105
:1013F0004023C35C012B10D00123137024245470AC
:10140000046825689D43256004682568164E2E40B3
:1014100026600468256829431CE0022070BD70B571
:10142000020040325378202B12D14023C35C012BA1
:101430000ED00123137024245470046825689D4342
:10144000256004682568094E2E400902314301E0F9
:10145000022070BD2160006801680B4303602020FA
:1014600050700020107070BDFFEFFFFFFFF0FFFF16
:1014700010B5040001D1012010BD3920205C0028E6
:1014800004D138216054200000F050FA02203921A4
:101490006054211D206800F043F901203E21605472
:1014A0003A2160543B2160543C2160543D216054FA
:1014B000392100F0C5F810B50400002901D13A2007
:1014C00008E0042901D13B2004E0082901D13C2097
:1014D00000E03D20205C012801D0012010BD022049
:1014E000002901D13A2208E0042901D13B2204E07D
:1014F000082901D13C2200E03D22A05401222068AD
:1015000000F0A2F9216801208207914205D0494AE2
:10151000914202D0484A914205D189684907490F52
:10152000062904D021680968084321680860002062
:1015300010BD38B504000D000022206800F084F9C9
:101540002068006A3D49014005D1206800680121FA
:101550008843216808600120002D01D13A2108E06C
:10156000042D01D13B2104E0082D01D13C2100E0F4
:101570003D216054002032BD70B5040000260029D2
:1015800001D13A2008E0042901D13B2004E00829D8
:1015900001D13C2000E03D20205C012801D0012049
:1015A00070BD02200125002902D13A23E0541CE03D
:1015B000042905D13B22A0542068C268042306E018
:1015C000082907D13C22A0542068C268082313438D
:1015D000C3600EE03D23E0540A0006D00429EBD09E
:1015E0000829F1D00C2919D01CE02268D3681843CF
:1015F000D0600122206800F027F92068A9078842FE
:1016000005D00C49884202D00B4988420CD1806831
:101610004007400F06280BD0206805E02068C2680C
:101620001023D4E7012603E0006805432068056025
:10163000300070BD0008014000140140111100008D
:101640006054002010BDF1B582B000206B461870C8
:1016500002983823C05C012801D10220FEBD012080
:10166000029B3824185508272C4EC5020C00002A6E
:1016700006D0042A14D0082A24D00C2A32D043E001
:101680000298006800F073F80298006881690F43BF
:10169000876181690422914381618169E2680EE07A
:1016A0000298006800F079F80298006881690D439B
:1016B000856181690E4086618169E26812020A4390
:1016C000826123E00298006800F07FF802980068C9
:1016D000C1690F43C761C16904229143C161C169F6
:1016E000E2680EE00298006800F086F80298006850
:1016F000C1690D43C561C1690E40C661C169E26837
:1017000012020A43C26101E0694608700020029992
:101710003822885468460078FEBD0000FFFBFFFFBA
:1017200070B50268404B414C8025ED05A84203D0BE
:10173000A04201D0984208D17026B24316004A68F0
:101740003243A84203D0A04201D0984203D1384B83
:101750001340CA681A4380239A430B6913430360FA
:101760008A68C262096881620121416170BD30B539
:10177000026A01239A430262036A426885697324FC
:10178000A5430C682C430225AB438D681D43426082
:10179000846149684163056230BD30B5026A102337
:1017A0009A430262026A43688469224D25400C68AC
:1017B00024022C432025AA438D682D011543436044
:1017C000846149688163056230BD30B5026A1A4B95
:1017D00013400362046A4268C56973239D430B6822
:1017E0002B43164D25408C6824022C434260C36174
:1017F0004968C163046230BD30B5026A104B1340C2
:101800000362036A4268C4690A4D25400C682402D9
:101810002C430C4D1D408B681B032B434260C4615D
:1018200049680164036230BD0014014000080140B2
:10183000FFFCFFFFFF8CFFFFFFFEFFFFFFFDFFFF31
:10184000FFEFFFFFFFDFFFFF10B5C906C90E036AF8
:1018500001248C40A3430362036A8A401A43026254
:1018600010BDFEE7F0B53822825C012A01D10220CA
:10187000F0BD02003832012313700224392544558B
:1018800005686E68AC687027BE430F6837436F60A9
:1018900005689E07B54205D0074EB54202D0074EF7
:1018A000B54204D18026B44349682143A960392157
:1018B000435400201070F0BD0008014000140140A6
:1018C0003E48016801220A430260416880225205B5
:1018D0000A434260704710B586B00400142200210C
:1018E00001A800F0D9F92068354988421CD10120AF
:1018F000344C216801432160216801400091009926
:10190000C021C900019112210291002103910321FC
:101910000491059001A9A020C005FFF7AFFAE06887
:10192000802189030143E16006B010BD00682349AE
:10193000254A904202D10868042204E0234A9042DA
:1019400003D10868202202430A60704710B586B0B0
:10195000040014220021684600F09EF9236802204A
:10196000184A0021184CA34211D1012314681C43CA
:101970001460126813400593059A82020092019048
:1019800002910391052004906946000712E00F4C74
:10199000A34211D1136803431360126802400592F9
:1019A000059A102200920190029103910420049064
:1019B00069460748FFF762FA06B010BD34100240CE
:1019C000005400402C100240000801400014014067
:1019D000000400502B490A78521C0A7001210F287C
:1019E00008D017280AD01B280AD01D2804D01E288A
:1019F00008D00DE024480AE0244808E0244806E026
:101A0000244804E024480078002801D123480170CC
:101A10000020234A10702348017070470100002005
:101A20000A0001D1012070470F39FBD00839F9D0E5
:101A3000091FF7D0891E0129F4D9704770B5A02677
:101A4000F60510213000FFF7D8FA04010821300014
:101A5000FFF7D3FAC0002043040002213000FFF753
:101A6000CCFA050008211048FFF7C7FAA900214366
:101A700044000C4301213000FFF7BFFA2043C0B2FD
:101A800070BD00000F0100205F00002060000020FA
:101A90005D0000205E000020620000206100002048
:101AA0000A0100200B0100200004005038B5012479
:101AB0000321164D1F2815D0AB79984210D12978F3
:101AC00000290BD1FFF7AAFF002803D0687900286E
:101AD00000D12C7129782970002032BD491EFAE707
:101AE000A871F8E7A871A020A8700020E8706870BD
:101AF0006871EC71064A1070064A1070064A107040
:101B0000064A1070064A1070E5E700BF0601002083
:101B10000E010020600000205F0000205D0000201A
:101B20005E000020FEB5070000200190504C387880
:101B3000800676D580204005A16B014004D1A16BC1
:101B40000843A06301200190A50D4A480068284081
:101B500013D1484800900068284300990860FEF7B8
:101B60000DFE060000980068284006D1FEF706FE2C
:101B7000801B6528F6D30320FEBD21687868C0224B
:101B800092030A40C021890301408A420BD0C02140
:101B900089020140C0229202914204D12168890346
:101BA00001D50120FEBDC026B602216D314020D0F6
:101BB000304081421DD0387880061AD5216D2E48DC
:101BC0000840216DEA020A432265216D2B4A0A4032
:101BD0002265206505400CD0FEF7D0FD0500206D84
:101BE000800506D4FEF7CAFD401B25498842F6D37E
:101BF000C1E7786831000140B14206D12168214A2D
:101C00000A403101014011432160206D79680E4086
:101C1000064326650198002803D0A06B1A490140AD
:101C2000A1633878800705D5E06C0C218843B9683A
:101C30000143E1643878400705D5E06C1349014061
:101C4000F8680843E0643878000705D5E06C10496F
:101C5000014038690843E0643878000605D5E06C37
:101C60000C49014078690843E0640020FEBD000093
:101C70000010024000700040FFFFFCFFFFFFF7FF75
:101C800089130000FFFFCFFFFFFFFFEFFFF3FFFF10
:101C9000FFCFFFFFFFFFF3FF10B5040008001100A6
:101CA00002002000FFF7E4F8200010BDFEE7FEE789
:101CB0007047704738B519481949CA881318012266
:101CC0001C0401D10A700A23CB800B891B181C0449
:101CD00001D14A7019230B814B891B181C0401D1B7
:101CE0008A7064234B818B891B181C0401D1CA7034
:101CF000FA238B81CB891C18FA239B00250401D180
:101D00000A711C00CC810C8A2018040401D14A718C
:101D10001800088200F006F831BD0000FFFF000047
:101D2000F400002002484168027889184160704739
:101D3000A400002010B5074979441831064C7C44B2
:101D4000163404E0081D0A68891888470100A1427A
:101D5000F8D110BD0800000014000000DBEAFFFF0E
:101D6000BE0000006400000000000020704700007A
:101D7000000000000000000001020304060708093B
:101D8000030406080C1018203000000000F00DF8C5
:101D9000002801D0FFF7CEFF00BF00BF002000BF2A
:101DA00000BFFEF7C3FD00F002F80120704780B5C8
:101DB00000F002F801BDFEE70746384600F002F8E1
:101DC000FBE7FEE780B500BF00BF024A1100182004
:101DD000ABBEFBE7260002000548014603B4684697
:101DE00080F3098800BF00BF00BF00BFFFF7CEFF30
:101DF000A5EDF5FE01488047014800476D1D00082C
:101E0000D91D0008FEE7FEE7FEE7FEE7FEE7FEE776
:101E1000FEE7FEE7FEE7FEE7FEE7FEE7FEE7070078
:101E200001020304050607AC00001FB9000001F918
:101E3000000004FB000020B9000E0A001900640035
:101E4000FA00F401E8030300A0FD00031F010000F5
:0400000508001DD9F9
:00000001FF
