:020000040800F2
:10000000580B0020855500088D5300088F530008B9
:1000100000000000000000000000000000000000E0
:1000200000000000000000000000000091530008E4
:1000300000000000000000009353000895530008E2
:100040006313000883180008871800088B1800083D
:1000500063340008BB3D0008C75400085B55000826
:1000600000000000ED530008675500089555000892
:10007000F753000897550008000000009955000844
:100080000000000000000000000000000000000070
:100090009B550008000000009D5500089F55000872
:1000A00000000000A1550008000000000000000052
:1000B000A3550008A555000800000000000000003E
:1000C000FDB5B2B03A98049102A93B2288540020B1
:1000D0000D9024A8401C2F900DE00498329A904770
:1000E0000490002801D100F001FF0D98401C0D90F4
:1000F0003398401C339033980178002910D025297B
:10010000EBD100200790089009900A900B900C907A
:10011000002102240120149008201290339D05E054
:100120000D9800F0E5FE0800149901436D1C287835
:100130002028F8D023280BD02B2804D02D2804D039
:10014000302808D00AE02143F0E708000421ECE75A
:1001500008000821E9E708001021E6E72A280FD166
:10016000349802681068121D349B1A600F900028A2
:1001700004D542420F920800042101436D1C12E095
:1001800000200F90654A09E00F9B934205DA9E001C
:10019000F3185B00181830380F906D1C2878030096
:1001A000303B0A2BF0D328782E2803D00020C04300
:1001B0000E9027E06D1C28782A2808D13498006812
:1001C0000268001D349B18600E926D1C1AE02D28E9
:1001D00002D12D226D1C00E0002200200E900CE0C8
:1001E000002A09D10E9B4D4EB34205DA9E00F3184A
:1001F0005B00181830380E906D1C28780300303BD7
:100200000A2BEDD302A801872E78310041487844AB
:10021000FF30C01C00F052FF002801D06D1C00E030
:10022000002602A83A214654405C682804D1287868
:1002300068280BD1622005E06C2807D128786C284B
:1002400004D1712002A93A2288546D1C15A8069089
:10025000287869460870681C339068460278100058
:10026000253833D01C3800D118E2001F022800D8EE
:1002700014E2133801D100F065FD093800D10DE218
:10028000801E01D100F0FBFD401E01D100F0A8FD51
:10029000401E022800D801E2001F01D100F0A0FD9D
:1002A000401F00D153E1401E01D100F04BFD401E24
:1002B00000D1F3E0C01E10D0801E01D100F042FD3D
:1002C000C01E01D100F03EFD00F0E4FD252015A97F
:1002D00008701498079000F0E8FD349800680468EE
:1002E000001D349908600594002C00D0C2E002A8DB
:1002F0003B21405C002800D1B5E00024E4430648DF
:100300007844143000F022FF201A01D000F0EEFDF6
:1003100000F0CBFD0C51000040510000CBCCCC0CC8
:1003200001236A4602A9280000F0ADFE002801D092
:1003300000F0DCFD641EF3D13295079D15AC002D55
:100340000FD0329E227802A9300000F08BFE0028E8
:1003500002D4641C6D1EF5D13296002801D000F045
:10036000C5FD3020694608700A9C002C0DDD329DC9
:1003700001236A4602A9280000F085FE002801D06A
:1003800000F0B4FD641EF3D13295059C089D002D4C
:100390000FD0329E227802A9300000F063FE0028C0
:1003A00002D4641C6D1EF5D13296002801D000F0F5
:1003B0009DFD302769460F700B9C002C0DDD329D92
:1003C00001236A4602A9280000F05DFE002801D042
:1003D00000F08CFD641EF3D13295059808994418FD
:1003E000099D002D0FD0329E227802A9300000F026
:1003F00039FE002802D4641C6D1EF5D13296002807
:1004000001D000F073FD684607700C9C002C0DDDD8
:10041000329D01236A4602A9280000F034FE00281C
:1004200001D000F063FD641EF3D1329502A838219B
:10043000405C400700D45EE62020694608700198C1
:10044000002800DC57E6019C329D01236A4602A980
:10045000280000F018FE002801D000F047FD641EBF
:10046000F3D1329547E640487844FF30C01E0590EE
:1004700000F01BFD0E9D002D03D5200000F08AFE2C
:1004800009E02A000021200000F090FE002801D0A1
:10049000001B00E02800089000F007FD3498006879
:1004A0000268001D349908600020C04300211040FC
:1004B00002AA03C215A80590069A3C2302A803C805
:1004C000002904D1002802D10E9C002C15D05B1EFF
:1004D00005072D0F3035EEB23A2E08DAD554000953
:1004E0000C072043090904D1002802D105E0273573
:1004F000F4E7059CD518AC42E9D33C20C01A08901B
:10050000D11805910E99884208DA081A0A9002A8B3
:10051000018FAA4A0A40028700F0C7FC002901D4D3
:1005200000F0C3FC02A93822895C14220A40102A78
:1005300001D000F0BAFC0F99079A891A0A9A891A11
:10054000081A002801DC00F0B0FC00F0F9FB02A85A
:100550003B21415C002909D00024E4434B48784406
:10056000FF302B30CEE600BF0C4F00003A21405C3C
:1005700062286AD0682819D06A2845D06C2806D02D
:1005800071284FD0742831D07A2821D06FE0349868
:1005900000680168001D349A106000297AD1002497
:1005A000E4433B487844FF301738ABE634980068A2
:1005B0000168001D349A1060002905D10024E4432D
:1005C00033487844CA309DE60D98088000F06DFCF1
:1005D000349800680168001D349A1060002959D1D0
:1005E0000024E4432A487844A6308BE63498006817
:1005F0000168001D349A106000294BD10024E443A7
:10060000234878448A307DE6349800680268001DEB
:1006100034990860002A13D10024E4431C4878442C
:100620006E306FE6349800680268001D34990860E7
:10063000002A05D10024E44315487844523061E68D
:100640000D98C11703C200F030FC349800680168AF
:10065000001D349A1060002905D10024E4430C48A1
:1006600078442C304EE60D98087000F01EFC34984B
:1006700000680168001D349A106000290AD1002426
:10068000E4430348784408303CE600BF9C4D00003A
:10069000B04D00000D98086000F007FC3498036826
:1006A000DB1D072083433498036003CB349D2B600C
:1006B00002AB03C32023C80F04D007982D2115AB2C
:1006C00019540DE002A8008F204204D007982B2176
:1006D00015AB195404E0C00704D5079815A90B54AD
:1006E000401C079015A807994318059324AD02A84C
:1006F000C0C868460078202101436846817061299E
:1007000009D00E98002801D5062003E003D16729FF
:1007100001D114980E9002A803C808004C0064157B
:10072000641C0ED109030CD003200890613A1A2AE8
:1007300003D22349794488310FE022497944843136
:100740000BE0002C0ED100030CD103200890613A7D
:100750001A2A1DD31C4979446E310322180000F077
:100760004BFDA2E301AA02A803C800F052FD02AAB1
:1007700003C268468078612813D105983021017042
:10078000811C059169460978612905D1782104E029
:100790000E4979443631E0E7582141700798801CB2
:1007A000079002A803C893A20CCA02400B400FD1C5
:1007B000002A0DD10024002661E100BFEFFF0000F8
:1007C000B84C0000B84C0000BC4C0000B44C000019
:1007D00068468078612800D099E00E98002801D5FD
:1007E000212000E0401C13901398401C2E903000F4
:1007F00039000022002300F021FD02A830C802D2F7
:100800008020000645400198001F019024A90A702D
:1008100024A8461C2E98002832DD2E9F2000290097
:10082000002280235B0300F022FD29D81C2200F067
:1008300037FD04000D0000F06BFD2E90FF1F002F10
:1008400009DD00F09FFD02000B002000290000F0F0
:1008500006FE04000D00F01D07212E9A002A0ADD75
:10086000491E08D4401E13071B0F03701211F5E731
:10087000401E00220270491EFAD5C61D002FCDDC95
:1008800024A82F99711A24AA551C139A0C0091427E
:1008900000DD1400002C33D48C4205DA411C095DC4
:1008A000082901DB0F2100E00021220024AB9B1866
:1008B00001E0641E5B1E521E1E788E42F9D00F2985
:1008C00004D1411C895C491C401C8154002A04D578
:1008D00024AD641C0198001D0190611E10D46A189B
:1008E0006846007813783033DEB23A2E01DBC31845
:1008F000C6331370491E521E0029F3D5694608708D
:100900000E98002800D4B9E0601E0E90B6E07F007B
:100910007F08019868494843684900F017FE019034
:1009200007200199401A002805DD02003000390037
:1009300000F072FB0AE042420020614900F06CFBCB
:1009400002000B003000390000F02FFE6A4692785A
:10095000662A02D1019A0A3200E006220E9B9A18FA
:10096000142A00DD142224AB30241C705C1C02E02D
:1009700030A803C8139A002A40DD30AB03C313929A
:1009800030A803C800F0D6FC2E9006460834042593
:1009900030000A2100F0EEFD0F0030000A2100F0C7
:1009A000E9FD06003037601E077030000A2100F0B4
:1009B000E1FD0F0030000A2100F0DCFD0600A41E5E
:1009C000303727706D1EE3D1083413980838139020
:1009D0000028CDDD2E9800F0C5FC02000B0030A8E9
:1009E00003C800F03CFD0022364B00F03FFE30AA69
:1009F00003C2C5E7FFFFFFFFFFFFFF7F2F98201A0D
:100A000024A94D1C04E0401E0199491E01916D1C52
:100A100029783029F7D069468978662902D1019969
:100A2000491C06E069468978652901D1149900E0DE
:100A300000210E9A5418A04200DA441E002C1DD446
:100A4000844204DA285D342801DD392100E03021B8
:100A50002200681E831801E0641E5B1E521E1E7871
:100A60008E42F9D0392902D1A95C491CA954002A27
:100A700004D50500641C0198401C0190019E13954B
:100A8000684600786946487000F0B2FE406A007817
:100A9000694608700E9D20B2002804DC149C0548AD
:100AA0007844103013906846807866280CD1761C04
:100AB00024E000BFD449000097750000A086010023
:100AC0000000F03F84D7974168468078672846D178
:100AD00030B20321C943884247DBA84245DA761C7D
:100AE00002A8008F1299C0B2084203D120B2A842D6
:100AF00000DC050030B22D1A00D5002537B2002FDA
:100B000000DDBAE00898411C08913021059A115483
:100B1000002D05DC02A8008F1299C0B2084206D051
:100B20000898411C089169460978059A1154784241
:100B3000854200DA6E4236B270420B90AD1920B297
:100B4000854200DA2C0024B20994220013990598FA
:100B5000089BC01800F050FB281B0C90DAE0684698
:100B60004078612818D170201BE020B2A84206DA34
:100B700002A9098F129AC9B2114200D105006D1E57
:100B800000D5002568464078672802D1652069466F
:100B900007E04520694604E068464078412801D1D5
:100BA000502048700898411C089113990978059ABB
:100BB00011541398411C002D05DC02A8008F129AD5
:100BC000C0B2104219D00898421C08926A461278A6
:100BD000059B1A54002D10DD641E20B2854200DAF8
:100BE0002C0022B20598089BC01800F005FB24B227
:100BF000089800190890281B0B9005980899401830
:100C000069464978017031B2002903D42B21417023
:100C1000871C03E02D224270871C4E42002412AD37
:100C2000300008E00A2100F091FC30AA03C22970CC
:100C30003098641C6D1C00B20028F3DC012C08DC29
:100C40006846407820210143652902D13020387060
:100C50007F1C002C09D1302038707F1C07E0641EF7
:100C600012A8005D303038707F1C002CF7DC05982E
:100C700008994018381A09904CE020B231B28842E5
:100C80001DDA22B213990598089BC01800F0B4FA37
:100C900024B2089800190890391B0B91002D05DC2F
:100CA00002A9098F129AC9B2114206D06946097881
:100CB000059A11540998401C09900C952AE032B20B
:100CC00013990598089BC01800F096FA0898C01967
:100CD0000890A41B002D05DC02A9098F129AC9B245
:100CE000114205D0411C089169460978059A1154B2
:100CF00020B2854200DA2C0022B21398C11905985F
:100D0000089BC01800F078FA24B2089800190890DF
:100D1000281B0B9002A83821405C142101401029A7
:100D200000D0C2E00798089940180B99401809991B
:100D300040180C9940180F99884200DBB5E0081A5A
:100D40000A90B2E002AA3A20105C622808D0682813
:100D50000ED06A2814D06C281DD0712810D01AE04B
:100D6000349801680868091D349B1960C0B218E006
:100D7000349801680868091D349B196080B210E03E
:100D800034980368DB1D072083433498036003CB4A
:100D9000349C236006E0349801680868091D349B80
:100DA0001960002102AB03C3108F1299C0B2084230
:100DB0005BD002A803C8002901D1002855D068469D
:100DC00000782021014378294FD1079815A93022B6
:100DD0000A54401C421C07926A4612780A5444E0A6
:100DE00002AA3A20105C622808D068280ED06A282F
:100DF00014D06C281DD0712810D01AE034980168E6
:100E00000868091D349B196040B218E034980168E5
:100E10000868091D349B196000B210E0349803681B
:100E2000DB1D072083433498036003CB349D2B6084
:100E300006E0349801680868091D349B1960C117E1
:100E400002AB03C3002902DA07982D2109E0108FB5
:100E5000204202D007982B2103E0C00705D5079850
:100E6000202115AA1154401C079015A80799401875
:100E700005906846017802A800F03CF815E0149847
:100E80000790349800680168001D349A106015A816
:100E900001700AE0252015A908701498079068468B
:100EA0000078002801D04A7007940F980799401ADB
:100EB0000A99401A0899401A0B99401A0999401A40
:100EC0000C99401A019002A83821405C400701D5D6
:100ED000FFF733FA2020694608700198002801DCEA
:100EE000FFF72BFA019C329DFFF71AFA0020C0434E
:100EF00035B0F0BDF2B586B0040025696F2901D187
:100F0000082707E0084620210143782901D00A2755
:100F100000E010273C2603CC083C04AA03C26A4622
:100F2000127E642A03D06A46127E692A09D10029FA
:100F300007DA04A803C800220023121A8B4104A870
:100F40000CC004A803C800290DD100280BD1206BC8
:100F5000002808D1082F3DD13820205C000739D562
:100F60003B26302035E00294009504A830C8761E58
:100F70000196200029003A00FB1700F03FFC3032B8
:100F8000D0B23A280DDA00988255200029003A00A4
:100F9000FB1700F033FC04000D0007D1002C05D135
:100FA0000AE06846007E8218AF32ECE70298C0681B
:100FB000009989198842DAD3029C009D082F09D133
:100FC0003820205C000705D5A85D302802D0761EA9
:100FD0003020A8553C20801BA061A919E160216B3D
:100FE000884206DA081A2062208F1C4901402187B6
:100FF00010E000290ED53821615C14220A40102A25
:1010000008D1616B6269891A226A891A081A002854
:1010100000DD206207B0F0BDF8B50026104F0400D7
:101020000D00009214E0C00707D532003B002000FD
:10103000290000F01BFB04000D00009840100090F8
:101040003000390032003B0000F010FB06000F00BA
:1010500000980028E7D120002900F4BDEFFF000030
:101060000000244010B503000C001100A068984750
:10107000A060002804D0E06A401CE062002010BD9F
:101080000020C04310BDF8B50024002B11D007008C
:101090000E0014001D002178B068B847B060002829
:1010A00009D0F06A401CF0620020641C6D1EF2D171
:1010B00004002000F2BD0020C043F9E7C9B2027865
:1010C0008A4203D0401C002AF9D100207047F1B4B5
:1010D0000168421841684808131800988068C907D9
:1010E0001ED5494640181BE01778521C0770401C5B
:1010F000761EF9D1002C13D01678521C89080D40A9
:10110000032D01D11578521C290271184D42411945
:10111000A41C05D00D78491C0570401C641EF9D133
:101120009A420FD01178521C032503260E4002D19B
:101130001678F61C521C0C090F2CD9D114780F34D8
:10114000521CD5E700980C30F2BC704780B50028DF
:1011500001D100BF07A006490B68002B03D0222253
:101160000021984701E000F087FB222002BD00002B
:1011700050070020636F6E73747261696E7420682B
:10118000616E646C65723A20626164206D65737390
:1011900061676500431C0178401C0942FBD1C01AFD
:1011A00070470268531C036011707047C9B2521E29
:1011B00005D30378401C8B42F9D1401E70470020B4
:1011C00070472E0070B4103A03D378C9103A78C033
:1011D000FBD2530701D318C918C001D508C908C0EC
:1011E000D20704D30B880380891C801C002A01D5F8
:1011F0000B78037070BC70478B0701D18307E1D077
:10120000124205D00B78491C0370401C521EF9D1C4
:10121000704710B5144600F002F8226010BD4A0075
:1012200053155B1C08D0520D06D003231B02FE3A57
:10123000D21A1305C91A70470022704730B401242E
:1012400064054D00EC420BD85D00EC4208D80C0060
:101250001C4364000443144304D2994200D19042D9
:1012600030BC7047FCD08B42FAD18242F8E730B4F0
:10127000012464054D00EC420BD85D00EC4208D817
:101280000C001C4364000443144304D28B4200D17D
:10129000824230BC7047FCD09942FAD19042F8E7C4
:1012A000124217D40023DB435B0D9C464B005B0DC1
:1012B00006D0634504D09B18634502D212058918F5
:1012C00070476246090D11430905002000B500BFB3
:1012D00000BF00BD52424B005B0DF1D05B1C5B05B3
:1012E000EED25B0D934102D91205891A70470BD1DA
:1012F0000B031B13C90FC907821C00204341134372
:10130000E4D912051143E1E7C90FC9070020DDE761
:10131000F4464A1805D200F00FF801D580174008AE
:10132000604700F009F80121C907884200D9080088
:10133000404260474A1812D2400DC90208430121B9
:10134000C9070843520D40210901521A521C06D404
:1013500052421F3201D4D0407047C017704700205E
:101360007047FEE7010042221201D21E004207D060
:1013700002D4521E0018FCD5C10A40051205891876
:10138000704700000100EED54042F446FFF7EBFF46
:101390000122D20711436047F0B40125ED070F0089
:1013A0005F404FD48B4200D1824205D98446100061
:1013B00062468C4619006346DF184C18640D7F0D99
:1013C0003AD0661C760537D0E61B352E34DCDB02BE
:1013D0002B43DB0A0C0DC9022943C912202E0DDB59
:1013E0001700203E06D01F00F741F3405F40002663
:1013F000012A7741C01871410DD217E01700F7415B
:10140000F2405740F3415A40B340F3405A4000265F
:10141000801859410AD3A21C52050FD0C207012FD0
:10142000724117004008CB0718434908641C240583
:101430004208AF4170416141F0BC7047641C210516
:101440000020F9E76B4010E06B40ABE7F742F3D1C7
:10145000E943F1E72442EFD100200021ECE7F0B4AA
:101460000125ED070F005F40EED40C00871A9C4168
:1014700005D2C01BA141D219634169406B40AE0A3D
:10148000DF184C18F442E1D2640D7F0DE2D0E61B68
:10149000362ED1DCDB022B43DB0AA4460C0DC9023D
:1014A0002943C90A012E28DC04D1D6075208DF07D8
:1014B0003A435B08EF0A76429041994114D0394291
:1014C0003BD1B61940414941761C394204D1761CC2
:1014D000001849413942FAD0B9436746B74208D9A2
:1014E000A41B24052143A7E70042EAD13642E8D1F4
:1014F000A2E7E40AE10700209EE7202E0BDD203E54
:101500001F00F340F7415F40012A002257417E420D
:10151000984191410BE01700F741F2405740F341E9
:101520005A40B340F3405A407E42904199410A03E9
:1015300003D2641EB619404149410027641E2405A8
:101540004208AE4178416141F0BC7047CA0F00D0FB
:10155000494203105A400DD004B500D3404200F078
:1015600009F8009AD20701D34942124200D54042FD
:1015700004BD0000094214D088420FD30122030C9D
:1015800001D100041204002300185B418B4200D3F8
:101590005B1A5241F8D31900100070470100002077
:1015A000704708B500F06EF908BDF0B40E005E405B
:1015B0000125ED072E40B446AE0ADF184C18F44260
:1015C0003BD2F74241D2640D43D07F0D38D0E41BAB
:1015D000C902DB0229432B43CF0ADB0A0600B61AF5
:1015E0009F4104D2641EB6197F41B6185F4168124C
:1015F000800D24180018844222DCE80C0021B61962
:101600007F41B61A9F4102D2B6185F413F1C40414C
:101610004941F4D3241C21DD2405B6197F41B61AB3
:101620009F4105D33743C60737430026012F70413A
:10163000614166463143F0BC7047FCD1F74205D2A8
:101640000020C14349054908F3E704D00020C14305
:10165000F1E77F0DFAD000206146ECE72442FAD191
:10166000401C61410F03F6D30020E2E7F0B50E0005
:101670005E400125ED072E40B446AE0ADF184C1837
:10168000F44208D2F7420ED2640D01D07F0D12D180
:1016900000206146F0BD05D1F74201D87F0D05D18C
:1016A0000020C143F0BDFBD1640DF9D00020C1433F
:1016B000490549088FE0E419C902DB0229432B439D
:1016C000DB0A460DC00231438E4630B487B295B274
:1016D0007D432E0CADB2140C7C43A419260C2404BB
:1016E00025439CB27C43A419190C7943270CC919D2
:1016F000A4B20F043C43090C000C97B247432E0CD4
:10170000BE193543ADB2170C4743360CBF19A6B20C
:10171000BF193E043543240C3E0C36199FB2474393
:10172000BF19BCB23E0C89191F0C47437F183E04F9
:101730003443390C704680B297B247432E0CBE1921
:101740003543ADB2170C4743360CBF19A6B2BF19CB
:101750003E043543240C3E0C36199FB24743BF1953
:10176000BCB23E0C89191F0C47437F183E0434431A
:10177000390C77463F0C90B278432E0C8019060442
:10178000ADB22E43050CA0B22D18120C7A4350199D
:10179000020C80B2240CA4189AB27A4312191404D1
:1017A0002043120C89181B0C7B43C91830BCEF0A6C
:1017B000394203D1B61940414941641E6F12BF0D31
:1017C000E41B0BDBFF19BC4211DA24050027420899
:1017D000AE417841614166463143F0BD641C05D19C
:1017E000401C6141CF0201D34908F4E750E75DE7AF
:1017F0000148704700000000E401002012422DD093
:10180000994231D970B500251B4209D00C00002146
:1018100012E01100FFF7AEFE0A000021002370BDA8
:101820000942F6D00024012649186441944200D3AD
:10183000A41A7641F8D33100012601E0764109D29D
:10184000001864416D41A41A9D41F7D2A4185D416E
:10185000B619F5D3300022002B0070BD1B42CFD14A
:1018600008B500F011F808BD01D19042CAD20200BB
:101870000B0000210020704780B5012000F006F821
:1018800001BDFEE77047FEE77047FEE780B500BF89
:1018900000BF024A11001820ABBEFBE72600020081
:1018A0000000000000000000000000000000000038
:1018B0000000000000000000000000000000000028
:1018C000000000000000000C000C000C000C000CDC
:1018D000000C000C000C000C000C000C0000000CB4
:1018E000000C0000000000000000001B001B001B9B
:1018F000001B001B000000000000000000000000B2
:10190000000000000000000000000000000080193E
:10191000801980198019C07FC07F80190033C07F73
:10192000C07F0033003300330033000000000000AC
:101930000000001E003F807580650074003C001EA2
:1019400000078005806580658075003F001E0004EB
:10195000000400000000007000D840D8C0D880D932
:1019600000730006000C801BC036C066C046C0066F
:1019700080030000000000000000001E003F003354
:1019800000330033001E000CC03CC06680638061E1
:101990008063C03E801C0000000000000000000CBE
:1019A000000C000C000C000C000000000000000007
:1019B0000000000000000000000000000000000027
:1019C000800000010003000600060004000C000C6B
:1019D000000C000C000C000C0004000600060003C4
:1019E00000018000002000100018000C000C000412
:1019F0000006000600060006000600060004000CB3
:101A0000000C0018001000200000000C002D003F0A
:101A1000001E003300000000000000000000000075
:101A200000000000000000000000000000000000B6
:101A30000000000C000C000C000CC0FFC0FF000CEC
:101A4000000C000C000C0000000000000000000072
:101A50000000000000000000000000000000000086
:101A600000000000000000000000000C000C00045A
:101A7000000400080000000000000000000000005A
:101A8000000000000000001E001E0000000000001A
:101A90000000000000000000000000000000000046
:101AA0000000000000000000000000000000000036
:101AB0000000000C000C000000000000000000030B
:101AC000000300030006000600060006000C000CE0
:101AD000000C000C001800180018000000000000A6
:101AE0000000001E003F0033806180618061806DD6
:101AF000806D8061806180610033003F001E0000C6
:101B00000000000000000006000E001E0036002647
:101B10000006000600060006000600060006000695
:101B200000060000000000000000001E003F80735F
:101B300080618061800100030006000C0018003005
:101B40000060807F807F0000000000000000001C1B
:101B5000003E006300630003000E000E00038001DE
:101B6000800180618073003F001E000000000000C3
:101B700000000006000E000E001E001E00160036BB
:101B800000360066807F807F0006000600060000A9
:101B9000000000000000007F007F00600060006027
:101BA000006E007F80638001800180618073003F50
:101BB000001E0000000000000000001E003F8033F7
:101BC00080610060006E007F807380618061806151
:101BD0008033003F001E0000000000000000807FF6
:101BE000807F80010003000300060006000C000C4B
:101BF000000C000800180018001800000000000089
:101C00000000001E003F8063806180610021001E93
:101C1000003F8061806180618061003F001E0000A4
:101C2000000000000000001E003F00738061806122
:101C300080618073803F801D800180610073003F60
:101C4000001E000000000000000000000000000076
:101C50000000000C000C000000000000000000006C
:101C60000000000C000C000000000000000000005C
:101C70000000000000000000000C000C000000004C
:101C8000000000000000000C000C0004000400082C
:101C9000000000000000000080008003000E0038FB
:101CA00000600038000E800380000000000000008B
:101CB0000000000000000000000000000000807F25
:101CC000807F00000000807F807F00000000000017
:101CD0000000000000000000000000000000000004
:101CE00000400070001C000780010007001C00700D
:101CF0000040000000000000000000000000001F85
:101D0000803FC071C060C000C00180030007000EAA
:101D1000000C000C0000000C000C00000000000093
:101D20000000001E003F803180718063806F806DF5
:101D3000806D806F806700600032003E001C0000F4
:101D4000000000000000000E000E001B001B001B26
:101D5000001B80318031803F803F8031C060C06097
:101D6000C0600000000000000000007C007E0063F6
:101D7000006300630063007E007E00638061806119
:101D80008063007F007E0000000000000000001E55
:101D9000003F803180610060006000600060006092
:101DA000006080618031003F001E000000000000E4
:101DB0000000007C007F006380638061806180613F
:101DC00080618061806100630063007E007C0000B0
:101DD000000000000000807F807F006000600060E5
:101DE0000060007F007F0060006000600060807F16
:101DF000807F0000000000000000807F807F006086
:101E0000006000600060007F007F00600060006094
:101E10000060006000600000000000000000001E84
:101E2000003F8031806100600060006080638063FB
:101E3000806180618031803F001E00000000000052
:101E40000000806180618061806180618061807F4D
:101E5000807F80618061806180618061806100003D
:101E6000000000000000003F003F000C000C000CD0
:101E7000000C000C000C000C000C000C000C003FCF
:101E8000003F000000000000000080018001800190
:101E9000800180018001800180018001806180617A
:101EA0008073003F001E0000000000000000C060C2
:101EB0008061006300660066006C0078007C00664C
:101EC0000066006380618061C06000000000000067
:101ED0000000006000600060006000600060006062
:101EE00000600060006000600060807F807F000014
:101EF000000000000000C071C071C07BC07AC06AE1
:101F0000C06AC06EC064C060C060C060C060C060B5
:101F1000C0600000000000000000807180718079C6
:101F200080798079806D806D806D80658067806745
:101F30008067806380630000000000000000001ED6
:101F4000003F0033806180618061806180618061D9
:101F5000806180610033003F001E0000000000002F
:101F60000000007E007F806380618061806180630B
:101F7000007F007E00600060006000600060000084
:101F8000000000000000001E003F003380618061FF
:101F90008061806180618061806580670033803FFF
:101FA000401E0000000000000000007E007F8063F3
:101FB000806180618063007F007E00660063006353
:101FC00080618061C0600000000000000000000E21
:101FD000001F8031803100300038001E0007800370
:101FE000806180618031003F001E00000000000021
:101FF0000000C0FFC0FF000C000C000C000C000C27
:10200000000C000C000C000C000C000C000C00007C
:10201000000000000000806180618061806180615B
:102020008061806180618061806180618073003F38
:10203000001E0000000000000000C060C060C06022
:10204000803180318031001B001B001B001B000E03
:10205000000E000E00040000000000000000C0C0E0
:10206000C0C0C0C0C0C0C0C0C0CC804C804C805E6E
:102070008052805280738061806100000000000007
:102080000000C0C0806080610033003B001E000C77
:10209000000C001E001F003B80718061C0C000006A
:1020A000000000000000C0C0806180610033003388
:1020B000001E001E000C000C000C000C000C000C9C
:1020C000000C0000000000000000803F803F800105
:1020D000000300030006000C000C0018001800307C
:1020E0000060807F807F000000000000000F000F74
:1020F000000C000C000C000C000C000C000C000C80
:10210000000C000C000C000C000C000C000F000F69
:102110000000001800180018000C000C000C000C47
:10212000000600060006000600030003000300008E
:1021300000000000001E001E00060006000600064B
:10214000000600060006000600060006000600065F
:1021500000060006001E001E0000000C000C001E01
:102160000012003300338061806100000000000035
:10217000000000000000000000000000000000005F
:10218000000000000000000000000000000000004F
:10219000000000000000000000000000E0FF000060
:1021A000000000380018000C0000000000000000D3
:1021B000000000000000000000000000000000001F
:1021C0000000000000000000000000000000001FF0
:1021D000803F80618001801F803F80618063807FBD
:1021E000C0380000000000000000006000600060D7
:1021F0000060006E007F807380618061806180611B
:102200008073007F006E00000000000000000000EE
:10221000000000000000001E003F8073806100602D
:10222000006080618073003F001E0000000000001D
:1022300000008001800180018001801D803F80734B
:1022400080618061806180618073803F801D0000BB
:102250000000000000000000000000000000001E60
:10226000003F00738061807F807F00608071003F4D
:10227000001E0000000000000000C007C00F000C9E
:10228000000C807F807F000C000C000C000C000C08
:10229000000C000C000C000000000000000000001A
:1022A00000000000801D803F80738061806180613C
:1022B00080618073803F801D80018063007F003ECD
:1022C00000000060006000600060006F807F80712F
:1022D00080618061806180618061806180610000D7
:1022E0000000000000000006000600000000003EA4
:1022F000003E000600060006000600060006000676
:1023000000060000000000000006000600000000BB
:10231000003E003E0006000600060006000600061D
:102320000006000600060046007E003C000000603B
:10233000006000600060806100630066006C007CEB
:102340000076006300638061C06000000000000050
:102350000000003E003E00060006000600060006E3
:102360000006000600060006000600060006000043
:10237000000000000000000000000000000080DD00
:10238000C0FFC0CEC0CCC0CCC0CCC0CCC0CCC0CCB8
:10239000C0CC0000000000000000000000000000B1
:1023A0000000006F807F807180618061806180614A
:1023B000806180618061000000000000000000007A
:1023C000000000000000001E003F807380618061FB
:1023D000806180618073003F001E000000000000EB
:1023E0000000000000000000006E007F807380612C
:1023F0008061806180618073007F006E006000609A
:10240000006000600000000000000000801D803FB0
:10241000807380618061806180618073803F801DF6
:1024200080018001800180010000000000000000A8
:1024300000000067803F003900300030003000307D
:1024400000300030003000000000000000000000FC
:10245000000000000000001E803F80610060007FDF
:10246000803F80018061007F001E000000000000AE
:1024700000000000000800180018007F007F00180E
:1024800000180018001800180018801F800F0000A6
:10249000000000000000000000000000000080615B
:1024A0008061806180618061806180618063807F04
:1024B000803D00000000000000000000000000005F
:1024C0000000C060803180318031001B001B001B88
:1024D000000E000E000600000000000000000000DA
:1024E00000000000000080DD80DD80DD005500552B
:1024F0000055007700770022002200000000000055
:102500000000000000000000000080610033003384
:10251000001E000C000C001E003300338061000020
:1025200000000000000000000000000080618061E9
:10253000803100330033001B001B001B000E000E17
:10254000000E001C007C0070000000000000000075
:102550000000C07FC07F800100030006000C00184F
:102560000030C07FC07F00000000000080038007B3
:1025700000060006000600060006000E001C001CF7
:10258000000E000600060006000600068007800315
:10259000000600060006000600060006000600060B
:1025A00000060006000600060006000600060006FB
:1025B000000600060038003C000C000C000C000C6B
:1025C000000C000E00070007000E000C000C000CB1
:1025D000000C000C003C003800000000000000006F
:1025E0000000000000008038807F004700000000ED
:1025F00000000000000000000000000000000000DB
:1026000000000000000000000000000000000000CA
:10261000001000100010001000100010000000104A
:102620000000000000280028002800000000000032
:10263000000000000000000000240024007C0024B2
:102640000048007C004800480000000000380054AA
:1026500000500038001400540054003800100000EE
:1026600000200054005800300028005400140008D6
:10267000000000000010002800280010003400486E
:10268000004800340000000000100010001000009E
:102690000000000000000000000000000008001022
:1026A0000020002000200020002000200010000852
:1026B00000200010000800080008000800080008BA
:1026C000001000200010003800100028000000005A
:1026D00000000000000000000000000000100010DA
:1026E000007C00100010000000000000000000004E
:1026F00000000000000000000000001000100010AA
:102700000000000000000000000000380000000091
:1027100000000000000000000000000000000000B9
:102720000000001000000000000800080010001069
:1027300000100010002000200000000000380044BD
:1027400000440054004400440044003800000000ED
:102750000010003000500010001000100010001099
:10276000000000000038004400440004000800108D
:102770000020007C00000000003800440004001825
:1027800000040004004400380000000000080018A5
:10279000002800280048007C000800080000000015
:1027A000007C004000400078000400040044003831
:1027B000000000000038004400400078004400445D
:1027C0000044003800000000007C000400080010F5
:1027D000001000200020002000000000003800440D
:1027E0000044003800440044004400380000000069
:1027F0000038004400440044003C00040044003819
:1028000000000000000000000010000000000000B8
:102810000000001000000000000000000000001098
:102820000000000000000010001000100000000078
:10283000000C003000400030000C000000000000E0
:10284000000000000000007C0000007C0000000090
:1028500000000000000000000060001800040018E4
:102860000060000000000000003800440004000880
:1028700000100010000000100000000000380044AC
:10288000004C0054005C0040004000380000000094
:1028900000100028002800280028007C0044004484
:1028A0000000000000780044004400780044004428
:1028B0000044007800000000003800440040004060
:1028C0000040004000440038000000000070004854
:1028D0000044004400440044004800700000000030
:1028E000007C00400040007C004000400040007C34
:1028F00000000000007C00400040007800400040E4
:10290000004000400000000000380044004000404B
:10291000005C004400440038000000000044004413
:102920000044007C004400440044004400000000D7
:1029300000380010001000100010001000100038C7
:10294000000000000004000400040004000400046F
:1029500000440038000000000044004800500060BF
:1029600000500048004800440000000000400040C3
:1029700000400040004000400040007C000000009B
:102980000044006C006C00540044004400440044C7
:102990000000000000440064006400540054004C37
:1029A000004C004400000000003800440044004493
:1029B0000044004400440038000000000078004457
:1029C0000044004400780040004000400000000047
:1029D00000380044004400440044004400540038DF
:1029E00000040000007800440044004400780048DF
:1029F000004800440000000000380044004000305F
:102A0000000800040044003800000000007C0010B2
:102A10000010001000100010001000100000000056
:102A20000044004400440044004400440044003892
:102A30000000000000440044004400280028002852
:102A40000010001000000000004400440054005436
:102A50000054006C002800280000000000440028FA
:102A6000002800100010002800280044000000008A
:102A7000004400440028002800100010001000103E
:102A800000000000007C000400080010001000207E
:102A90000040007C00000000001800100010001032
:102AA000001000100010001000100018002000207E
:102AB00000100010001000100008000800000000C6
:102AC0000030001000100010001000100010001066
:102AD0000010003000100028002800440000000012
:102AE00000000000000000000000000000000000E6
:102AF0000000000000000000000000FE00200010A8
:102B000000000000000000000000000000000000C5
:102B10000000000000380044003C0044004C003439
:102B200000000000004000400058006400440044E1
:102B3000006400580000000000000000003800445D
:102B40000040004000440038000000000004000481
:102B50000034004C00440044004C003400000000ED
:102B60000000000000380044007C004000440038B1
:102B700000000000000C0010007C0010001000108D
:102B80000010001000000000000000000034004CA5
:102B900000440044004C0034000400780040004031
:102BA0000058006400440044004400440000000059
:102BB0000010000000700010001000100010001045
:102BC0000000000000100000007000100010001055
:102BD00000100010001000E00040004000480050CD
:102BE0000060005000480044000000000070001029
:102BF0000010001000100010001000100000000075
:102C000000000000007800540054005400540054A8
:102C10000000000000000000005800640044004470
:102C200000440044000000000000000000380044A0
:102C30000044004400440038000000000000000090
:102C40000058006400440044006400580040004004
:102C5000000000000034004C00440044004C0034EC
:102C60000004000400000000005800640040004020
:102C70000040004000000000000000000038004458
:102C80000030000800440038000000000020002050
:102C90000078002000200020002000180000000024
:102CA000000000000044004400440044004C003494
:102CB000000000000000000000440044002800283C
:102CC0000028001000000000000000000054005424
:102CD0000054006C002800280000000000000000E4
:102CE00000440028001000100028004400000000EC
:102CF00000000000004400440028002800100010DC
:102D00000010006000000000007C0008001000209F
:102D10000040007C000000000018001000100010AF
:102D200000200020001000100010001800100010FB
:102D30000010001000100010001000100010001013
:102D400000300010001000100008000800100010F3
:102D5000001000300000000000000074004C000073
:102D60000000000000000000FEB5060060D0BB4C73
:102D7000E0680C2101400091E06880214902084090
:102D800001903078C0070ED54F000098082804D075
:102D90000C2872D1019888426FD12068074002D078
:102DA0007068002844D03078800733D5F06820213F
:102DB000084204D022681143216020218843BB4F80
:102DC0000921C943009A042A05D00C2A01D1019A8D
:102DD000002A00D08CE02268520701D5002827D0B5
:102DE00062681740326912023A43626022681140F9
:102DF0000843206000F0A4FAAD49E2681206120F01
:102E0000895CC840BC490860BC48006800F0E8FA2A
:102E1000010031D1A70D3078C00600D4B4E000988D
:102E2000002800D091E02068800503D5B069002813
:102E300000D1A4E16068B2490140306A0843606093
:102E400060680002000AF16909060143616001201F
:102E5000316A490B491C8840C0039549E268120653
:102E6000120F895CC840A4490860A448006800F0BB
:102E7000B7FA010000D187E0FEBD7068884201D139
:102E8000206809E0A021C9028842206806D17900A3
:102E9000014321602068790801430AE0BA490140F2
:102EA0002160206879080840029002982068B7499C
:102EB00001402160706800280DD000F0B3FA0500D1
:102EC0002068384000D06EE700F0ACFA401B65285F
:102ED000F6D30320FEBD00F0A5FA050020683840B7
:102EE00000D160E700F09EFA401B6528F6D3F0E7BA
:102EF00004220192002817D0226811400843206064
:102F000000F090FA050020680199014005D100F019
:102F100089FA401B0228F6D9DBE760680740306970
:102F200000023843606075E7206801218843206013
:102F300000F078FA0500206801990140F3D000F014
:102F400071FA401B0228F6D9C3E7B069002820684F
:102F500030D03843206000F065FA05002068800515
:102F600005D400F05FFA401B0228F7D9B1E760688A
:102F700063490140306A0843606060680002000AEB
:102F8000F1690906014361603078000730D5706946
:102F90000028206D1DD001210143216500F042FA77
:102FA0000500206D800723D400F03CFA401B022866
:102FB000F7D98EE776490140216000F033FA050029
:102FC00020688005E0D500F02DFA401B0228F7D9D3
:102FD0007FE701218843206500F024FA0500206D79
:102FE000800705D500F01EFA401B0228F7D970E7CC
:102FF0003078400765D5002001903805A16B01406D
:1030000004D1A16B0843A0630120019061480068CE
:10301000384011D15F48006838435E49086000F0CD
:1030200001FA05005B480068384005D100F0FAF964
:10303000401B6528F6D34CE7B168B9420AD0564820
:1030400000290DD0A022D200914209D1206D210D7E
:1030500001432165206D0743276508E00010024009
:10306000216D4B4A0A402265216D08402065670D9D
:10307000B06800280CD000F0D5F90500206D38406C
:1030800018D100F0CFF9401BA9498842F6D320E7B8
:1030900000F0C8F90500206D38400BD000F0C2F9EF
:1030A000401BA3498842F6D313E700BFFFE0FFFFB0
:1030B000145500080198002803D0A06B9D490140D9
:1030C000A163706A00285CD000990C2942D0802747
:1030D000BF049949022820682ED10140216000F0E8
:1030E000A1F90500206838400CD000F09BF9401B86
:1030F0000228F7D9EDE600BFB8010020B401002096
:10310000FF1FFFFFE0688D490140B06A0843F16A84
:103110000143306B0843E060206879080143216077
:1031200000F080F90500206838402AD100F07AF9D3
:10313000401B0228F7D9CCE60140216000F072F96B
:103140000500206838401CD000F06CF9401B0228B4
:10315000F7D9BEE6012812D0E0688021490201407B
:10316000B26A91420BD1F02189030140F26A914287
:1031700005D1C02109040140306B814201D00120FA
:10318000FEBD0020FEBD00BFFFFFFEFFFFFFFBFFF7
:10319000FFFEFFFF00700040FFFBFFFFF1B582B0B4
:1031A00000285CD00091624F82480068C107C90FB7
:1031B0000098814217D27F4C2068012188430099F2
:1031C0000143216000F02EF9009D06002068C10730
:1031D000C90FA94206D000F025F9801BB842F5D3EB
:1031E0000320FEBD0095744C02980078800706D538
:1031F000E068F0218843029989680143E1603E4616
:1032000002980078C0074DD502984068022819D16D
:103210002168890323D5E168032291430843E060D4
:1032200000F000F90700029840680C25022818D128
:10323000E0682840082835D000F0F4F8C01BB04200
:10324000F6D3CDE7032802D12168890103E00128E4
:10325000216802D14907DED401E08905DBD40120D1
:10326000FEBD032809D1E06828400C281AD000F0E0
:10327000D9F8C01BB042F6D3B2E7012809D1E06803
:10328000284004280ED000F0CDF8C01BB042F6D381
:10329000A6E7E068284005D000F0C4F8C01BB042A3
:1032A0009ED2F6E7009843490968CA07D20F9042B8
:1032B00015D2404D286801218843009901432960B7
:1032C00000F0B0F807002868C107C90F00988142D4
:1032D00005D000F0A7F8C01BB042F4D380E70298F5
:1032E0000078400706D5E068344901400298C0687C
:1032F0000843E06002980078000707D5E06830498D
:10330000014002980069C0000843E06000F018F82E
:103310002C49E2681206120F895CC8402A490860ED
:103320002A48006800F05CF8010000D10020FEBDD2
:1033300089130000FFFFFFEFFFFFFFFEFFFF02FF0B
:1033400050B51D4AD16810230C200840042804D031
:10335000082809D00C2809D023E01068034001D0C8
:103360001B4850BD1B4850BD1B4850BD1B488C021C
:10337000240F005D09028C0F641C0021D668F6033F
:1033800001D5154A03E01268134002D0104A002309
:1033900000E0104A00F04CF822000023FEF72EFA5D
:1033A00050BD506801210004400F401C8140C803FB
:1033B00050BD00000020024000100240FFF8FFFF57
:1033C000FFC7FFFF14550008B8010020B40100201A
:1033D00000093D000024F40000127A002455000882
:1033E00038B505000D4CFA2080002178FEF7C2F8B0
:1033F00001000B480068FEF7BDF800F05DF80028FA
:103400000AD1042D08D2002229000020C04300F078
:1034100046F8A560002032BD012032BDAC0100207D
:10342000B801002001484068704700BFAC0100208F
:1034300030B4434351435D18010C0C00130C5C4342
:103440002D1980B2434392B251430024C9186441FC
:1034500024040B04090C09195043C018694130BCFD
:103460007047FEE710B5C20018231340FF249C40AC
:10347000E2438907090E9940030004D418489B08C9
:103480009B00C01806E0174B0007000F08388008A3
:103490008000181803681A401143016010BD80B500
:1034A000FFF7E0FF01BD010005D40121C006C00EF9
:1034B00081400D480160704710B5401E80214904CD
:1034C000884201D3012010BD084C60600321002018
:1034D000C043FFF7C7FF0020A0600721216010BD97
:1034E00000E400E01CED00E000E100E010E000E09E
:1034F000F8B5040016D0250050350026686800286D
:1035000004D1AE602E70200000F093FA102069689C
:10351000014003D121688A68520705D569680843CC
:1035200068602E700120F2BD68685C4A024002208B
:10353000104368605A488A689207920F012A02D1A4
:103540000A68D2072AD46268564BC0273F06BA429F
:1035500006D05F1CBA4203D080273F06BA4208D18A
:103560000A6913400B6121680A69636813430B61A0
:103570000AE00A6913400B6101684B4A0A40026085
:10358000016862680A4302602168CA6818239A4386
:10359000CA602168CA68A3681343CB600168434AC4
:1035A0000A4002600168626B52060A4302602068AA
:1035B0008021490582680A4002D1826811438160F6
:1035C0002068C1683A4A0A40C2602069022801D1D5
:1035D000042100E000212068C268E3681343194316
:1035E0002022A25C52030A432C21615C4900114352
:1035F000226B0A43A16989031143E269D2030A439A
:10360000C260606AFF21C231884205D02168CA6861
:103610001043A26A0243CA6001202121615C012992
:1036200010D12021615C002905D12168CA680304FA
:103630001343CB6006E0696820220A436A60A968E8
:103640000143A960E16B012921680A690FD1194B77
:1036500013400B6121680A69236C1343626C1A439F
:10366000A36C13430B6121680A69024303E0024023
:1036700002D00A6982430A6121684A6907239A4392
:103680004A6121684A69A36B13434B61AE60696864
:1036900002229143084368600020F2BDFFFEFFFF55
:1036A00008270140FFFFFF3FFFFFC3FFFFFFFFFDB4
:1036B0001902FEFF03FCFFFFF2B50500170000260C
:1036C00000242868816849073CD45021695C01299D
:1036D00001D10220F2BD01215023E954C2681143F7
:1036E000C160E869012804D0280000F0F9F804005E
:1036F00029D13B00009A280050304768744939406E
:1037000080277F000F434760866006707148E96C30
:10371000C8627148E96C08637048E96C48631C2012
:10372000296808602868416810260E4346602968A9
:103730004031E86C00F076FA2868816804220A4378
:10374000826000E002242000F2BDF8B50400206889
:1037500001270821102504220368134002D0436882
:10376000134005D103680B4035D043680B4032D07D
:10377000636D2B4003D1636D8E011E436665C36884
:10378000C02636011E401DD12023E35C002B19D139
:103790000068014016D02068806802400BD1206884
:1037A00040680C21884321684860606D6149014090
:1037B0003943616506E0606D202101436165A06DBC
:1037C0003843A065200000F0EAFAA069012802D081
:1037D0000C202168086080262068006830400CD0EA
:1037E00020684068304008D0606D2903014361655E
:1037F000200000F0D5FA20680660206801682940A2
:1038000012D0416829400FD0216B002902D0C16835
:103810000F4007D0A16D02220A43A2650560200077
:1038200000F0BFFA20680560F1BDFEB55022825C51
:10383000012A01D10220FEBD0700503701223A7053
:10384000006800248268520706D578682021014369
:1038500079603C700120FEBD009109684903490B65
:1038600001918025AD02654E6900009A5268644B53
:103870009A42826A019B15D01343836200980068C4
:10388000014006D03068A901014331600A2000F0F0
:10389000A3F800980068054016D030688021C9035D
:1038A000014310E09A43826200980068014003D00F
:1038B000306854490140316000980068054003D0E9
:1038C00030685149014031603C700020FEBD00006D
:1038D000FEF1FFFF49390008B5390008BF3900087B
:1038E000F8B50600306881688907890F012902D17F
:1038F0000168C9071CD4102401258168434A0A4085
:1039000015D1816829438160012000F065F8FFF737
:1039100089FD070030680068284009D1FFF782FD63
:10392000C01B0B28F6D3306800682840F2D103E0B2
:103930000020F2BDFFFEFFFF706D04437465B06DA3
:103940000543B5650120F2BD10B5816A4A6D50236B
:1039500013402BD1486D8022920002434A650868CB
:10396000C268C0231B0113401CD120228A5C002A9C
:1039700018D10A681268120714D5012283685B0700
:1039800009D443680C24A3434360486D204B034093
:103990001A434A6506E0486D202303434B65886D52
:1039A00002438A65080000F0FAF910BDC96C496B42
:1039B000884710BD80B5806A00F0F4F901BD80B57C
:1039C000806A416D40220A434265816D04220A43A8
:1039D000826500F0E6F901BD18B504000D480068E5
:1039E0000D49FDF7C7FD4443009402E00098401ED6
:1039F000009000980028F9D111BD0000082701406F
:103A000001100000FFFF7FFFFFFFBFFF17000080D6
:103A1000FFFEFFFFB801002040420F00544801683C
:103A200001220A4302604168802252050A43426033
:103A3000704770B586B004001422002101A800F080
:103A4000B2F920684B49884237D14B488168420D12
:103A50000A438260012102680A4302600068014053
:103A60000091009878200190032002900025039592
:103A700001A9A020C00500F0A1F9404E40483060E7
:103A80007560B560F56080203061803070618000C5
:103A9000B0612020F0613562300000F077F8002836
:103AA00001D000F099FCE664B462002200210C20F1
:103AB000FFF7F5FC0C20FFF7F6FC06B070BD10B563
:103AC00086B004001422002101A800F06CF92068DF
:103AD0002C4988421CD10120274C216801432160D8
:103AE0002168014000910099C021C9000191122173
:103AF00002910021039103210491059001A9A020C6
:103B0000C00500F05BF9E068802189030143E160B2
:103B100006B010BD00681C49884204D114480168F1
:103B200004220A430260704710B586B004001422D4
:103B3000002101A800F037F920681349884215D107
:103B400001200D490A6802430A6009680840009094
:103B5000009804200190022002900020039004901D
:103B6000059001A9A020C00500F028F906B010BDFD
:103B700034100240002401402C100240F4060020C2
:103B800008000240005400400008014070B50400E5
:103B900001D1012070BD20681E4940181421FDF795
:103BA000E9FC800060641C482064022025216054E8
:103BB0002068006819490140A0680843E168014392
:103BC0002069084361690143A0690843E169014331
:103BD000206A084321680860A0688021C9018842E2
:103BE00010D00F481C2102680F23656C1C262E4044
:103BF000B3409A43026002686368656C29408B4059
:103C0000134303600020E06301212522A1542421F5
:103C1000605470BDF8FFFDBF000002400F80FFFF41
:103C2000A8000240F8B50400002000252426A65D67
:103C3000012E01D10220F2BD01262427E6550226DD
:103C40002527E75D012F1FD12527E655E063206872
:103C500006680127BE430660200000F08CF820684B
:103C6000216B0029016801D00E2205E00422914356
:103C70000160206801680A220A4302602068016826
:103C800001220A43026002E0242160540225280038
:103C9000F2BDFEB5016C0968029101680A680192E3
:103CA0004422825C1C2313406A46137004232022A2
:103CB000029C6D462D780426AE40264014D0019C0F
:103CC0001C4011D00C68224002D10A689A430A6055
:103CD0004421415C1C220A409340016C4B60016B03
:103CE000002947D08847F7BD012302240025029E02
:103CF000B4466E4636780227B7406646374019D03C
:103D0000019E264016D00E68324005D10A680A2668
:103D1000B2430A60252143544421415C1C220A40DD
:103D20009440016C4C6024214554C16A002921D083
:103D30008847F7BD082264466E4636780827B740A4
:103D4000274017D0019C224014D00A680E24A243B9
:103D50000A604421415C1C220A4001219140026C0E
:103D60005160C3632521435424214554416B0029EC
:103D700000D08847F7BD70B501244425455D1C2659
:103D80002E40B440056C6C60046863608068102845
:103D900002D1A260E16070BDA160E26070BD7047B9
:103DA00070477047704710B504000800110002000A
:103DB000200000F027FB200010BDFEE7F0B585B025
:103DC00000220F23039331E0062303E05B4B98426C
:103DD000FAD10523B3402B432360594B1D68019B47
:103DE000DC4325404B68DB0302D52B00019D1D43BE
:103DF000534B1D605D6825404E68B60302D52E000A
:103E0000019D35435D609D6825404E68F60202D5F0
:103E10002E00019D35439D60DD682C404D68AD024C
:103E200002D52500019C2C43DC60521C0B681C0051
:103E3000D44000D17FE00124944023400193019BB2
:103E4000002BF2D0530003259D40EE4302964D68AF
:103E5000AE07B60F012E03D0AD07AD0F022D0ED168
:103E60008568029E2E40CD689D403543856045683B
:103E7000A5434C68E606F60F96402E434660940034
:103E80006D466C7003244D682540032D25D0C56810
:103E9000029E2E408D689D403543C5604D6825408B
:103EA000022D1AD1D508AD0045192E6A04966E462A
:103EB00077781C263E406F463E70049EB446039FB2
:103EC0006E463678B7406646BE43B4460F696E46C6
:103ED0003678B740664637432F620568029E2E400B
:103EE0004D682C409C40344304604B68C024A402BD
:103EF0001C409AD00123134C24681C43114D2C60A4
:103F0000114C9508AD00641925686E4677780C262B
:103F10003E40039FB740BD43A027FF05B84201D1F3
:103F2000002357E7094FB842FBD0094B984200D015
:103F30004CE702234EE705B0F0BD0000001C005026
:103F40000004014034100240080001400004005009
:103F500000080050F8B586B000F05AFA00F088F971
:103F60000124BB48016821430160016821400091A0
:103F700000994168214341604068204000900098CA
:103F8000002200210920FFF78AFA0920FFF78BFAA7
:103F900068460021002206C0D548AE4908600027C7
:103FA000CF63C020000648600846876084630461D0
:103FB000C760A9490F808762FF20C230A5494862C7
:103FC000A6490F700420A34948610846076387612A
:103FD0004463C761FFF78CFA002801D000F0FCF9B8
:103FE0009F4800902003019069469A48FFF71DFC06
:103FF000002801D000F0F0F99A48009069469548F1
:10400000FFF713FC002801D000F0E6F99648009075
:1040100069469048FFF709FC002801D000F0DCF960
:104020009248009069468B48FFF7FFFB002801D0BB
:1040300000F0D2F9AF4DB0482860E120C0006860C0
:10404000AF60EC602F616F61AF61EF612F6228009C
:1040500000F0F2F9002801D000F0BEF9002128009C
:1040600000F0C6FB002801D000F0B6F900212800BE
:1040700000F0DBFB002801D000F0AEF9684600211B
:10408000002206C0002300241EC0A348E8642F6558
:104090006F65A248A865EF652F66A14C200000F06F
:1040A000EDFB002801D000F097F9009701976946D1
:1040B000200000F009FD002801D000F08DF96020FB
:1040C0000290039704970597002202A9200000F0B0
:1040D000FBFB002801D000F07FF92000FFF724FD52
:1040E00000F020FDB3480760878000F073FE0021D8
:1040F000002000F0FFFDA24C01222100B7A000F03B
:1041000052FE1421002000F0F5FD0122210000BF25
:10411000B5A000F048FE2821002000F0EBFD0122B0
:10412000210000BFB3A000F03EFE00F099FD9548CD
:1041300000F07EFE002000F08FFE9348019093482F
:1041400000909348007800280BD091490F704148A7
:10415000042201008C31FFF7AFFA0198408B00F088
:10416000CDF88C480078002801D08A490F708A4821
:104170000078002803D088490F7000F0D3F88748F2
:10418000007800285DD085490F708D48406800F0A8
:10419000D1FF83A20CCAFDF769FA0022824BFDF71A
:1041A000FBF800F0E0FF0600009806604620019949
:1041B00008700198808BFDF7D5F800227E4BFDF743
:1041C00055FA0022794BFDF751FA0022774BFDF7A3
:1041D000E3F800F0C8FF0500009885610198C08BE6
:1041E000FDF7C0F80022744BFDF740FA00226F4B38
:1041F000FDF73CFA00226D4BFDF7CEF800F0B3FF5F
:104200000400009804630198008CFDF7ABF80022CD
:10421000694BFDF72BFA0022644BFDF727FA0022C9
:10422000624BFDF7B9F800F09EFF00998864009991
:10423000886500984465009805650098C66400F09C
:1042400078FE61480078002801D05F490F7078E758
:104250002C10024010000020300000203C00002004
:104260000800000C1000001020000014400000188E
:1042700010B598B034210BA800F0C2F8142168469C
:1042800000F0BEF8182105A800F0BAF84848016807
:104290004E4A0A40C10C1143016010200B900120CE
:1042A000119000241294A0200002139014940BA8E3
:1042B000FEF75AFD002801D000F08EF80F20009084
:1042C000019402940394049400216846FEF766FF6B
:1042D000002801D072B6FEE708200590099405A8D1
:1042E00000F072FF002801D072B6FEE718B010BDD2
:1042F00000240140A40000200054004010B501211A
:104300002C4A4B00D3181C889B1E1C80491C642916
:10431000F7DBC621505210BD00080140FFFF00002E
:10432000F000002070B50021224A0B06DB0DD35AA5
:10433000C018491CCBB2642BF7DB6421FDF71AF9D6
:10434000050080B2FDF70EF800221B4BFDF78EF939
:1043500000221A4BFDF78AF900F005FF0400184E01
:1043600000F0E8FE0022174BFDF716F818A20CCA61
:10437000FDF71BF900F0F7FE7060B460358070BD8A
:1043800008000020B80B000082000020440100203B
:104390001C0200201D0200201E0200201F0200201F
:1043A000CDCCCCCCCCCCFC3F0000404000004E40FB
:1043B000007000402C0600200000303F00C8A940DB
:1043C0003C070020007C98C020020020FFE7FFFF90
:1043D00066666666666620C072B6FEE757656C6301
:1043E0006F6D6520746F00005468652054686572B5
:1043F0006D616C004368616D6265722100000000B0
:10440000002200BF094202D0491E4254FCD170472D
:1044100010B500240748016840220A4302600320C7
:10442000FEF7DEFF002801D0012401E0FFF7F6FAD5
:10443000200010BD0020024070B5040001D1012011
:1044400070BD2500403500266878002803D12E7005
:104450002000FFF734FB24206870206801680122E7
:104460009143016060686C490140206801612168E6
:104470006A488A6802408A60E1680129A16801D11E
:10448000C24301E0842212020A4321688A60E16883
:10449000022903D1802109012268516021684A68FC
:1044A0005F4B13434B602168CA681040C8602069A5
:1044B00061690143A069000208432168C860E0699E
:1044C000216A0143206801602068016801220A43D3
:1044D00002606E60202068702663AE70002070BDA0
:1044E000FEB504000F0016001D0040304078202863
:1044F00000D08FE04020205C012800D18AE001201C
:1045000040216054FEF78EFF019000901923012294
:10451000D103200000F09AF8002879D12120210051
:104520004031487010202100403188700020210067
:10453000403148606662658560633A48089E618DD7
:10454000FF290BD9FF212185009080235B04FF22E6
:104550003900200000F035F9019D11E0628D2285BF
:10456000009080239B04D2B2F2E7FF202085002038
:10457000009080235B04FF223900200000F021F925
:10458000608D00282DD02A003100200000F08AF82C
:1045900000283DD1606A007821688862606A401C0A
:1045A00060622148618D09186185218D0818208578
:1045B000618D0029E4D00004E2D10095330000228F
:1045C0008021200000F042F8002821D1608DFF28D2
:1045D000CBD8628D22850020009080239B04D2B22C
:1045E000CAE731002A00200000F085F801000DD153
:1045F00020202268D061226853680C4D1D40556010
:10460000220040325070002090701070080002D0DC
:104610000120FEBD0220FEBDFFFFFFF0FF7FFFFF78
:104620000080000200200080FFFF000000E800FE84
:1046300000688169890701D50021816201218269B1
:104640000A4002D18269114381617047F8B50024A4
:1046500005000F00684602701E0028688069384017
:10466000B84201D1012000E0002069460978884263
:1046700016D10020C0438642EFD0FEF7D3FE069944
:10468000401A864201D3002EE7D128004030202175
:1046900042680A4342604170847004700120F2BD98
:1046A0000020F2BD70B504000D001600206880697E
:1046B00080071ED432002900200000F042F80028B4
:1046C00001D0012070BD0020C0438542EED0FEF72E
:1046D000A9FE801B854201D3002DE7D12000403088
:1046E000202142680A4342604170002181700170BC
:1046F000E7E7002070BDF8B5202504000E00170084
:104700002068806928401AD13A003100200000F06A
:1047100018F8002807D1FEF785FEC01B864204D397
:10472000002EEDD101E00120F2BD200040304168B3
:10473000294341604570002181700170F3E700203A
:10474000F2BDF8B5036810249D69254037D05D6837
:10475000AD0103D45D68A6022E435E6005000F0024
:104760000092202628688169314011D10020C04381
:104770008742F7D0FEF756FE0099401A874201D3D0
:10478000002FEFD12800403041683143416010E0F4
:10479000C4612868C6612800FFF74AFF286841689D
:1047A000114A0A40426028004030416804220A430E
:1047B000426046700021817001700120F2BD00202E
:1047C000F2BDF0B5059C00684568660D074F37439C
:1047D000BD438905890D294312040A4313431C4331
:1047E0004460F0BD0000000000E800FEFF63FF032E
:1047F00070B5020040325378202B14D14023C35CA3
:10480000012B10D0012313702424547004682568F0
:104810009D43256004682568164E2E402660046876
:10482000256829431CE0022070BD70B502004032AB
:104830005378202B12D14023C35C012B0ED00123CF
:10484000137024245470046825689D43256004680F
:104850002568094E2E400902314301E0022070BD57
:104860002160006801680B43036020205070002025
:10487000107070BDFFEFFFFFFFF0FFFF10B50400E9
:1048800001D1012010BD3920205C002804D138213D
:1048900060542000FFF73EF9022039216054211DA9
:1048A000206800F07DF801203E2160543A216054D8
:1048B0003B2160543C2160543D216054392100F07B
:1048C00000F86054002010BDF1B582B000206B46A6
:1048D000187002983823C05C012801D10220FEBD67
:1048E0000120029B3824185508272C4EC5020C00C5
:1048F000002A06D0042A14D0082A24D00C2A32D048
:1049000043E00298006800F072F80298006881693C
:104910000F43876181690422914381618169E26863
:104920000EE00298006800F078F80298006881694B
:104930000D43856181690E4086618169E2681202DA
:104940000A43826123E00298006800F07EF8029832
:104950000068C1690F43C761C16904229143C16105
:10496000C169E2680EE00298006800F085F80298DC
:104970000068C1690D43C561C1690E40C661C16966
:10498000E26812020A43C26101E069460870002031
:1049900002993822885468460078FEBDFFFBFFFF6D
:1049A00070B50268404B414C8025ED05A84203D00C
:1049B000A04201D0984208D17026B24316004A683E
:1049C0003243A84203D0A04201D0984203D1384BD1
:1049D0001340CA681A4380239A430B691343036048
:1049E0008A68C262096881620121416170BD30B587
:1049F000026A01239A430262036A4268856973244A
:104A0000A5430C682C430225AB438D681D434260CF
:104A1000846149684163056230BD30B5026A102384
:104A20009A430262026A43688469224D25400C68F9
:104A300024022C432025AA438D682D011543436091
:104A4000846149688163056230BD30B5026A1A4BE2
:104A500013400362046A4268C56973239D430B686F
:104A60002B43164D25408C6824022C434260C361C1
:104A70004968C163046230BD30B5026A104B13400F
:104A80000362036A4268C4690A4D25400C68240227
:104A90002C430C4D1D408B681B032B434260C461AB
:104AA00049680164036230BD001401400008014000
:104AB000FFFCFFFFFF8CFFFFFFFEFFFFFFFDFFFF7F
:104AC000FFEFFFFFFFDFFFFFF0B53822825C012A16
:104AD00001D10220F0BD02003832012313700224FC
:104AE0003925445505686E68AC687027BE430F6869
:104AF00037436F6005689E07B54205D0074EB54243
:104B000002D0074EB54204D18026B4434968214300
:104B1000A9603921435400201070F0BD0008014005
:104B20000014014080B5AE220021782000F070F919
:104B300020220021782000F06BF91022002178203B
:104B400000F066F9B0220021782000F061F9C82257
:104B50000021782000F05CF900220021782000F08C
:104B600057F910220021782000F052F9402200214C
:104B7000782000F04DF981220021782000F048F9DA
:104B8000FF220021782000F043F9A12200217820A3
:104B900000F03EF9A6220021782000F039F9A82281
:104BA0000021782000F034F93F220021782000F025
:104BB0002FF9A4220021782000F02AF9D322002125
:104BC000782000F025F900220021782000F020F95B
:104BD000D5220021782000F01BF9F0220021782056
:104BE00000F016F9D9220021782000F011F92222D4
:104BF0000021782000F00CF9DA220021782000F062
:104C000007F912220021782000F002F9DB220021AE
:104C1000782000F0FDF820220021782000F0F8F83C
:104C20008D220021782000F0F3F814220021782052
:104C300000F0EEF8AF220021782000F0E9F82E22F3
:104C40000021782000F0E4F8002000F028F800F0BF
:104C500007F85E480021016001214171012002BD79
:104C600038B500245A4D2200B032D2B2002178204B
:104C700000F0CEF800220021782000F0C9F81022C0
:104C80000021782000F0C4F88023E0012A18402198
:104C9000782000F0A6F8641C082CE4DB31BD80B558
:104CA000002801D1002200E0FF228021C9004848ED
:104CB000FFF7A8FB01BD802800DB704710B5402935
:104CC00011DA434CCB08DB01C01820180123490737
:104CD000490F8B403D490979002905D0002A05D0AC
:104CE00001789943017010BD012AF9D101780B4375
:104CF000037010BD354A108051807047FEB50F001B
:104D0000324909886B465980694649883B78C918F9
:104D1000802909DA2D4949886B46D9806946C988B6
:104D20007B78C918402901DB0020FEBD00210291DB
:104D300069460870150002E00298401C02907978DC
:104D40000298884226D278686A461278203A4A4306
:104D5000029951184900465A00246846C0880299B1
:104D600040186946888003E06A1E9241D20F0AE02B
:104D700038788442E0D26846408800193100A1406A
:104D80000904F1D52A006946898880B2FFF793FFAC
:104D9000641CEDE768464088397840180B49088064
:104DA00068460078FEBD70B504000E00150000E0F6
:104DB000641C2078002806D02A003100FFF79EFFEF
:104DC00021788842F4D0207870BD00004807002088
:104DD0002C02002080B50020FFF761FFFFF740FFA5
:104DE00001BD78B5C1B001AC2170002103E0555C74
:104DF00066187570491C9942F9DB642100915B1CAF
:104E00009BB201AA01000948FFF76AFB42B070BDDE
:104E1000E0B501AB19705A7064210091022301AA18
:104E200001000248FFF75CFB07BD0000A400002062
:104E300038B50500FEF7F6FA04000020C0438542AD
:104E400002D0044800782D18FEF7ECFA001BA842A7
:104E5000FAD331BDAC010020F8B50600A6480078B1
:104E6000A549487050D1FFF7B5FF00210020FFF79A
:104E700041FF0122A14900BFABA0FFF794FF00252D
:104E80009F48C5811E21018214214220FFF732FF75
:104E90009C4F012239009CA0FFF785FF9B485024BE
:104EA000C4811421018223214220FFF723FF012224
:104EB000390097A0FFF777FF9648C481232101822C
:104EC00032214220FFF716FF0122390092A0FFF79E
:104ED0006AFF9248C4813221018204209049914A9C
:104EE000937D432B2B4614D1CC18647917001337CC
:104EF000FC545B1C042BF7DB13001333C4B21D55A9
:104F0000401CC1B21A29F7DBFFF7AAFE7A480670E7
:104F1000F1BDCC5C17001337FC545B1C042BF8DB91
:104F200013001333C4B21D55401CC1B21A29F7DB5C
:104F3000EAE7F0B587B0704C2078002800D0D6E0C2
:104F40006F4D298AE889FFF7D5FE6C4EA87C0028B2
:104F500013D0686900F0EEF802000B0029006846E3
:104F600000F0ECF9694620000C3000F007FA01224D
:104F700031006846FFF717FF05E0012231002800E5
:104F80000A30FFF710FF298AE889373080B2FFF72F
:104F9000B1FE644FB87D432803D101223100201DAA
:104FA00003E00122310020000830FFF7FCFE574DDE
:104FB000298AE889FFF79EFE524EA87C002813D06C
:104FC000686900F0B7F802000B002900684600F09D
:104FD000B5F9694620000C3000F0D0F9012231000B
:104FE0006846FFF7E0FE05E00122310028000A30A4
:104FF000FFF7D9FE298AE889233080B2FFF77AFECD
:10500000B87D432803D101223100201D03E0012295
:10501000310020000830FFF7C6FE3E4D298AE8899E
:10502000FFF768FEA87C002813D0686900F082F8BA
:1050300002000B002900684600F080F96946200054
:105040000C3000F09BF9012231006846FFF7ABFEFF
:1050500005E00122310028000A30FFF7A4FE298A6A
:10506000E889233080B2FFF745FEB87D432803D19D
:1050700001223100201D03E0012231002000083010
:10508000FFF791FE254D298AE889FFF733FEA87CBA
:10509000002813D0686900F04DF802000B002900C9
:1050A000684600F04BF9694620000C3000F066F9C4
:1050B000012231006846FFF776FE05E0012231004B
:1050C00028000A30FFF76FFE298AE889233080B272
:1050D000FFF710FEB87D432803D101223100201DC7
:1050E00003E00122310020000830FFF75CFEFFF7EB
:1050F000B7FD07B0F0BD0000BC0100200800002093
:1051000030010020000000204C3A0000480100203F
:105110004D3A000060010020483A0000780100206C
:10512000A00100206C00002054656D7065726174F0
:1051300075726500012212060118CA420AD28A421B
:105140000DD83822120609098918C20FD207114357
:105150004007704700D049080909014301E0C10F29
:10516000C90700207047012252054B18DA4201D9C5
:10517000581570475B0D0722D2019B1A10D9FF2BDF
:105180001DD2DB050122D2070A4013430903020D99
:105190001143490AC200524100D9491CC81870473E
:1051A0000AD1800A0A0302435212921C04D9D3077F
:1051B0000B40D00518437047C80FC0077047C80F91
:1051C0000002FF30C0057047FEB5070000200190C7
:1051D000504C3878800676D580204005A16B014080
:1051E00004D1A16B0843A06301200190A50D4A489A
:1051F0000068284013D1484800900068284300996F
:105200000860FEF70FF9060000980068284006D1F4
:10521000FEF708F9801B6528F6D30320FEBD216840
:105220007868C02292030A40C021890301408A4263
:105230000BD0C02189020140C0229202914204D1C8
:105240002168890301D50120FEBDC026B602216D6B
:10525000314020D0304081421DD0387880061AD5A8
:10526000216D2E480840216DEA020A432265216D16
:105270002B4A0A402265206505400CD0FEF7D2F883
:105280000500206D800506D4FEF7CCF8401B2549AB
:105290008842F6D3C1E7786831000140B14206D1B7
:1052A0002168214A0A403101014011432160206DEB
:1052B00079680E40064326650198002803D0A06B4C
:1052C0001A490140A1633878800705D5E06C0C21AC
:1052D0008843B9680143E1643878400705D5E06C3C
:1052E00013490140F8680843E0643878000705D5A1
:1052F000E06C1049014038690843E06438780006E2
:1053000005D5E06C0C49014078690843E064002051
:10531000FEBD00000010024000700040FFFFFCFFD7
:10532000FFFFF7FF89130000FFFFCFFFFFFFFFEF35
:10533000FFF3FFFFFFCFFFFFFFFFF3FF0CB418B534
:1053400083B004000A0006A8029001940020009097
:1053500002AB01A9084878441E30FAF7B1FE0021DB
:10536000019A1170002801D40198001B04B0019922
:1053700010BC03B0084700BF2BBEFFFF0023DB4378
:105380005B1CCA5C002AC254FAD17047FEE7FEE7F4
:105390007047704710B500F03BF819491948C288AA
:1053A000531801221C0401D102700A23C38003890F
:1053B0005B181C0401D142701923038143895B18D7
:1053C0001C0401D182706423438183895B181C040F
:1053D00002D1C270FA235B008381C38959180B0480
:1053E00002D10271FA218900C18110BD80B5064841
:1053F000FEF74FFC01BD80B50448FEF7A6F901BDDC
:10540000FFFF00001C020020F40600201000002016
:10541000024841680278891841607047AC01002059
:10542000686A6C747A4C00007072696E74665F739F
:105430003A20256E20646973616C6C6F7765640037
:105440007072696E74663A2062616420256E206114
:105450007267756D656E74007072696E74665F73E5
:105460003A2062616420257320617267756D656EF4
:1054700074000000000000006E616E004E414E009E
:10548000696E6600494E4600300070B40123002466
:1054900013E00168001D194202D04D466918491EEB
:1054A0000C60091D121F042AFAD20D00960701D5BF
:1054B0000C80AD1C1A4000D02C700268001D002A20
:1054C000E7D170BC7047FEE710B507497944183141
:1054D000064C7C44163404E0081D0A688918884785
:1054E0000100A142F8D110BD080000002400000016
:1054F0009BFFFFFF280500002C0200200000000099
:10550000CFBBFFFFA3000000DE0000000000002072
:1055100070470000000000000000000001020304CA
:1055200006070809030406080C10182030000000C4
:1055300000F00DF8002801D0FFF7C6FF00BF00BF44
:10554000002000BF00BFFEF705FD00F002F80120BB
:10555000704780B500F002F801BDFEE70746384607
:10556000FCF794F9FBE7FEE70548014603B46846FB
:1055700080F3098800BF00BF00BF00BFFFF7D8FF5E
:10558000A5EDF5FE01488047014800471155000888
:1055900069550008FEE7FEE7FEE7FEE7FEE7FEE7E7
:1055A000FEE7FEE7FEE700F00F4A070A0000FC25D1
:1055B00000080B120000A018000800016325735EAC
:1055C000122D01210CF0049B0144656743000190FA
:1055D0000625342E3166200000C41105F337C8417A
:1055E00018E50D15215746002652011D32040831D9
:1055F0003D220018F30D460001F00207A6550008F1
:105600000452FF01E3C21114615500080A00190099
:065610006400F401E80350
:040000050800556931
:00000001FF
