:020000040800F2
:10000000400B00202D650008796200087B62000823
:1000100000000000000000000000000000000000E0
:100020000000000000000000000000007D620008E9
:1000300000000000000000007F62000881620008EC
:100040001B130008000000002F18000833180008D8
:1000500037180008972E0008DF300008634A0008B0
:100060000000000037600008F36300080365000823
:10007000C96200080F6500084D6500080000000017
:100080004F65000851650008536500085565000874
:1000900057650008596500085B6500085D65000844
:1000A0005F6500086165000863650008D3620008A9
:1000B0006565000867650008FDB5B2B03A9804911F
:1000C00002A93B22885400200D9024A8401C2F90A8
:1000D0000DE00498329A90470490002801D100F076
:1000E00001FF0D98401C0D903398401C33903398BD
:1000F0000178002910D02529EBD100200790089025
:1001000009900A900B900C90002102240120149079
:1001100008201290339D05E00D9800F0E5FE0800E0
:10012000149901436D1C28782028F8D023280BD07F
:100130002B2804D02D2804D0302808D00AE02143F1
:10014000F0E708000421ECE708000821E9E70800CF
:100150001021E6E72A280FD1349802681068121D92
:10016000349B1A600F90002804D542420F92080079
:10017000042101436D1C12E000200F90654A09E044
:100180000F9B934205DA9E00F3185B001818303875
:100190000F906D1C28780300303B0A2BF0D3287891
:1001A0002E2803D00020C0430E9027E06D1C287835
:1001B0002A2808D1349800680268001D349B186012
:1001C0000E926D1C1AE02D2802D12D226D1C00E02C
:1001D000002200200E900CE0002A09D10E9B4D4E0B
:1001E000B34205DA9E00F3185B00181830380E9001
:1001F0006D1C28780300303B0A2BEDD302A8018741
:100200002E78310041487844FF30C01C00F052FF86
:10021000002801D06D1C00E0002602A83A214654B7
:10022000405C682804D1287868280BD1622005E05A
:100230006C2807D128786C2804D1712002A93A22B1
:1002400088546D1C15A80690287869460870681CAB
:100250003390684602781000253833D01C3800D11E
:1002600018E2001F022800D814E2133801D100F070
:1002700065FD093800D10DE2801E01D100F0FBFDC3
:10028000401E01D100F0A8FD401E022800D801E266
:10029000001F01D100F0A0FD401F00D153E1401E1E
:1002A00001D100F04BFD401E00D1F3E0C01E10D084
:1002B000801E01D100F042FDC01E01D100F03EFDC4
:1002C00000F0E4FD252015A908701498079000F0AF
:1002D000E8FD349800680468001D349908600594AE
:1002E000002C00D0C2E002A83B21405C002800D1D5
:1002F000B5E00024E44306487844143000F002FFDF
:10030000201A01D000F0EEFD00F0CBFD7C60000073
:10031000B0600000CBCCCC0C01236A4602A92800B7
:1003200000F0ADFE002801D000F0DCFD641EF3D12A
:100330003295079D15AC002D0FD0329E227802A970
:10034000300000F08BFE002802D4641C6D1EF5D135
:100350003296002801D000F0C5FD302069460870B3
:100360000A9C002C0DDD329D01236A4602A928005B
:1003700000F085FE002801D000F0B4FD641EF3D12A
:100380003295059C089D002D0FD0329E227802A93F
:10039000300000F063FE002802D4641C6D1EF5D10D
:1003A0003296002801D000F09DFD302769460F707D
:1003B0000B9C002C0DDD329D01236A4602A928000A
:1003C00000F05DFE002801D000F08CFD641EF3D12A
:1003D0003295059808994418099D002D0FD0329E3A
:1003E000227802A9300000F039FE002802D4641CF3
:1003F0006D1EF5D13296002801D000F073FD6846DD
:1004000007700C9C002C0DDD329D01236A4602A969
:10041000280000F034FE002801D000F063FD641EC7
:10042000F3D1329502A83821405C400700D45EE643
:100430002020694608700198002800DC57E6019CDE
:10044000329D01236A4602A9280000F018FE002808
:1004500001D000F047FD641EF3D1329547E64048D5
:100460007844FF30C01E059000F01BFD0E9D002D4E
:1004700003D5200000F06AFE09E02A0000212000D8
:1004800000F070FE002801D0001B00E0280008905A
:1004900000F007FD349800680268001D3499086078
:1004A0000020C0430021104002AA03C215A80590F5
:1004B000069A3C2302A803C8002904D1002802D1CF
:1004C0000E9C002C15D05B1E05072D0F3035EEB2AB
:1004D0003A2E08DAD55400090C072043090904D143
:1004E000002802D105E02735F4E7059CD518AC4279
:1004F000E9D33C20C01A0890D11805910E99884282
:1005000008DA081A0A9002A8018FAA4A0A4002874C
:1005100000F0C7FC002901D400F0C3FC02A9382276
:10052000895C14220A40102A01D000F0BAFC0F990D
:10053000079A891A0A9A891A081A002801DC00F019
:10054000B0FC00F0F9FB02A83B21415C002909D076
:100550000024E4434B487844FF302B30CEE600BF04
:100560007C5E00003A21405C62286AD0682819D07D
:100570006A2845D06C2806D071284FD0742831D015
:100580007A2821D06FE0349800680168001D349A01
:10059000106000297AD10024E4433B487844FF30BE
:1005A0001738ABE6349800680168001D349A106073
:1005B000002905D10024E44333487844CA309DE63D
:1005C0000D98088000F06DFC349800680168001DEB
:1005D000349A1060002959D10024E4432A48784411
:1005E000A6308BE6349800680168001D349A1060CC
:1005F00000294BD10024E443234878448A307DE627
:10060000349800680268001D34990860002A13D1EC
:100610000024E4431C4878446E306FE63498006848
:100620000268001D34990860002A05D10024E443C3
:1006300015487844523061E60D98C11703C200F0A6
:1006400030FC349800680168001D349A106000295D
:1006500005D10024E4430C4878442C304EE60D9834
:10066000087000F01EFC349800680168001D349A80
:10067000106000290AD10024E4430348784408307C
:100680003CE600BF0C5D0000205D00000D98086096
:1006900000F007FC34980368DB1D0720834334987F
:1006A000036003CB349D2B6002AB03C32023C80F30
:1006B00004D007982D2115AB19540DE002A8008F26
:1006C000204204D007982B2115AB195404E0C00731
:1006D00004D5079815A90B54401C079015A8079935
:1006E0004318059324AD02A8C0C8684600782021AD
:1006F000014368468170612909D00E98002801D510
:10070000062003E003D1672901D114980E9002A8B6
:1007100003C808004C006415641C0ED109030CD0FA
:1007200003200890613A1A2A03D223497944883178
:100730000FE02249794484310BE0002C0ED10003F4
:100740000CD103200890613A1A2A1DD31C49794420
:100750006E310322180000F02BFDA2E301AA02A8CB
:1007600003C800F032FD02AA03C2684680786128FF
:1007700013D1059830210170811C059169460978D3
:10078000612905D1782104E00E4979443631E0E74A
:10079000582141700798801C079002A803C893A2B3
:1007A0000CCA02400B400FD1002A0DD100240026B4
:1007B00061E100BFEFFF0000285C0000285C000042
:1007C0002C5C0000245C000068468078612800D022
:1007D00099E00E98002801D5212000E0401C1390DC
:1007E0001398401C2E90300039000022002300F0A6
:1007F00001FD02A830C802D28020000645400198C1
:10080000001F019024A90A7024A8461C2E980028D5
:1008100032DD2E9F20002900002280235B0300F0A0
:1008200002FD29D81C2200F017FD04000D0000F085
:100830004BFD2E90FF1F002F09DD00F07FFD020011
:100840000B002000290000F0E0FD04000D00F01D69
:1008500007212E9A002A0ADD491E08D4401E1307DC
:100860001B0F03701211F5E7401E00220270491E93
:10087000FAD5C61D002FCDDC24A82F99711A24AA01
:10088000551C139A0C00914200DD1400002C33D447
:100890008C4205DA411C095D082901DB0F2100E0CB
:1008A0000021220024AB9B1801E0641E5B1E521E37
:1008B0001E788E42F9D00F2904D1411C895C491C55
:1008C000401C8154002A04D524AD641C0198001DED
:1008D0000190611E10D46A1868460078137830338E
:1008E000DEB23A2E01DBC318C6331370491E521E06
:1008F0000029F3D5694608700E98002800D4B9E0A5
:10090000601E0E90B6E07F007F080198684948435A
:10091000684900F0F1FD019007200199401A002874
:1009200005DD02003000390000F072FB0AE04242AF
:100930000020614900F06CFB02000B003000390020
:1009400000F009FE6A469278662A02D1019A0A32BC
:1009500000E006220E9B9A18142A00DD142224AB14
:1009600030241C705C1C02E030A803C8139A002AD3
:1009700040DD30AB03C3139230A803C800F0B6FCCF
:100980002E9006460834042530000A2100F0C8FDE8
:100990000F0030000A2100F0C3FD06003037601E52
:1009A000077030000A2100F0BBFD0F0030000A2163
:1009B00000F0B6FD0600A41E303727706D1EE3D18F
:1009C00008341398083813900028CDDD2E9800F0D5
:1009D000A5FC02000B0030A803C800F016FD0022A1
:1009E000364B00F019FE30AA03C2C5E7FFFFFFFF38
:1009F000FFFFFF7F2F98201A24A94D1C04E0401E02
:100A00000199491E01916D1C29783029F7D069465A
:100A10008978662902D10199491C06E069468978DE
:100A2000652901D1149900E000210E9A5418A042C2
:100A300000DA441E002C1DD4844204DA285D3428D8
:100A400001DD392100E030212200681E831801E019
:100A5000641E5B1E521E1E788E42F9D0392902D1C7
:100A6000A95C491CA954002A04D50500641C0198FE
:100A7000401C0190019E13956846007869464870B5
:100A800000F08CFE406A0078694608700E9D20B226
:100A9000002804DC149C0548784410301390684604
:100AA000807866280CD1761C24E000BF44590000F1
:100AB00097750000A08601000000F03F84D79741A1
:100AC00068468078672846D130B20321C9438842FE
:100AD00047DBA84245DA761C02A8008F1299C0B203
:100AE000084203D120B2A84200DC050030B22D1A22
:100AF00000D5002537B2002F00DDBAE00898411C70
:100B000008913021059A1154002D05DC02A8008FB0
:100B10001299C0B2084206D00898411C0891694653
:100B20000978059A11547842854200DA6E4236B24D
:100B300070420B90AD1920B2854200DA2C0024B22D
:100B40000994220013990598089BC01800F030FB07
:100B5000281B0C90DAE068464078612818D1702094
:100B60001BE020B2A84206DA02A9098F129AC9B284
:100B7000114200D105006D1E00D500256846407861
:100B8000672802D16520694607E04520694604E0F0
:100B900068464078412801D1502048700898411C8F
:100BA000089113990978059A11541398411C002D46
:100BB00005DC02A8008F129AC0B2104219D0089822
:100BC000421C08926A461278059B1A54002D10DDCB
:100BD000641E20B2854200DA2C0022B20598089BE0
:100BE000C01800F0E5FA24B2089800190890281BF4
:100BF0000B9005980899401869464978017031B200
:100C0000002903D42B214170871C03E02D22427060
:100C1000871C4E42002412AD300008E00A2100F08B
:100C20006BFC30AA03C229703098641C6D1C00B2A2
:100C30000028F3DC012C08DC6846407820210143C1
:100C4000652902D1302038707F1C002C09D130205A
:100C500038707F1C07E0641E12A8005D30303870C9
:100C60007F1C002CF7DC059808994018381A099069
:100C70004CE020B231B288421DDA22B213990598B5
:100C8000089BC01800F094FA24B208980019089044
:100C9000391B0B91002D05DC02A9098F129AC9B2EC
:100CA000114206D069460978059A11540998401CEA
:100CB00009900C952AE032B213990598089BC01848
:100CC00000F076FA0898C0190890A41B002D05DCE6
:100CD00002A9098F129AC9B2114205D0411C08918C
:100CE00069460978059A115420B2854200DA2C0031
:100CF00022B21398C1190598089BC01800F058FA41
:100D000024B2089800190890281B0B9002A83821DB
:100D1000405C14210140102900D0C2E007980899D6
:100D200040180B994018099940180C9940180F99D0
:100D3000884200DBB5E0081A0A90B2E002AA3A2025
:100D4000105C622808D068280ED06A2814D06C285D
:100D50001DD0712810D01AE0349801680868091D68
:100D6000349B1960C0B218E0349801680868091D06
:100D7000349B196080B210E034980368DB1D0720B3
:100D800083433498036003CB349C236006E034989B
:100D900001680868091D349B1960002102AB03C378
:100DA000108F1299C0B208425BD002A803C8002974
:100DB00001D1002855D068460078202101437829C8
:100DC0004FD1079815A930220A54401C421C0792A3
:100DD0006A4612780A5444E002AA3A20105C62285B
:100DE00008D068280ED06A2814D06C281DD071282D
:100DF00010D01AE0349801680868091D349B196006
:100E000040B218E0349801680868091D349B1960E5
:100E100000B210E034980368DB1D07208343349848
:100E2000036003CB349D2B6006E0349801680868AA
:100E3000091D349B1960C11702AB03C3002902DAF4
:100E400007982D2109E0108F204202D007982B210E
:100E500003E0C00705D50798202115AA1154401CAE
:100E6000079015A80799401805906846017802A8D0
:100E700000F03CF815E01498079034980068016879
:100E8000001D349A106015A801700AE0252015A9EC
:100E900008701498079068460078002801D04A70BE
:100EA00007940F980799401A0A99401A0899401A0E
:100EB0000B99401A0999401A0C99401A019002A8FE
:100EC0003821405C400701D5FFF733FA20206946FE
:100ED00008700198002801DCFFF72BFA019C329D75
:100EE000FFF71AFA0020C04335B0F0BDF2B586B066
:100EF000040025696F2901D1082707E00846202151
:100F00000143782901D00A2700E010273C2603CCB2
:100F1000083C04AA03C26A46127E642A03D06A46C9
:100F2000127E692A09D1002907DA04A803C8002221
:100F30000023121A8B4104A80CC004A803C800297E
:100F40000DD100280BD1206B002808D1082F3DD1EE
:100F50003820205C000739D53B26302035E002944C
:100F6000009504A830C8761E0196200029003A009A
:100F7000FB1700F019FC3032D0B23A280DDA009895
:100F80008255200029003A00FB1700F00DFC0400F8
:100F90000D0007D1002C05D10AE06846007E8218BA
:100FA000AF32ECE70298C068009989198842DAD319
:100FB000029C009D082F09D13820205C000705D530
:100FC000A85D302802D0761E3020A8553C20801B1A
:100FD000A061A919E160216B884206DA081A206233
:100FE000208F1C490140218710E000290ED53821AF
:100FF000615C14220A40102A08D1616B6269891A67
:10100000226A891A081A002800DD206207B0F0BDA4
:10101000F8B50026104F04000D00009214E0C00740
:1010200007D532003B002000290000F0F5FA04004B
:101030000D000098401000903000390032003B0055
:1010400000F0EAFA06000F0000980028E7D120001F
:101050002900F4BDEFFF00000000244010B503009C
:101060000C001100A0689847A060002804D0E06A36
:10107000401CE062002010BD0020C04310BDF8B548
:101080000024002B11D007000E0014001D00217851
:10109000B068B847B060002809D0F06A401CF06220
:1010A0000020641C6D1EF2D104002000F2BD00205F
:1010B000C043F9E7C9B202788A4203D0401C002A33
:1010C000F9D10020704730B50168411844686208C2
:1010D0008A188368E40704D54C461B1901E0641C98
:1010E00009D1914203D00C7864B2491C01E00C3064
:1010F00030BD0D78491C1D705B1C002CEFD4641EA4
:10110000F7D5EEE780B5002801D100BF07A006495A
:101110000B68002B03D022220021984701E000F049
:1011200081FB222002BD000038070020636F6E7330
:10113000747261696E742068616E646C65723A20C5
:10114000626164206D65737361676500431C01789B
:10115000401C0942FBD1C01A70470268531C03604F
:1011600011707047C9B2521E05D30378401C8B42E0
:10117000F9D1401E7047002070472E0070B4103A1D
:1011800003D378C9103A78C0FBD2530701D318C9EA
:1011900018C001D508C908C0D20704D30B88038042
:1011A000891C801C002A01D50B78037070BC704725
:1011B0008B0701D18307E1D0124205D00B78491C7F
:1011C0000370401C521EF9D1704710B5144600F050
:1011D00002F8226010BD4A0053155B1C08D0520D66
:1011E00006D003231B02FE3AD21A1305C91A704710
:1011F0000022704730B4012464054D00EC420BD846
:101200005D00EC4208D80C001C4364000443144306
:1012100004D2994200D1904230BC7047FCD08B423E
:10122000FAD18242F8E730B4012464054D00EC4263
:101230000BD85D00EC4208D80C001C43640004434A
:10124000144304D28B4200D1824230BC7047FCD0A0
:101250009942FAD19042F8E7124217D40023DB43B7
:101260005B0D9C464B005B0D06D0634504D09B187C
:10127000634502D21205891870476246090D114371
:101280000905002000B500BF00BF00BD52424B0061
:101290005B0DF1D05B1C5B05EED25B0D934102D977
:1012A0001205891A70470BD10B031B13C90FC9070D
:1012B000821C002043411343E4D912051143E1E7A6
:1012C000C90FC9070020DDE7F4464A1805D200F02F
:1012D0000FF801D580174008604700F009F8012198
:1012E000C907884200D90800404260474A1812D214
:1012F000400DC90208430121C9070843520D40218E
:101300000901521A521C06D452421F3201D4D04055
:101310007047C017704700207047FEE70100422267
:101320001201D21E004207D002D4521E0018FCD572
:10133000C10A400512058918704700000100EED56A
:101340004042F446FFF7EBFF0122D207114360470A
:101350008B4200D1824205D98446100062468C46F9
:1013600019006346DF184C18640D7F0D3AD0661CD7
:10137000760537D0E61B352E34DCDB022B43DB0A47
:101380000C0DC9022943C912202E0DDB1700203E87
:1013900006D01F00F741F3405F400026012A774145
:1013A000C01871410DD217E01700F741F2405740C5
:1013B000F3415A40B340F3405A4000268018594147
:1013C0000AD3A21C52050FD0C207012F7241170089
:1013D0004008CB0718434908641C24054208AF4164
:1013E00070416141F0BC7047641C21050020F9E7A1
:1013F0006B4010E06B40ABE7F742F3D1E943F1E714
:101400002442EFD100200021ECE7F0B40125ED07E4
:101410000F005F40EED40C00871A9C4105D2C01B20
:10142000A141D219634169406B40AE0ADF184C18E4
:10143000F442E1D2640D7F0DE2D0E61B362ED1DC02
:10144000DB022B43DB0AA4460C0DC9022943C90A5F
:10145000012E28DC04D1D6075208DF073A435B0887
:10146000EF0A76429041994114D039423BD1B619E6
:1014700040414941761C394204D1761C001849414B
:101480003942FAD0B9436746B74208D9A41B2405AC
:101490002143A7E70042EAD13642E8D1A2E7E40AB5
:1014A000E10700209EE7202E0BDD203E1F00F340C9
:1014B000F7415F40012A002257417E429841914105
:1014C0000BE01700F741F2405740F3415A40B34058
:1014D000F3405A407E42904199410A0303D2641E70
:1014E000B619404149410027641E24054208AE4117
:1014F00078416141F0BC7047CA0F00D049420310E7
:101500005A400DD004B500D3404200F009F8009ACB
:10151000D20701D34942124200D5404204BD000027
:10152000094214D088420FD30122030C01D10004D8
:101530001204002300185B418B4200D35B1A524116
:10154000F8D319001000704701000020704708B55B
:1015500000F06EF908BDF0B40E005E400125ED0705
:101560002E40B446AE0ADF184C18F4423BD2F74284
:1015700041D2640D43D07F0D38D0E41BC902DB0299
:1015800029432B43CF0ADB0A0600B61A9F4104D237
:10159000641EB6197F41B6185F416812800D241889
:1015A0000018844222DCE80C0021B6197F41B61AEB
:1015B0009F4102D2B6185F413F1C40414941F4D3DC
:1015C000241C21DD2405B6197F41B61A9F4105D39D
:1015D0003743C60737430026012F704161416646F5
:1015E0003143F0BC7047FCD1F74205D20020C14323
:1015F00049054908F3E704D00020C143F1E77F0D16
:10160000FAD000206146ECE72442FAD1401C614147
:101610000F03F6D30020E2E7F0B50E005E4001258F
:10162000ED072E40B446AE0ADF184C18F44208D23B
:10163000F7420ED2640D01D07F0D12D10020614619
:10164000F0BD05D1F74201D87F0D05D10020C1437F
:10165000F0BDFBD1640DF9D00020C1434905490814
:101660008FE0E419C902DB0229432B43DB0A460D54
:10167000C00231438E4630B487B295B27D432E0C02
:10168000ADB2140C7C43A419260C240425439CB24F
:101690007C43A419190C7943270CC919A4B20F046F
:1016A0003C43090C000C97B247432E0CBE1935433E
:1016B000ADB2170C4743360CBF19A6B2BF193E0492
:1016C0003543240C3E0C36199FB24743BF19BCB2B8
:1016D0003E0C89191F0C47437F183E043443390CD4
:1016E000704680B297B247432E0CBE193543ADB257
:1016F000170C4743360CBF19A6B2BF193E04354339
:10170000240C3E0C36199FB24743BF19BCB23E0CA5
:1017100089191F0C47437F183E043443390C774620
:101720003F0C90B278432E0C80190604ADB22E43C4
:10173000050CA0B22D18120C7A435019020C80B27D
:10174000240CA4189AB27A43121914042043120CE0
:1017500089181B0C7B43C91830BCEF0A394203D1EE
:10176000B61940414941641E6F12BF0DE41B0BDBEB
:10177000FF19BC4211DA240500274208AE41784126
:10178000614166463143F0BD641C05D1401C614196
:10179000CF0201D34908F4E750E75DE701487047FD
:1017A000000000009401002012422DD0994231D94E
:1017B00070B500251B4209D00C00002112E0110079
:1017C000FFF7AEFE0A000021002370BD0942F6D0EB
:1017D0000024012649186441944200D3A41A76419A
:1017E000F8D33100012601E0764109D200186441A6
:1017F0006D41A41A9D41F7D2A4185D41B619F5D3E5
:10180000300022002B0070BD1B42CFD108B500F084
:1018100011F808BD01D19042CAD202000B0000218C
:101820000020704780B5012000F006F801BDFEE7FA
:101830007047FEE77047FEE780B500BF00BF024A71
:1018400011001820ABBEFBE72600020000000000DC
:101850000000000000000000000000000000000088
:101860000000000000000000000000000000000078
:101870000000000C000C000C000C000C000C000C14
:10188000000C000C000C000C0000000C000C000010
:10189000000000000000001B001B001B001B001BC1
:1018A0000000000000000000000000000000000038
:1018B000000000000000000000008019801980195D
:1018C0008019C07FC07F80190033C07FC07F003384
:1018D0000033003300330000000000000000001E51
:1018E000003F807580650074003C001E0007800585
:1018F000806580658075003F001E000400040000C4
:101900000000007000D840D8C0D880D9007300060D
:10191000000C801BC036C066C046C00680030000B5
:10192000000000000000001E003F003300330033C1
:10193000001E000CC03CC066806380618063C03EB6
:10194000801C0000000000000000000C000C000CD7
:10195000000C000C0000000000000000000000006F
:1019600000000000000000000000000080000001F6
:101970000003000600060004000C000C000C000C24
:10198000000C000C000400060006000300018000AB
:10199000002000100018000C000C000400060006D7
:1019A00000060006000600060004000C000C0018EB
:1019B000001000200000000C002D003F001E00332E
:1019C0000000000000000000000000000000000017
:1019D0000000000000000000000000000000000CFB
:1019E000000C000C000CC0FFC0FF000C000C000C31
:1019F000000C0000000000000000000000000000DB
:101A000000000000000000000000000000000000D6
:101A1000000000000000000C000C0004000400089E
:101A200000000000000000000000000000000000B6
:101A30000000001E001E000000000000000000006A
:101A40000000000000000000000000000000000096
:101A50000000000000000000000000000000000C7A
:101A6000000C000000000000000000030003000361
:101A70000006000600060006000C000C000C000C1E
:101A80000018001800180000000000000000001EF0
:101A9000003F0033806180618061806D806D806176
:101AA000806180610033003F001E000000000000E4
:101AB00000000006000E001E00360026000600068C
:101AC00000060006000600060006000600060000EC
:101AD000000000000000001E003F807380618061F4
:101AE000800100030006000C001800300060807FB9
:101AF000807F0000000000000000001C003E00632A
:101B000000630003000E000E00038001800180616D
:101B10008073003F001E000000000000000000066F
:101B2000000E000E001E001E001600360036006675
:101B3000807F807F00060006000600000000000095
:101B40000000007F007F006000600060006E007F8A
:101B500080638001800180618073003F001E00006F
:101B6000000000000000001E003F80338061006024
:101B7000006E007F80738061806180618033003FF0
:101B8000001E0000000000000000807F807F8001B8
:101B90000003000300060006000C000C000C000807
:101BA0000018001800180000000000000000001ECF
:101BB000003F8063806180610021001E003F8061E2
:101BC000806180618061003F001E00000000000015
:101BD0000000001E003F007380618061806180739F
:101BE000803F801D800180610073003F001E000067
:101BF0000000000000000000000000000000000CD9
:101C0000000C000000000000000000000000000CBC
:101C1000000C0000000000000000000000000000B8
:101C200000000000000C000C00000000000000009C
:101C30000000000C000C000400040008000000007C
:101C40000000000080008003000E003800600038B3
:101C5000000E800380000000000000000000000073
:101C600000000000000000000000807F807F000076
:101C70000000807F807F0000000000000000000066
:101C800000000000000000000000000000400070A4
:101C9000001C000780010007001C007000400000CD
:101CA00000000000000000000000001F803FC07125
:101CB000C060C000C00180030007000E000C000CD3
:101CC0000000000C000C0000000000000000001EDE
:101CD000003F803180718063806F806D806D806F88
:101CE000806700600032003E001C00000000000021
:101CF0000000000E000E001B001B001B001B8031AB
:101D00008031803F803F8031C060C060C060000093
:101D1000000000000000007C007E006300630063A0
:101D20000063007E007E0063806180618063007FCD
:101D3000007E0000000000000000001E003F803117
:101D40008061006000600060006000600060806191
:101D50008031003F001E0000000000000000007CF9
:101D6000007F006380638061806180618061806149
:101D7000806100630063007E007C000000000000C2
:101D80000000807F807F0060006000600060007F56
:101D9000007F0060006000600060807F807F000046
:101DA000000000000000807F807F00600060006015
:101DB0000060007F007F00600060006000600060E5
:101DC00000600000000000000000001E003F8031A5
:101DD000806100600060006080638063806180617A
:101DE0008031803F001E0000000000000000806184
:101DF00080618061806180618061807F807F80619F
:101E0000806180618061806180610000000000006D
:101E10000000003F003F000C000C000C000C000C08
:101E2000000C000C000C000C000C003F003F0000F8
:101E3000000000000000800180018001800180011D
:101E40008001800180018001806180618073003F9A
:101E5000001E0000000000000000C0608061006300
:101E600000660066006C0078007C00660066006317
:101E700080618061C0600000000000000000006020
:101E80000060006000600060006000600060006052
:101E9000006000600060807F807F00000000000024
:101EA0000000C071C071C07BC07AC06AC06AC06ED9
:101EB000C064C060C060C060C060C060C06000003E
:101EC0000000000000008071807180798079807945
:101ED000806D806D806D80658067806780678063BE
:101EE00080630000000000000000001E003F00337F
:101EF00080618061806180618061806180618061DA
:101F00000033003F001E0000000000000000007EC3
:101F1000007F80638061806180618063007F007EDC
:101F200000600060006000600060000000000000D1
:101F30000000001E003F003380618061806180618D
:101F400080618061806580670033803F401E0000B3
:101F5000000000000000007E007F806380618061DF
:101F60008063007F007E00660063006380618061A3
:101F7000C0600000000000000000000E001F803163
:101F8000803100300038001E0007800380618061CE
:101F90008031003F001E0000000000000000C0FF74
:101FA000C0FF000C000C000C000C000C000C000C1E
:101FB000000C000C000C000C000C000000000000E5
:101FC00000008061806180618061806180618061EA
:101FD00080618061806180618073003F001E00002D
:101FE000000000000000C060C060C060803180312F
:101FF0008031001B001B001B001B000E000E000E9A
:1020000000040000000000000000C0C0C0C0C0C04C
:10201000C0C0C0C0C0CC804C804C805E805280521A
:102020008073806180610000000000000000C0C07B
:10203000806080610033003B001E000C000C001E1D
:10204000001F003B80718061C0C0000000000000E4
:102050000000C0C08061806100330033001E001E9C
:10206000000C000C000C000C000C000C000C00001C
:10207000000000000000803F803F8001000300035B
:102080000006000C000C0018001800300060807F73
:10209000807F000000000000000F000F000C000C0B
:1020A000000C000C000C000C000C000C000C000CD0
:1020B000000C000C000C000C000F000F00000018BA
:1020C00000180018000C000C000C000C00060006A4
:1020D00000060006000300030003000000000000EB
:1020E000001E001E00060006000600060006000690
:1020F00000060006000600060006000600060006B0
:10210000001E001E0000000C000C001E0012003318
:1021100000338061806100000000000000000000CA
:1021200000000000000000000000000000000000AF
:10213000000000000000000000000000000000009F
:102140000000000000000000E0FF00000000003878
:102150000018000C0000000000000000000000005B
:10216000000000000000000000000000000000006F
:1021700000000000000000000000001F803F8061A0
:102180008001801F803F80618063807FC0380000B5
:102190000000000000000060006000600060006E51
:1021A000007F807380618061806180618073007FC7
:1021B000006E0000000000000000000000000000B1
:1021C0000000001E003F807380610060006080613D
:1021D0008073003F001E000000000000000080012E
:1021E000800180018001801D803F8073806180615B
:1021F000806180618073803F801D000000000000CE
:1022000000000000000000000000001E003F0073FE
:102210008061807F807F00608071003F001E000031
:10222000000000000000C007C00F000C000C807F01
:10223000807F000C000C000C000C000C000C000C4B
:10224000000C000000000000000000000000000082
:10225000801D803F807380618061806180618073B8
:10226000803F801D80018063007F003E0000006091
:10227000006000600060006F807F8071806180611D
:1022800080618061806180618061000000000000E9
:1022900000000006000600000000003E003E0006B0
:1022A0000006000600060006000600060006000004
:1022B000000000000006000600000000003E003E96
:1022C00000060006000600060006000600060006DE
:1022D00000060046007E003C0000006000600060D8
:1022E0000060806100630066006C007C0076006323
:1022F00000638061C0600000000000000000003E3C
:10230000003E000600060006000600060006000665
:10231000000600060006000600060000000000009F
:102320000000000000000000000080DDC0FFC0CE03
:10233000C0CCC0CCC0CCC0CCC0CCC0CCC0CC0000C9
:102340000000000000000000000000000000006F1E
:10235000807F807180618061806180618061806147
:10236000806100000000000000000000000000008C
:102370000000001E003F8073806180618061806189
:102380008073003F001E00000000000000000000FD
:1023900000000000006E007F8073806180618061BA
:1023A00080618073007F006E0060006000600060EC
:1023B0000000000000000000801D803F80738061ED
:1023C0008061806180618073803F801D8001800119
:1023D0008001800100000000000000000000006794
:1023E000803F0039003000300030003000300030D5
:1023F00000300000000000000000000000000000AD
:102400000000001E803F80610060007F803F8001EF
:102410008061007F001E000000000000000000003E
:10242000000800180018007F007F0018001800182E
:10243000001800180018801F800F00000000000026
:1024400000000000000000000000806180618061E9
:1024500080618061806180618063807F803D000059
:102460000000000000000000000000000000C0604C
:10247000803180318031001B001B001B000E000EDC
:102480000006000000000000000000000000000046
:10249000000080DD80DD80DD0055005500550077AF
:1024A0000077002200220000000000000000000071
:1024B000000000000000806100330033001E000CAB
:1024C000000C001E0033003380610000000000009B
:1024D0000000000000000000806180618031003356
:1024E0000033001B001B001B000E000E000E001C22
:1024F000007C007000000000000000000000C07FB1
:10250000C07F800100030006000C00180030C07F6F
:10251000C07F000000000000800380070006000666
:10252000000600060006000E001C001C000E00063F
:10253000000600060006000680078003000600066D
:10254000000600060006000600060006000600065B
:10255000000600060006000600060006000600064B
:102560000038003C000C000C000C000C000C000EAD
:1025700000070007000E000C000C000C000C000C03
:10258000003C0038000000000000000000000000D7
:1025900000008038807F004700000000000000003D
:1025A000000000000000000010B5040001D101206F
:1025B00010BD3D20205C002804D13C216054200047
:1025C00000F0E4FCFFE702203D216054211D20685B
:1025D00000F08AFA0120482160543E2160543F21D6
:1025E0006054402160544121605442216054432191
:1025F0006054442160544521605446216054472171
:1026000060543D216054002010BD10B5040001D17C
:10261000012010BD3D20205C002804D13C216054E5
:10262000200000F05BFDCEE738B50400002901D1A1
:102630003E2010E0042901D13F200CE0082901D1FF
:10264000402008E00C2901D1412004E0102901D1EB
:10265000422000E04320205C012801D0012032BD4F
:102660000220002901D13E2210E0042901D13F229D
:102670000CE0082901D1402208E00C2901D14122B7
:1026800004E0102901D1422200E04322A05401229B
:10269000206800F0F3FB2268134814498A4207D0EF
:1026A000824205D0124B9A4202D0124B9A4204D178
:1026B000536C80252D021D435564236801228B42F3
:1026C00004D00D498B4201D0834207D199684C4810
:1026D0000840062805D01104884202D01868024339
:1026E0001A60002032BD000000400140002C014073
:1026F00000440140004801400004004070B504005F
:102700000D000022B1E038B50400002901D13E20BF
:1027100010E0042901D13F200CE0082901D140201C
:1027200008E00C2901D1412004E0102901D1422008
:1027300000E04320205C012801D0012032BD0220AE
:10274000002902D13E23E05450E0042905D13F2264
:10275000A0542068C26804230EE0082905D1402255
:10276000A0542068C268082306E00C292ED141221B
:10277000A0542068C26810231343C360012220685C
:1027800000F07CFB22681F481F498A4207D0824222
:1027900005D01E4B9A4202D01D4B9A4204D1536C75
:1027A00080252D021D435564236801228B4204D0ED
:1027B00018498B4201D083421DD1996810480840C6
:1027C00006281BD01104884218D014E0102902D129
:1027D0004222A054D2E74323E0540A0006D0042941
:1027E000B7D00829BDD00C29C3D0C7E72268D36869
:1027F0001843D060C2E7186802431A60002032BD57
:102800000700010000400140002C0140004401404D
:10281000004801400004004004000D0006D0042DD3
:102820000BD0082D10D00C2D15D01CE02068C168ED
:10283000304A0A40C260606A13E02068C1682E4ACC
:102840000A40C260A06A0CE02068C1682B4A0A40B6
:10285000C260E06A05E02068C168294A0A40C26097
:10286000206B00F079FC00222900206800F006FBB4
:102870002268244824491E4B9A4208D01B4B9A4296
:1028800005D0224B9A4202D0214B9A4209D1136AB9
:102890000B4006D1136A034003D1536C1D4E1E40FA
:1028A00056642268136A194006D1116A084003D1A0
:1028B00010680121884310600120002D01D13E21C4
:1028C00010E0042D01D13F210CE0082D01D1402161
:1028D00008E00C2D01D1412104E0102D01D142214D
:1028E00000E043216054002070BD00000040014022
:1028F000002C0140FFFDFFFFFFFBFFFFFFF7FFFF85
:10290000FFEFFFFF440400001111000000440140EC
:1029100000480140FF7FFFFFF1B53C23C05C012868
:1029200001D10220F2BD0120009B3C24185508274C
:102930003C4EC5020C00002A0AD0042A18D0082AEE
:1029400028D00C2A36D0102A46D0142A54D064E05D
:102950000098006800F000F90098006881690F4352
:1029600087618169042291438161816922690EE056
:102970000098006800F02AF90098006881690D430A
:10298000856181690E4086618169226912020A436C
:10299000826142E00098006800F04CF900980068FD
:1029A000C1690F43C761C16904229143C161C16913
:1029B00022690EE00098006800F06EF90098006847
:1029C000C1690D43C561C1690E40C661C169226913
:1029D00012020A43C26120E00098006800F092F9F8
:1029E00000980068416D0F434765416D0422914393
:1029F0004165416D22690EE00098006800F0AEF973
:102A000000980068416D0D434565416D0E40466577
:102A1000416D226912020A434265002000993C225E
:102A20008854F2BDFFFBFFFF70B504003C20205C22
:102A3000012801D1022070BD26003C3601253570E9
:102A400002203D22A05420688268264B13408360F8
:102A5000086802003CD010283AD0202838D030280E
:102A600036D040282DD050281DD0602822D0702884
:102A700003D06B0398420AD02EE0CB684A6889687D
:102A8000206800F0CFF920688168772208E0CB68E1
:102A90004A688968206800F0C5F920688168AA033F
:102AA0000A43826018E0CA684968206800F08AF921
:102AB00050210EE0CA684968206800F094F960214E
:102AC00007E0CA684968206800F07CF9402100E00E
:102AD0000100206800F09CF93D2025540020307052
:102AE00070BD00008800CEFFF0B506687F4A804BBD
:102AF000804C814DA84201D0A04206D17027BE4330
:102B000037004E683E43A8420BD0A04209D07B4C10
:102B1000A04206D0984204D0904202D08D4CA042F0
:102B200003D1774C3440CE6826438024A6434C69B9
:102B3000344304608C68C4620C688462A84206D086
:102B4000984204D0904202D0824A904201D1096951
:102B5000016301214161F0BDF8B5026A01239A4386
:102B60000262036A426884697B4D25400C682C43ED
:102B700000940224A3438C681C435C4B5C4D5E4E66
:102B8000B04206D0A84204D0984202D0714FB84259
:102B90000CD10827BC432700CC683C430427BC4326
:102BA000B04206D0A84204D0984202D0694B984265
:102BB00005D1534B13404D691D438A692A43426036
:102BC000009A8261496841630462F1BD70B5026A8E
:102BD00010239A430262026A43688469744D254057
:102BE0000C6824022C432025AA438D682D0115432F
:102BF000414A904208D1802295432E00CA681501AF
:102C000035434022954308E0394A904205D0374A7F
:102C1000904202D04F4A904206D1814A1A404B69F5
:102C20008E691E43B3001343436084614968816326
:102C3000056270BD70B5026A5E4B13400362046AA0
:102C40004268C369444D1D400B682B435A4D2540D3
:102C50008C6824022C43284DA84207D1574D2540AB
:102C6000CC6826022E43564C344008E0204DA84242
:102C700005D01E4DA84202D0364DA84206D16E4D59
:102C800015404A698E69164332012A434260C36186
:102C90004968C163046270BD30B5026A5B4B134082
:102CA0000362036A4268C469414D25400C682402EE
:102CB0002C43624D1D408B681B032B430E4DA842D5
:102CC00008D00B4DA84205D0084DA84202D0214D96
:102CD000A84204D15A4D15404A6992012A434260E4
:102CE000C46149680164036230BD000000440140D2
:102CF0000040014000040040002C01400020004042
:102D0000FFFCFFFF70B54F4A036A13400362046A79
:102D10004368456D4C4E2E400D6835434B4E264062
:102D20008C68240434434A4EB04208D0494EB04225
:102D300005D0494EB04202D0484EB04203D11A40AD
:102D40004B691B0213434360456549688165046212
:102D500070BD0000004801408CFFFEFF30B5026AE4
:102D60003F4B13400362036A4268446D3D4D25406A
:102D70000C6824022C433C4D1D408B681B052B43E3
:102D8000334DA84208D0334DA84205D0324DA84259
:102D900002D0324DA84204D1344D15404A69920206
:102DA0002A43426044654968C165036230BD000042
:102DB000FF8CFFFEFFFEFFFFFFFDFFFFFFF7FFFFA2
:102DC000FFFBFFFF30B5036A046A0125AC430462D0
:102DD0008469F025AC431201224382610A229343A5
:102DE0001943016230BD30B5036A1024A343036266
:102DF0008469036A1F4D254012032A438261A02281
:102E0000934309011943016230BD0000FFEFFFFF4A
:102E10008268174B1340194307220A4382607047A8
:102E2000FFF3FFFF30B58468134D254029430A4363
:102E300019021143816030BDFFCFFFFFFFDFFFFFAD
:102E4000FFBFFFFFFFFFFEFF8FFFFEFFFFFFFDFF46
:102E5000002C014000400140004401400048014076
:102E6000FFFFEFFFFF8FFFFEFFFFDFFFFFFFFBFF17
:102E70008FFFCFFFFF0FFFFFFF00FFFF10B5C90659
:102E8000C90E036A01248C40A3430362036A8A408B
:102E90001A43026210BDFEE780B5864801214268F0
:102EA0000A4342604268114000910099802149051F
:102EB00002680A4302600068014000910098C02047
:102EC000C00000F09DF901BD10B586B004001422C9
:102ED000002101A800F0A2F920687749884224D196
:102EE000764880214903C2680A43C260C268114023
:102EF00000910099012102680A43026000680140C4
:102F0000009100981020019003200290002003906F
:102F100001A9A020C00500F08BF9002200210C209F
:102F200000F063FA0C2000F065FA06B010BD10B591
:102F300086B004001422002101A800F06FF9206877
:102F40005F49884220D102205C4C21680143216006
:102F50002168084000900098C02080000190122055
:102F6000029001200390002004900620059001A902
:102F7000544800F05DF980208003A1680143A160FE
:102F8000A16808400090009806B010BD81B00168AB
:102F900048484D4A914201D1C10C0DE04B4A914243
:102FA00005D1022102680A430260006808E0484A2D
:102FB000914208D18021490242680A434260406838
:102FC00001400091009801B0704770B586B00400D0
:102FD00014220021684600F021F9256839480121B2
:102FE0000222364C0023384EB54208D125681543DD
:102FF0002560246814400594059C08240AE0334E9B
:10300000B5420CD125681543256024681440059409
:10301000059C102400940192029303930FE02C4925
:103020008D4210D121681143216021681140059122
:103030000599510300910192029303930521049194
:10304000694600F0F5F806B070BD10B586B0040012
:103050001422002101A800F0E1F820681D498842EF
:1030600026D116488021C901C2680A43C260C268DD
:10307000114000910099042102680A43026000682F
:103080000140009100983020019002200290002021
:10309000039004900120059001A90F4800F0C8F8A2
:1030A000002200211B2000F0A0F91B2000F0A2F953
:1030B00006B010BD3C100240002401403410024014
:1030C0000054004000040050002C01400004004067
:1030D0000040014000380140000800507047FEE702
:1030E000F0B5002809D00100243100222523C35C5B
:1030F000022B04D00423C3630A700120F0BD0368CF
:103100001C680E25AC431C60446C334B25681D4085
:103110002560046825680126B54325602D4C256887
:10312000AC464025475D1C253D400127AF40654624
:103130002F432760C46C856C6C60046D002C06D036
:1031400024682340046D2360836D446D63602523F0
:10315000C6540A700020F0BDF8B5002100240126F5
:103160002522825C022A03D00421C16301242EE0BF
:10317000026813680E25AB43136002681368B343FB
:103180001360436C144A1D6815401D60114B1D6887
:10319000AC464025475D1C253D400127AF406546B4
:1031A0002F431F60C36C856C6B60036D002B06D0D2
:1031B0001B681A40036D1A60826D436D5A602522A8
:1031C000865424228154816B002900D08847200036
:1031D000F2BD000004000240FFFEFFFF10B5002416
:1031E0000B480168820D0A430260002000F028F9B4
:1031F000002801D0012401E0FFF74EFE200010BDA1
:1032000004490A68044B13401843086070470000E3
:103210000020024000000140FFF9FFFF10B504004C
:10322000080011000200200000F032F9200010BD5B
:10323000FEB500222CE0052602E0574FB842FAD135
:10324000AE402643009C2660544C2568DC43254054
:103250004E68F60300D51D43504E35607568254015
:103260004F68BF0300D51D4375604D4D2E68264045
:103270004D68ED0200D51E43494D2E606E68344006
:103280004E68B60202D526001C0034436C60521C06
:103290000B681C00D44072D0012595402B40F6D01D
:1032A00054000327A740FE4301964E68012E05D027
:1032B000022E03D0112E01D0122E0ED18768019E4E
:1032C0003E40CF68A740374387604668AE434D68AD
:1032D000EF06FF0F974037434760C568019E2E40B9
:1032E0008D68A5403543C5604D68022D01D0122D73
:1032F00019D1D508AD0045192E6A029697001C26F3
:103300003E406F463E70029EB4460F276E463678AA
:10331000B7406646BE43B4460F696E463678B7403E
:10332000664637432F6207680326019D3D404F687C
:103330003740BC4627006446BC402C4304604C68C0
:10334000E400A4D5174C9508AD00641900942468D6
:10335000D70018253D400F27AF40BC43A027FF05ED
:10336000B84201D100266BE70F4FB84201D10126C8
:1033700066E70E4FB84200D05FE7022660E7F7BD70
:103380000069084000D00120C0B27047002A01D077
:103390008161704781627047000C005080180240C4
:1033A000001802406018024000040050000800505D
:1033B00010B5C20018231340FF249C40E243890744
:1033C000090E9940030004D419489B089B00C018BB
:1033D00006E0184B0007000F083880088000181816
:1033E00003681A401143016010BD80B5FFF7E0FF8C
:1033F00001BD0000010005D40121C006C00E8140BE
:103400000D480160704710B5401E80214904884274
:1034100001D3012010BD094C606003210020C0438E
:10342000FFF7C6FF0020A0600721216010BD00004B
:1034300000E400E01CED00E000E100E010E000E04E
:1034400070B5060000240F4D2978002916D0FA2007
:103450008000FEF765F801000B480068FEF760F891
:10346000FFF7D1FF002809D1042E07D20022310036
:103470000020C043FFF7B9FFAE6000E00124200048
:1034800070BD00BF500100205C010020002200BF81
:10349000094202D0491E4254FCD1704738B504009D
:1034A00014D0250080356868002803D128702000DA
:1034B000FFF7CBFD2420686020680168012291435A
:1034C0000160200000F0F2F9012801D1012032BD95
:1034D000A06A002802D0200000F0A8FA2068416805
:1034E000084A0A404260206881682A22914381602C
:1034F000FFE72068016801220A430260200000F013
:10350000FDFA32BDFFB7FFFFF1B584B01C0080307B
:1035100001904068202870D10D000FD068460280CD
:10352000002A0BD080277F0104988068B84207D119
:1035300004980069002803D1E80701D501205DE067
:1035400001980078012858D00120019908700026C0
:103550000198C66021200199486000F0A1FB049900
:103560005431029169460988029A11806946098896
:10357000029A518004998968B94203D10499096972
:10358000002901D029000025019A1670049E02949A
:1035900007000C0010E021788162641C07E03068AD
:1035A000002CF8D12988C905C90D8162AD1C3000F5
:1035B00054304188491E41803000543040880028F2
:1035C0000AD0029800903B0000228021300000F0D9
:1035D000D1FA0028E3D009E030003B0002990091C5
:1035E0000022402100F0C6FA002801D0032005E0A7
:1035F000202001994860002000E0022005B0F0BDC5
:10360000F8B584B0040020680190C16920680268A0
:103610000198806800909E4B0B4025005C3520206F
:1036200020261640029620260E4003960026002BE8
:103630000FD1039B002B12D0029B002B03D1009BC8
:10364000DB0000D483E06969002901D020008847AD
:103650001BE1009B8F4F1F4002D18F4B134076D050
:10366000CB0707D5D30505D50123019F3B622F6BFF
:103670003B432B638B0709D5009BDB0706D5022351
:1036800027683B622B6B04271F432F6304231942D7
:1036900008D0009FFF0705D527683B622B6B0227E8
:1036A0001F432F630B070CD5029B002B03D1009BFC
:1036B000784F1F4005D0082327683B622F6B3B43A0
:1036C0002B638301194006D0510104D521680B6298
:1036D000296B08432863286B00282ED00398002804
:1036E0000AD00298002802D10098C00004D5696968
:1036F000002901D020008847286B4027216889686D
:10370000394002D1282101401CD0200000F09AFA53
:10371000206881680F4011D0816840229143816008
:10372000286A00280AD05D498163286AFFF714FDE2
:10373000002802D0286A816B8847A6E0200000F0AC
:10374000B5FAA2E0200000F0B1FA2E639DE02B69EB
:10375000012B5FD1102319425CD01A425AD0019933
:103760000B621021C9432268926852062DD52A6A3D
:1037700013685B689BB2002BE8D05C27E75BBB4219
:10378000E4DA6B8012681268024018D1226812686D
:10379000434B134022681360226893680127BB43A0
:1037A0009360226893684027BB439360E8622E6170
:1037B0002068026811400160286AFFF791FC5C20D4
:1037C000205A6988411A89B220E05C22A25A6B888B
:1037D000D21A6B461A806A88002A56D06A46128826
:1037E000002A52D0226812682E4B134022681360C0
:1037F000226893682C4F1F409760E8622E616E61CB
:10380000206802681140016068460188200000F0CD
:103810004EFA3AE0C303194208D0009F7F0205D553
:1038200001980362200000F043FA2EE08304802711
:1038300039420AD0174002D1009F1F4005D0A96924
:10384000002922D0200088471FE0402739420DD0B0
:1038500017400BD02168096840229143226811600B
:10386000A862AE61200000F024FA0EE00B4005D003
:10387000500003D5200000F01DFA06E0C80104D571
:10388000002A02D5200000F016FA05B0F0BD0000B5
:103890000F0800000100001020010004853C000812
:1038A000FFFEFFFFDFFEFFFFFEFFFFEFF8B50400A6
:1038B00000270025206801688E4A0A40A16811434C
:1038C00022690A4361691143E2690A43616E114347
:1038D00001604168884A0A40E1681143416081689B
:1038E0009E4A0A40A1691143226A0A438260C16A62
:1038F0000F229143626A0A43C262994A1021994B8E
:10390000984208D110688007800F1ED0022810D07E
:1039100011D303280BE0944B984210D110680C226D
:10392000024012D0042A06D0082A02D00C2A04D061
:103930000CE002210AE0042108E0082106E08B4A9D
:10394000904202D08A4A904200D1002131A6B34869
:1039500080221202E36993422AD1002906D002296B
:1039600008D004291FD0082920D049E000F07DFCB0
:10397000002846D061680091616A4900715AFDF7DC
:10398000CFFD40000099490840180099FDF7C8FD97
:1039900080B201001039A24A914231D202400007A0
:1039A000400F104324E000F01FFCE1E71000E1E7C6
:1039B000002906D0022908D004291CD008291DD0CE
:1039C0001EE000F052FC00281BD061680091616A83
:1039D0004900715AFDF7A4FD009949084018009963
:1039E000FDF79EFD80B2010010398D4A914207D249
:1039F0002168C86005E000F0F7FBE4E71000E4E7A9
:103A00000125200068300121418001808760C76066
:103A10002800F2BD010002000400060008000A00B0
:103A20000C00100020004000800000012821415CB3
:103A3000C90706D501684A687A4B1340C26A1A431F
:103A40004A602821415C890706D501684A68764B9F
:103A50001340026B1A434A602821415C490706D58E
:103A600001684A68714B1340426B1A434A6028212F
:103A7000415C090706D501684A686D4B1340826BAB
:103A80001A434A602821415CC90606D501688A6844
:103A9000684B1340C26B1A438A602821415C890637
:103AA00006D501688A68644B1340026C1A438A6029
:103AB0002821415C490611D501684A685F4B1340D3
:103AC000426C1A434A60426C80235B039A4205D1E0
:103AD0004A685B4B1340826C1A434A602821415C60
:103AE000090606D501684A68634B1340C06C184349
:103AF00048607047F369FFCFFFCFFFFFF8B50400C0
:103B000000258030C56000F0CBF807005B4E2068D0
:103B10000068000709D500963B0000228021890338
:103B2000200000F027F800280DD120680068400729
:103B30000BD500963B0000228021C903200000F035
:103B400019F8002801D00320F2BD21008031202087
:103B500048608860E5660D700020F2BDFFF4FF113B
:103B6000541002400038014000440040004800402A
:103B7000004C0040FEB5089F80242401002506006B
:103B800001916846027002933068C0690199014052
:103B90000198814201D1012000E0002069460978A6
:103BA000884238D10020C0438742EDD000F078F839
:103BB0000299401A874201D3002F11D13068016861
:103BC0002F4A0A4002603068816801229143816077
:103BD0003000803020214160816005700320FEBDEF
:103BE000306800684007CFD53068C0692040CBD02E
:103BF0003068046230680168214A0A400260306817
:103C00008168012291438160300080302021416031
:103C10008160C160E1E70020FEBD00000024F400E7
:103C2000F0FF0000FFFFFDFFFFFFFEFFFFFFFBFFB8
:103C3000FF7FFFFFFFEFFFFFFFDFFFFFFFFFEFFF54
:103C4000FFFF9FFF01680A68134B13400B60016878
:103C50008A68124B13408B60C16E012904D1016840
:103C60000A6810239A430A6020218822815000218B
:103C7000C166016770470000FFFFF7FFFFFFFF010C
:103C80005FFEFFFF80B5806A0100563100220A8185
:103C90000A8000F00BF801BDDFFEFFFFFEFFFFEF23
:103CA00001484068704700BF5001002070477047CE
:103CB0007047704770477047FEB507001BD0A84C8F
:103CC0003878C00719D5A16838200840E1688025F8
:103CD000AD02102808D18807800F032806D0796824
:103CE0006808814234D13BE00828F8D120680540BB
:103CF00003D07868002800D1B7E1387880077BD5F9
:103D0000A06838210140E268B948BA4D10294ED167
:103D10009207920F022A4CD0F968002900D196E050
:103D2000216808403969014321602068A10D0143E1
:103D30002160FFF7B5FF3E0007002068400500D571
:103D40007DE0FFF7ADFFC01B0328F6D30320FEBDC7
:103D5000A022D202914207D1216882000A43226048
:103D600021680843206007E02068A34901402160E2
:103D70002068A24901402160786800280BD0FFF735
:103D80008FFF060020682840B7D1FFF789FF801B0E
:103D90006528F7D3DAE7FFF783FF0600206828409D
:103DA000ABD0FFF77DFF801B6528F7D3CEE7002956
:103DB000B2D12268520502D5FA68002A3ED0626864
:103DC00015407A6912022A43626000290ED12168E7
:103DD0000840396901432160A64801212268920404
:103DE000520F9140FDF79CFBA3490860A34800686F
:103DF000FFF726FB002821D10225387800070AD5D5
:103E0000A06838210140182931D1206E284002D005
:103E1000B869002812D03878400700D4A9E0002003
:103E20000190A06838210140202942D1E06D054071
:103E300000D19EE0B868002800D09AE015E16068E3
:103E4000054070690002284360603700D4E72068AD
:103E50008B4901402160FFF723FF050020684005E2
:103E6000CAD5FFF71DFF401B0328F7D36EE7B869DB
:103E70000028206E0ED0012101432166FFF710FFBC
:103E80000600206E2840C6D1FFF70AFF801B0328DA
:103E9000F7D35BE7012188432066FFF701FF0600A7
:103EA000206E2840B7D0FFF7FBFE801B0328F7D316
:103EB0004CE7E806E16B014008D1E16B0143E163A7
:103EC000E16B084000900098012001906D4D28683A
:103ED000C00512D4A00D0090286800990143296004
:103EE000FFF7DEFE060028680099014005D1FFF7C4
:103EF000D7FE801B0328F6D328E7B86801210128E4
:103F000005D00528E06D06D104220243E265E06D8C
:103F10000143E16505E08843E065E06D04218843E5
:103F2000E0650226B86800280CD0FFF7B9FE05004E
:103F3000E06D304016D1FFF7B3FE401BA649884222
:103F4000F6D303E7FFF7ACFE0500E06D304009D083
:103F5000FFF7A6FE401BA0498842F6D3F6E600BF55
:103F6000001002400198002803D0E06B9B490140FB
:103F7000E163F86900287AD0A16838220A40102A43
:103F800054D08026B60496490228206838D10140D2
:103F90002160FFF785FE05002068304005D0FFF75F
:103FA0007FFE401B0328F7D3D0E6E0688D4901402F
:103FB000386A0843796A0143B86A00020843F96A1B
:103FC0000143386B0843E0602068710801432160B9
:103FD000E068F1000143E160FFF762FE0500206840
:103FE000304044D1FFF75CFE401B0328F7D3ADE619
:103FF000FFC7FFFFFF80FFFFFFFFFEFFFFFFFBFF8D
:1040000001402160E06803218843E060E0689E4948
:104010000140E160FFF744FE05002068304026D0F3
:10402000FFF73EFE401B0328F7D38FE601281CD084
:10403000E0688107890F3A6A914216D170210140E8
:104040007A6A914211D1FE21C9010140BA6A120275
:1040500091420AD1F82189030140FA6A914204D1C0
:10406000400F4007396B884201D00120FEBD00207F
:10407000FEBD00000024F4005C0100205801002077
:10408000FFFEFFFF00700040F8B5070066D000910A
:104090007E4800684007400F884218D27B4C206859
:1040A00007218843009901432160FFF7F9FD009D36
:1040B000060020684007400FA84207D0FFF7F0FD38
:1040C000801B45498842F4D30320F2BD009539682E
:1040D000704C022001420CD0490704D5A168E022AF
:1040E000D2010A43A260A168694A0A40B968114333
:1040F000A1600725ED433978C90732D579680129D0
:1041000018D12068800329D5A06828400143A16008
:10411000FFF7C6FD3E000700A06838210140706827
:10412000C00081421CD0FFF7BBFDC01B2A4988425A
:10413000F2D3C9E7022902D12068800103E00029F7
:1041400003D120684005DFD408E0032903D1226EA3
:104150001040D9D102E0E26D1040D5D10120F2BD6E
:1041600037000098494909684907490F884217D222
:104170004648006805400098284344490860FFF716
:104180008FFD009D0600414800684007400FA8428F
:1041900006D0FFF785FD801B0F498842F3D393E7D4
:1041A0003878400705D5A0683B490140F8680843C6
:1041B000A06000F019F83949A2681205120F9200A8
:1041C000895CC906C90EC840354908603548006891
:1041D000FFF736F9F2BD000089130000FFFFFFEF83
:1041E000FFFFFFFE8C80C11F30B507212F48294CEF
:1041F0003823A2681A4006D123680122DB0A19403D
:104200008A4011001EE04208A5681D40082D01D11A
:10421000100030BDA5681D40102D16D1E368E5687B
:104220002D092940491C7F259B079B0F032B00D19B
:104230001000FDF775F9E168090A0D406843E1686F
:10424000490F491CFDF76CF930BDA06818402028C3
:1042500002D18020000230BDA0680340182B02D19B
:10426000FA20C00130BD002030BD0F4801680C4865
:1042700000680F4A4904490F8900515CC906C90EFC
:10428000C840704700000000FFFFFEEF0020024022
:10429000FFF0FFFF00100240FF8FFFFFF4630008F4
:1042A0005C01002058010020081002400024F400A6
:1042B000B864000810B504231940436907248C40F2
:1042C000A3438A401A43426110BDC068C02109015E
:1042D0000140481E8041C00F7047FEB50500002711
:1042E00001970097002D01D10120FEBD2C00543410
:1042F0006068002804D12800FEF7E6FDA76027705B
:104300002868816880267605314011D18168814A0C
:104310000A4032438260804800688049FDF700F916
:10432000400001E00098401E009000980028F9D15C
:1043300029688868064008D16068102202436260DC
:10434000A06801220243A260012788686268D20641
:1043500000D4400700D5D4E06068714A02400220D2
:10436000104360608A6880200006D20732D4CA6891
:1043700018239A43AB681343CB60C02109066A68CF
:104380000A402B6C13436A6C1A43AB6C1343EA6C00
:104390001A4301923C22AA5C012A03D1019A01230B
:1043A000134301932A6816695E4B3340019E1E43F6
:1043B00016616A688A420DD041088A420AD0824258
:1043C00008D059490E68594B3340F026B6031640C1
:1043D0001E430E60296B002900D0C10C2A691040D1
:1043E00002D05000400801E0802080030090A87EA9
:1043F0002A7E93036A7ED2031A434303134319436D
:10440000EA680A43009911432C22AA5C56000E4325
:104410002021695C01290ED1002804D130008026BA
:104420007602064307E06068202101436160A068CE
:1044300001210143A160686A002805D0E0214900FC
:1044400001403143AE6A0E432868C168384A0A40C9
:104450003243C26028680169364A0A400199114313
:1044600001616A6B00212868FFF724FFAA6B3249BB
:104470002868FFF71FFF2869002806D12868816A8D
:104480000F22D2430A43826221E0802189038842BD
:104490001DD10022E16890000B00C3401807000FF7
:1044A0000F2802D0521C082AF5D30F20C043012A3E
:1044B00004D129688A6A1043886208E02A68936AEE
:1044C000EB695B1E5B07DB0E9840014391620220A3
:1044D000C0432968C968194A0A40B24207D100217D
:1044E000A160616808400121014361600EE06168DC
:1044F00008401021014361600127A0683843A06093
:1045000004E0606810210143616001273800FEBDAE
:1045100000000000E8FFFF7F5C010020400D030069
:10452000FFFEFFFF02FCFF1F08270140FFFFC3FF44
:104530001902FEFF02FCFFDF04FFFF07E7FF3F83D6
:1045400070B50400206880680425284033D15420C9
:10455000205C01282FD02600543601203070200026
:1045600000F026FA0021020023D17268174B134095
:10457000AA011A437260B1601C2223681A6031706C
:1045800021684A681C239A434A60616908292168A6
:104590004A6803D1082313434B6001E02A434A6071
:1045A000216B002904D121684A68102313434B6012
:1045B00003E0317070BD022070BD21688A68554BE0
:1045C00013401D438D6070BD00000000FEF1FFFF31
:1045D000F8B50400206805684768A8070FD5B80734
:1045E0000DD5A06DC00604D4A06D80210901014342
:1045F000A165200000F02EFA022021680860042640
:10460000354201D0374203D1280732D5380730D59B
:10461000A06DC00603D4A06DF1010143A16520681F
:10462000FFF753FE00281ED0A07E00281BD1206873
:104630000068000717D52068816801200E400BD163
:10464000216849680C22914322685160A16D324A69
:104650000A401043A06506E0A16D20220A43A2652E
:10466000E16D0843E065200000F0F5F90C202168B9
:10467000086028060BD58026374208D0A06D71024D
:104680000143A165200000F0E7F920680660E80515
:104690000CD580267600374208D0A06D7102014308
:1046A000A165200000F0D9F9206806608026B600D8
:1046B00035420AD0374208D0A06D71020143A1658E
:1046C000200000F0CBF9206806601026354215D096
:1046D000374213D0206B002803D02068C0688007C1
:1046E0000AD0A06DB1010143A165E06D0221014333
:1046F000E165200000F0B3F92068066076023540DD
:1047000006D0374004D0200000F0AAF920680660E7
:10471000F1BD0000E8FFFF7FFFFEFFFFF1B585B0B0
:1047200000206A465070019005985422805C012850
:1047300001D1022021E10598543002900125057035
:1047400005980668B068400700D509E10191059811
:10475000006903900198406804908949894A8A4811
:1047600080231B06049C022C039C00D1CEE09C42BB
:1047700001D0844207D101980068B46A4003400B1D
:104780002043B06280E0019800680F24470302D103
:104790004000C50E47E0284244D1870743D4042592
:1047A000284201D002253EE0070701D503253AE063
:1047B000C70638D4850601D5052534E0450601D560
:1047C000062530E0050601D507252CE0C50501D5F5
:1047D000082528E0850501D5092524E0450501D5F2
:1047E0000A2520E0050501D50B251CE0C50401D5EF
:1047F0000C2518E0850401D50D2514E0450401D5EC
:104800000E2510E0050401D50F250CE0C50301D5E8
:10481000102508E0850301D5112504E0400301D5EA
:10482000122500E000250498C006C00E6F463870BF
:104830000298C768BC46684607780F20B8406746AC
:1048400087436846007885403D430298C5600198DB
:104850004068059DED6987087F1CBD4214D3019D0A
:104860002D68C006C00E6F463870B76ABC466846F1
:1048700007780F20B84067468743A80E0440684673
:10488000007884403C43B46201988068019C2568AC
:10489000059C24682D026669AE4328403B4D0540C7
:1048A0003543656101980468234061D01368C843AB
:1048B0001840374B9C4217D180231B04184257D114
:1048C00014682140084303431360324800683249AA
:1048D000FCF726FE0C214843401C0190019800285B
:1048E00046D00198401EF8E72C4B9C4202D1802311
:1048F0005B0404E02A4B9C423AD18023DB0318423C
:1049000036D1146821400843034327E09C4201D07C
:10491000844206D101980068B46A4003400B844386
:10492000B46201980468234022D01368C843184039
:10493000174B9C4203D1136819401A4B0CE0174BDC
:104940009C4203D113681940174B05E0144B9C425D
:104950000ED113681940154B03400B43136007E059
:1049600002984068202101430298416068464570E2
:104970000020029908706846407806B0F0BD00003B
:10498000FFFF3FFE082701400400008000FFFF07F3
:10499000001000B05C010020400D0300004000B892
:1049A000002000B4FFFF7FFFFFFFFFFEFFFFBFFF00
:1049B000F8B5050000200090286881680124214096
:1049C0003BD1102781681F4A0A402ED181681C4ABA
:1049D0000A40224382601C48006800020CD51B4834
:1049E00000681B49FCF79CFD401C01E00098401E3C
:1049F000009000980028F9D1687E01281DD0FFF7AB
:104A00004FF9060028680068204016D128688068A1
:104A1000204005D128688168094A0A402243826003
:104A2000FFF73EF9801B0328ECD3A86D0743AF6561
:104A3000E86D0443EC650120F2BD0020F2BD0000EA
:104A4000E8FFFF7F17000080082701405C0100207D
:104A5000400D0300704770477047704770477047BC
:104A60007047FEE7F0B59BB0FEF7B8FB00F0A0FA88
:104A700014216846FEF70AFD04269F480168314369
:104A800001600168314005910599016801220A43DE
:104A900002600168CA07D20F0592059902210268D7
:104AA0000A4302600068014005910598A027FF05B0
:104AB000002220213800FEF769FCD44D002280211D
:104AC0002800FEF763FCF002009000240194029499
:104AD00069462800FEF7ACFB2020009001200190E1
:104AE0000294039469463800FEF7A2FBC0208000C0
:104AF00000900194029469463800FEF799FB8020EB
:104B00000090012001900294039469462800FEF76A
:104B10008FFB68460021002200230EC0BC4DBD481B
:104B2000286030076860AC60EC602C616E612C839B
:104B3000AC760120E86120216C546C62AC622C21BF
:104B40006C542C636C63AC633C216C54EC642800A3
:104B5000FFF7C3FB002801D000F0CEFAAE4800906A
:104B60000194029469462800FFF7D8FD002801D07F
:104B700000F0C2FA17A800210022002300264EC030
:104B800068460EC01C2110A8FEF780FC342103A843
:104B9000FEF77CFCD048D149086008464460846038
:104BA000CF4EC660046144618461FDF7FDFC0028BE
:104BB00001D000F0A1FA80204001179017A9C74842
:104BC000FDF732FF002801D000F096FAC348FDF748
:104BD0001CFD002801D000F08FFA0094019402948B
:104BE0006946BE4800F0A0FA002801D000F084FA1F
:104BF00060201090119412941394149415941694A8
:104C0000042210A9B548FDF787FE002801D000F066
:104C100073FA039404940594069407948020800109
:104C2000089009940A940B9400030C900D940E9430
:104C30000F9403A9A94800F0A8FA002801D000F0B9
:104C40005BFAA648FEF7C1F90AA80021002200235A
:104C500000278EC068460EC01C21FEF717FCD04806
:104C6000D0490860084644608460C660046184617D
:104C7000FDF79AFC002801D000F03EFA80204001A8
:104C80000A900AA9C748FDF7CFFE002801D000F01E
:104C900033FAC448FDF7B9FC002801D000F02CFA23
:104CA000009402946946BF4800F03EFA002801D003
:104CB00000F022FA602003900494059407940022E7
:104CC00003A9B848FDF728FE002801D000F014FA27
:104CD000B448FEF77AF90AA80021002200238EC00A
:104CE00068460EC01C21FEF7D1FB34210EA8FEF74A
:104CF000CDFBAD4FAD4801E03410024038607C6020
:104D0000BC60FE603C617C61BC613800FDF74CFC1E
:104D1000002801D000F0F0F9802040010A900AA993
:104D20003800FDF781FE002801D000F0E5F93800D9
:104D3000FDF76BFC002801D000F0DEF9009402942E
:104D40006946380000F0F0F9002801D000F0D4F9ED
:104D500060200390049405940694079408940994A1
:104D6000002203A93800FDF7D7FD002801D000F08C
:104D7000C3F90E940F941094119412948020800122
:104D8000139014941A940EA9380000F0FEF900282C
:104D900001D000F0B1F93800FEF717F92E006436A3
:104DA000B748B06096208001F06034617461B461EE
:104DB0000C20F06134627462B462F46234632800DF
:104DC0006C30FEF76BFB002801D000F095F9002154
:104DD00028006C3000F05DFA002801D000F08CF95A
:104DE000002128006C3000F06DFA002801D000F09E
:104DF00083F928006C3000F02FFA002801D000F071
:104E00007BF9B048FC216850AF4807E0000800502B
:104E10000800002000240140100000102900FC318F
:104E200048602800FC30846001202900FC31C86003
:104E30002800FC3004612800FC3044612800FC306C
:104E400084612800FC30C4612800FC300462280022
:104E5000FC3000F095FA002801D000F04DF9002157
:104E60002800FC3000F060FC002801D000F044F97C
:104E700000212800FC3000F074FC002801D000F074
:104E80003BF9FA239B000A229CA128006C30FEF714
:104E90003BFB7B48016820220A430260002300227A
:104EA0000E2100BF98A000F085FC00213800FDF71E
:104EB0002AFC00213B48FDF726FC04210748FDF7AA
:104EC00022FC00F0E1FC00F037FE0021002000F0A1
:104ED000C3FD01227D4905E0002C0140E4050020CE
:104EE000FFFF00008CA000F010FE00F06BFDFA2028
:104EF000C00000F04FFE002000F060FE744F7548C7
:104F00000078002801D073490C707348007800289D
:104F10000DD071490C7000F031FFF07100F05AFFB4
:104F20006E480078012802D1F07900F097FE6C48B5
:104F3000007800282AD06A490C702800FFF700FB8F
:104F4000F07801280AD16420285C4000385A00F02B
:104F50006CF86420285CB1794018307030790128F1
:104F600008D170784000385A00F07BF87078B17939
:104F7000401870707079012808D1B0784000385A14
:104F800000F080F8B078B1794018B07055480078DA
:104F90000028B4D053490C7000F072FEAFE7000057
:104FA00000040040300600207C0600200040014044
:104FB00010B598B034210BA8FEF768FA68460021B6
:104FC0000022002300241EC01C21FEF75FFA80206F
:104FD000800000F03FFF02200B90FE300E900F94F7
:104FE0004020109012940BA8FEF766FE002801D016
:104FF00000F082F8072000900194029403940021AD
:105000006846FFF741F8002801D072B6FEE736483F
:10501000049005940794099404A800F041FF002827
:1050200001D072B6FEE718B010BD18B587B0040005
:105030001C216846FEF72AFA6020009001940020A7
:1050400002900390049005900690284C04212000C3
:10505000FDF754FB042269462000FDF75DFC0421A6
:105060002BE018B587B004001C216846FEF70EFA45
:105070006020009001940020029004901C4C12E0EB
:105080000038014018B587B004001C216846FEF7BF
:10509000FDF960200090019400200290039004909C
:1050A00005900690134C00212000FDF727FB0022FD
:1050B00069462000FDF730FC00212000FDF7B4FA1E
:1050C00008B010BD005400405B3D300000000020DF
:1050D00078600008CC010020CD010020DC01002018
:1050E000CE010020CF01002021400000E405002077
:1050F000300600207C06002072B6FEE74D6F726E0F
:10510000696E27210D0A00000D0A426F6E67696FF4
:10511000726E6F210D0A0000476F6F64204D6F7231
:10512000696E672100000000F0B53C22825C012A14
:1051300001D10220F0BD01223C23C25402233D24B0
:10514000035505686E68AB68354CA54203D1354FF1
:1051500037404E683E437027BE430F6837436F6049
:105160000568A54205D0304CA54202D02F4CA5427F
:1051700004D18024A34389681943A9603D21425486
:1051800000213C2281540020F0BD10B53C22825CFD
:10519000012A01D1022010BD01223C23C254CA6859
:1051A000234B13408A681A43224B13404A681A4320
:1051B000214B13400A681A43204B13400A691A43D3
:1051C000164B13404A691A431D4B13400A6B1A438E
:1051D0001C4C14408A69130423430268104CA242F9
:1051E00014D1194C1C40CB6923430E4C1C408B6AD4
:1051F0001B052343154C1C400B6A2343144C1C40D5
:105200004B6A2343134C1C40CB6A2343536400E096
:10521000000000213C228154002010BDFFDFFFFF71
:10522000002C0140FFFF0FFF000400400040014040
:10523000FFFCFFFFFFFBFFFFFFF7FFFFFFEFFFFF9D
:10524000FFBFFFFFFFFFF0FFFFFFFFEFFFFFFFFECE
:10525000FFFFFFFDFFFFFFDF30B5010080310A785F
:10526000012A01D1022030BD01220A7024224A60A5
:105270000268136814680125AC431460002242667A
:10528000224C1C4000680460202048600A70002006
:1052900030BD70B50400250080352878012801D183
:1052A000022070BD012028702420686020680668F4
:1052B000026801239A43026020688268D200D20803
:1052C000114317E070B504002500803528780128C7
:1052D00001D1022070BD0120287024206860206860
:1052E0000668026801239A43026020688268084BBE
:1052F000134019438160200000F00CF8206806601C
:10530000202068600020287070BD0000FFFFFFDFD4
:10531000FFFFFFF1F0B585B0040003A814A10CC98C
:105320000CC001A814A10CC90CC0606E002802D1E9
:105330000120012515E0206881680901490F0091CD
:105340008068410F01AE03AF785CC000715CFCF770
:10535000D3F805000098385CC0000099715CFCF738
:10536000CBF8210068314D80088005B0F0BD000009
:105370000101010307010000080402040801010102
:1053800070B5040001D1012070BD25004035002614
:105390006878002803D12E702000FDF7C8FD242076
:1053A00068702068016801229143016060686C495F
:1053B00001402068016121686A488A6802408A6069
:1053C000E1680129A16801D1C24301E084221202EF
:1053D0000A4321688A60E168022903D1802109011A
:1053E0002268516021684A685F4B13434B60216813
:1053F000CA681040C860206961690143A069000261
:1054000008432168C860E069216A0143206801609F
:105410002068016801220A4302606E6020206870E3
:105420002663AE70002070BDFEB504000F001600AC
:105430001D0040304078202800D08FE04020205CC4
:10544000012800D18AE0012040216054FEF728FCA9
:105450000190009019230122D103200000F09AF856
:10546000002879D1212021004031487010202100EE
:1054700040318870002021004031486066626585B7
:1054800060633A48089E618DFF290BD9FF21218571
:10549000009080235B04FF223900200000F02EF9E9
:1054A000019D11E0628D2285009080239B04D2B281
:1054B000F2E7FF2020850020009080235B04FF227C
:1054C0003900200000F01AF9608D00282DD02A0044
:1054D0003100200000F08AF800283DD1606A007891
:1054E00021688862606A401C60622148618D0918E9
:1054F0006185218D08182085618D0029E4D0000484
:10550000E2D10095330000228021200000F042F813
:10551000002821D1608DFF28CBD8628D2285002004
:10552000009080239B04D2B2CAE731002A002000F9
:1055300000F085F801000DD120202268D06122689A
:1055400053680C4D1D4055602200403250700020C1
:1055500090701070080002D00120FEBD0220FEBD38
:10556000FFFFFFF0FF7FFFFF0080000200200080B0
:10557000FFFF000000E800FE00688169890701D58F
:1055800000218162012182690A4002D182691143AE
:1055900081617047F8B5002405000F00684602706D
:1055A0001E00286880693840B84201D1012000E01F
:1055B000002069460978884216D10020C0438642FF
:1055C000EFD0FEF76DFB0699401A864201D3002EFC
:1055D000E7D128004030202142680A4342604170F0
:1055E000847004700120F2BD0020F2BD70B504008B
:1055F0000D0016002068806980071ED43200290043
:10560000200000F042F8002801D0012070BD0020E9
:10561000C0438542EED0FEF743FB801B854201D399
:10562000002DE7D120004030202142680A4342602B
:105630004170002181700170E7E7002070BDF8B56E
:10564000202504000E0017002068806928401AD128
:105650003A003100200000F018F8002807D1FEF7CA
:105660001FFBC01B864204D3002EEDD101E00120B8
:10567000F2BD20004030416829434160457000215F
:1056800081700170F3E70020F2BDF8B510240368C3
:105690009B69234030D005000F0000922026286827
:1056A0008169314011D10020C0438742F7D0FEF715
:1056B000F7FA0099401A874201D3002FEFD1280052
:1056C000403041683143416010E0C4612868C661E0
:1056D0002800FFF751FF28684168114A0A404260DC
:1056E00028004030416804220A434260467000218D
:1056F000817001700120F2BD0020F2BDF0B5059C63
:1057000000684568660D074F3743BD438905890D1D
:10571000294312040A4313431C434460F0BD0000B4
:1057200000E800FEFF63FF0370B5020040325378CB
:10573000202B14D14023C35C012B10D00123137004
:1057400024245470046825689D43256004682568F6
:10575000164E2E4026600468256829431CE002206E
:1057600070BD70B5020040325378202B12D1402317
:10577000C35C012B0ED001231370242454700468E1
:1057800025689D43256004682568094E2E4009025E
:10579000314301E0022070BD2160006801680B43C5
:1057A0000360202050700020107070BDFFEFFFFFDD
:1057B000FFF0FFFFFAB583B0050014000020694632
:1057C000087068468689007C002800D1B61C00F06D
:1057D00048F8012229490B784F78BB4201D1019248
:1057E00001E000230193B6B2864234D20022029532
:1057F000234F0EE0029B9B5C002B01D1012C07D1B3
:105800004D787B556D1CEBB2322B00DB00254D70C3
:10581000521C6B469B899A42ECDB6A46127C002A3A
:1058200010D14A780D24BC54521CD4B2322C00DB67
:1058300000220A24D5B27C55521CD3B2322B00DB95
:1058400000224A700198002807D00E480168802283
:105850000A43026001E0684602706846007805B0BD
:10586000F0BD0648417800780300814201D2581A01
:1058700002E03220401AC01880B270473C07002076
:10588000FC0600200038014080B5AE2200217820BF
:1058900000F070F920220021782000F06BF910222E
:1058A0000021782000F066F9B0220021782000F075
:1058B00061F9C8220021782000F05CF90022002163
:1058C000782000F057F910220021782000F052F9DA
:1058D00040220021782000F04DF98122002178201B
:1058E00000F048F9FF220021782000F043F9A122BE
:1058F0000021782000F03EF9A6220021782000F057
:1059000039F9A8220021782000F034F93F22002143
:10591000782000F02FF9A4220021782000F02AF945
:10592000D3220021782000F025F9002200217820E0
:1059300000F020F9D5220021782000F01BF9F02298
:105940000021782000F016F9D9220021782000F0FB
:1059500011F922220021782000F00CF9DA2200212E
:10596000782000F007F912220021782000F002F9D7
:10597000DB220021782000F0FDF820220021782091
:1059800000F0F8F88D220021782000F0F3F81422BE
:105990000021782000F0EEF8AF220021782000F0FE
:1059A000E9F82E220021782000F0E4F8002000F031
:1059B00028F800F007F85E480021016001214171DC
:1059C000012002BD38B500245A4D2200B032D2B2B7
:1059D0000021782000F0CEF800220021782000F08D
:1059E000C9F810220021782000F0C4F88023E001DB
:1059F0002A184021782000F0A6F8641C082CE4DB6B
:105A000031BD80B5002801D1002200E0FF228021B5
:105A1000C9004848FDF73CFD01BD802800DB704708
:105A200010B5402911DA434CCB08DB01C01820180F
:105A300001234907490F8B403D490979002905D0C9
:105A4000002A05D001789943017010BD012AF9D1CF
:105A500001780B43037010BD354A108051807047A8
:105A6000FEB50F00324909886B465980694649885E
:105A70003B78C918802909DA2D4949886B46D980B5
:105A80006946C9887B78C918402901DB0020FEBD22
:105A90000021029169460870150002E00298401C3E
:105AA000029079780298884226D278686A461278FD
:105AB000203A4A43029951184900465A0024684640
:105AC000C088029940186946888003E06A1E9241A6
:105AD000D20F0AE038788442E0D268464088001944
