:020000040800F2
:10000000000D0020998000084D7D00084F7D0008FC
:1000100000000000000000000000000000000000E0
:10002000000000000000000000000000517D0008FA
:100030000000000000000000537D0008557D00080E
:10004000B318000800000000B7180008BB1800082B
:10005000D7630008AF640008D7640008F76A000897
:10006000000000009D7D0008136B0008836E0008EF
:10007000A77D00081F7F00086F80000800000000B7
:100080007B800008B9800008BB800008BD800008A4
:10009000BF800008C1800008C3800008C580000838
:1000A000C7800008C9800008CB800008B17D000827
:1000B000CD800008CF800008FDB5B2B03A98049119
:1000C00002A93B22885400200D9024A8401C2F90A8
:1000D0000DE00498329A90470490002801D100F076
:1000E00001FF0D98401C0D903398401C33903398BD
:1000F0000178002910D02529EBD100200790089025
:1001000009900A900B900C90002102240120149079
:1001100008201290339D05E00D9800F0E5FE0800E0
:10012000149901436D1C28782028F8D023280BD07F
:100130002B2804D02D2804D0302808D00AE02143F1
:10014000F0E708000421ECE708000821E9E70800CF
:100150001021E6E72A280FD1349802681068121D92
:10016000349B1A600F90002804D542420F92080079
:10017000042101436D1C12E000200F90654A09E044
:100180000F9B934205DA9E00F3185B001818303875
:100190000F906D1C28780300303B0A2BF0D3287891
:1001A0002E2803D00020C0430E9027E06D1C287835
:1001B0002A2808D1349800680268001D349B186012
:1001C0000E926D1C1AE02D2802D12D226D1C00E02C
:1001D000002200200E900CE0002A09D10E9B4D4E0B
:1001E000B34205DA9E00F3185B00181830380E9001
:1001F0006D1C28780300303B0A2BEDD302A8018741
:100200002E78310041487844FF30C01C00F052FF86
:10021000002801D06D1C00E0002602A83A214654B7
:10022000405C682804D1287868280BD1622005E05A
:100230006C2807D128786C2804D1712002A93A22B1
:1002400088546D1C15A80690287869460870681CAB
:100250003390684602781000253833D01C3800D11E
:1002600018E2001F022800D814E2133801D100F070
:1002700065FD093800D10DE2801E01D100F0FBFDC3
:10028000401E01D100F0A8FD401E022800D801E266
:10029000001F01D100F0A0FD401F00D153E1401E1E
:1002A00001D100F04BFD401E00D1F3E0C01E10D084
:1002B000801E01D100F042FDC01E01D100F03EFDC4
:1002C00000F0E4FD252015A908701498079000F0AF
:1002D000E8FD349800680468001D349908600594AE
:1002E000002C00D0C2E002A83B21405C002800D1D5
:1002F000B5E00024E44306487844143000F022FFBF
:10030000201A01D000F0EEFD00F0CBFD6C7B000068
:10031000A07B0000CBCCCC0C01236A4602A92800AC
:1003200000F0ADFE002801D000F0DCFD641EF3D12A
:100330003295079D15AC002D0FD0329E227802A970
:10034000300000F08BFE002802D4641C6D1EF5D135
:100350003296002801D000F0C5FD302069460870B3
:100360000A9C002C0DDD329D01236A4602A928005B
:1003700000F085FE002801D000F0B4FD641EF3D12A
:100380003295059C089D002D0FD0329E227802A93F
:10039000300000F063FE002802D4641C6D1EF5D10D
:1003A0003296002801D000F09DFD302769460F707D
:1003B0000B9C002C0DDD329D01236A4602A928000A
:1003C00000F05DFE002801D000F08CFD641EF3D12A
:1003D0003295059808994418099D002D0FD0329E3A
:1003E000227802A9300000F039FE002802D4641CF3
:1003F0006D1EF5D13296002801D000F073FD6846DD
:1004000007700C9C002C0DDD329D01236A4602A969
:10041000280000F034FE002801D000F063FD641EC7
:10042000F3D1329502A83821405C400700D45EE643
:100430002020694608700198002800DC57E6019CDE
:10044000329D01236A4602A9280000F018FE002808
:1004500001D000F047FD641EF3D1329547E64048D5
:100460007844FF30C01E059000F01BFD0E9D002D4E
:1004700003D5200000F08AFE09E02A0000212000B8
:1004800000F090FE002801D0001B00E0280008903A
:1004900000F007FD349800680268001D3499086078
:1004A0000020C0430021104002AA03C215A80590F5
:1004B000069A3C2302A803C8002904D1002802D1CF
:1004C0000E9C002C15D05B1E05072D0F3035EEB2AB
:1004D0003A2E08DAD55400090C072043090904D143
:1004E000002802D105E02735F4E7059CD518AC4279
:1004F000E9D33C20C01A0890D11805910E99884282
:1005000008DA081A0A9002A8018FAA4A0A4002874C
:1005100000F0C7FC002901D400F0C3FC02A9382276
:10052000895C14220A40102A01D000F0BAFC0F990D
:10053000079A891A0A9A891A081A002801DC00F019
:10054000B0FC00F0F9FB02A83B21415C002909D076
:100550000024E4434B487844FF302B30CEE600BF04
:100560006C7900003A21405C62286AD0682819D072
:100570006A2845D06C2806D071284FD0742831D015
:100580007A2821D06FE0349800680168001D349A01
:10059000106000297AD10024E4433B487844FF30BE
:1005A0001738ABE6349800680168001D349A106073
:1005B000002905D10024E44333487844CA309DE63D
:1005C0000D98088000F06DFC349800680168001DEB
:1005D000349A1060002959D10024E4432A48784411
:1005E000A6308BE6349800680168001D349A1060CC
:1005F00000294BD10024E443234878448A307DE627
:10060000349800680268001D34990860002A13D1EC
:100610000024E4431C4878446E306FE63498006848
:100620000268001D34990860002A05D10024E443C3
:1006300015487844523061E60D98C11703C200F0A6
:1006400030FC349800680168001D349A106000295D
:1006500005D10024E4430C4878442C304EE60D9834
:10066000087000F01EFC349800680168001D349A80
:10067000106000290AD10024E4430348784408307C
:100680003CE600BFFC770000107800000D98086081
:1006900000F007FC34980368DB1D0720834334987F
:1006A000036003CB349D2B6002AB03C32023C80F30
:1006B00004D007982D2115AB19540DE002A8008F26
:1006C000204204D007982B2115AB195404E0C00731
:1006D00004D5079815A90B54401C079015A8079935
:1006E0004318059324AD02A8C0C8684600782021AD
:1006F000014368468170612909D00E98002801D510
:10070000062003E003D1672901D114980E9002A8B6
:1007100003C808004C006415641C0ED109030CD0FA
:1007200003200890613A1A2A03D223497944883178
:100730000FE02249794484310BE0002C0ED10003F4
:100740000CD103200890613A1A2A1DD31C49794420
:100750006E310322180000F04BFDA2E301AA02A8AB
:1007600003C800F052FD02AA03C2684680786128DF
:1007700013D1059830210170811C059169460978D3
:10078000612905D1782104E00E4979443631E0E74A
:10079000582141700798801C079002A803C893A2B3
:1007A0000CCA02400B400FD1002A0DD100240026B4
:1007B00061E100BFEFFF000018770000187700002C
:1007C0001C7700001477000068468078612800D00C
:1007D00099E00E98002801D5212000E0401C1390DC
:1007E0001398401C2E90300039000022002300F0A6
:1007F00021FD02A830C802D28020000645400198A1
:10080000001F019024A90A7024A8461C2E980028D5
:1008100032DD2E9F20002900002280235B0300F0A0
:1008200022FD29D81C2200F037FD04000D0000F045
:100830006BFD2E90FF1F002F09DD00F09FFD0200D1
:100840000B002000290000F006FE04000D00F01D42
:1008500007212E9A002A0ADD491E08D4401E1307DC
:100860001B0F03701211F5E7401E00220270491E93
:10087000FAD5C61D002FCDDC24A82F99711A24AA01
:10088000551C139A0C00914200DD1400002C33D447
:100890008C4205DA411C095D082901DB0F2100E0CB
:1008A0000021220024AB9B1801E0641E5B1E521E37
:1008B0001E788E42F9D00F2904D1411C895C491C55
:1008C000401C8154002A04D524AD641C0198001DED
:1008D0000190611E10D46A1868460078137830338E
:1008E000DEB23A2E01DBC318C6331370491E521E06
:1008F0000029F3D5694608700E98002800D4B9E0A5
:10090000601E0E90B6E07F007F080198684948435A
:10091000684900F017FE019007200199401A00284D
:1009200005DD02003000390000F072FB0AE04242AF
:100930000020614900F06CFB02000B003000390020
:1009400000F02FFE6A469278662A02D1019A0A3296
:1009500000E006220E9B9A18142A00DD142224AB14
:1009600030241C705C1C02E030A803C8139A002AD3
:1009700040DD30AB03C3139230A803C800F0D6FCAF
:100980002E9006460834042530000A2100F0EEFDC2
:100990000F0030000A2100F0E9FD06003037601E2C
:1009A000077030000A2100F0E1FD0F0030000A213D
:1009B00000F0DCFD0600A41E303727706D1EE3D169
:1009C00008341398083813900028CDDD2E9800F0D5
:1009D000C5FC02000B0030A803C800F03CFD00225B
:1009E000364B00F03FFE30AA03C2C5E7FFFFFFFF12
:1009F000FFFFFF7F2F98201A24A94D1C04E0401E02
:100A00000199491E01916D1C29783029F7D069465A
:100A10008978662902D10199491C06E069468978DE
:100A2000652901D1149900E000210E9A5418A042C2
:100A300000DA441E002C1DD4844204DA285D3428D8
:100A400001DD392100E030212200681E831801E019
:100A5000641E5B1E521E1E788E42F9D0392902D1C7
:100A6000A95C491CA954002A04D50500641C0198FE
:100A7000401C0190019E13956846007869464870B5
:100A800000F0CCFE406A0078694608700E9D20B2E6
:100A9000002804DC149C0548784410301390684604
:100AA000807866280CD1761C24E000BF34740000E6
:100AB00097750000A08601000000F03F84D79741A1
:100AC00068468078672846D130B20321C9438842FE
:100AD00047DBA84245DA761C02A8008F1299C0B203
:100AE000084203D120B2A84200DC050030B22D1A22
:100AF00000D5002537B2002F00DDBAE00898411C70
:100B000008913021059A1154002D05DC02A8008FB0
:100B10001299C0B2084206D00898411C0891694653
:100B20000978059A11547842854200DA6E4236B24D
:100B300070420B90AD1920B2854200DA2C0024B22D
:100B40000994220013990598089BC01800F050FBE7
:100B5000281B0C90DAE068464078612818D1702094
:100B60001BE020B2A84206DA02A9098F129AC9B284
:100B7000114200D105006D1E00D500256846407861
:100B8000672802D16520694607E04520694604E0F0
:100B900068464078412801D1502048700898411C8F
:100BA000089113990978059A11541398411C002D46
:100BB00005DC02A8008F129AC0B2104219D0089822
:100BC000421C08926A461278059B1A54002D10DDCB
:100BD000641E20B2854200DA2C0022B20598089BE0
:100BE000C01800F005FB24B2089800190890281BD3
:100BF0000B9005980899401869464978017031B200
:100C0000002903D42B214170871C03E02D22427060
:100C1000871C4E42002412AD300008E00A2100F08B
:100C200091FC30AA03C229703098641C6D1C00B27C
:100C30000028F3DC012C08DC6846407820210143C1
:100C4000652902D1302038707F1C002C09D130205A
:100C500038707F1C07E0641E12A8005D30303870C9
:100C60007F1C002CF7DC059808994018381A099069
:100C70004CE020B231B288421DDA22B213990598B5
:100C8000089BC01800F0B4FA24B208980019089024
:100C9000391B0B91002D05DC02A9098F129AC9B2EC
:100CA000114206D069460978059A11540998401CEA
:100CB00009900C952AE032B213990598089BC01848
:100CC00000F096FA0898C0190890A41B002D05DCC6
:100CD00002A9098F129AC9B2114205D0411C08918C
:100CE00069460978059A115420B2854200DA2C0031
:100CF00022B21398C1190598089BC01800F078FA21
:100D000024B2089800190890281B0B9002A83821DB
:100D1000405C14210140102900D0C2E007980899D6
:100D200040180B994018099940180C9940180F99D0
:100D3000884200DBB5E0081A0A90B2E002AA3A2025
:100D4000105C622808D068280ED06A2814D06C285D
:100D50001DD0712810D01AE0349801680868091D68
:100D6000349B1960C0B218E0349801680868091D06
:100D7000349B196080B210E034980368DB1D0720B3
:100D800083433498036003CB349C236006E034989B
:100D900001680868091D349B1960002102AB03C378
:100DA000108F1299C0B208425BD002A803C8002974
:100DB00001D1002855D068460078202101437829C8
:100DC0004FD1079815A930220A54401C421C0792A3
:100DD0006A4612780A5444E002AA3A20105C62285B
:100DE00008D068280ED06A2814D06C281DD071282D
:100DF00010D01AE0349801680868091D349B196006
:100E000040B218E0349801680868091D349B1960E5
:100E100000B210E034980368DB1D07208343349848
:100E2000036003CB349D2B6006E0349801680868AA
:100E3000091D349B1960C11702AB03C3002902DAF4
:100E400007982D2109E0108F204202D007982B210E
:100E500003E0C00705D50798202115AA1154401CAE
:100E6000079015A80799401805906846017802A8D0
:100E700000F03CF815E01498079034980068016879
:100E8000001D349A106015A801700AE0252015A9EC
:100E900008701498079068460078002801D04A70BE
:100EA00007940F980799401A0A99401A0899401A0E
:100EB0000B99401A0999401A0C99401A019002A8FE
:100EC0003821405C400701D5FFF733FA20206946FE
:100ED00008700198002801DCFFF72BFA019C329D75
:100EE000FFF71AFA0020C04335B0F0BDF2B586B066
:100EF000040025696F2901D1082707E00846202151
:100F00000143782901D00A2700E010273C2603CCB2
:100F1000083C04AA03C26A46127E642A03D06A46C9
:100F2000127E692A09D1002907DA04A803C8002221
:100F30000023121A8B4104A80CC004A803C800297E
:100F40000DD100280BD1206B002808D1082F3DD1EE
:100F50003820205C000739D53B26302035E002944C
:100F6000009504A830C8761E0196200029003A009A
:100F7000FB1700F05BFC3032D0B23A280DDA009853
:100F80008255200029003A00FB1700F04FFC0400B6
:100F90000D0007D1002C05D10AE06846007E8218BA
:100FA000AF32ECE70298C068009989198842DAD319
:100FB000029C009D082F09D13820205C000705D530
:100FC000A85D302802D0761E3020A8553C20801B1A
:100FD000A061A919E160216B884206DA081A206233
:100FE000208F1C490140218710E000290ED53821AF
:100FF000615C14220A40102A08D1616B6269891A67
:10100000226A891A081A002800DD206207B0F0BDA4
:10101000F8B50026104F04000D00009214E0C00740
:1010200007D532003B002000290000F01BFB040024
:101030000D000098401000903000390032003B0055
:1010400000F010FB06000F0000980028E7D12000F8
:101050002900F4BDEFFF00000000244010B503009C
:101060000C001100A0689847A060002804D0E06A36
:10107000401CE062002010BD0020C04310BDF8B548
:101080000024002B11D007000E0014001D00217851
:10109000B068B847B060002809D0F06A401CF06220
:1010A0000020641C6D1EF2D104002000F2BD00205F
:1010B000C043F9E7C9B202788A4203D0401C002A33
:1010C000F9D100207047F1B401684218416848081E
:1010D000131800988068C9071ED5494640181BE0C0
:1010E0001778521C0770401C761EF9D1002C13D0C3
:1010F0001678521C89080D40032D01D11578521C19
:10110000290271184D424119A41C05D00D78491CC3
:101110000570401C641EF9D19A420FD01178521C00
:10112000032503260E4002D11678F61C521C0C092A
:101130000F2CD9D114780F34521CD5E700980C30FD
:10114000F2BC704780B5002801D100BF07A0064956
:101150000B68002B03D022220021984701E000F009
:10116000A3FB222002BD0000F0080020636F6E7315
:10117000747261696E742068616E646C65723A2085
:10118000626164206D65737361676500431C01785B
:10119000401C0942FBD1C01A70470268531C03600F
:1011A00011707047C9B2521E05D30378401C8B42A0
:1011B000F9D1401E7047002070472E0070B4103ADD
:1011C00003D378C9103A78C0FBD2530701D318C9AA
:1011D00018C001D508C908C0D20704D30B88038002
:1011E000891C801C002A01D50B78037070BC7047E5
:1011F0008B0701D18307E1D0124205D00B78491C3F
:101200000370401C521EF9D1704710B5144600F00F
:1012100002F8226010BD4A0053155B1C08D0520D25
:1012200006D003231B02FE3AD21A1305C91A7047CF
:101230000022704730B4012464054D00EC420BD805
:101240005D00EC4208D80C001C43640004431443C6
:1012500004D2994200D1904230BC7047FCD08B42FE
:10126000FAD18242F8E730B4012464054D00EC4223
:101270000BD85D00EC4208D80C001C43640004430A
:10128000144304D28B4200D1824230BC7047FCD060
:101290009942FAD19042F8E7124217D40023DB4377
:1012A0005B0D9C464B005B0D06D0634504D09B183C
:1012B000634502D21205891870476246090D114331
:1012C0000905002000B500BF00BF00BD52424B0021
:1012D0005B0DF1D05B1C5B05EED25B0D934102D937
:1012E0001205891A70470BD10B031B13C90FC907CD
:1012F000821C002043411343E4D912051143E1E766
:10130000C90FC9070020DDE7F4464A1805D200F0EE
:101310000FF801D580174008604700F009F8012157
:10132000C907884200D90800404260474A1812D2D3
:10133000400DC90208430121C9070843520D40214D
:101340000901521A521C06D452421F3201D4D04015
:101350007047C017704700207047430001004222C9
:101360001201D21E004207D002D4521E0018FCD532
:10137000C10A400512058918704700000100EED52A
:101380004042F446FFF7EBFF0122D20711436047CA
:10139000F0B40125ED070F005F404FD48B4200D120
:1013A000824205D98446100062468C461900634685
:1013B000DF184C18640D7F0D3AD0661C760537D0C7
:1013C000E61B352E34DCDB022B43DB0A0C0DC90295
:1013D0002943C912202E0DDB1700203E06D01F0026
:1013E000F741F3405F400026012A7741C018714160
:1013F0000DD217E01700F741F2405740F3415A4031
:10140000B340F3405A400026801859410AD3A21C29
:1014100052050FD0C207012F724117004008CB07B9
:1014200018434908641C24054208AF4170416141DA
:10143000F0BC7047641C21050020F9E76B4010E008
:101440006B40ABE7F742F3D1E943F1E72442EFD138
:1014500000200021ECE7F0B40125ED070F005F400C
:10146000EED40C00871A9C4105D2C01BA141D219B1
:10147000634169406B40AE0ADF184C18F442E1D278
:10148000640D7F0DE2D0E61B362ED1DCDB022B4350
:10149000DB0AA4460C0DC9022943C90A012E28DC27
:1014A00004D1D6075208DF073A435B08EF0A7642B9
:1014B0009041994114D039423BD1B619404149413C
:1014C000761C394204D1761C001849413942FAD0C1
:1014D000B9436746B74208D9A41B24052143A7E7AF
:1014E0000042EAD13642E8D1A2E7E40AE10700204F
:1014F0009EE7202E0BDD203E1F00F340F7415F40AA
:10150000012A002257417E42984191410BE0170089
:10151000F741F2405740F3415A40B340F3405A403C
:101520007E42904199410A0303D2641EB61940419C
:1015300049410027641E24054208AE4178416141BB
:10154000F0BC7047CA0F00D0494203105A400DD07A
:1015500004B500D3404200F009F8009AD20701D345
:101560004942124200D5404204BD0000094214D055
:1015700088420FD30122030C01D10004120400237E
:1015800000185B418B4200D35B1A5241F8D319001B
:101590001000704701000020704708B500F08AF97C
:1015A00008BDF0B40E005E400125ED072E40B446A4
:1015B000AE0ADF184C18F4423BD2F74241D2640D18
:1015C00043D07F0D38D0E41BC902DB0229432B43F3
:1015D000CF0ADB0A0600B61A9F4104D2641EB61970
:1015E0007F41B6185F416812800D241800188442AC
:1015F00022DCE80C0021B6197F41B61A9F4102D2C5
:10160000B6185F413F1C40414941F4D3241C21DD01
:101610002405B6197F41B61A9F4105D33743C60743
:1016200037430026012F7041614166463143F0BCCB
:101630007047FCD1F74205D20020C1434905490853
:10164000F3E704D00020C143F1E77F0DFAD000207A
:101650006146ECE72442FAD1401C61410F03F6D306
:101660000020E2E7F0B50E005E400125ED072E40B8
:10167000B446AE0ADF184C18F44208D2F7420ED234
:10168000640D01D07F0D12D100206146F0BD05D15F
:10169000F74201D87F0D05D10020C143F0BDFBD139
:1016A000640DF9D00020C143490549088FE0E419D1
:1016B000C902DB0229432B43DB0A460DC00231433A
:1016C0008E4630B487B295B27D432E0CADB2140C69
:1016D0007C43A419260C240425439CB27C43A41902
:1016E000190C7943270CC919A4B20F043C43090C07
:1016F000000C97B247432E0CBE193543ADB2170C00
:101700004743360CBF19A6B2BF193E043543240C1B
:101710003E0C36199FB24743BF19BCB23E0C891923
:101720001F0C47437F183E043443390C704680B287
:1017300097B247432E0CBE193543ADB2170C474341
:10174000360CBF19A6B2BF193E043543240C3E0C1B
:1017500036199FB24743BF19BCB23E0C89191F0C02
:1017600047437F183E043443390C77463F0C90B210
:1017700078432E0C80190604ADB22E43050CA0B29E
:101780002D18120C7A435019020C80B2240CA418A4
:101790009AB27A43121914042043120C89181B0CB4
:1017A0007B43C91830BCEF0A394203D1B619404116
:1017B0004941641E6F12BF0DE41B0BDBFF19BC42D5
:1017C00011DA240500274208AE417841614166469E
:1017D0003143F0BD641C05D1401C6141CF0201D3EF
:1017E0004908F4E750E75DE7613807E005E00100EC
:1017F00061391A2901D20120704741381A288041E5
:10180000C00F704701000939052901D3202801D1F3
:101810000120704700207047024870470248704717
:1018200000000000800300204803002012422DD059
:10183000994231D970B500251B4209D00C00002116
:1018400012E01100FFF792FE0A000021002370BD94
:101850000942F6D00024012649186441944200D37D
:10186000A41A7641F8D33100012601E0764109D26D
:10187000001864416D41A41A9D41F7D2A4185D413E
:10188000B619F5D3300022002B0070BD1B42CFD11A
:1018900008B500F011F808BD01D19042CAD202008B
:1018A0000B0000210020704780B5012000F006F8F1
:1018B00001BDFEE77047FEE77047FEE780B500BF59
:1018C00000BF024A11001820ABBEFBE72600020051
:1018D0000000000000000000000000000000000008
:1018E00000000000000000000000000000000000F8
:1018F000000000000000000C000C000C000C000CAC
:10190000000C000C000C000C000C000C0000000C83
:10191000000C0000000000000000001B001B001B6A
:10192000001B001B00000000000000000000000081
:10193000000000000000000000000000000080190E
:10194000801980198019C07FC07F80190033C07F43
:10195000C07F00330033003300330000000000007C
:101960000000001E003F807580650074003C001E72
:1019700000078005806580658075003F001E0004BB
:10198000000400000000007000D840D8C0D880D902
:1019900000730006000C801BC036C066C046C0063F
:1019A00080030000000000000000001E003F003324
:1019B00000330033001E000CC03CC06680638061B1
:1019C0008063C03E801C0000000000000000000C8E
:1019D000000C000C000C000C0000000000000000D7
:1019E00000000000000000000000000000000000F7
:1019F000800000010003000600060004000C000C3B
:101A0000000C000C000C000C000400060006000393
:101A100000018000002000100018000C000C0004E1
:101A20000006000600060006000600060004000C82
:101A3000000C0018001000200000000C002D003FDA
:101A4000001E003300000000000000000000000045
:101A50000000000000000000000000000000000086
:101A60000000000C000C000C000CC0FFC0FF000CBC
:101A7000000C000C000C0000000000000000000042
:101A80000000000000000000000000000000000056
:101A900000000000000000000000000C000C00042A
:101AA000000400080000000000000000000000002A
:101AB000000000000000001E001E000000000000EA
:101AC0000000000000000000000000000000000016
:101AD0000000000000000000000000000000000006
:101AE0000000000C000C00000000000000000003DB
:101AF000000300030006000600060006000C000CB0
:101B0000000C000C00180018001800000000000075
:101B10000000001E003F0033806180618061806DA5
:101B2000806D8061806180610033003F001E000095
:101B30000000000000000006000E001E0036002617
:101B40000006000600060006000600060006000665
:101B500000060000000000000000001E003F80732F
:101B600080618061800100030006000C00180030D5
:101B70000060807F807F0000000000000000001CEB
:101B8000003E006300630003000E000E00038001AE
:101B9000800180618073003F001E00000000000093
:101BA00000000006000E000E001E001E001600368B
:101BB00000360066807F807F000600060006000079
:101BC000000000000000007F007F006000600060F7
:101BD000006E007F80638001800180618073003F20
:101BE000001E0000000000000000001E003F8033C7
:101BF00080610060006E007F807380618061806121
:101C00008033003F001E0000000000000000807FC5
:101C1000807F80010003000300060006000C000C1A
:101C2000000C000800180018001800000000000058
:101C30000000001E003F8063806180610021001E63
:101C4000003F8061806180618061003F001E000074
:101C5000000000000000001E003F007380618061F2
:101C600080618073803F801D800180610073003F30
:101C7000001E000000000000000000000000000046
:101C80000000000C000C000000000000000000003C
:101C90000000000C000C000000000000000000002C
:101CA0000000000000000000000C000C000000001C
:101CB000000000000000000C000C000400040008FC
:101CC000000000000000000080008003000E0038CB
:101CD00000600038000E800380000000000000005B
:101CE0000000000000000000000000000000807FF5
:101CF000807F00000000807F807F000000000000E7
:101D000000000000000000000000000000000000D3
:101D100000400070001C000780010007001C0070DC
:101D20000040000000000000000000000000001F54
:101D3000803FC071C060C000C00180030007000E7A
:101D4000000C000C0000000C000C00000000000063
:101D50000000001E003F803180718063806F806DC5
:101D6000806D806F806700600032003E001C0000C4
:101D7000000000000000000E000E001B001B001BF6
:101D8000001B80318031803F803F8031C060C06067
:101D9000C0600000000000000000007C007E0063C6
:101DA000006300630063007E007E006380618061E9
:101DB0008063007F007E0000000000000000001E25
:101DC000003F803180610060006000600060006062
:101DD000006080618031003F001E000000000000B4
:101DE0000000007C007F006380638061806180610F
:101DF00080618061806100630063007E007C000080
:101E0000000000000000807F807F006000600060B4
:101E10000060007F007F0060006000600060807FE5
:101E2000807F0000000000000000807F807F006055
:101E3000006000600060007F007F00600060006064
:101E40000060006000600000000000000000001E54
:101E5000003F8031806100600060006080638063CB
:101E6000806180618031803F001E00000000000022
:101E70000000806180618061806180618061807F1D
:101E8000807F80618061806180618061806100000D
:101E9000000000000000003F003F000C000C000CA0
:101EA000000C000C000C000C000C000C000C003F9F
:101EB000003F000000000000000080018001800160
:101EC000800180018001800180018001806180614A
:101ED0008073003F001E0000000000000000C06092
:101EE0008061006300660066006C0078007C00661C
:101EF0000066006380618061C06000000000000037
:101F00000000006000600060006000600060006031
:101F100000600060006000600060807F807F0000E3
:101F2000000000000000C071C071C07BC07AC06AB0
:101F3000C06AC06EC064C060C060C060C060C06085
:101F4000C060000000000000000080718071807996
:101F500080798079806D806D806D80658067806715
:101F60008067806380630000000000000000001EA6
:101F7000003F0033806180618061806180618061A9
:101F8000806180610033003F001E000000000000FF
:101F90000000007E007F80638061806180618063DB
:101FA000007F007E00600060006000600060000054
:101FB000000000000000001E003F003380618061CF
:101FC0008061806180618061806580670033803FCF
:101FD000401E0000000000000000007E007F8063C3
:101FE000806180618063007F007E00660063006323
:101FF00080618061C0600000000000000000000EF1
:10200000001F8031803100300038001E000780033F
:10201000806180618031003F001E000000000000F0
:102020000000C0FFC0FF000C000C000C000C000CF6
:10203000000C000C000C000C000C000C000C00004C
:10204000000000000000806180618061806180612B
:102050008061806180618061806180618073003F08
:10206000001E0000000000000000C060C060C060F2
:10207000803180318031001B001B001B001B000ED3
:10208000000E000E00040000000000000000C0C0B0
:10209000C0C0C0C0C0C0C0C0C0CC804C804C805E3E
:1020A00080528052807380618061000000000000D7
:1020B0000000C0C0806080610033003B001E000C47
:1020C000000C001E001F003B80718061C0C000003A
:1020D000000000000000C0C0806180610033003358
:1020E000001E001E000C000C000C000C000C000C6C
:1020F000000C0000000000000000803F803F8001D5
:10210000000300030006000C000C0018001800304B
:102110000060807F807F000000000000000F000F43
:10212000000C000C000C000C000C000C000C000C4F
:10213000000C000C000C000C000C000C000F000F39
:102140000000001800180018000C000C000C000C17
:10215000000600060006000600030003000300005E
:1021600000000000001E001E00060006000600061B
:10217000000600060006000600060006000600062F
:1021800000060006001E001E0000000C000C001ED1
:102190000012003300338061806100000000000005
:1021A000000000000000000000000000000000002F
:1021B000000000000000000000000000000000001F
:1021C000000000000000000000000000E0FF000030
:1021D000000000380018000C0000000000000000A3
:1021E00000000000000000000000000000000000EF
:1021F0000000000000000000000000000000001FC0
:10220000803F80618001801F803F80618063807F8C
:10221000C0380000000000000000006000600060A6
:102220000060006E007F80738061806180618061EA
:102230008073007F006E00000000000000000000BE
:10224000000000000000001E003F807380610060FD
:10225000006080618073003F001E000000000000ED
:1022600000008001800180018001801D803F80731B
:1022700080618061806180618073803F801D00008B
:102280000000000000000000000000000000001E30
:10229000003F00738061807F807F00608071003F1D
:1022A000001E0000000000000000C007C00F000C6E
:1022B000000C807F807F000C000C000C000C000CD8
:1022C000000C000C000C00000000000000000000EA
:1022D00000000000801D803F80738061806180610C
:1022E00080618073803F801D80018063007F003E9D
:1022F00000000060006000600060006F807F8071FF
:1023000080618061806180618061806180610000A6
:102310000000000000000006000600000000003E73
:10232000003E000600060006000600060006000645
:10233000000600000000000000060006000000008B
:10234000003E003E000600060006000600060006ED
:102350000006000600060046007E003C000000600B
:10236000006000600060806100630066006C007CBB
:102370000076006300638061C06000000000000020
:102380000000003E003E00060006000600060006B3
:102390000006000600060006000600060006000013
:1023A000000000000000000000000000000080DDD0
:1023B000C0FFC0CEC0CCC0CCC0CCC0CCC0CCC0CC88
:1023C000C0CC000000000000000000000000000081
:1023D0000000006F807F807180618061806180611A
:1023E000806180618061000000000000000000004A
:1023F000000000000000001E003F807380618061CB
:10240000806180618073003F001E000000000000BA
:102410000000000000000000006E007F80738061FB
:102420008061806180618073007F006E0060006069
:10243000006000600000000000000000801D803F80
:10244000807380618061806180618073803F801DC6
:102450008001800180018001000000000000000078
:1024600000000067803F003900300030003000304D
:1024700000300030003000000000000000000000CC
:10248000000000000000001E803F80610060007FAF
:10249000803F80018061007F001E0000000000007E
:1024A00000000000000800180018007F007F0018DE
:1024B00000180018001800180018801F800F000076
:1024C000000000000000000000000000000080612B
:1024D0008061806180618061806180618063807FD4
:1024E000803D00000000000000000000000000002F
:1024F0000000C060803180318031001B001B001B58
:10250000000E000E000600000000000000000000A9
:1025100000000000000080DD80DD80DD00550055FA
:102520000055007700770022002200000000000024
:102530000000000000000000000080610033003354
:10254000001E000C000C001E0033003380610000F0
:1025500000000000000000000000000080618061B9
:10256000803100330033001B001B001B000E000EE7
:10257000000E001C007C0070000000000000000045
:102580000000C07FC07F800100030006000C00181F
:102590000030C07FC07F0000000000008003800783
:1025A00000060006000600060006000E001C001CC7
:1025B000000E0006000600060006000680078003E5
:1025C00000060006000600060006000600060006DB
:1025D00000060006000600060006000600060006CB
:1025E000000600060038003C000C000C000C000C3B
:1025F000000C000E00070007000E000C000C000C81
:10260000000C000C003C003800000000000000003E
:102610000000000000008038807F004700000000BC
:10262000000000000000000000000000F0B587B0CE
:1026300000F0D2FC00F038FB1421684600F0ECFCFE
:102640000425D74C20682843206020682840059046
:10265000059820680121014321602068C107C90F46
:1026600005910598022021680143216021680840F6
:1026700005900598E80200900020019002906946BC
:10268000D54800F0D1FC212000900020019002905C
:102690006946D24800F0C8FCA020C000009000208D
:1026A000019002906946A020C00500F0BDFC606862
:1026B0000121014361606068C107C90F0091009862
:1026C00000220021092000F08EFD092000F090FD7D
:1026D00068460021002200230EC0C148C14908609D
:1026E000280748608A60CA600A614D610A838A7659
:1026F0000320C861BC490A70BA494A628A62BB4970
:102700000A70B8490A634A638A63B9490A70B549CD
:10271000CA64084600F0A9FD002801D000F05AFC68
:10272000B44800900024019402946946AD4801F039
:1027300019F8002801D000F04DFCAF480090019539
:102740006946A84801F00EF8002801D000F042FCCC
:1027500001200090082001906946A24801F002F88B
:10276000002801D000F036FC03A80021002200233D
:1027700000252EC068460EC0A04EA148F064346506
:102780007465A048B065F465346674669E4D280093
:1027900001F0DAF9002801D000F01CFC80277F014D
:1027A000039703A9280001F000FA002801D000F0E7
:1027B00011FC0094019402946946280001F0D6FAB5
:1027C000002801D000F006FC03A80021002200230D
:1027D00000252EC068460EC0CB4DCC4828606C60EA
:1027E000AC608848E8602C61AC61280001F0ACF96D
:1027F000002801D000F0EEFB039703A9280001F0A8
:10280000D4F9002801D000F0E5FB00940294694659
:10281000280001F0ABFA002801D000F0DBFB03A890
:102820000021002200230EC0016068460EC0CB4884
:10283000E8642C656C657348A865EC652C666C666D
:10284000C74D280001F080F9002801D000F0C2FB3C
:10285000039703A9280001F0A8F9002801D000F08F
:10286000B9FB009402946946280001F07FFA002821
:1028700001D000F0AFFBBB4DBB4F2F609620800115
:102880006860AC60EC602C610C206861AC61EC614C
:102890002C626C62AC62280001F0A2FA002801D020
:1028A00000F098FB0021280001F025FF002801D04E
:1028B00000F090FB0021280001F036FF002801D035
:1028C00000F088FB280001F0F9FE002801D000F09C
:1028D00081FBA6483060A6487060B4600120F060BB
:1028E00034617461B461F4613462300001F072FFEC
:1028F000002801D000F06EFB0021300002F044FA05
:10290000002801D000F066FB0021300002F059FAE7
:10291000002801D000F05EFB780D00F06FFB032271
:10292000C049304800F020FEFA239B000A22BE492D
:10293000280001F08BFAEFF31080012181F3108859
:10294000396820220A433A6080F31088002300226D
:102950000E21B64802F05EFA0020C0430290082023
:102960000190B348009001230022A021300002F022
:102970002DF802F0C1FA02F017FC0021002002F04D
:10298000A3FBAC4C01222100AB4802F0F6FB142162
:10299000002002F099FB01222100A84802E000BFBC
:1029A0003410024002F0E9FB2821002002F08CFBE9
:1029B00001222100AAA002F0E0FB02F03BFBA048AC
:1029C00002F020FC002002F031FC9E4800909E485E
:1029D00002909E481AE000BF00080050000400501A
:1029E0000024014010000020300000203C000020A6
:1029F0004C000020100000100200000450010020D4
:102A0000002C0140FFFF00009C01002001900025E8
:102A1000844F14E0401C009988708D4800788D49DF
:102A20000978884201D002F08FFE8B480078012897
:102A300005D1894805700098447002F0A9FE8748C6
:102A40000078002801D085490D70B648007800282C
:102A500000D1A0E0B3490D7002F070FF0099087139
:102A600002F0AEFFB0480078012803D10098007949
:102A700002F0CAFCB88800F061F93861AE4C3E88BB
:102A8000300000F0C1F90199C861300000F004FA8B
:102A900006007A20245C462C0ED1300002F0D0FFD4
:102AA000A2A20CCAFEF7DEFD0022A24BFEF770FCCC
:102AB00002F0DFFF010000E0310001988069019A17
:102AC0009662019A116000994979002905D002297E
:102AD0001ED00DD3032927D05BE00C2264A10298FD
:102AE000FEF786FB462C01D1BB4852E0BB4850E0C4
:102AF0000C2200BF61A10298FEF77AFB462C01D19F
:102B0000B74846E0B74844E0E80100200004004030
:102B10000F2200BF5CA10298FEF76AFB462C01D190
:102B2000B14836E0B14834E00E2200BF5AA1029805
:102B3000FEF75EFB00988079002801981AD0406A61
:102B4000462C26D102F07CFF78A20CCAFEF78AFD43
:102B50000022784BFEF71CFC19E000BF004001404A
:102B600034020020C0000020003801400054004022
:102B70005B3D3000006A432C0BD1C221090602F0F4
:102B8000A9FF02F05DFFC0A20CCAFEF76BFD02F0C8
:102B900070FF01998861BE480078002815D0BC49B3
:102BA0000D70654C200000F097FC032239002000D6
:102BB00000F0DAFC0098C079002806D00099CD71A9
:102BC0000098007A401C009908720124B1480078EE
:102BD000002812D0AF490D7002F0A8FC00980078D0
:102BE000401C0099087000984078002806D0009991
:102BF0004D7000998D700099CC700EE70098C078E8
:102C00000028FAD0009880780F2800DA02E70099AF
:102C1000CD70CE480078002802D0002002F006FBDC
:102C2000FBE60000CC080020A87F0008B47F000865
:102C3000D408002008000020C47F0008D07F0008CE
:102C4000B80B0000B7000020D3020020940200203F
:102C5000F9080020FA080020C2080020CA0300205A
:102C6000546865726D6F6D657465722100000000B7
:102C7000426565662020202020202000506F726B66
:102C80002020202020202000436869636B656E208F
:102C90002020202020200000437573746F6D2020B9
:102CA000202020202000000010B598B034210BA86F
:102CB00000F0B2F9684600210022002300241EC063
:102CC0001C2100F0A9F98020800002F093FF02206F
:102CD0000B90FE300E900F944020109012940BA891
:102CE00002F0AEFF002801D000F074F90720009038
:102CF0000194029403940021684603F089F90028A6
:102D000001D072B6FEE7AD4804900594079409948B
:102D100004A803F093FA002801D072B6FEE718B0B9
:102D200010BD0000CB030020DA030020CDCCCCCCBA
:102D3000CCCCFC3F0000404010000020FEB501005C
:102D4000002000909E48484380225201511AFEF70D
:102D5000F9FB03F035FB0025060000BF24A0A90005
:102D6000405803F01DFB0400310003F035FB04D391
:102D700027006D1C062DF0D32BE00197002D28D0E5
:102D80003000394602F0DEFE02F05AFE00228D4B82
:102D9000FEF768FC06000F002000019902F0D2FE49
:102DA00002F04EFE02000B0030003900FEF7F9FB86
:102DB00006000F000A2045430A3D280003F000FBEF
:102DC00002F03EFE32003B00FEF7E2FA02F051FE56
:102DD00000900098FEBD00000000074388E36442B5
:102DE00000001143781C7B42000025431EC793421C
:102DF0009D70000052480000AD2F00003020000000
:102E000036160000A40F0000FEB500256E4A528859
:102E1000871A00266D4972008C5EA74206DB2000EF
:102E200003F0CEFA761CC32EF4D32BE002903800C8
:102E3000002E27D003F0C4FA029902F083FE02F0BC
:102E4000FFFD00900191200003F0BAFA029902F010
:102E500079FE02F0F5FD02000B0000980199FEF7E3
:102E6000A0FB04000D00F0B203F09AFA584902F0FA
:102E700031FE02F0E5FD22002B00FEF789FA02F098
:102E8000F8FD05002800FEBD721CC7711CC7E13F9C
:102E9000CC030020CD030020F0B585B0040000264F
:102EA000494F386900F054F803907888201A039944
:102EB00044182800002545496A00895E6A46118148
:102EC000029909B28C4207DB029800B203F078FA4B
:102ED0006D1CC32DEFD32DE00490002D2AD02000CF
:102EE00003F06EFA049902F02DFE02F0A9FD0090A5
:102EF0000191029800B203F063FA049902F022FEF5
:102F000002F09EFD02000B0000980199FEF749FBBC
:102F100000900191E8B203F043FA01002C4802F05E
:102F2000D9FD02F08DFD009A019BFEF731FA02F007
:102F3000A0FD06000398B8617C61F868310003F0D9
:102F40005EFAB96802F0C6FD05B0F0BD3C03002092
:102F5000F8B50500002400942700233F380003F053
:102F60002FFA0100280003F037FA04D33E00641C56
:102F7000C32CF1D320E03000002C1DD0134E4100B3
:102F8000711846228F5E03F00BFA0100280002F050
:102F9000D9FD05006000305EC01B03F001FA290076
:102FA00003F02DFA0400380003F0FAF9210002F0D2
:102FB00091FD03F07DFA00900098F2BD21400000E1
:102FC0001027000000002440CC080020C47B00082B
:102FD00000000CC272B6FEE710B500240B48016871
:102FE000820D0A430260002003F076FA002801D027
:102FF000012401E003F096FA200010BD04490A689C
:10300000044B134018430860704700000020024042
:1030100000000140FFF9FFFF002200BF094202D07B
:10302000491E4254FCD17047FFB500220F23029382
:103030002CE0052602E0574FB842FAD1AE402643B5
:10304000009C2660544C2568DC4325404E68F603FE
:1030500000D51D43504E3560756825404F68BF034D
:1030600000D51D4375604D4D2E6826404D68ED021C
:1030700000D51E43494D2E606E6834404E68B6023E
:1030800002D526001C0034436C60521C0B681C00E7
:10309000D44078D0012595402B40F6D0540003272A
:1030A000A740FE4301964E68B707BF0F012F03D01C
:1030B000B607B60F022E0ED18768019E3E40CF683C
:1030C000A740374387604668AE434D68EF06FF0F61
:1030D0009740374347600D79AD07AD0F032D25D0DD
:1030E000C568019E2E408D68A5403543C5600D79A9
:1030F000AD07AD0F022D19D1D508AD0045192E6AC7
:10310000039697001C263E406F463E70039EB446D1
:10311000029F6E463678B7406646BE43B4460F6996
:103120006E463678B740664637432F6207680326F7
:10313000019D3D404F683740BC4627006446BC4077
:103140002C4304604C68350425409ED0144C9508EF
:10315000AD00641900942468D70018253D40029FF3
:10316000AF40BC43A027FF05B84201D1002665E768
:103170000C4FB84201D1012660E70B4FB84200D096
:1031800059E702265AE7FFBD0069084000D0012038
:10319000C0B27047000C0050801802400018024076
:1031A00060180240000400500008005010B5C20032
:1031B00018231340FF249C40E2438907090E9940DD
:1031C000030004D419489B089B00C01806E0184B64
:1031D0000007000F083880088000181803681A409C
:1031E0001143016010BD80B5FFF7E0FF01BD000095
:1031F000010005D40121C006C00E81400D480160C8
:10320000704710B5401E80214904884201D3012037
:1032100010BD094C606003210020C043FFF7C6FFCA
:103220000020A0600721216010BD000000E400E044
:103230001CED00E000E100E010E000E010B5042328
:103240001940436907248C40A3438A401A434261D2
:1032500010BDC068C02109010140481E8041C00F57
:10326000704781684807C00F7047FEB5050000270A
:1032700001970097002D01D10120FEBD2C00543490
:103280006068002804D1280003F064F9A760277063
:103290002868816880267605314012D18168834A8A
:1032A0000A4032438260824800688249FEF75EF934
:1032B000401C400001E00098401E0090009800284B
:1032C000F9D129688868064008D160681022024355
:1032D0006260A06801220243A260012788686268D8
:1032E000D20600D4400700D5D7E06068724A024099
:1032F0000220104360608A6880200006D20735D41F
:10330000CA6818239A43AB681343CB60C0210906EF
:103310006A680A40EB6C134301933C22AA5C012AC1
:1033200009D1019A2B6C13436A6C1A43AB6C13439B
:1033300001221A4301922A681669604B3340019EAC
:103340001E4316616A6800928A420FD011464208F5
:1033500091420BD0814209D059490B68594A1A4011
:10336000009BF026B6031E4016430E60296B002911
:1033700000D0C10C2A69104002D05000400801E082
:10338000802080030090A87E2A7E93036A7ED20369
:103390001A43430313431943EA680A43009911434C
:1033A0002C22AA5C56000E432021695C01290ED113
:1033B000002804D1300080267602064307E06068CA
:1033C000202101436160A06801210143A160686A76
:1033D000002805D0E021490001403143AE6A0E4388
:1033E0002868C168384A0A403243C26028680169C7
:1033F000364A0A400199114301616A6B002128682D
:10340000FFF71CFFAA6B32492868FFF717FF2869EE
:10341000002806D12868816A0F22D2430A438262BB
:1034200021E08021890388421DD10022E1689000BB
:103430000B00C3401807000F0F2802D0521C082AA7
:10344000F5D30F20C043012A04D129688A6A1043AA
:10345000886208E02A68936AEB695B1E5B07DB0EF3
:103460009840014391620220C0432968C968194A03
:103470000A40B24207D10021A160616808400121E1
:10348000014361600EE06168084010210143616002
:103490000127A0683843A06004E060681021014360
:1034A000616001273800FEBD00000000E8FFFF7FDB
:1034B00038030020400D0300FFFEFFFF02FCFF1F4A
:1034C00008270140FFFFC3FF1902FEFF02FCFFDFD8
:1034D00004FFFF07E7FF3F8370B5040020688068A2
:1034E0000425284033D15420205C01282FD0260009
:1034F000543601203070200000F07EFA00210200D6
:1035000023D17268174B1340AA011A437260B1604D
:103510001C2223681A60317021684A681C239A4370
:103520004A606169082921684A6803D10823134366
:103530004B6001E02A434A60216B002904D12168D5
:103540004A68102313434B6004E0317070BD0220C1
:1035500070BD000021688A687C4B13401D438D605C
:1035600070BD0000FEF1FFFFF3B581B0040016004E
:1035700021688A68042702203A4043D15422A25C81
:10358000012A3FD0012254256255704DCB6813406B
:103590000AD18B68134003D08B682B401843886096
:1035A0002068C1680A43C260200000F025FA0100CB
:1035B00028D10096029A200054304168644B0B4099
:1035C000B9011943416000218160624B266DF362AD
:1035D000614B266D3363614B266D73631C23266834
:1035E000336001702068416810230B434360009BE7
:1035F00021684031206D03F0E7F821688A681540A2
:103600002F438F60FEBDF8B5040020680568476849
:10361000A8070FD5B8070DD5A06DC00604D4A06DBE
:10362000802109010143A165200003F05DFA022019
:10363000216808600426354201D0374203D12807AB
:1036400032D5380730D5A06DC00603D4A06DF10186
:103650000143A1652068FFF7FCFD00281ED0A07E75
:1036600000281BD120680068000717D520688168F2
:1036700001200E400BD1216849680C229143226839
:103680005160A16D364A0A401043A06506E0A16D65
:1036900020220A43A265E16D0843E065200003F0A3
:1036A00024FA0C202168086028060BD580263742B2
:1036B00008D0A06D71020143A165200003F016FA45
:1036C00020680660E8050CD580267600374208D0D1
:1036D000A06D71020143A165200003F008FA206883
:1036E00006608026B60035420AD0374208D0A06D69
:1036F00071020143A165200003F0FAF92068066019
:103700001026354215D0374213D0206B002803D045
:103710002068C06880070AD0A06DB1010143A1658F
:10372000E06D02210143E165200003F0E2F9206829
:1037300006607602354006D0374004D0200003F002
:10374000D9F920680660F1BD00000000E8FFFF7FA6
:10375000FEF1FFFF8F3A0008253B00082F3B0008D1
:10376000FFFEFFFFF1B585B000206A465070019062
:1037700005985422805C012801D1022021E105989E
:10378000543002900125057005980668B06840071E
:1037900000D509E1019105980069039001984068FE
:1037A00004908949894A8A4880231B06049C022C7C
:1037B000039C00D1CEE09C4201D0844207D1019805
:1037C0000068B46A4003400B2043B06280E0019877
:1037D00000680F24470302D14000C50E47E028428D
:1037E00044D1870743D40425284201D002253EE076
:1037F000070701D503253AE0C70638D4850601D569
:10380000052534E0450601D5062530E0050601D53D
:1038100007252CE0C50501D5082528E0850501D53B
:10382000092524E0450501D50A2520E0050501D537
:103830000B251CE0C50401D50C2518E0850401D535
:103840000D2514E0450401D50E2510E0050401D531
:103850000F250CE0C50301D5102508E0850301D52F
:10386000112504E0400301D5122500E0002504984D
:10387000C006C00E6F4638700298C768BC466846DE
:1038800007780F20B8406746874368460078854030
:103890003D430298C56001984068059DED69870821
:1038A0007F1CBD4214D3019D2D68C006C00E6F461B
:1038B0003870B76ABC46684607780F20B84067463C
:1038C0008743A80E04406846007884403C43B462B5
:1038D00001988068019C2568059C24682D02666912
:1038E000AE4328403B4D054035436561019804686F
:1038F000234061D01368C8431840374B9C4217D10E
:1039000080231B04184257D1146821400843034305
:103910001360324800683249FDF728FE401C0C2134
:10392000484301900198002846D00198401EF8E7CE
:103930002C4B9C4202D180235B0404E02A4B9C4226
:103940003AD18023DB03184236D114682140084362
:10395000034327E09C4201D0844206D101980068CD
:10396000B46A4003400B8443B46201980468234066
:1039700022D01368C8431840174B9C4203D11368E8
:1039800019401A4B0CE0174B9C4203D113681940A5
:10399000174B05E0144B9C420ED113681940154B90
:1039A00003400B43136007E0029840682021014365
:1039B0000298416068464570002002990870684688
:1039C000407806B0F0BD0000FFFF3FFE0827014031
:1039D0000400008000FFFF07001000B03803002043
:1039E000400D0300004000B8002000B4FFFF7FFF3F
:1039F000FFFFFFFEFFFFBFFFF8B5050000200090AE
:103A000028688168012421403FD110278168414AFC
:103A10000A4032D181683E4A0A40224382603E48D1
:103A2000006800020CD53D4800683D49FDF79EFD49
:103A3000401C01E00098401E009000980028F9D139
:103A4000687E012821D003F057F806002868006836
:103A500020401AD128688068204005D128688168F4
:103A60002B4A0A402243826003F046F8801B032859
:103A7000ECD3286800682040E8D1A86D0743AF6503
:103A8000E86D0443EC650120F2BD0020F2BD38B5BD
:103A9000846AA16D50220A402CD1A06D802189003A
:103AA0000143A1652068FFF7D4FB00281ED0A07E4B
:103AB00000281BD120680068000717D50125206861
:103AC000FFF7CFFB00280AD1206841680C22914300
:103AD0004160A06D0D4901400D43A56506E0A06D54
:103AE00020210143A165E06D0543E565200002F05A
:103AF000FCFF31BDA16DC90603D5200002F0F9FF1E
:103B000031BD216D496B884731BD0000FFFEFFFFCD
:103B1000E8FFFF7F170000800827014038030020DE
:103B2000400D030080B5806A02F0ECFF01BD80B556
:103B3000806A816D40220A438265C16D04220A4376
:103B4000C26502F0D6FF01BD10B5040001D101200D
:103B500010BD3D20205C002804D13C216054200091
:103B600002F073FDFFE702203D216054211D206813
:103B700000F07AF80120482160543E2160543F2132
:103B800060544021605441216054422160544321DB
:103B900060544421605445216054462160544721BB
:103BA00060543D216054002010BD70B504003C20DD
:103BB000205C012801D1022070BD26003C36012581
:103BC000357002203D22A05420688268254B1340A6
:103BD0008360086802003CD010283AD0202838D0F2
:103BE000302836D040282DD050281DD0602822D033
:103BF000702803D06B0398420AD02EE0CB684A6845
:103C00008968206800F0A2F820688168772208E0BF
:103C1000CB684A688968206800F098F82068816855
:103C2000AA030A43826018E0CA684968206800F065
:103C300061F850210EE0CA684968206800F06BF80E
:103C4000602107E0CA684968206800F053F8402105
:103C500000E00100206800F071F83D2025540020AC
:103C6000307070BD8800CEFFF0B506681A4A1B4B55
:103C70001B4C1C4DA84201D0A04206D17027BE4368
:103C800037004E683E43A8420BD0A04209D0164CE4
:103C9000A04206D0984204D0904202D0144CA042D8
:103CA00003D1124C3440CE6826438024A6434C698D
:103CB000344304608C68C4620C688462A84206D0F5
:103CC000984204D0904202D0094A904201D1096939
:103CD000016301214161F0BD004401400040014009
:103CE00000040040002C014000200040FFFCFFFFCA
:103CF0000048014030B5036A046A0125AC43046200
:103D00008469F025AC431201224382610A22934365
:103D10001943016230BD30B5036A1024A343036226
:103D20008469036A0F4D254012032A438261A02251
:103D3000934309011943016230BD00008268084BBA
:103D40001340194307220A438260704730B58468E4
:103D5000054D254029430A4319021143816030BDB6
:103D60008FFFCFFFFF0FFFFFFF00FFFFF0B53C22EB
:103D7000825C012A01D10220F0BD01223C23C25401
:103D800002233D24035505686E68AB68104CA542BC
:103D900003D1104F37404E683E437027BE430F6833
:103DA00037436F600568A54205D00B4CA54202D091
:103DB0000A4CA54204D18024A34389681943A96011
:103DC0003D21425400213C2281540020F0BD0000DE
:103DD000002C0140FFFF0FFF0004004000400140A5
:103DE00038B5040014D0250080356868002803D158
:103DF0002870200002F048FC2420686020680168D8
:103E0000012291430160200000F02EFA012801D127
:103E1000012032BDA06A002802D0200000F0E2FAA2
:103E200020684168084A0A404260206881682A2266
:103E300091438160FFE72068016801220A43026024
:103E4000200000F035FB32BDFFB7FFFFF1B584B0B5
:103E50001C00803001904068202870D10D000FD0E8
:103E600068460280002A0BD080277F010498806872
:103E7000B84207D104980069002803D1E80701D5AA
:103E800001205DE001980078012858D001200199B7
:103E9000087000260198C66021200199486002F050
:103EA0002BFE04995431029169460988029A1180C7
:103EB00069460988029A518004998968B94203D1F8
:103EC00004990969002901D029000025019A16707A
:103ED000049E029407000C0010E021788162641CAB
:103EE00007E03068002CF8D12988C905C90D816226
:103EF000AD1C300054304188491E418030005430A0
:103F0000408800280AD0029800903B0000228021BF
:103F1000300000F00DFB0028E3D009E030003B004A
:103F2000029900910022402100F002FB002801D0FC
:103F3000032005E0202001994860002000E00220D5
:103F400005B0F0BDFEB504002268D0691168936821
:103F50000093BE4B034025005C3520260E400196A1
:103F60002026064002960026002B0FD1029B002B34
:103F700012D0019B002B03D1009BDB0000D48CE00E
:103F80006969002901D020008847F7BD009BB04F28
:103F90001F4003D1AF4B0B4000D17EE0C30706D5D5
:103FA000CB0504D5012313622A6B13432B63042230
:103FB000830708D5009BDB0705D5022327683B62F2
:103FC0002B6B13432B63104208D0009BDB0705D5F6
:103FD00023681A622A6B022313432B6302070CD552
:103FE000019A002A03D1009A994B134005D0082268
:103FF00023681A622B6B1A432A6380221201104035
:1040000007D0480105D520680262286B20210143B2
:104010002963286B002836D0029800280AD001981E
:10402000002802D10098C00004D56969002901D098
:1040300020008847286B402721688968394002D1D1
:104040002821014024D0200000F0F8FA2068806880
:10405000074019D0EFF31080012181F31088216807
:104060008A6840239A438A6080F31088286A00286F
:104070000AD079498163286A02F029FC002802D01D
:10408000286A816B8847F7BD200002F03CFDF7BD30
:10409000200002F038FD2E63F7BD2B69012B00D004
:1040A00090E01023184200D0194200D18AE0136238
:1040B0001020C04321688968490649D5296A0A68E1
:1040C000526892B2002AE7D05C23E35A9A42E3DABC
:1040D0006A8009680968890634D4EFF310810122E7
:1040E00082F31088226813685C4F1F40176081F3C9
:1040F0001088EFF31081012282F310882268936800
:104100000127BB43936081F31088EFF310810122F4
:1041100082F31088226893684027BB43936081F341
:1041200010882021E9622E61EFF31081012282F3D1
:104130001088226813681840106081F31088286A7C
:1041400002F089FB5C20205A6988411A89B235E067
:104150005C21615A6A88891A6A4611806988002937
:1041600072D06946098800296ED0EFF310810122D0
:1041700082F3108822681368394F1F40176081F35B
:104180001088EFF31081012282F31088226893686F
:10419000344F1F40976081F310882021E9622E611F
:1041A0006E61EFF31081012282F310882268136898
:1041B0001840106081F3108868460188200002F0E2
:1041C000A3FCF7BD80235B03184207D0009F7F024A
:1041D00004D51362200002F098FCF7BDDA008023BA
:1041E00018420AD00B4002D1009B134005D0A969A8
:1041F000002929D020008847F7BD4023184214D059
:104200000B4012D0EFF31080012181F31088216858
:104210000A6840239A430A6080F310882020A8622D
:10422000AE61200002F072FCF7BD024005D04A00EA
:1042300003D5200002F06BFCF7BDC00104D50029B6
:1042400002D5200002F064FCF7BD00000F0800005A
:104250000100001020010004A9460008FFFEFFFF36
:10426000DFFEFFFFFEFFFFEFF8B50500002700248B
:10427000286801688D4A0A40A96811432A690A43DF
:1042800069691143EA690A4302604168A04A0A4029
:10429000E9681143416081689E4A0A40A969114357
:1042A0002A6A0A438260C16A0F2291436A6A0A43FA
:1042B000C262994A1021994B984208D11068800730
:1042C000800F1ED0022810D011D303280BE0944B8E
:1042D000984210D110680C22024012D0042A06D055
:1042E000082A02D00C2A04D00CE002210AE00421A2
:1042F00008E0082106E08B4A904202D08A4A9042A8
:1043000000D1002131A6894880221202EB69934234
:104310002AD1002906D0022908D004291FD0082953
:1043200020D049E001F065FF002846D0696800917F
:10433000696A4900715AFDF719F940000099490866
:1043400040180099FDF712F980B201001039B04A07
:10435000914231D202400007400F104324E001F0A7
:1043600007FFE1E71000E1E7002906D0022908D0A5
:1043700004291CD008291DD01EE001F03AFF0028B6
:104380001BD069680091696A4900715AFDF7EEF81F
:104390000099490840180099FDF7E8F880B201003B
:1043A00010399B4A914207D22968C86005E001F0A4
:1043B000DFFEE4E71000E4E7012428006830012173
:1043C000418001808760C7602000F2BD01000200CB
:1043D0000400060008000A000C0010002000400045
:1043E000800000012821415CC90706D501684A68A0
:1043F000884B1340C26A1A434A602821415C8907EE
:1044000006D501684A68844B1340026B1A434A6020
:104410002821415C490706D501684A687F4B134053
:10442000426B1A434A602821415C090706D501689E
:104430004A687B4B1340826B1A434A602821415CD7
:10444000C90606D501688A68764B1340C26B1A43C9
:104450008A602821415C890606D501688A68724B0A
:104460001340026C1A438A602821415C490611D529
:1044700001684A686D4B1340426C1A434A60426CB3
:1044800080235B039A4205D14A68694B1340826CD2
:104490001A434A602821415C090606D501684A682A
:1044A000644B1340C06C184348607047F369FFCFFA
:1044B000F8B5040000258030C56002F01DFB070040
:1044C0005D4E20680068000709D500963B00002279
:1044D00080218903200000F02BF800280DD12068EE
:1044E000006840070BD500963B0000228021C903DD
:1044F000200000F01DF8002801D00320F2BD2100AB
:104500008031202048608860E5660D700020F2BD93
:10451000FFCFFFFFFFF4FF115410024000380140AD
:104520000044004000480040004C00400024F400DB
:10453000FEB5089F802424010025060001916846ED
:10454000027002933068C06901990140019881426C
:1045500001D1012000E0002069460978884254D149
:104560000020C0438742EDD002F0C6FA0299401AFB
:10457000874201D3002F1FD1EFF31080012181F377
:10458000108831680A68454B13400B6080F310882F
:10459000EFF31080012181F3108831688A680123CC
:1045A0009A438A6080F31088300080302021416077
:1045B000816005700320FEBD306800684007C1D5EA
:1045C0003068C0692040BDD030680462EFF31080CD
:1045D000012181F3108831680A68304B13400B6069
:1045E00080F31088EFF31080012181F31088316887
:1045F0008A6801239A438A6080F3108830008030F3
:10460000202141608160C160D3E70020FEBD000031
:10461000F0FF0000FFFFFDFFFFFFFEFFFFFFFBFFBE
:10462000FF7FFFFFFFEFFFFFFFDFFFFFFFFFEFFF5A
:10463000FFFF9FFFFFFFF7FFFFFFFF0110B5EFF345
:104640001081012282F3108802681368144C1C4008
:10465000146081F31088EFF31081012282F3108837
:10466000026893680F4C1C40946081F31088C16EFF
:1046700001290BD1EFF31081012282F31088026827
:1046800013681024A343136081F31088202188222B
:1046900081500021C166016710BD00005FFEFFFF71
:1046A000DFFEFFFFFEFFFFEF80B5806A010056319D
:1046B00000220A810A8002F026FA01BD30B501000D
:1046C00080310A78012A01D1022030BD01220A700E
:1046D00024224A600268136814680125AC43146000
:1046E00000224266224C1C40006804602020486082
:1046F0000A70002030BD70B5040025008035287890
:10470000012801D1022070BD01202870242068609A
:1047100020680668026801239A4302602068826864
:10472000D200D208114317E070B50400250080358F
:104730002878012801D1022070BD01202870242092
:10474000686020680668026801239A430260206856
:104750008268084B134019438160200000F00CF878
:1047600020680660202068600020287070BD00006E
:10477000FFFFFFDFFFFFFFF1F8B50400606E0028C8
:1047800002D10120012517E0206881680901490F45
:1047900000918068410F00BF0CA600BF09A7785C9C
:1047A000C000715CFCF7CEFE05000098385CC000CC
:1047B0000099715CFCF7C6FE210068314D800880CD
:1047C000F1BD00000101010307010000080402041B
:1047D0000801010170B5040001D1012070BD250060
:1047E000403500266878002803D12E70200001F0A3
:1047F000FDFE242068702068016801229143016059
:1048000060686C4901402068016121686A488A68D3
:1048100002408A60E1680129A16801D1C24301E038
:10482000842212020A4321688A60E168022903D1C6
:10483000802109012268516021684A685F4B134357
:104840004B602168CA681040C860206961690143F3
:10485000A069000208432168C860E069216A014339
:10486000206801602068016801220A4302606E60CE
:10487000202068702663AE70002070BDFEB5040075
:104880000F0016001D0040304078202800D08FE037
:104890004020205C012800D18AE0012040216054A2
:1048A00002F02AF90190009019230122D10320007F
:1048B00000F098F9002879D121202100403148707A
:1048C00010202100403188700020210040314860D4
:1048D0006662658560633A48089E618DFF290BD941
:1048E000FF212185009080235B04FF2239002000F6
:1048F00000F033FA019D11E0628D22850090802343
:104900009B04D2B2F2E7FF20208500200090802394
:104910005B04FF223900200000F01FFA608D0028A0
:104920002DD02A003100200000F088F900283DD168
:10493000606A007821688862606A401C6062214871
:10494000618D09186185218D08182085618D0029E8
:10495000E4D00004E2D10095330000228021200041
:1049600000F040F9002821D1608DFF28CBD8628D5E
:1049700022850020009080239B04D2B2CAE7310038
:104980002A00200000F083F901000DD120202268C8
:10499000D061226853680C4D1D40556022004032A2
:1049A0005070002090701070080002D00120FEBDF1
:1049B0000220FEBDFFFFFFF0FF7FFFFF008000022F
:1049C00000200080FFFF000000E800FEFEB584B07C
:1049D000060040304178202900D0BCE00C99002925
:1049E00002D00D9F390003D1802189004160B0E0E1
:1049F0004020305C012800D1ADE035004035012079
:104A0000287002F079F804003068806900040DD540
:104A100002F072F8001B1A28F6D3202069680143BF
:104A2000696068700020A870287092E0029668465D
:104A3000038B828A304640300390222068704020E9
:104A4000039988700026039846600C980299486282
:104A5000029847850298466301940E980090684634
:104A6000018A029800F080F8002802D003980670AE
:104A70006FE08020400401903A480299498DFF2957
:104A80000DD9FF21029A11850090019BFF226846F3
:104A9000018A029800F061F9029D0E9F07E00299D9
:104AA0004A8D0A85009080239B04D2B2EFE70094E0
:104AB0003B0000220421280000F094F8002848D18F
:104AC0002868406A696A0870686A401C68622349FD
:104AD000288D401828856A8D51186985698D0029AF
:104AE0001ED000041CD100943B000022802128002D
:104AF00000F078F800282CD1688DFF2805D9FF2018
:104B000028850096019BFF2205E06A8D2A85009684
:104B100080239B04D2B26846018A280000F01DF968
:104B2000688D0028C3D139002200280000F0AFF8BA
:104B300001000CD120202A68D0612A685368084CF3
:104B40001C4054602A004032507096701670080065
:104B500002D0012000E0022007B0F0BDFFFF0000FE
:104B600000E800FE00240080F8B5060015001C00D7
:104B7000079F144800900023E2B2300000F0EDF8E7
:104B80003A000699300000F059F8002817D1012C9E
:104B900009D0280A316888623A000699300000F08E
:104BA0004DF800280BD1EDB2306885620097069B66
:104BB00000224021300000F015F8002800D001202C
:104BC000F2BD00000020008000688169890701D5DE
:104BD00000218162012182690A4002D18269114368
:104BE00081617047F8B5002405000F006846027027
:104BF0001E00286880693840B84201D1012000E0D9
:104C0000002069460978884216D10020C0438642B8
:104C1000EFD001F071FF0699401A864201D3002EB1
:104C2000E7D128004030202142680A4342604170A9
:104C3000847004700120F2BD0020F2BD70B5040044
:104C40000D0016002068806980071ED432002900FC
:104C5000200000F042F8002801D0012070BD0020A3
:104C6000C0438542EED001F047FF801B854201D34F
:104C7000002DE7D120004030202142680A434260E5
:104C80004170002181700170E7E7002070BDF8B528
:104C9000202504000E0017002068806928401AD1E2
:104CA0003A003100200000F018F8002807D101F088
:104CB00023FFC01B864204D3002EEDD101E001206A
:104CC000F2BD200040304168294341604570002119
:104CD00081700170F3E70020F2BDF8B5036810247D
:104CE0009D69254037D05D68AD0103D45D68A6029B
:104CF0002E435E6005000F0000922026286881691F
:104D0000314011D10020C0438742F7D001F0F4FEBA
:104D10000099401A874201D3002FEFD1280040307C
:104D200041683143416010E0C4612868C6612800D1
:104D3000FFF74AFF28684168114A0A40426028008C
:104D40004030416804220A4342604670002181706D
:104D500001700120F2BD0020F2BDF0B5059C006895
:104D60004568660D074F3743BD438905890D2943C3
:104D700012040A4313431C434460F0BD00000000CA
:104D800000E800FEFF63FF0370B502004032537875
:104D9000202B14D14023C35C012B10D001231370AE
:104DA00024245470046825689D43256004682568A0
:104DB000164E2E4026600468256829431CE0022018
:104DC00070BD70B5020040325378202B12D14023C1
:104DD000C35C012B0ED0012313702424547004688B
:104DE00025689D43256004682568094E2E40090208
:104DF000314301E0022070BD2160006801680B436F
:104E00000360202050700020107070BDFFEFFFFF86
:104E1000FFF0FFFFFAB583B00500140000206946DB
:104E2000087068468689007C002800D1B61C00F016
:104E30004FF801222D490B784F78BB4201D10192E6
:104E400001E000230193B6B286423BD200220295D4
:104E5000274F0EE0029B9B5C002B01D1012C07D158
:104E60004D787B556D1CEBB2322B00DB00254D706D
:104E7000521C6B469B899A42ECDB6A46127C002AE4
:104E800010D14A780D24BC54521CD4B2322C00DB11
:104E900000220A24D5B27C55521CD3B2322B00DB3F
:104EA00000224A70019800280ED0EFF310800121F3
:104EB00081F310880F490A68802313430B6080F345
:104EC000108801E0684602706846007805B0F0BDC1
:104ED0000648417800780300814201D2581A02E066
:104EE0003220401AC01880B270470000F408002039
:104EF000700800200038014080B5AE2200217820E3
:104F000000F070F920220021782000F06BF91022C7
:104F10000021782000F066F9B0220021782000F00E
:104F200061F9C8220021782000F05CF900220021FC
:104F3000782000F057F910220021782000F052F973
:104F400040220021782000F04DF9812200217820B4
:104F500000F048F9FF220021782000F043F9A12257
:104F60000021782000F03EF9A6220021782000F0F0
:104F700039F9A8220021782000F034F93F220021DD
:104F8000782000F02FF9A4220021782000F02AF9DF
:104F9000D3220021782000F025F90022002178207A
:104FA00000F020F9D5220021782000F01BF9F02232
:104FB0000021782000F016F9D9220021782000F095
:104FC00011F922220021782000F00CF9DA220021C8
:104FD000782000F007F912220021782000F002F971
:104FE000DB220021782000F0FDF82022002178202B
:104FF00000F0F8F88D220021782000F0F3F8142258
:105000000021782000F0EEF8AF220021782000F097
:10501000E9F82E220021782000F0E4F8002000F0CA
:1050200028F800F007F85E48002101600121417175
:10503000012002BD38B500245A4D2200B032D2B250
:105040000021782000F0CEF800220021782000F026
:10505000C9F810220021782000F0C4F88023E00174
:105060002A184021782000F0A6F8641C082CE4DB04
:1050700031BD80B5002801D1002200E0FF2280214F
:10508000C9004848FDF7CAFF01BD802800DB704712
:1050900010B5402911DA434CCB08DB01C0182018A9
:1050A00001234907490F8B403D490979002905D063
:1050B000002A05D001789943017010BD012AF9D169
:1050C00001780B43037010BD354A10805180704742
:1050D000FEB50F00324909886B46598069464988F8
:1050E0003B78C918802909DA2D4949886B46D9804F
:1050F0006946C9887B78C918402901DB0020FEBDBC
:105100000021029169460870150002E00298401CD7
:10511000029079780298884226D278686A46127896
:10512000203A4A43029951184900465A00246846D9
:10513000C088029940186946888003E06A1E92413F
:10514000D20F0AE038788442E0D2684640880019DD
:105150003100A1400904F1D52A006946898880B24E
:10516000FFF793FF641CEDE76846408839784018E4
:105170000B49088068460078FEBD70B504000E003B
:10518000150000E0641C2078002806D02A003100B9
:10519000FFF79EFF21788842F4D0207870BD000090
:1051A000E8080020E003002080B50020FFF761FF41
:1051B000FFF740FF01BD78B5C1B001AC21700021FF
:1051C00003E0555C66187570491C9942F9DB64214F
:1051D00000915B1C9BB201AA01000948FFF74EFB3E
:1051E00042B070BDE0B501AB19705A7064210091F6
:1051F000022301AA01000248FFF740FB07BD00009F
:105200005001002038B5050001F076FC04000020B4
:10521000C043854202D0044800782D1801F06CFC90
:10522000001BA842FAD331BD2C030020F1B5B548CC
:105230000078B449487037275D4D1E265D4C68469E
:105240000078002808D0012855D0022800D17BE042
:10525000042800D193E0A1E0FFF7A6FF0021002081
:10526000FFF732FF0122544954A0FFF786FF1421B3
:105270000020FFF729FF01224F4900BF52A0FFF78E
:105280007CFFA148C7811421018228210020FFF75B
:105290001BFF01229D4900BF51A0FFF76EFF312087
:1052A000E08128202082042099490022AB7D432BF5
:1052B000134610D1CC1864792E001336F4545B1CBD
:1052C000042BF7DB2B001333C4B21A55401CC1B2B8
:1052D0001A2963DAF6E7CC5C2E001336F4545B1C13
:1052E000042BF8DB2B001333C4B21A55401CC1B297
:1052F0001A2953DAF6E7FFF757FF00210020FFF7DE
:10530000E3FE2D4D0122290031A0FFF736FF1421C5
:105310000020FFF7D9FE0122290000BF2EA0FFF7D1
:105320002CFF7C48C7811421018228210020FFF72F
:10533000CBFE0122754900BF29A0FFF71EFF3120D7
:10534000E0812820208229E0FFF72EFF00210020A5
:10535000FFF7BAFE184C0122210000BF22A0FFF780
:105360000CFF1E210020FFF7AFFE0122210000BF2D
:1053700020A0FFF702FF4120E8812E820EE0FFF718
:1053800013FF00210020FFF79FFE01220A4900BF02
:105390001AA0FFF7F2FE1F20E081268201205E495D
:1053A0000870FFF747FE6846007856490870F1BD5F
:1053B00074000020980200200800002054656D70E1
:1053C000657261747572650054656D703A00000015
:1053D0005461726765740000547970653A0000008A
:1053E0005461726765743A0053657474696E6773CB
:1053F00000000000556E6974733A200053657420F4
:1054000054656D7000000000F8B544498A7D0300C2
:1054100000250124424E434F3A480078002806D028
:1054200001280AD002283AD0042847D020E0002BD7
:105430004ED0012B1CD101200BE03B480178002B02
:1054400046D0022B08D003D3042B19D00AD30FE087
:105450000220FFF7EBFE0BE0491CCAB2042A06DB70
:10546000002104E0491ECAB2042A00DB03210170B6
:1054700029480470A7480570A74804700120F2BDB0
:105480000329F5D1A5483860A5483060432A01D1E9
:10549000012000E00020A34908700420D9E7432040
:1054A0004626002B14D0022B02D011D3032BDFD1C0
:1054B000432A01D18E75DBE78875D9E730683968F2
:1054C000002B05D0022B05D0B5D3032B12D0CFE78C
:1054D0000020BEE7462A07D1FE26B60508003100A7
:1054E00000F0F8FA3860C3E7FC21890500F0F2FA11
:1054F0003060BDE7462A01D18B4EEFE7BF21090698
:10550000F4E700003C03002080020020000000209F
:1055100020030020C0020020B800002074000020FA
:10552000B8020020B4020020BC000020F0B587B013
:105530007E4E7F4C7F4D2878002808D0012860D00F
:10554000022800D198E0042800D1AEE0DDE07A4FD7
:10555000398AF889FFF7B8FDB87C00280ED0786941
:1055600000F06EFA02000B003900684601F0D2FA32
:10557000012272496846FFF700FE05E001226F49EB
:1055800038000A30FFF7F9FD398AF889373080B2E0
:10559000FFF79AFD6949B07D432802D10122281DF9
:1055A00002E0012228000830FFF7E7FD218AE089A8
:1055B000FFF78AFDA07C00280ED0606900F040FA59
:1055C00002000B002100684601F0A4FA01225C49A8
:1055D0006846FFF7D2FD05E00122594920000A3054
:1055E000FFF7CBFD218AE089233080B2FFF76CFD05
:1055F0005349B07D432802D10122281D83E00122B6
:105600007FE0504F398AF889FFF75EFDB87C0028AB
:105610000BD03A0013323900684601F07BFA0122C0
:1056200046496846FFF7A9FD05E0012243493800D5
:105630000A30FFF7A2FD218AE089FFF745FD404FC0
:10564000A07C00280ED0606900F0FAF902000B007F
:105650002100684601F05EFA012239006846FFF732
:105660008CFD05E00122390020000A30FFF785FD9E
:10567000218AE089233038E0318AF089FFF724FD60
:105680002E4CB07C00280BD032001332310068461B
:1056900001F040FA012221006846FFF76EFD34E078
:1056A0000122210030000A302DE0218AE089FFF735
:1056B0000BFD224FA07C00280ED0606900F0C0F9DD
:1056C00002000B002100684601F024FA0122390093
:1056D0006846FFF752FD05E00122390020000A303C
:1056E000FFF74BFD218AE089373080B2FFF7ECFCF1
:1056F000B07D432803D101223900281D03E0012297
:10570000390028000830FFF738FDFFF793FC07B099
:10571000F0BD0000DA030020DB0300200000164388
:1057200000008242BD000020000080BF7400002005
:10573000980200203C030020800200200800002086
:1057400000000020C002002070B56148017F427F48
:10575000704B1B785F4CE65C0125242E04D101219F
:1057600024220270012207E0012905D18654521C2F
:105770000A2E01D185770021017742775B1CD8B2D0
:10578000322800DB002363480370002070BD000056
:10579000F8B5514F514E002501244D4840784F280F
:1057A0001AD053281FD0542825D055283AD056282F
:1057B00070D057280CD058280CD06F280CD07328E4
:1057C00011D0742817D075282CD0762862D077286D
:1057D00072D0782877D043E04C4801F04BFB00F0C2
:1057E00048F9306005E0494801F044FB00F041F918
:1057F00070603C7034E000213948CAB28218D57418
:10580000491CCAB21A2AF8D30221314A525C0A2A28
:1058100004D043185A74491C1B29F6DB0320FFF7F8
:1058200005FD1DE02F49887D2F4C43281ED14620C1
:1058300088756269264B586A110001F023FB13D06A
:10584000100000F0FDF829A20CCAFBF70BFF0022A4
:10585000284BFBF79DFD00F00CF91D4908626061C3
:105860001B4885770020F2BD186AF8E74628F7D173
:105870006069174A106243228A7500F0E1F800223D
:105880001D4BFBF785FD1DA20CCAFBF7EBFE00F0DC
:10589000F0F8E4E71B4C207801282B461A4606D185
:1058A000062100BF1DA0FFF7B5FA2570D8E70A2131
:1058B0001CA0FFF7AFFAD3E7134B0A2205211348C8
:1058C00001F0F0FACCE71248047013480570C7E7FE
:1058D000A40800203C080020BE000020D4080020BE
:1058E000F00200207400002080020020CDCCCCCC3F
:1058F000CCCCFC3F00004040000040C0721CC7718F
:105900001CC7E13FF7080020C8030020A6080020BC
:10591000F6080020FA080020F80800205075736887
:10592000656400004E6F74205075736865640000F4
:1059300001000020042900D80120704770B5A0257F
:10594000ED058021C9002800FDF71EFC1A4E040158
:1059500020213000FDF718FCC00020430400802106
:1059600049002800FDF710FC050001213000FDF77B
:105970000BFCA900214344000C43802189010F48FE
:10598000FDF702FC2043C1B21F2912D00F290FD00E
:1059900017290BD01B2907D01D2903D01E2908D198
:1059A000002006E0012004E0022002E0032000E0E5
:1059B0000420C0B270BD0000000400500008005078
:1059C00070B50124032100251C4E1F282ED0F37929
:1059D000984229D13178002924D1FFF7A9FF3279E3
:1059E000002810D0B079002817D0307A012801D1D2
:1059F00001223572B07800280CD1F078002807D148
:105A000005200122F070317832713170002070BDB4
:105A1000401EF7E7401EB070F5E770790028F2D11C
:105A20000122F0E7491EF0E7F071EEE7F0713C204B
:105A3000B070F570757075713472E6E7D6030020AA
:105A4000012212060118CA420AD28A420DD838220F
:105A5000120609098918C20FD2071143400770477F
:105A600000D049080909014301E0C10FC90700201E
:105A70007047012252054B18DA4201D95815704778
:105A80005B0D0722D2019B1A10D9FF2B1DD2DB051B
:105A90000122D2070A4013430903020D1143490AA8
:105AA000C200524100D9491CC81870470AD1800A67
:105AB0000A0302435212921C04D9D3070B40D005AB
:105AC00018437047C80FC0077047C80F0002FF3067
:105AD000C00570470122D20703004B402ED4431A61
