:020000040800F2
:10000000E80700204D440008ED400008EF400008DC
:1000100000000000000000000000000000000000E0
:10002000000000000000000000000000F140000897
:100030000000000000000000F3400008F540000848
:10004000BF18000800000000C3180008C718000807
:100050002F370008733B0008233E00087B4200084E
:1000600000000000234400082F4400085D440008FD
:100070005F44000861440008634400080000000079
:100080006544000867440008694400086B440008A0
:100090006D4400086F440008714400087344000870
:1000A0007544000877440008794400083D41000881
:1000B000754100087B440008FDB5B2B03A98049140
:1000C00002A93B22885400200D9024A8401C2F90A8
:1000D0000DE00498329A90470490002801D100F076
:1000E00001FF0D98401C0D903398401C33903398BD
:1000F0000178002910D02529EBD100200790089025
:1001000009900A900B900C90002102240120149079
:1001100008201290339D05E00D9800F0E5FE0800E0
:10012000149901436D1C28782028F8D023280BD07F
:100130002B2804D02D2804D0302808D00AE02143F1
:10014000F0E708000421ECE708000821E9E70800CF
:100150001021E6E72A280FD1349802681068121D92
:10016000349B1A600F90002804D542420F92080079
:10017000042101436D1C12E000200F90654A09E044
:100180000F9B934205DA9E00F3185B001818303875
:100190000F906D1C28780300303B0A2BF0D3287891
:1001A0002E2803D00020C0430E9027E06D1C287835
:1001B0002A2808D1349800680268001D349B186012
:1001C0000E926D1C1AE02D2802D12D226D1C00E02C
:1001D000002200200E900CE0002A09D10E9B4D4E0B
:1001E000B34205DA9E00F3185B00181830380E9001
:1001F0006D1C28780300303B0A2BEDD302A8018741
:100200002E78310041487844FF30C01C00F052FF86
:10021000002801D06D1C00E0002602A83A214654B7
:10022000405C682804D1287868280BD1622005E05A
:100230006C2807D128786C2804D1712002A93A22B1
:1002400088546D1C15A80690287869460870681CAB
:100250003390684602781000253833D01C3800D11E
:1002600018E2001F022800D814E2133801D100F070
:1002700065FD093800D10DE2801E01D100F0FBFDC3
:10028000401E01D100F0A8FD401E022800D801E266
:10029000001F01D100F0A0FD401F00D153E1401E1E
:1002A00001D100F04BFD401E00D1F3E0C01E10D084
:1002B000801E01D100F042FDC01E01D100F03EFDC4
:1002C00000F0E4FD252015A908701498079000F0AF
:1002D000E8FD349800680468001D349908600594AE
:1002E000002C00D0C2E002A83B21405C002800D1D5
:1002F000B5E00024E44306487844143000F022FFBF
:10030000201A01D000F0EEFD00F0CBFD043F00000C
:10031000383F0000CBCCCC0C01236A4602A9280050
:1003200000F0ADFE002801D000F0DCFD641EF3D12A
:100330003295079D15AC002D0FD0329E227802A970
:10034000300000F08BFE002802D4641C6D1EF5D135
:100350003296002801D000F0C5FD302069460870B3
:100360000A9C002C0DDD329D01236A4602A928005B
:1003700000F085FE002801D000F0B4FD641EF3D12A
:100380003295059C089D002D0FD0329E227802A93F
:10039000300000F063FE002802D4641C6D1EF5D10D
:1003A0003296002801D000F09DFD302769460F707D
:1003B0000B9C002C0DDD329D01236A4602A928000A
:1003C00000F05DFE002801D000F08CFD641EF3D12A
:1003D0003295059808994418099D002D0FD0329E3A
:1003E000227802A9300000F039FE002802D4641CF3
:1003F0006D1EF5D13296002801D000F073FD6846DD
:1004000007700C9C002C0DDD329D01236A4602A969
:10041000280000F034FE002801D000F063FD641EC7
:10042000F3D1329502A83821405C400700D45EE643
:100430002020694608700198002800DC57E6019CDE
:10044000329D01236A4602A9280000F018FE002808
:1004500001D000F047FD641EF3D1329547E64048D5
:100460007844FF30C01E059000F01BFD0E9D002D4E
:1004700003D5200000F08AFE09E02A0000212000B8
:1004800000F090FE002801D0001B00E0280008903A
:1004900000F007FD349800680268001D3499086078
:1004A0000020C0430021104002AA03C215A80590F5
:1004B000069A3C2302A803C8002904D1002802D1CF
:1004C0000E9C002C15D05B1E05072D0F3035EEB2AB
:1004D0003A2E08DAD55400090C072043090904D143
:1004E000002802D105E02735F4E7059CD518AC4279
:1004F000E9D33C20C01A0890D11805910E99884282
:1005000008DA081A0A9002A8018FAA4A0A4002874C
:1005100000F0C7FC002901D400F0C3FC02A9382276
:10052000895C14220A40102A01D000F0BAFC0F990D
:10053000079A891A0A9A891A081A002801DC00F019
:10054000B0FC00F0F9FB02A83B21415C002909D076
:100550000024E4434B487844FF302B30CEE600BF04
:10056000043D00003A21405C62286AD0682819D016
:100570006A2845D06C2806D071284FD0742831D015
:100580007A2821D06FE0349800680168001D349A01
:10059000106000297AD10024E4433B487844FF30BE
:1005A0001738ABE6349800680168001D349A106073
:1005B000002905D10024E44333487844CA309DE63D
:1005C0000D98088000F06DFC349800680168001DEB
:1005D000349A1060002959D10024E4432A48784411
:1005E000A6308BE6349800680168001D349A1060CC
:1005F00000294BD10024E443234878448A307DE627
:10060000349800680268001D34990860002A13D1EC
:100610000024E4431C4878446E306FE63498006848
:100620000268001D34990860002A05D10024E443C3
:1006300015487844523061E60D98C11703C200F0A6
:1006400030FC349800680168001D349A106000295D
:1006500005D10024E4430C4878442C304EE60D9834
:10066000087000F01EFC349800680168001D349A80
:10067000106000290AD10024E4430348784408307C
:100680003CE600BF943B0000A83B00000D980860CA
:1006900000F007FC34980368DB1D0720834334987F
:1006A000036003CB349D2B6002AB03C32023C80F30
:1006B00004D007982D2115AB19540DE002A8008F26
:1006C000204204D007982B2115AB195404E0C00731
:1006D00004D5079815A90B54401C079015A8079935
:1006E0004318059324AD02A8C0C8684600782021AD
:1006F000014368468170612909D00E98002801D510
:10070000062003E003D1672901D114980E9002A8B6
:1007100003C808004C006415641C0ED109030CD0FA
:1007200003200890613A1A2A03D223497944883178
:100730000FE02249794484310BE0002C0ED10003F4
:100740000CD103200890613A1A2A1DD31C49794420
:100750006E310322180000F04BFDA2E301AA02A8AB
:1007600003C800F052FD02AA03C2684680786128DF
:1007700013D1059830210170811C059169460978D3
:10078000612905D1782104E00E4979443631E0E74A
:10079000582141700798801C079002A803C893A2B3
:1007A0000CCA02400B400FD1002A0DD100240026B4
:1007B00061E100BFEFFF0000B03A0000B03A000076
:1007C000B43A0000AC3A000068468078612800D056
:1007D00099E00E98002801D5212000E0401C1390DC
:1007E0001398401C2E90300039000022002300F0A6
:1007F00021FD02A830C802D28020000645400198A1
:10080000001F019024A90A7024A8461C2E980028D5
:1008100032DD2E9F20002900002280235B0300F0A0
:1008200022FD29D81C2200F037FD04000D0000F045
:100830006BFD2E90FF1F002F09DD00F09FFD0200D1
:100840000B002000290000F006FE04000D00F01D42
:1008500007212E9A002A0ADD491E08D4401E1307DC
:100860001B0F03701211F5E7401E00220270491E93
:10087000FAD5C61D002FCDDC24A82F99711A24AA01
:10088000551C139A0C00914200DD1400002C33D447
:100890008C4205DA411C095D082901DB0F2100E0CB
:1008A0000021220024AB9B1801E0641E5B1E521E37
:1008B0001E788E42F9D00F2904D1411C895C491C55
:1008C000401C8154002A04D524AD641C0198001DED
:1008D0000190611E10D46A1868460078137830338E
:1008E000DEB23A2E01DBC318C6331370491E521E06
:1008F0000029F3D5694608700E98002800D4B9E0A5
:10090000601E0E90B6E07F007F080198684948435A
:10091000684900F017FE019007200199401A00284D
:1009200005DD02003000390000F072FB0AE04242AF
:100930000020614900F06CFB02000B003000390020
:1009400000F02FFE6A469278662A02D1019A0A3296
:1009500000E006220E9B9A18142A00DD142224AB14
:1009600030241C705C1C02E030A803C8139A002AD3
:1009700040DD30AB03C3139230A803C800F0D6FCAF
:100980002E9006460834042530000A2100F0EEFDC2
:100990000F0030000A2100F0E9FD06003037601E2C
:1009A000077030000A2100F0E1FD0F0030000A213D
:1009B00000F0DCFD0600A41E303727706D1EE3D169
:1009C00008341398083813900028CDDD2E9800F0D5
:1009D000C5FC02000B0030A803C800F03CFD00225B
:1009E000364B00F03FFE30AA03C2C5E7FFFFFFFF12
:1009F000FFFFFF7F2F98201A24A94D1C04E0401E02
:100A00000199491E01916D1C29783029F7D069465A
:100A10008978662902D10199491C06E069468978DE
:100A2000652901D1149900E000210E9A5418A042C2
:100A300000DA441E002C1DD4844204DA285D3428D8
:100A400001DD392100E030212200681E831801E019
:100A5000641E5B1E521E1E788E42F9D0392902D1C7
:100A6000A95C491CA954002A04D50500641C0198FE
:100A7000401C0190019E13956846007869464870B5
:100A800000F0D2FE406A0078694608700E9D20B2E0
:100A9000002804DC149C0548784410301390684604
:100AA000807866280CD1761C24E000BFCC3700008B
:100AB00097750000A08601000000F03F84D79741A1
:100AC00068468078672846D130B20321C9438842FE
:100AD00047DBA84245DA761C02A8008F1299C0B203
:100AE000084203D120B2A84200DC050030B22D1A22
:100AF00000D5002537B2002F00DDBAE00898411C70
:100B000008913021059A1154002D05DC02A8008FB0
:100B10001299C0B2084206D00898411C0891694653
:100B20000978059A11547842854200DA6E4236B24D
:100B300070420B90AD1920B2854200DA2C0024B22D
:100B40000994220013990598089BC01800F050FBE7
:100B5000281B0C90DAE068464078612818D1702094
:100B60001BE020B2A84206DA02A9098F129AC9B284
:100B7000114200D105006D1E00D500256846407861
:100B8000672802D16520694607E04520694604E0F0
:100B900068464078412801D1502048700898411C8F
:100BA000089113990978059A11541398411C002D46
:100BB00005DC02A8008F129AC0B2104219D0089822
:100BC000421C08926A461278059B1A54002D10DDCB
:100BD000641E20B2854200DA2C0022B20598089BE0
:100BE000C01800F005FB24B2089800190890281BD3
:100BF0000B9005980899401869464978017031B200
:100C0000002903D42B214170871C03E02D22427060
:100C1000871C4E42002412AD300008E00A2100F08B
:100C200091FC30AA03C229703098641C6D1C00B27C
:100C30000028F3DC012C08DC6846407820210143C1
:100C4000652902D1302038707F1C002C09D130205A
:100C500038707F1C07E0641E12A8005D30303870C9
:100C60007F1C002CF7DC059808994018381A099069
:100C70004CE020B231B288421DDA22B213990598B5
:100C8000089BC01800F0B4FA24B208980019089024
:100C9000391B0B91002D05DC02A9098F129AC9B2EC
:100CA000114206D069460978059A11540998401CEA
:100CB00009900C952AE032B213990598089BC01848
:100CC00000F096FA0898C0190890A41B002D05DCC6
:100CD00002A9098F129AC9B2114205D0411C08918C
:100CE00069460978059A115420B2854200DA2C0031
:100CF00022B21398C1190598089BC01800F078FA21
:100D000024B2089800190890281B0B9002A83821DB
:100D1000405C14210140102900D0C2E007980899D6
:100D200040180B994018099940180C9940180F99D0
:100D3000884200DBB5E0081A0A90B2E002AA3A2025
:100D4000105C622808D068280ED06A2814D06C285D
:100D50001DD0712810D01AE0349801680868091D68
:100D6000349B1960C0B218E0349801680868091D06
:100D7000349B196080B210E034980368DB1D0720B3
:100D800083433498036003CB349C236006E034989B
:100D900001680868091D349B1960002102AB03C378
:100DA000108F1299C0B208425BD002A803C8002974
:100DB00001D1002855D068460078202101437829C8
:100DC0004FD1079815A930220A54401C421C0792A3
:100DD0006A4612780A5444E002AA3A20105C62285B
:100DE00008D068280ED06A2814D06C281DD071282D
:100DF00010D01AE0349801680868091D349B196006
:100E000040B218E0349801680868091D349B1960E5
:100E100000B210E034980368DB1D07208343349848
:100E2000036003CB349D2B6006E0349801680868AA
:100E3000091D349B1960C11702AB03C3002902DAF4
:100E400007982D2109E0108F204202D007982B210E
:100E500003E0C00705D50798202115AA1154401CAE
:100E6000079015A80799401805906846017802A8D0
:100E700000F03CF815E01498079034980068016879
:100E8000001D349A106015A801700AE0252015A9EC
:100E900008701498079068460078002801D04A70BE
:100EA00007940F980799401A0A99401A0899401A0E
:100EB0000B99401A0999401A0C99401A019002A8FE
:100EC0003821405C400701D5FFF733FA20206946FE
:100ED00008700198002801DCFFF72BFA019C329D75
:100EE000FFF71AFA0020C04335B0F0BDF2B586B066
:100EF000040025696F2901D1082707E00846202151
:100F00000143782901D00A2700E010273C2603CCB2
:100F1000083C04AA03C26A46127E642A03D06A46C9
:100F2000127E692A09D1002907DA04A803C8002221
:100F30000023121A8B4104A80CC004A803C800297E
:100F40000DD100280BD1206B002808D1082F3DD1EE
:100F50003820205C000739D53B26302035E002944C
:100F6000009504A830C8761E0196200029003A009A
:100F7000FB1700F061FC3032D0B23A280DDA00984D
:100F80008255200029003A00FB1700F055FC0400B0
:100F90000D0007D1002C05D10AE06846007E8218BA
:100FA000AF32ECE70298C068009989198842DAD319
:100FB000029C009D082F09D13820205C000705D530
:100FC000A85D302802D0761E3020A8553C20801B1A
:100FD000A061A919E160216B884206DA081A206233
:100FE000208F1C490140218710E000290ED53821AF
:100FF000615C14220A40102A08D1616B6269891A67
:10100000226A891A081A002800DD206207B0F0BDA4
:10101000F8B50026104F04000D00009214E0C00740
:1010200007D532003B002000290000F01BFB040024
:101030000D000098401000903000390032003B0055
:1010400000F010FB06000F0000980028E7D12000F8
:101050002900F4BDEFFF00000000244010B503009C
:101060000C001100A0689847A060002804D0E06A36
:10107000401CE062002010BD0020C04310BDF8B548
:101080000024002B11D007000E0014001D00217851
:10109000B068B847B060002809D0F06A401CF06220
:1010A0000020641C6D1EF2D104002000F2BD00205F
:1010B000C043F9E7C9B202788A4203D0401C002A33
:1010C000F9D100207047F1B401684218416848081E
:1010D000131800988068C9071ED5494640181BE0C0
:1010E0001778521C0770401C761EF9D1002C13D0C3
:1010F0001678521C89080D40032D01D11578521C19
:10110000290271184D424119A41C05D00D78491CC3
:101110000570401C641EF9D19A420FD01178521C00
:10112000032503260E4002D11678F61C521C0C092A
:101130000F2CD9D114780F34521CD5E700980C30FD
:10114000F2BC704780B5002801D100BF07A0064956
:101150000B68002B03D022220021984701E000F009
:10116000A9FB222002BD0000DC030020636F6E7328
:10117000747261696E742068616E646C65723A2085
:10118000626164206D65737361676500431C01785B
:10119000401C0942FBD1C01A70470268531C03600F
:1011A00011707047C9B2521E05D30378401C8B42A0
:1011B000F9D1401E7047002070472E0070B4103ADD
:1011C00003D378C9103A78C0FBD2530701D318C9AA
:1011D00018C001D508C908C0D20704D30B88038002
:1011E000891C801C002A01D50B78037070BC7047E5
:1011F0008B0701D18307E1D0124205D00B78491C3F
:101200000370401C521EF9D1704710B5144600F00F
:1012100002F8226010BD4A0053155B1C08D0520D25
:1012200006D003231B02FE3AD21A1305C91A7047CF
:101230000022704730B4012464054D00EC420BD805
:101240005D00EC4208D80C001C43640004431443C6
:1012500004D2994200D1904230BC7047FCD08B42FE
:10126000FAD18242F8E730B4012464054D00EC4223
:101270000BD85D00EC4208D80C001C43640004430A
:10128000144304D28B4200D1824230BC7047FCD060
:101290009942FAD19042F8E7124217D40023DB4377
:1012A0005B0D9C464B005B0D06D0634504D09B183C
:1012B000634502D21205891870476246090D114331
:1012C0000905002000B500BF00BF00BD52424B0021
:1012D0005B0DF1D05B1C5B05EED25B0D934102D937
:1012E0001205891A70470BD10B031B13C90FC907CD
:1012F000821C002043411343E4D912051143E1E766
:10130000C90FC9070020DDE7F4464A1805D200F0EE
:101310000FF801D580174008604700F009F8012157
:10132000C907884200D90800404260474A1812D2D3
:10133000400DC90208430121C9070843520D40214D
:101340000901521A521C06D452421F3201D4D04015
:101350007047C017704700207047430001004222C9
:101360001201D21E004207D002D4521E0018FCD532
:10137000C10A400512058918704700000100EED52A
:101380004042F446FFF7EBFF0122D20711436047CA
:10139000F0B40125ED070F005F404FD48B4200D120
:1013A000824205D98446100062468C461900634685
:1013B000DF184C18640D7F0D3AD0661C760537D0C7
:1013C000E61B352E34DCDB022B43DB0A0C0DC90295
:1013D0002943C912202E0DDB1700203E06D01F0026
:1013E000F741F3405F400026012A7741C018714160
:1013F0000DD217E01700F741F2405740F3415A4031
:10140000B340F3405A400026801859410AD3A21C29
:1014100052050FD0C207012F724117004008CB07B9
:1014200018434908641C24054208AF4170416141DA
:10143000F0BC7047641C21050020F9E76B4010E008
:101440006B40ABE7F742F3D1E943F1E72442EFD138
:1014500000200021ECE7F0B40125ED070F005F400C
:10146000EED40C00871A9C4105D2C01BA141D219B1
:10147000634169406B40AE0ADF184C18F442E1D278
:10148000640D7F0DE2D0E61B362ED1DCDB022B4350
:10149000DB0AA4460C0DC9022943C90A012E28DC27
:1014A00004D1D6075208DF073A435B08EF0A7642B9
:1014B0009041994114D039423BD1B619404149413C
:1014C000761C394204D1761C001849413942FAD0C1
:1014D000B9436746B74208D9A41B24052143A7E7AF
:1014E0000042EAD13642E8D1A2E7E40AE10700204F
:1014F0009EE7202E0BDD203E1F00F340F7415F40AA
:10150000012A002257417E42984191410BE0170089
:10151000F741F2405740F3415A40B340F3405A403C
:101520007E42904199410A0303D2641EB61940419C
:1015300049410027641E24054208AE4178416141BB
:10154000F0BC7047CA0F00D0494203105A400DD07A
:1015500004B500D3404200F009F8009AD20701D345
:101560004942124200D5404204BD0000094214D055
:1015700088420FD30122030C01D10004120400237E
:1015800000185B418B4200D35B1A5241F8D319001B
:101590001000704701000020704708B500F090F976
:1015A00008BDF0B40E005E400125ED072E40B446A4
:1015B000AE0ADF184C18F4423BD2F74241D2640D18
:1015C00043D07F0D38D0E41BC902DB0229432B43F3
:1015D000CF0ADB0A0600B61A9F4104D2641EB61970
:1015E0007F41B6185F416812800D241800188442AC
:1015F00022DCE80C0021B6197F41B61A9F4102D2C5
:10160000B6185F413F1C40414941F4D3241C21DD01
:101610002405B6197F41B61A9F4105D33743C60743
:1016200037430026012F7041614166463143F0BCCB
:101630007047FCD1F74205D20020C1434905490853
:10164000F3E704D00020C143F1E77F0DFAD000207A
:101650006146ECE72442FAD1401C61410F03F6D306
:101660000020E2E7F0B50E005E400125ED072E40B8
:10167000B446AE0ADF184C18F44208D2F7420ED234
:10168000640D01D07F0D12D100206146F0BD05D15F
:10169000F74201D87F0D05D10020C143F0BDFBD139
:1016A000640DF9D00020C143490549088FE0E419D1
:1016B000C902DB0229432B43DB0A460DC00231433A
:1016C0008E4630B487B295B27D432E0CADB2140C69
:1016D0007C43A419260C240425439CB27C43A41902
:1016E000190C7943270CC919A4B20F043C43090C07
:1016F000000C97B247432E0CBE193543ADB2170C00
:101700004743360CBF19A6B2BF193E043543240C1B
:101710003E0C36199FB24743BF19BCB23E0C891923
:101720001F0C47437F183E043443390C704680B287
:1017300097B247432E0CBE193543ADB2170C474341
:10174000360CBF19A6B2BF193E043543240C3E0C1B
:1017500036199FB24743BF19BCB23E0C89191F0C02
:1017600047437F183E043443390C77463F0C90B210
:1017700078432E0C80190604ADB22E43050CA0B29E
:101780002D18120C7A435019020C80B2240CA418A4
:101790009AB27A43121914042043120C89181B0CB4
:1017A0007B43C91830BCEF0A394203D1B619404116
:1017B0004941641E6F12BF0DE41B0BDBFF19BC42D5
:1017C00011DA240500274208AE417841614166469E
:1017D0003143F0BD641C05D1401C6141CF0201D3EF
:1017E0004908F4E750E75DE7613807E005E00100EC
:1017F00061391A2901D20120704741381A288041E5
:10180000C00F704701000939052901D3202801D1F3
:101810000120704700207047010041391A2900D289
:1018200020307047024870470248704700000000AF
:10183000DC020020A402002012422DD0994231D9AE
:1018400070B500251B4209D00C00002112E01100E8
:10185000FFF78CFE0A000021002370BD0942F6D07C
:101860000024012649186441944200D3A41A764109
:10187000F8D33100012601E0764109D20018644115
:101880006D41A41A9D41F7D2A4185D41B619F5D354
:10189000300022002B0070BD1B42CFD108B500F0F4
:1018A00011F808BD01D19042CAD202000B000021FC
:1018B0000020704780B5012000F006F801BDFEE76A
:1018C0007047FEE77047FEE780B500BF00BF024AE1
:1018D00011001820ABBEFBE72600020038B504005B
:1018E00014D0250080356868002803D128702000B6
:1018F00000F0FEFB2420686020680168012291430B
:101900000160200000F0B2F9012801D1012032BDB0
:10191000A06A002802D0200000F066FA2068416822
:10192000084A0A404260206881682A229143816007
:10193000FFE72068016801220A430260200000F0EE
:10194000B9FA32BDFFB7FFFFFEB504002268D069C7
:10195000116893680093BE4B034025005C35202638
:101960000E4001962026064002960026002B0FD13D
:10197000029B002B12D0019B002B03D1009BDB00AC
:1019800000D48CE06969002901D020008847F7BDA8
:10199000009BB04F1F4003D1AF4B0B4000D17EE006
:1019A000C30706D5CB0504D5012313622A6B134365
:1019B0002B630422830708D5009BDB0705D5022390
:1019C00027683B622B6B13432B63104208D0009BAC
:1019D000DB0705D523681A622A6B022313432B63A6
:1019E00002070CD5019A002A03D1009A994B1340A3
:1019F00005D0082223681A622B6B1A432A638022BF
:101A00001201104007D0480105D520680262286BFA
:101A1000202101432963286B002836D00298002832
:101A20000AD00198002802D10098C00004D5696945
:101A3000002901D020008847286B40272168896849
:101A4000394002D12821014024D0200000F0F8FACA
:101A500020688068074019D0EFF31080012181F3DE
:101A6000108821688A6840239A438A6080F310882E
:101A7000286A00280AD079498163286A00F0D6FBD9
:101A8000002802D0286A816B8847F7BD200000F04B
:101A90000FFCF7BD200000F00BFC2E63F7BD2B6997
:101AA000012B00D090E01023184200D0194200D141
:101AB0008AE013621020C04321688968490649D52D
:101AC000296A0A68526892B2002AE7D05C23E35A76
:101AD0009A42E3DA6A8009680968890634D4EFF328
:101AE0001081012282F31088226813685C4F1F4026
:101AF000176081F31088EFF31081012282F31088C0
:101B0000226893680127BB43936081F31088EFF349
:101B10001081012282F31088226893684027BB431A
:101B2000936081F310882021E9622E61EFF3108128
:101B3000012282F31088226813681840106081F334
:101B40001088286A00F036FB5C20205A6988411A08
:101B500089B235E05C21615A6A88891A6A46118027
:101B60006988002972D06946098800296ED0EFF390
:101B70001081012282F3108822681368394F1F40B8
:101B8000176081F31088EFF31081012282F310882F
:101B900022689368344F1F40976081F3108820219A
:101BA000E9622E616E61EFF31081012282F31088E9
:101BB000226813681840106081F310886846018815
:101BC000200000F076FBF7BD80235B03184207D0AE
:101BD000009F7F0204D51362200000F06BFBF7BD6D
:101BE000DA00802318420AD00B4002D1009B134038
:101BF00005D0A969002929D020008847F7BD4023D6
:101C0000184214D00B4012D0EFF31080012181F361
:101C1000108821680A6840239A430A6080F310887C
:101C20002020A862AE61200000F045FBF7BD024015
:101C300005D04A0003D5200000F03EFBF7BDC001EF
:101C400004D5002902D5200000F037FBF7BD0000C5
:101C50000F0800000100001020010004AD20000862
:101C6000FFFEFFFFDFFEFFFFFEFFFFEFF8B5050001
:101C700000270024286801688D4A0A40A96811439A
:101C80002A690A4369691143EA690A4302604168A3
:101C9000A04A0A40E9681143416081689E4A0A40AF
:101CA000A96911432A6A0A438260C16A0F229143DB
:101CB0006A6A0A43C262994A1021994B984208D134
:101CC00010688007800F1ED0022810D011D303287F
:101CD0000BE0944B984210D110680C22024012D0B5
:101CE000042A06D0082A02D00C2A04D00CE00221D3
:101CF0000AE0042108E0082106E08B4A904202D065
:101D00008A4A904200D1002131A6894880221202DD
:101D1000EB69934229D1002906D0022908D0042971
:101D20001ED008291FD048E000F09DFD002845D0B6
:101D300069680091696A4900715AFFF717FC400011
:101D40000099490840180099FFF710FC010010396C
:101D5000B04A914231D202400007400F104324E0C4
:101D600000F040FDE2E71000E2E7002906D002297A
:101D700008D004291CD008291DD01EE000F073FDF6
:101D800000281BD069680091696A4900715AFFF701
:101D9000EDFB0099490840180099FFF7E7FB0100A7
:101DA00010399C4A914208D280B22968C86005E087
:101DB00000F018FDE4E71000E4E701242800683093
:101DC0000121418001808760C7602000F2BD0000D2
:101DD000010002000400060008000A000C001000C8
:101DE00020004000800000012821415CC90706D581
:101DF00001684A68884B1340C26A1A434A60282126
:101E0000415C890706D501684A68844B1340026B20
:101E10001A434A602821415C490706D501684A688F
:101E20007F4B1340426B1A434A602821415C0907EB
:101E300006D501684A687B4B1340826B1A434A609F
:101E40002821415CC90606D501688A68764B134093
:101E5000C26B1A438A602821415C890606D5016855
:101E60008A68724B1340026C1A438A602821415CD5
:101E7000490611D501684A686D4B1340426C1A43FC
:101E80004A60426C80235B039A4205D14A68694BE1
:101E90001340826C1A434A602821415C090606D52A
:101EA00001684A68644B1340C06C1843486070472F
:101EB000F369FFCFF8B5040000258030C56000F05D
:101EC000F7FC07005D4E20680068000709D5009602
:101ED0003B00002280218903200000F02BF800281D
:101EE0000DD12068006840070BD500963B0000220A
:101EF0008021C903200000F01DF8002801D0032034
:101F0000F2BD21008031202048608860E5660D70B8
:101F10000020F2BDFFCFFFFFFFF4FF11541002407D
:101F2000003801400044004000480040004C0040A0
:101F30000024F400FEB5089F80242401002506003B
:101F400001916846027002933068C06901990140AE
:101F50000198814201D1012000E000206946097802
:101F6000884254D10020C0438742EDD000F0A0FC4D
:101F70000299401A874201D3002F1FD1EFF310803E
:101F8000012181F3108831680A68454B13400B60CA
:101F900080F31088EFF31080012181F310883168FD
:101FA0008A6801239A438A6080F310883000803069
:101FB00020214160816005700320FEBD306800680B
:101FC0004007C1D53068C0692040BDD03068046288
:101FD000EFF31080012181F3108831680A68304BDB
:101FE00013400B6080F31088EFF31080012181F320
:101FF000108831688A6801239A438A6080F31088C8
:1020000030008030202141608160C160D3E7002032
:10201000FEBD0000F0FF0000FFFFFDFFFFFFFEFF21
:10202000FFFFFBFFFF7FFFFFFFEFFFFFFFDFFFFF74
:10203000FFFFEFFFFFFF9FFFFFFFF7FFFFFFFF0126
:1020400010B5EFF31081012282F310880268136843
:10205000144C1C40146081F31088EFF310810122AE
:1020600082F31088026893680F4C1C40946081F3DF
:102070001088C16E01290BD1EFF31081012282F388
:102080001088026813681024A343136081F310883A
:102090002021882281500021C166016710BD000007
:1020A0005FFEFFFFDFFEFFFFFEFFFFEF80B5806AF0
:1020B0000100563100220A810A8000F0F9F801BDC2
:1020C00080B53748012142680A43426042681140A6
:1020D000009100998021490502680A430260006866
:1020E000014000910098C020C00000F0F9FB01BD44
:1020F00038B586B0040014220021684600F0FEFBCB
:10210000246801200221274A0023274DAC4220D118
:102110008403D5682543D560D5682C400594059C7B
:102120000424156825431560126814400594059A27
:1021300030220092019102930393049069461B4858
:1021400000F0E6FB002200211B2000F0C0FC1B2059
:1021500022E0174DAC4221D1440495682543956097
:1021600095682C400594059C14680443146012681B
:1021700002400592059A0C2200920191029303936A
:1021800004906946A020C00500F0C2FB0022002197
:102190001C2000F09CFC1C2000F09EFC07B030BD11
:1021A0003C1002403410024000380140000800504A
:1021B00000440040F0B5002809D00100243100227D
:1021C0002523C35C022B04D00423C3630A700120BF
:1021D000F0BD03681C680E25AC431C60446C334B97
:1021E00025681D402560046825680126B5432560E3
:1021F0002D4C2568AC464025475D1C253D400127F8
:10220000AF4065462F432760C46C856C6C60046DDD
:10221000002C06D024682340046D2360836D446D38
:1022200063602523C6540A700020F0BDF8B5002174
:10223000002401262522825C022A03D00421C163E6
:1022400001242EE0026813680E25AB431360026878
:102250001368B3431360436C144A1D6815401D6036
:10226000114B1D68AC464025475D1C253D400127AC
:10227000AF4065462F431F60C36C856C6B60036D78
:10228000002B06D01B681A40036D1A60826D436DE7
:102290005A602522865424228154816B002900D063
:1022A00088472000F2BD000004000240FFFEFFFF4F
:1022B000704770477047704770477047FEB507001A
:1022C0001BD0A84C3878C00719D5A1683820084021
:1022D000E1688025AD02102808D18807800F032807
:1022E00006D079686808814234D13BE00828F8D1EB
:1022F0002068054003D07868002800D1B5E138781F
:1023000080077BD5A06838210140E268B948BA4D02
:1023100010294ED19207920F022A4CD0F968002959
:1023200000D196E0216808403969014321602068A6
:10233000A10D0143216000F0BBFA3E0007002068B8
:10234000400500D57DE000F0B3FAC01B0328F6D3AA
:102350000320FEBDA022D202914207D12168820053
:102360000A43226021680843206007E02068A349EF
:10237000014021602068A24901402160786800285E
:102380000BD000F095FA060020682840B7D100F085
:102390008FFA801B6528F7D3DAE700F089FA060088
:1023A00020682840ABD000F083FA801B6528F7D363
:1023B000CEE70029B2D12268520502D5FA68002A78
:1023C0003ED0626815407A6912022A436260002991
:1023D0000ED121680840396901432160A4480121D8
:1023E00022689204520F9140FFF7C0F8A14908609B
:1023F000A148006800F096FB002821D1022538781A
:1024000000070AD5A06838210140182931D1206E73
:10241000284002D0B869002812D03878400700D48C
:10242000A9E000200190A06838210140202942D174
:10243000E06D054000D19EE0B868002800D09AE029
:1024400013E160680540706900022843606037004E
:10245000D4E7206889490140216000F029FA05008D
:1024600020684005CAD500F023FA401B0328F7D3A3
:102470006EE7B8690028206E0ED001210143216665
:1024800000F016FA0600206E2840C6D100F010FABF
:10249000801B0328F7D35BE701218843206600F007
:1024A00007FA0600206E2840B7D000F001FA801B22
:1024B0000328F7D34CE7E806E16B014008D1E16B54
:1024C0000143E163E16B0840009000980120019016
:1024D0006B4D2868C00512D4A00D009028680099A3
:1024E0000143296000F0E4F90600286800990140E2
:1024F00005D100F0DDF9801B0328F6D328E7B86882
:102500000121012805D00528E06D06D104220243EF
:10251000E265E06D0143E16505E08843E065E06D5B
:1025200004218843E0650226B86800280CD000F03A
:10253000BFF90500E06D304016D100F0B9F9401B3D
:10254000A4498842F6D303E700F0B2F90500E06D34
:10255000304009D000F0ACF9401B9E498842F6D3C8
:10256000F6E600BF001002400198002803D0E06B9F
:1025700099490140E163F869002855D0A1683822E3
:102580000A40102A52D08026B604944902282068B6
:1025900038D10140216000F08BF9050020683040FF
:1025A00005D000F085F9401B0328F7D3D0E6E0689A
:1025B0008B490140386A0843796A0143B86A0002CE
:1025C0000843F96A0143386B0843E06020687108EA
:1025D00001432160E068F1000143E16000F068F927
:1025E0000500206830401FD100F062F9401B03282D
:1025F000F7D3ADE6FFC7FFFFFF80FFFFFFFFFEFF42
:10260000FFFFFBFF0140216000F052F90500206848
:10261000304005D000F04CF9401B0328F7D397E673
:10262000E06898490140E1600020FEBD01281CD00F
:10263000E0688107890F3A6A914216D17021014002
:102640007A6A914211D1FE21C9010140BA6A12028F
:1026500091420AD1F82189030140FA6A914204D1DA
:10266000400F4007396B8842DED00120FEBD0000DC
:102670000024F400A00200209C020020FFFEFFFFC7
:1026800000700040F8B5070066D000917E480068F1
:102690004007400F884218D27B4C206807218843AE
:1026A00000990143216000F003F9009D06002068B5
:1026B0004007400FA84207D000F0FAF8801B4549B8
:1026C0008842F4D30320F2BD00953968704C022093
:1026D00001420CD0490704D5A168E022D2010A4387
:1026E000A260A168694A0A40B9681143A160072540
:1026F000ED433978C90732D57968012918D12068A6
:10270000800329D5A06828400143A16000F0D0F8DB
:102710003E000700A068382101407068C000814277
:102720001CD000F0C5F8C01B2A498842F2D3C9E783
:10273000022902D12068800103E0002903D120682A
:102740004005DFD408E0032903D1226E1040D9D11F
:1027500002E0E26D1040D5D10120F2BD37000098B3
:10276000494909684907490F884217D24648006815
:102770000540009828434449086000F099F8009DFE
:102780000600414800684007400FA84206D000F00C
:102790008FF8801B0F498842F3D393E738784007BE
:1027A00005D5A0683B490140F8680843A06000F0E7
:1027B00019F83949A2681205120F9200895CC906FE
:1027C000C90EC840354908603548006800F0AAF9CC
:1027D000F2BD000089130000FFFFFFEFFFFFFFFEC7
:1027E0008C80C11F30B507212F48294C3823A2689F
:1027F0001A4006D123680122DB0A19408A401100E1
:102800001EE04208A5681D40082D01D1100030BD12
:10281000A5681D40102D16D1E368E5682D092940F3
:10282000491C7F259B079B0F032B00D11000FEF74F
:102830009DFEE168090A0D406843E168490F491CA3
:10284000FEF794FE30BDA0681840202802D18020F9
:10285000000230BDA0680340182B02D1FA20C0014D
:1028600030BD002030BD0F4801680C4800680F4A99
:102870004904490F8900515CC906C90EC840704718
:1028800000000000FCFFFEEF00200240FFF0FFFF11
:1028900000100240FF8FFFFF50430008A0020020FD
:1028A0009C020020081002400024F400D8430008D5
:1028B00001484068704700BF9402002010B5002412
:1028C0000B480168820D0A430260032000F02AF9D8
:1028D000002801D0012401E0FFF7F2FB200010BD29
:1028E00004490A68044B134018430860704700000D
:1028F0000020024000000140FFF9FFFF10B5040076
:10290000080011000200200000F034F9200010BD82
:10291000FFB500220F2302932CE0052602E0574F5B
:10292000B842FAD1AE402643009C2660544C25683C
:10293000DC4325404E68F60200D51D43504E3560FD
:10294000756825404F68BF0200D51D4375604D4D29
:102950006E6826404D68AD0300D51E43494D6E603C
:102960002E6834404E68F60302D526001C0034431E
:102970002C60521C0B681C00D44078D00125954077
:102980002B40F6D054000327A740FE4301964E6823
:10299000B707BF0F012F03D0B607B60F022E0ED117
:1029A0008768019E3E40CF68A740374387604668EE
:1029B000AE434D68EF06FF0F9740374347600D79F0
:1029C000AD07AD0F032D25D0C568019E2E408D6843
:1029D000A5403543C5600D79AD07AD0F022D19D166
:1029E000D508AD0045192E6A039697001C263E4077
:1029F0006F463E70039EB446029F6E463678B740DF
:102A00006646BE43B4460F696E463678B7406646A2
:102A100037432F6207680326019D3D404F683740CA
:102A2000BC4627006446BC402C4304604C68350417
:102A300025409ED0144C9508AD006419009424687C
:102A4000D70018253D40029FAF40BC43A027FF059B
:102A5000B84201D1002665E70C4FB84201D10126EA
:102A600060E70B4FB84200D059E702265AE7FFBD96
:102A7000002A01D08161704781627047000C0050CC
:102A80000018024080180240601802400004005004
:102A90000008005010B5C20018231340FF249C40CA
:102AA000E2438907090E9940030004D419489B08A2
:102AB0009B00C01806E0184B0007000F083880087C
:102AC0008000181803681A401143016010BD80B5DA
:102AD000FFF7E0FF01BD0000010005D40121C006A1
:102AE000C00E81400D480160704710B5401E802126
:102AF0004904884201D3012010BD094C60600321C4
:102B00000020C043FFF7C6FF0020A060072121601E
:102B100010BD000000E400E01CED00E000E100E07A
:102B200010E000E070B5060000240F4D2978002960
:102B300016D0FA208000FEF719FD01000B4800684E
:102B4000FEF714FDFFF7D1FF002809D1042E07D2AC
:102B5000002231000020C043FFF7B9FFAE6000E063
:102B60000124200070BD00BF94020020A0020020BC
:102B7000002200BF094202D0491E4254FCD17047D6
:102B8000F8B586B0544855490978405C69460870E4
:102B9000534C00270125AF4E68460078242810D1F9
:102BA00030216554F77034216754332167547770AE
:102BB000382160549C2160543221655431202554C1
:102BC0007EE03020205C0128FAD13120205C097899
:102BD00022183823D154401C312160543220205C0B
:102BE00006280DDA6A46127823009C331A54401CDA
:102BF00032216054F078694609784140F1705FE015
:102C000038A120009C3000F0A3F9002806D1332021
:102C100025546846007800F071F808E030216754C8
:102C2000002300220C2100BF30A000F09BF92A48AD
:102C30002A490978405C0A2842D130216754BB49AF
:102C4000F0782E228A5C90422FD120003022FEF7AD
:102C5000B5FA200008300CC82820205C532802D187
:102C60002100C43101E02100A431684600F0ECF9F4
:102C7000002300221721684600F074F9200010306C
:102C80000CC82920205C572803D18220400021183D
:102C900001E02100E431684600F0D6F9002300226B
:102CA0001721684600F05EF905E0002300220A21A2
:102CB000A4A000F057F9062120009C30FFF758FF30
:102CC00006490878401CC2B2322A00DB0020087096
:102CD000002007B0F0BD000030030020E303002017
:102CE00000000020244750474741000057524F4EF4
:102CF00047205245434F524400000000F8B5554963
:102D000049786A465170694649780E2907D00D28DE
:102D100005D00A2803D04F49CA784240CA70694694
:102D20004E784C498A788B18511C4A4C24796D4650
:102D30002C707E4C6D780E2D23D802A77F5D7F000E
:102D4000BF4400BF081020313E4F5C69788A9AA7C3
:102D5000B7C7D5002C2814D101260F217648FFF7DC
:102D600007FFDEE02C2866D13A4D281D00F01CFB41
:102D700000F027FB20600F21281DFFF7F9FE00223D
:102D80000226CFE02C2856D1324D0021281D00F01C
:102D900012FB2200083203C20F21281DFFF7E8FEB4
:102DA00000220326BEE02C281CD16846007828218A
:102DB00060540F216048FFF7DBFE00220426B1E0DB
:102DC0002C2838D1234D0021281D00F0F4FA2200D0
:102DD000103203C20F21281DFFF7CAFE002205266C
:102DE000A0E02C2872D168460078292160540F2178
:102DF0005148FFF7BDFE0022062693E02C2802D1A1
:102E0000002207268EE000F0B3FB12494E788A7844
:102E10002C21605486E02C280DD10E4D281D00F089
:102E2000A7FB2D2160540F21281DFFF7A1FE0022D2
:102E3000082677E02C286FD1064D281D00F0B4FA43
:102E400000F0BFFAA0610F21281DFFF791FE0022BC
:102E5000092667E0C80300202C285DD1374D281DC6
:102E600000F0A2FA00F0ADFAE0610F21281DFFF793
:102E70007FFE00220A2655E02C2827D168460078DC
:102E80002A2160540F212C48FFF772FE00220B26E6
:102E900048E02C2840D1294D281D00F085FA00F08B
:102EA00090FA20620F21281DFFF762FE00220C26F7
:102EB00038E02C280AD1684600782B2160540F2175
:102EC0001D48FFF755FE00220D262BE01B49087117
:102ED00028E02C2820D1194D281D00F049FB606204
:102EE0000F21281DFFF744FE00220E261AE00D28B0
:102EF00010D1124D10220021281D00F087FB2E2139
:102F000060540F21281DFFF733FE00260022012008
:102F1000287007E02A2805D018710A00D0B20F28BF
:102F200000D10022054846708270F1BD9803002050
:102F30000020034908707047CC030020C80300201C
:102F4000E4030020424144205245434F52440000D4
:102F500002780B78002A03D0401C491C9A42F7D013
:102F6000D01A7047FAB583B00500140000206946F6
:102F7000087068468689007C002800D1B61C00F0E5
:102F80004FF801222D490B784F78BB4201D10192B5
:102F900001E000230193B6B286423BD200220295A3
:102FA000274F0EE0029B9B5C002B01D1012C07D127
:102FB0004D787B556D1CEBB2322B00DB00254D703C
:102FC000521C6B469B899A42ECDB6A46127C002AB3
:102FD00010D14A780D24BC54521CD4B2322C00DBE0
:102FE00000220A24D5B27C55521CD3B2322B00DB0E
:102FF00000224A70019800280ED0EFF310800121C2
:1030000081F310880F490A68802313430B6080F313
:10301000108801E0684602706846007805B0F0BD8F
:103020000648417800780300814201D2581A02E034
:103030003220401AC01880B270470000E003002020
:1030400064030020004400400CB418B583B00400B1
:103050000A0006A8029001940020009002AB01A98A
:10306000084878441E30FDF727F80021019A1170B6
:10307000002801D40198001B04B0019910BC03B0D2
:10308000084700BF17E1FFFFFBB584B0002A00D15D
:10309000EAE004A803C877A430CC04400D4002D174
:1030A000002C00D1E0E0080041004915491C02D184
:1030B000000300D1D8E00020B349002A5AD5544279
:1030C0002B4D7D44AA3508260AE0E20705D502000B
:1030D0000B0003CD083DFEF7C5FA64080835761EDF
:1030E000002C01D0002EF0D106000F006A4604A883
:1030F00003C8FEF78AF8009D32003B00FEF751FA44
:103100002A00FEF7C9F804AA03C25AA6C0CE04A832
:1031100003C8394002D1002800D18CE004A803C8BC
:10312000080041004915491C02D1000300D182E08A
:10313000002C00D17FE004A803C86A46FEF765F8BA
:10314000009D92A20CCAFEF78DFA2A00FEF7A4F8A1
:1031500032003B0002400B4001D1002A69D04B00F5
:103160005B155B1C01D10A0363D0641E61D0E4E7E8
:10317000981100005FDD3E4D7D44FF350B3D082674
:10318000012714003C4205D002000B0003CD083D8E
:10319000FEF768FA64100835761E002C01DD002E5B
:1031A000F0D1260004000D006A4604A803C8FEF70B
:1031B0002CF8009F22002B00FEF754FA3A00FEF78D
:1031C0006BF804AA03C22BA003C802AA03C204A876
:1031D0000CC802A803C81040194001D100282AD009
:1031E00004A803C8080041004915491C01D1000387
:1031F00021D0002E1FDD04A803C834006A46FEF764
:1032000004F8009D63A20CCAFEF72CFA2A00FEF710
:1032100043F802AA0CCA02400B4001D1002A08D090
:103220004B005B155B1C01D10A0302D0641E002C0D
:10323000E4DC04AA03C204A803C80EA20CCA02401C
:103240000B4001D1002A06D0080041004915491C55
:103250000AD1000308D1069C00BF00BF002C03D098
:10326000206801210143216004A803C807B0F0BD14
:1032700098100000FFFFFFFFFFFFFF7FF9B587B049
:103280001500002B01D0002018600E00079C07A835
:1032900000F0C1F90107CA0F05920821884304957F
:1032A000012829D10220009001AB320007992000AB
:1032B00000F03EFA050002D10020002117E002983C
:1032C000FEF75CF8022D12DB01AC08346D1E002203
:1032D000324BFEF7C7F906000F002068FEF74EF8E4
:1032E00032003B00FEF754F8241D6D1EEFD1089B01
:1032F000049A019C12192EE002282FD1009001ABF4
:1033000032000799200000F0FDFA050002D10020EC
:1033100000211BE00298FEF731F8022D16DB01AC0C
:1033200008346D1E02000B0000201D49FEF79AF9BB
:1033300006000F002068FEF721F832003B00FEF780
:1033400027F802000B00241D6D1EEDD1019AFDF738
:10335000A3FF089B049AFFF797FE0CE0032802D115
:103360000020104907E0042803D10020C043410891
:1033700001E000200021059A002A02D080221206D6
:10338000514009B0F0BD00000000F03F436FAC6455
:103390002806C80A3CBF737FDD4F157565CDCD414A
:1033A0000000B0410000F07F80B500230022002122
:1033B000FFF764FF04BD80B500230022FFF75EFF26
:1033C00004BD012252054B18DA4201D95815704745
:1033D0005B0D0722D2019B1A10D9FF2B1DD2DB05F2
:1033E0000122D2070A4013430903020D1143490A7F
:1033F000C200524100D9491CC81870470AD1800A3E
:103400000A0302435212921C04D9D3070B40D00581
:1034100018437047C80FC0077047C80F0002FF303D
:10342000C0057047FCB587B00C001500002B01D01B
:10343000002119600390064600E0761C307800F009
:103440007DFB0028F9D1300001782D2901D02B29EE
:1034500003D16A461170401C02E02B216A461170AC
:103460000194002D03D4012D01D0252D04DB002C67
:1034700054D00398206051E0002D0ADD102D16D1A4
:103480000178302913D1417820220A43782A0ED1BD
:103490000AE00178302901D00A2508E0417820228D
:1034A0000A43782A02D11025801C00E008250690E6
:1034B00000E0401C01783029FBD0002405902B4A05
:1034C0007A44A83228326B465A700295049F050050
:1034D0000494264E7E44943608E004946946497864
:1034E000471AFFB202984443E4196D1C287800F093
:1034F0002EFB029A010030002830FDF753FE002811
:10350000EBD1029938002F00049D069ABA4207D1E8
:103510000198002802D0039801990860002022E059
:10352000059ABA1A735CD21A002A11D405DC201A43
:1035300003D3FEF71BF8A8420AD000BF00BF0898CB
:10354000002802D00120089908600024E44305E027
:10355000684600782D2801D16042040001980028B7
:1035600000D00760200009B0F0BD00BF100D0000C2
:1035700080B5FFE700230A220021FFF753FF02BDB9
:10358000F7B50D001E00002D00D16D4601900446D8
:1035900000E0641C207800F0D1FA0028F9D12778E7
:1035A0002D2F01D02B2F06D1641C207800F0C6FAF5
:1035B00000280AD100E02B27029A330029002000BE
:1035C000FFF730FF29688C4203D101982860002062
:1035D00005E02B2F05D180210906884207D203B0D0
:1035E000F0BD2D2FFBD18021090688420BD900BFE9
:1035F00000BF002E01D0012030602D2F01D10846E0
:10360000EDE7C843EBE741420800E8E780B5002357
:10361000FFF7B6FF02BDF1B582B00E0004680027C7
:10362000002500E0641C207800F088FA0028F9D119
:1036300020782D2801D1082501E02B2800D1641C19
:103640002178202020220A4300966E2A25D1617815
:103650000143612903D1A17808436E2802D0029862
:10366000046815E0E41C25000427287828280FD1D9
:103670006D1C2E78300000F073FA0028F8D1303E2F
:103680000A2EF5D328785F28F2D0292800D16C1CA7
:103690000098002846D0046044E0692A26D1617869
:1036A00001436E2903D1A1780143662902D0029813
:1036B000046817E0E41C03272F432178014369299C
:1036C00010D1617801436E290CD1A1780143692999
:1036D00008D1E1780143742904D12179084379287C
:1036E00000D1641D002E1DD034601BE0302917D19D
:1036F00061780843782813D1A01C01782E2900D1C5
:10370000401C007801006139062906D301004139C7
:10371000062902D330380A2802D2A41C022700E06E
:1037200001272F4302980460380003B0F0BDFEE784
:10373000F5B591B00D001900189A00200290D30041
:103740009A182D2A00DD2D220860486000270123E9
:1037500001E06D1C01272C78302CFAD00026009354
:1037600005AC18920FE00A68521C0A602A78302AC9
:1037700007D0009805E0189B9E42F4DAD032A2559B
:10378000761C6D1C009F2A781300303B0A2BF2D365
:1037900001910390FEF748F82978406A0078814249
:1037A00000D16D1C002E01980ED1297830290BD143
:1037B0000168491E01606D1C009FF6E7302901D0A9
:1037C000009903916D1C009F29780A00303A0A2A5B
:1037D00009D2189A9642F1DAD031A155761C0168C7
:1037E000491E0160EEE701951899039A0397002A94
:1037F00004D0621E525C521C631E5A54050007E03E
:10380000601E805D002809D12868401C2860761E53
:10381000002EF5DC02D100202070009E03980028C5
:1038200060D000200490092430000921FDF78AFEB1
:10383000641A20000921FDF785FE002901D00098B7
:103840000290029F0296049E18E0B80028180168B2
:103850008A0051184900009A891801600CE005A8F7
:10386000805D009020000921FDF76CFE0029ECD15D
:103870007F1C0098B9006850641C761C0298864230
:10388000EDDB02970198007820210143652929D1B9
:10389000019800900198431C1C782B2C01D02D2CF2
:1038A00001D15B1C00E02B240026002109E0144E0E
:1038B000B14204DA8E0071184900091830395B1CD6
:1038C000012618780700303F0A2FF0D301932D2CE2
:1038D00001D148420100286840182860002E01D11B
:1038E000009801901299002906D00398002801D071
:1038F000019800E011980860029813B0F0BD00BF75
:1039000000E1F505F5B58FB0169800220392C200CC
:10391000101A232800DD232000221A605A60002696
:1039200001E0491C01260C78302CFAD0002400BF9D
:1039300076A20092012202920D001F00169010E064
:103940003868401C38600AE01699A142F8DB00BFD5
:1039500074A1009A801A085C05A90855641C6D1CA6
:10396000029E00BF69A016222978FDF71BFC0028E3
:10397000EAD1049701962700FDF756FF2978406A9F
:103980000078814200D16D1C002F0BD12C00049EC9
:10399000019D2078302819D13068401E3060641CA9
:1039A000029DF6E72C00049E019D0FE01699B94296
:1039B0000ADB00BF5BA1009A801A085C05A9C85504
:1039C0007F1C3068401E3060641C029D16222178E6
:1039D0004EA0FDF7E7FB0028E8D10094169801956A
:1039E000B84218DA05A9095C072906DD05A9491EB0
:1039F000095C491C05AA521E115407003068401C7E
:103A0000306008E005A8401EC05D00280AD130687B
:103A1000401C30607F1E002FF4DC03D1002069467B
:103A20000875029F306880003060019800285ED0E1
:103A300000200490072438000721FDF783FD641A55
:103A400020000721FDF77EFD002901D00298039098
:103A5000039D0397049F16E0A80030180168090130
:103A6000029A891801600CE005A8C05D0290200050
:103A70000721FDF767FD0029EED16D1C0298A90012
:103A80007050641C7F1C03988742EDDB03950098FF
:103A9000007820210143702929D1009802900098D4
:103AA000431C1C782B2C01D02D2C01D15B1C00E079
:103AB0002B240025002109E0134DA94204DA8D00D2
:103AC00069184900091830395B1C0125187807006E
:103AD000303F0A2FF0D300932D2C01D14842010032
:103AE000306840183060002D01D102980090109984
:103AF000002906D00198002801D0009800E00F9816
:103B00000860039811B0F0BD00E1F50530313233A3
:103B100034353637383961626364656641424344FF
:103B200045460000000102030405060708090A0BC8
:103B30000C0D0E0F0A0B0C0D0E0F000010B504003B
:103B4000FDF770FE01002000096A884710BD10B51E
:103B50000400FDF767FE01002000896A884710BD58
:103B600010B50400FDF75EFE0100200009698847DA
:103B700010BDFEE7F8B586B0FEF7A0FE00F010F924
:103B80001422002101A8FEF7B9FE7A48016801223B
:103B90000A4302600168CA07D20F0092009904210B
:103BA00002680A4302600068014000910098A02466
:103BB000E405002220212000FEF75AFF202001907A
:103BC0000120029000200390049001A92000FEF73C
:103BD0009FFE694C694820659627BF0167650020F4
:103BE000A065E06520660C266666A066E066206734
:103BF0006067A06720005030FDF770FE002801D0FC
:103C000000F00DF900212000503000F028F90028C4
:103C100001D000F004F900212000503000F038F904
:103C2000002801D000F0FBF82000503000F0FAF836
:103C3000002801D000F0F3F82500E0355048286056
:103C40006F600020A860E86028616E61A861E8618B
:103C500028626862A8622800FDF740FE002801D0B3
:103C600000F0DDF80021280000F0F9F8002801D06C
:103C700000F0D5F80021280000F00AF9002801D052
:103C800000F0CDF8280000F0CDF8002801D000F0B9
:103C9000C6F8EFF31080012181F3108837490A68D4
:103CA000202313430B6080F31088002535480078EB
:103CB000002801D033490D7033480078002801D026
:103CC00031490D7031480078002801D02F490D701E
:103CD000207861786A461170A278E3782C490978D7
:103CE00000292FD000202A49087001210122231D1C
:103CF000D6B29B5D43401800521CD3B2412BF6DD77
:103D000001220023261DD7B2F65D5E403300521C0F
:103D1000D6B2422EF6DD6A46137001230022261D1C
:103D2000DFB2F65D564032005B1CDEB2412EF6DBA0
:103D30000023261DCFB2F65D5E403300491CCEB293
:103D4000062EF6DB2070684600786070A270E37083
:103D50001048007810490978884201D0FEF710FF1A
:103D60000E4800780128A1D10C480570FFF7E0F853
:103D70009CE700003410024024010020003801407C
:103D800000440040240300202503002026030020D7
:103D900027030020E2030020E3030020E4030020C7
:103DA00010B598B0342200210BA8FEF7A7FD102211
:103DB00000216846FEF7A2FD1C22002104A8FEF7A0
:103DC0009DFD8020800000F0B9F802200B90FE30AD
:103DD0000E9000240F944020109012940BA8FEF730
:103DE0006DFA002801D000F01AF807200090019425
:103DF0000294039400216846FEF744FC002801D099
:103E000072B6FEE7032004900594069404A800F01F
:103E1000BBF8002801D072B6FEE718B010BD72B62C
:103E2000FEE7FEE730B5010080310A78012A01D1B2
:103E3000022030BD01220A7024224A600268136801
:103E400014680125AC43146000224266224C1C40D9
:103E500000680460202048600A70002030BD70B502
:103E60000400250080352878012801D1022070BD8A
:103E700001202870242068602068066802680123F9
:103E80009A43026020688268D200D208114317E08A
:103E900070B50400250080352878012801D1022062
:103EA00070BD0120287024206860206806680268C0
:103EB00001239A43026020688268084B134019432B
:103EC0008160200000F00CF8206806602020686007
:103ED0000020287070BD0000FFFFFFDFFFFFFFF133
:103EE000F8B50400606E002802D10120012517E01A
:103EF000206881680901490F00918068410F00BF67
:103F00000CA600BF09A7785CC000715CFDF71AFB26
:103F100005000098385CC0000099715CFDF712FB49
:103F2000210068314D800880F1BD000001010103CE
:103F300007010000080402040801010110B50E4C3D
:103F400021680E4A0A4002432260610D884210D166
:103F50000B480068062148430A49FDF707FB401C4F
:103F600000E0401E6169490503D50028F9D103200E
:103F700010BD002010BD000000700040FFF9FFFFE1
:103F8000A002002040420F00FEB5040000206A4657
:103F900010704E4D2168890355D501908020400551
:103FA000296B014008D1296B01432963296B084023
:103FB000019001980120019045480068A90D014336
:103FC00043480160FEF774FC060041480068C005E4
:103FD00005D4FEF76DFC801B0328F6D323E0296D82
:103FE000C020800008403B4F00280ED0A1698842C5
:103FF0000BD0286D3840296D802252020A432A6571
:10400000296D354A0A402A652865C0070FD5FEF795
:104010004FFC0600286D800709D4FEF749FC801B81
:104020002E498842F6D303206946087004E0286DC3
:104030000740A069384328650198002803D0286B01
:104040002749014029632078C00705D5A86C0321C2
:10405000884361680143A9642078800705D5A86C6E
:104060000C218843A1680143A9642078800605D506
:10407000A86C1C490140E0680843A8648020C00186
:10408000216801400DD0A96C8900890862690A4342
:10409000AA6461690204914203D1296882000A433B
:1040A0002A60216809050DD5A96C0F4A0A402169CB
:1040B0001143A9642169814204D128688021490201
:1040C0000143296068460078FEBD00000C100240E4
:1040D00000700040FFFCFFFFFFFFFEFF89130000A0
:1040E000FFFFFFEFFFCFFFFFFF3FFFFFFEE7FEE712
:1040F0007047704710B500F083F83649364882881B
:10410000531801221C0401D102700A238380C38842
:104110005B181C0401D142701923C38003895B180A
:104120001C0401D1827064230381438959180B0454
:1041300002D1C270FA218900418110BD10B5274813
:10414000C26920210A400DD0026811400AD0436A9A
:1041500023490A78234CA354521CD3B2322B00DBE0
:1041600000220A708168C90700D5C0691E48FDF7A2
:10417000EBFB10BD80B51D48026880210A4011D0BC
:10418000C26911400ED01A490A781A4B1B789A421C
:1041900014D0194B9B5C8362521CD3B2322B00DBD0
:1041A00000220A70026840210A4003D0C2690A4016
:1041B00000D001621148FDF7C7FB01BDEFF310818C
:1041C000012282F31088026880239A43026081F3FF
:1041D0001088E7E7FFFF00002403002000380140BB
:1041E000E20300203003002074010020004400405E
:1041F000E0030020E103002064030020040200200B
:104200000248416802788918416070479402002092
:10421000686A6C747A4C00007072696E74665F73C1
:104220003A20256E20646973616C6C6F7765640059
:104230007072696E74663A2062616420256E206136
:104240007267756D656E74007072696E74665F7307
:104250003A2062616420257320617267756D656E16
:1042600074000000000000006E616E004E414E00C0
:10427000696E6600494E46003000FEE700002115D9
:10428000110E0D0C0B0B0A0A090909090908080887
:1042900008080808070707070707070707070707AA
:1042A0000700000030313233343536373839616237
:1042B000636465666768696A6B6C6D6E6F70717256
:1042C000737475767778797A0000000070B40123F2
:1042D000002413E00168001D194202D04D46691800
:1042E000491E0C60091D121F042AFAD20D00960700
:1042F00001D50C80AD1C1A4000D02C700268001D46
:10430000002AE7D170BC7047000000000000244084
:104310000000000000005940000000000088C34079
:104320000000000084D797410080E03779C3414303
:10433000176E05B5B5B89346F5F93FE9034F384D0B
:10434000321D30F94877825A3CBF737FDD4F1575B7
:10435000000000000000000000000000000000005D
:10436000000000000000000000000000000000004D
:104370000100000002000000030000000400000033
:10438000060000000700000008000000090000000F
:1043900010B5074979441831064C7C44163404E0C2
:1043A000081D0A68891888470100A142F8D110BD8C
:1043B000080000002400000015FFFFFFB800000007
:1043C0003003002000000000FFCCFFFFB30000001E
:1043D0008C01000000000020000000000000000030
:1043E00000000000000000000100000002000000CA
:1043F000030000000400000000F00DF8002801D0C8
:10440000FFF7C6FF00BF00BF002000BF00BFFFF7DF
:10441000B1FB00F002F80120704780B500F002F80F
:1044200001BDFEE707463846FDF74EFAFBE7FEE71B
:104430000548014603B4684680F3098800BF00BF01
:1044400000BF00BFFFF7D8FFA5EDF5FE014880478C
:10445000014800477D44000831440008FEE7FEE7BC
:10446000FEE7FEE7FEE7FEE7FEE7FEE7FEE7FEE724
:10447000FEE7FEE7FEE7FEE7FEE7FEE7704700F235
:10448000920001F00A034C617469747564653A2006
:104490002566B08120F2042D21F0020B4C6F6E676F
:1044A000419120F105411101103D244750474741FA
:1044B0002C3036343935312E3030302C32333037E1
:1044C0002E313235362C4E2C31323031362E3434BA
:1044D00033382C452C312C382C302E39352C3339AF
:1044E0002E392C4D2C31372E3807F005FF2C2A366B
:1044F000350D0A0001F10201560125220408F005DC
:104500000724F4007E4400080452FF01E3BA1114AA
:10451000200400005A1300084C2002A40200204B83
:104520002002EF1700080852E908100305180008D8
:10453000ED0C43191810E10192011500060A00194B
:05454000006400E80327
:04000005080044317A
:00000001FF
