:020000040800F2
:100000001805002085210008DD1F0008DF1F0008FB
:10001000E11F0008E31F0008E51F000800000000C2
:10002000000000000000000000000000E71F0008C2
:10003000E91F000800000000EB1F0008ED1F00088A
:1000400095210008992100089D210008A1210008A0
:10005000A5210008A9210008AD210008B121000850
:10006000B5210008B9210008BD210008C121000800
:10007000C5210008C9210008CD210008D1210008B0
:10008000D521000800000000D9210008DD2100086A
:10009000E1210008E5210008E9210008ED21000820
:1000A000F1210008F5210008F9210008FD210008D0
:1000B0000122000805220008092200080D2200087C
:1000C0001122000815220008192200081D2200082C
:1000D0002122000825220008292200082D220008DC
:1000E0003122000835220008392200083D2200088C
:1000F00041220008452200084922000800000000B3
:10010000000000004D2200080000000051220008FD
:100110005522000800000000592200085D22000856
:100120006122000865220008692200086D2200088B
:100130007122000800000000000000007522000885
:10014000792200087D220008000000000000000065
:10015000000000000000000000000000000000009F
:1001600000000000000000000000000081220008E4
:1001700085220008000000000000000000000000D0
:1001800000000000892200080000000000000000BC
:10019000000000000000000000000000000000005F
:1001A00000000000000000008D22000891220008DD
:1001B00095220008992200089D22000800000000F6
:1001C00000000000A1220008000000000000000064
:1001D000A5220008A922000838B5040001D1012099
:1001E00032BD00F0E7F818B900F0E0F800F07FFB4E
:1001F000FFE702206870211D206800F066F90120E9
:100200002873A870E87028716871A871E871287265
:100210006872A872E8726870002032BD38B50400B8
:1002200001D1012032BD00F0C5F818B900F0BEF8C8
:1002300000F04CFBDDE7524B98427047456C45F4AB
:100240000045456470472068012200F0E9BA206843
:100250004A4B4D4A4D499842704770B500F08AF8B4
:1002600009B902780FE0042908BF42780BD00829A9
:1002700008BF827807D00C2908BFC27803D01029A4
:100280000CBF02794279012A01D0012070BD11B959
:10029000022202704EE0042904D10222427000F0D2
:1002A00064F80CE0082904D10222827000F058F8AA
:1002B00005E00C292ED10222C27000F04CF8C26079
:1002C000FFF7C1FFFFF7C3FF18BF904208D0884275
:1002D0001FBFDFF8C050A842DFF8BC60B04201D1B8
:1002E000FFF7ACFF2068984218BFB0F1804F09D0EB
:1002F000FFF7A1FF1CBF234DA84203D0904218BFB7
:1003000088421AD100F01DF818BFB1F5803F16D011
:10031000206812E0102902D102220271D0E70223E4
:100320004371080006D00429B9D00829BED00C2991
:10033000C3D0C5E700F00AF8C1E700F032F80020AA
:1003400070BD816812480140062970472068C26864
:1003500042F0020270472068C26842F01002704703
:100360002068C26842F0080270472068C26842F004
:1003700004027047044604F13E007047002C01401F
:1003800000040040000800400034014000400140EB
:10039000070001000044014000480140C160012203
:1003A0002868016841F0010101607047002129704F
:1003B0002046704704F13C056878704738B500F076
:1003C0007EF801D1022032BD012084F83C0052B1F8
:1003D000042A19D0082A29D00C2A38D0102A48D04B
:1003E000142A57D067E0206800F0BFF821688869B8
:1003F00040F008008861886920F0040088618A69FB
:10040000286902438A6156E0206800F0F0F820680D
:10041000816941F400618161816921F480618161B8
:1004200081692A6941EA0221816144E0206800F083
:1004300012F92168C86940F00800C861C86920F055
:100440000400C861CA6928690243CA6133E02068B0
:1004500000F03AF92068C16941F40061C161C169E5
:1004600021F48061C161C1692A6941EA0221C16147
:1004700021E0206800F067F92168086D40F008006D
:100480000865086D20F0040008650A6D28690243BC
:100490000A6510E0206800F081F92068016D41F4E0
:1004A00000610165016D21F480610165016D2A69BA
:1004B00041EA02210165002084F83C0032BD044677
:1004C0000D4694F83C00012870472DE9F041DFF813
:1004D0003873D0F800C0DFF81C33DFF81C43DFF8B6
:1004E0001C53DFF81C63DFF824E3DFF81883B842FD
:1004F00018BFB0F1804F04D040451CBF7045B042DA
:100500000DD14A68B8422CF0700C18BFB0F1804F82
:1005100042EA0C0C0BD0404518BF704507D0B042E2
:1005200018BFA84203D0A04218BF984204D1CA689D
:100530002CF4407C42EA0C0C4A692CF0800C42EA14
:100540000C020260B8428A68C26218BFB0420A68F0
:10055000826204D0A8421CBFA042984201D109691E
:10056000016301224261BDE8F0812DE9F041026A98
:10057000DFF89482DFF888E2DFF87C72DFF87CC273
:10058000520852000262066A44688569DFF88022D8
:100590000B6826F0020615408A6816431D43404545
:1005A00018BF7045DFF84C3204D060451CBFB8421C
:1005B00098420DD1CA6826F008061643404518BF78
:1005C000704526F0040605D0604518BFB84201D03A
:1005D000984205D14B698A6924F440741C43144342
:1005E00044608561496841630662BDE8F081F0B509
:1005F000026A22F010020262056A4368846900F010
:100600009BF825F0200545EA021500F091F818BF87
:10061000904208D1CF6825F0800545EA0715B04221
:1006200025F040050AD090421CBF744A904205D084
:10063000714EB0421CBF6F4A904206D14E698A6922
:1006400023F44063164343EA8603436084614968A8
:1006500081630562F0BDF0B5026A6D4B22F48072D1
:100660000262066A4468C5690A6826F400761D407D
:100670008B6846EA03261543634B614A984218BFCC
:10068000904208D1CF6826F4006646EA07269842D1
:1006900026F480660AD090421CBF584A904205D08A
:1006A000554B98421CBF534A904206D14B698A6908
:1006B00024F44054134344EA03144460C561496878
:1006C000C1630662F0BD0000F0B5026A22F48052F8
:1006D0000262056A4368C46900F02EF825F40055EB
:1006E00045EA023500F024F818BF904208D1CF68DF
:1006F00025F4004545EA0735B04225F480450AD087
:1007000090421CBF3D4A904205D03B4EB0421CBFB8
:10071000384A904206D14E698A6923F44043164311
:1007200043EA86134360C461496801640562F0BD11
:10073000354E334AB0427047364A0E6814408A68D4
:1007400044EA0624704770B5026A334B22F48032C3
:100750000262046A4568066D0A681E4016438B688B
:10076000294A24F4003444EA034490421CBF244B39
:10077000984207D0214A90421FBF1F4B98421D4A02
:10078000904204D14A6925F4803545EA0225456046
:10079000066549688164046270BD000070B5026A34
:1007A00022F480120262036A4468056D1B4A0E68D7
:1007B000154045EA06258A68134E23F4001343EAE0
:1007C0000253B0421CBF0E4A904207D00B4EB042BB
:1007D0001FBF094A9042074EB04204D14A6924F42F
:1007E000802444EA8224446005654968C164036248
:1007F00070BD00000048014000440140004001403D
:100800000034014000040040002C0140000800407A
:100810008CFFFEFFFF8CFFFE8FFFFEFFFF8FFFFEB2
:1008200010B501F01F01036A01248C40A343036249
:1008300002FA01F1036A1943016210BD4F4882B008
:10084000816841F001018160816801F0010100913E
:100850000099026842F080520260006800F0805007
:100860000090009802B000F0DEB810B586B00446E3
:100870001422002101A800F0E7F8216840488142D5
:1008800022D1404C216841F0010121604FF44071B8
:10089000206800F00100009012220098019102925D
:1008A00001210391002204210591049201A94FF036
:1008B000904000F0D3F8E06840F48000E060E06829
:1008C00000F480000090009806B010BD81B0006870
:1008D0002D49884209D12948026842F0020202608B
:1008E000006800F002000090009801B0704781B0ED
:1008F00000682649884209D12548026842F48022CE
:100900000260006800F480200090009801B07047F9
:1009100010B586B0044614220021684600F094F811
:100920002168194B1B48174A994206D100F01BF861
:10093000102200F011F8022208E0144B994209D16C
:1009400000F011F8202200F007F80A22049269460C
:1009500000F084F806B010BD0599009201930022C2
:10096000029203927047116841F002011160022364
:10097000126802F00202059270470000581002400F
:10098000005800404C100240000400400048014064
:10099000601002400004004810B53222DFF89C309D
:1009A000DFF89440DFF88C1048B900F01EF820F40E
:1009B0008070206017D100F01FF80CD413E0B0F560
:1009C000007F0AD100F011F840F4807020600AD155
:1009D00000F012F807D5032010BD0A6822F4C062A7
:1009E00042F480620A60002010BD086800F4C06014
:1009F000B0F5806F206870470C6824F4C06444F43C
:100A000000740C601868DFF838304243B2FBF3F032
:100A1000401C00E0401E4A69530501D50028F9D169
:100A20004869410570470748016841F48041016009
:100A30007047000000700040807000405C000020A3
:100A400040420F000870004010B5044610460A46A8
:100A50000146204600F0E8F8204610BD2DE9F84F89
:100A60000027694A694B4FF00F0805460E4634E0EF
:100A7000674CA54214BF062405248C40654944EA0E
:100A80000E0441F82C40C143146801EA040C746858
:100A9000E40348BF40EA0C0CC2F800C0546801EA05
:100AA000040C7468A40348BF40EA0C0CC2F804C0EC
:100AB000946801EA040C7468E40248BF40EA0C0C34
:100AC000C2F808C0D46801EA040C7168890248BF02
:100AD00040EA0C0CC2F80CC07F1C316831FA07F0F8
:100AE00000F085800124BC4014EA0100F4D04FEAF4
:100AF000470C032101FA0CF16FEA010E716801291C
:100B000018BF022903D0112918BF122912D1A968D0
:100B1000D6F80C900EEA010109FA0CF949EA010134
:100B2000A960696821EA04047168C1F30011B94041
:100B30000C436C60E968B4680EEA010104FA0CF435
:100B40002143E960B9007468022C18BF122C12D13D
:100B5000FC0805EB840401F01C09D4F820A008FA75
:100B600009FB2AEA0B0AD6F810B00BFA09F949EA90
:100B70000A09C4F820902C680EEA040E347904F0B7
:100B8000030404FA0CF444EA0E042C607468E400D4
:100B9000A2D51C6844F001041C604FEA970C1C6845
:100BA00004F00104009401F00C01009C194C54F86D
:100BB0002C4008FA01FE24EA0E0EB5F1904F08BF52
:100BC000002413D0144CA54208BF01240ED0134CAE
:100BD000A54208BF022409D0114CA54208BF032436
:100BE00004D0104CA5427FF443AF042445E7BDE890
:100BF000F18F0069084018BF0120C0B270470AB1E8
:100C000081617047816270470004014060100240BA
:100C10000014004808000140000400480008004893
:100C2000000C00480010004862F30F2262F31F42DC
:100C3000401810F0030308D0C91A1FD3DB0748BFC0
:100C400000F8012D28BF20F8022D130030B41446FF
:100C50001546103928BF20E93C00FAD8490728BFBB
:100C600020E90C0048BF40F8042D890028BF20F877
:100C7000022D48BF00F8012D30BC7047C91818BFBD
:100C800000F8012DCB0728BF00F8012D704730B5C3
:100C9000016884684218416802EB5103C90703D513
:100CA0004C4401E0491C08D19A4218BF12F9011BBB
:100CB00001D10C3030BD12F8015B002904F8015B52
:100CC000F0D4491EF7D5EFE72DE9F84304006DD0C5
:100CD0002078DFF8C065C10717D500F0D0F90CD136
:100CE00001F0030103290AD06068B0F5803F2AD1E2
:100CF000306840F48030306037E00828F4D1306844
:100D0000810302D56068002850D02178880759D522
:100D100000F0B5F943D101F00301022941D0E068A8
:100D200000286AD0316841F48071316000F0CCFA5B
:100D30000546306841055DD400F0C6FA401B032823
:100D4000F7D3032091E1B0F5A02F306806D140F42D
:100D500080203060316841F4803105E020F480303B
:100D60003060316821F480213160606858B100F052
:100D7000ABFA054630688103C7D400F0A5FA401BE2
:100D80006528F7D3DDE700F09FFA05463068810358
:100D9000BBD500F099FA401B6528F7D3D1E70428AA
:100DA000BDD13068410503D5E068002800F05A81C4
:100DB00000F05DF9DFF8E804006800F08BFA002825
:100DC00040F050812078DFF8DC74010734D5606989
:100DD0000028786821D040F00100786000F074FAB3
:100DE00005467868810727D400F06EFA401B032877
:100DF000F7D3A6E700F03BF9E4E7306820F4807011
:100E0000306000F061FA054630684105DAD500F03F
:100E10005BFA401B0328F7D393E740084000786053
:100E200000F052FA05467868810705D500F04CFAC3
:100E3000401B0328F7D384E72078410763D5B06DC2
:100E40000025C10009D4B06D40F08050B065012587
:100E5000B06D00F0805000900098DFF84C84D8F816
:100E60000000C10513D4D8F8000040F48070C8F821
:100E7000000000F029FA8146D8F80000C10506D428
:100E800000F022FAA0EB09000328F5D359E7A06887
:100E9000012804D1386840F00100386010E00528CE
:100EA000386806D140F004003860396841F001012B
:100EB00005E0400840003860396821F004013960DD
:100EC000A06841F2893860B100F0FEF981463868C7
:100ED000810713D400F0F8F9A0EB09004045F6D3E0
:100EE0002FE700F0F1F981463868810706D500F058
:100EF000EBF9A0EB09004045F6D322E71DB1B06D38
:100F000020F08050B0652078810621D5A0690028A6
:100F1000B8680ED040F00100B86000F0D5F9054681
:100F2000B868810714D400F0CFF9401B0328F7D329
:100F300007E740084000B86000F0C6F90546B86809
:100F4000810705D500F0C0F9401B0328F7D3F8E668
:100F5000E069002800F08880B16801F00C010C29DC
:100F600055D00228306820F0807030603AD100F00F
:100F7000ABF905463068810105D500F0A5F9401BA5
:100F80000328F7D3DDE6F068DFF82013226A084073
:100F9000616A1043491E40EA0110226BA16A52089F
:100FA00040EA0120616B521E490840EA4250491E46
:100FB00040EA4160E16A40EAC160F060306840F0B8
:100FC00080703060F16841F08071F16000F07CF970
:100FD00004463068810147D400F076F9001B0328ED
:100FE000F7D3AEE6F168DFF8C80289088900F1603E
:100FF000F1680140F16000F067F904463068810152
:1010000032D500F061F9001B0328F7D399E60128D7
:1010100028D0F068226A00F00301914201BF00F07D
:10102000F001626A521EB1EB021F1BD1A26A00F4EA
:10103000FE41B1EB022F02BF00F07841E26AB1EB52
:10104000C26F0FD1226B520800F4C001521EB1EBE7
:10105000425F07D1616B490800F0C060491EB0EBE8
:10106000416F01D0012000E00020BDE8F2837068EC
:10107000216920F0FE4040EA016070607047B0686E
:10108000F16800F00C000C2870472DE9F047044689
:101090000026002C6CD0DFF81C723868894600F0FE
:1010A0000F00484506D200F0C0F8386800F00F0085
:1010B00048455DD12168DFF8DC51C80741F2893825
:1010C00058D56068DFF8F0A1032827D1286882018D
:1010D0004ED5EA68E868C0F30310401C02F0030232
:1010E000032A0CBFDFF8D421DFF8B021B2FBF0F205
:1010F000E868C0F306204243E868C0F34160401C42
:101100004000B2FBF0F0504518D3AA6812F0F00F7F
:101110000DD0890712D5A06880B908E00228286898
:1011200024D1810324D500F086F8504506D3A86861
:1011300020F0F00040F08000A8608026A968606878
:10114000890840EA8101A96000F0BEF88246A868DB
:10115000616800F00C00B0EB810F0BD000F0B4F828
:10116000A0EB0A004045F2D303205CE04105DAD44D
:10117000012058E02068810715D5400703D5A968EC
:1011800041F4E061A9602078010705D5A86820F442
:10119000605040F4E060A860A968A06821F0F00108
:1011A0000143A96005E0802E03D1A86820F0F0007B
:1011B000A860386800F00F0081450FD200F035F8C4
:1011C00000F082F80646386800F00F00484505D068
:1011D00000F07AF8801B4045F5D3C5E72078410739
:1011E00005D5AA68E06822F4E0620243AA6021788B
:1011F000080706D5A968206921F4605141EAC001B9
:10120000A96000F018F8AA682D49C2F30312895C9E
:10121000214A01F01F01C8401060BDE8F047204896
:10122000006800F057B8BDE8F0873968090949EA55
:101230000111396070472349086800F00C00042848
:1012400001D116487047086800F00C00082801D149
:101250001A487047086800F00C000C2818D14A683A
:101260004868C0F30310401C02F00302032A0CBFBD
:10127000124A0A4AB2FBF0F24868C0F30620424321
:101280004868C0F34160401C4000B2FBF0F070477A
:1012900000207047001002405C0000200024F40091
:1012A0005400002090100240007000400C809F010C
:1012B000FFFFEEFE0020024001B4C40400127A00D9
:1012C000102100080810024001480068704700BF64
:1012D0005000002070B50E4E0446B0680025A0B145
:1012E0004FF47A710B4AB1FBF0F11068B0FBF1F0EA
:1012F00000F04AF848B9102C07D2002221464FF0DE
:10130000FF3000F023F8746000E00125284670BD2E
:10131000500000205C0000200901020002D4244893
:1013200081547047234B02F00F021A4402F8041C48
:101330007047214B19684FF6FF020002114000F47C
:10134000E06008431D4908431860704770B51A4BA8
:101350001C68C4F302230124C3F10705052D2EBF29
:101360000F2504FA05F56D1E1E1D072E34BF002340
:10137000DB1E2940994004FA03F3BDE870405B1E70
:101380001A401143C8E7000010B5401EB0F1807F3D
:1013900001D3012010BD0A4C60600F214FF0FF30D7
:1013A000FFF7BAFF0021A16007202060002010BDD8
:1013B00000E400E018ED00E00CED00E00000FA05AC
:1013C00010E000E02DE9F04794B000F0CBF900F018
:1013D00023F9142200F05CF9DFF81C03DFF81C434A
:1013E0000168DFF81C5341F001010160026802F05E
:1013F000010205920599026842F002020260002291
:10140000006800F002000590402105982046FFF793
:10141000F6FB1F20002100900191012202926946F3
:101420004FF09040FFF71AFB01200021009001913E
:10143000029069462046FFF711FB402100910122EE
:101440000192022102910022039269462046FFF791
:1014500005FB0C2200F01CF91C22002103A8FFF759
:10146000F3FADFF8A0022860062100226960AA6072
:101470004FF6FF742A61AA61EC602846FEF7CEFEA3
:1014800008B100F069F900210091029128466946EF
:1014900000F078F908B100F05FF9602103910022B3
:1014A00004920592079203A92846FEF787FF08B128
:1014B00000F052F92846FFF72BFA00F0E8F8342242
:1014C000002107A8FFF7C0FADFF83C62DFF83C0212
:1014D0003060062100227160B26032617261B261D7
:1014E000F4603046FEF778FE08B100F035F930467A
:1014F000FEF794FE08B100F02FF960200021009063
:10150000019100220391059102920492069269468C
:101510003046FEF753FF08B100F01EF90021079195
:10152000089109910A910B914FF400520D9113917A
:101530000C9207A9304600F067F908B100F00CF9E9
:101540003046FFF7E5F9DFF8C841DFF8C801DFF8FA
:10155000C8116060A1600020E06001216061A061AD
:10156000E061206260622161201D00F0ADF908B1E8
:1015700000F0F2F80021201D00F06AFB08B100F035
:10158000EBF80021201D00F078FB08B100F0E4F832
:1015900000212846FEF761FE00213046FEF75DFE81
:1015A000E02000F079F8E22000F076F8E42000F086
:1015B00073F8E62000F070F8584D594E594FDFF897
:1015C0006881DFF86891DFF868A19AF8000010B12F
:1015D00000218AF8001099F8000070B1002189F804
:1015E000001000F09BFB207000F0B8FB98F80000A2
:1015F000012804BF207800F06BFB387808B1002187
:101600003970307808B10021317028780028DCD09A
:10161000002129706170D8E780B5A4B0382200217C
:1016200005A8FFF711FA142200F032F84422002135
:1016300013A8FFF709FA4FF40070FFF7ADF9022184
:101640004FF48072059108924021002209910C927A
:1016500005A8FFF739FB08B100F07EF801210191E0
:101660000F2000900022002102920391049268460C
:10167000FFF70BFD08B172B6FEE71A9013A800F051
:1016800099FB08B172B6FEE725B000BD04461C22E6
:1016900000216846FFF7D8B97CB5064630A01C4C3F
:1016A0000088ADF804004FF0FF350095012300F0ED
:1016B00041F80021ADF8041002234FF0FF310091F2
:1016C00000F038F801208DF8040001AD00F039F881
:1016D000022000F034F8032000F031F8042000F07C
:1016E0002EF8052000F02BF8062000F028F807203F
:1016F00000F025F873BD00004C10024000040048C3
:101700007800002000040040C40000200048014090
:101710000000002000580040FF3E00406300002011
:10172000640000206200002074000020610000209E
:101730006000002001AA3146201D00F01DB98DF87F
:10174000040000214FF0FF3069700090022301AACD
:101750003146201D00F010B972B6FEE7000000000F
:1017600021000000032010B5FFF7E3FD0F20FFF775
:10177000B1FD0024002814BF0124FFF75FF82046C4
:1017800010BD00002DE9F04100F13C052A78012A46
:1017900008BF022034D001222A7002236B70076830
:1017A000DFF86080D7F804C0DFF800E1BE68474585
:1017B00018BF774504D14C682CF4700244EA020C3F
:1017C0003D4B0A6803EA0C031A437A6002684245FB
:1017D00018BFB2F1804F0AD0354882421CBF374B48
:1017E0009A4204D072451CBF3548824204D18868B1
:1017F00026F080060643966001216970002028705B
:10180000BDE8F081002C0140F0B590F83C20012AA1
:1018100001D10220F0BD012280F83C20CC688B6809
:101820004A680568234F274E24F440741C4324F46F
:10183000806414430B680A6924F400641C4324F494
:10184000805414434B690A6B24F400541C4324F461
:10185000804414438B6924F47024BD4244EA034459
:1018600018BFB54201BF24F08054CA691443BD4279
:1018700001D0B54214D18A6A0B6A24F4700444EA98
:10188000025424F080741C434A6A24F00074144308
:10189000BD4218BFB54203D1C96A24F000540C43BD
:1018A0006C64002280F83C200020F0BD0034014030
:1018B00000040040002C01408FFFFFFD00080040A5
:1018C000004001400034014038B5040001D101203E
:1018D00032BD04F14005687820B900212970204606
:1018E000FEF7C3FF00F040F86068216820F07060E8
:1018F00008612068816821F400418160E068216806
:101900000128A0680CBF40F4004040F40440886007
:10191000E068022803D120684FF40061416020682C
:10192000416841F0007141F4004141602068C168A4
:1019300021F40041C16060692169A2690143206806
:1019400041EA0221C160206AE16922680143116015
:101950002068016841F001010160002068602021D9
:1019600069702063A87032BD242068702068016807
:1019700049084900016070472DE9F84300F05DF81F
:101980003ED1217801293BD001202070FFF79CFC3B
:1019900000F049F8002831D1212000F057F8DFF895
:1019A0002801B1F5807F28BF358506D2728D32853A
:1019B00000F034F803E03585002000F02AF800F04C
:1019C0007EF800F020F814D000F0B1F8002815D10E
:1019D00000F04CF80028F4D089B20029F1D100F0D1
:1019E00054F858B900F03EF8E5D2728D32850020E7
:1019F000DEE700F0C4F800F050F802D0012000E06B
:101A00000220BDE8F283708D00284A4639463046F0
:101A1000704700904FF08073FF22704700904FF0A6
:101A20000073D2B270478146CDF80090192301228D
:101A30004FF40041304600F059B8064606F1400424
:101A400088466078202815461F4670476070102130
:101A5000A17000206060756277857063FF25089F24
:101A6000718D7047708DB0F5807F7047706A3268F5
:101A700001789162706A411C7162708D411E71859E
:101A8000308D411E3185708D7047CDF800903B46FA
:101A900000228021304600F029B801000DD13268C3
:101AA0002020D0613268DFF824005368034053607F
:101AB000202262700020A07020700800704741460C
:101AC000304600F0B0B800000020008000E800FEC2
:101AD000006881698A0744BF002181628169CA0761
:101AE00003D4816941F00101816170472DE9F04122
:101AF000069F05460E4690461C462868816931407F
:101B0000B1420CBF0120002040450DD114F1010F5E
:101B1000F3D0FFF7D9FBC01B844201D3002CECD1DA
:101B200000F021F8012000E00020BDE8F08170B550
:101B300005460C46164628688169880711D400F0CE
:101B400038F808B1012070BD14F1010FF3D0FFF790
:101B5000BBFB801B844201D3002CECD100F003F8C6
:101B6000F0E7002070BD05F140002022416841F0FF
:101B7000200141604270002181700170704770B592
:101B800005460C4616462868816988060FD400F081
:101B900010F838B9FFF798FB801B844204D3002C5F
:101BA000F1D101E0012070BDFFF7DDFFFAE7002071
:101BB00070BD324621462846FFE770B505460C4603
:101BC00028688169C80616462BD5286881698A0667
:101BD0000FD414F1010FF8D0FFF776FB801B84427D
:101BE00001D3002CF1D105F14000416841F0200102
:101BF00011E01021C16120202A68D0612846FFF73A
:101C000067FF2868104A41681140416005F14000B3
:101C1000416841F0040141602022FFF7ABFF012041
:101C200070BD002070BD70B50068049C4568074E0B
:101C300046EA5456B543C1F30901294341EA02413A
:101C400019432143416070BD00E800FEFF63FF03BC
:101C500030B500F140025378202B0CD11478012CC0
:101C600009D000F01DF824F480541C6003681D683E
:101C70002943196020E0022030BD30B500F1400258
:101C80005378202B0AD11478012C07D000F008F8E3
:101C900024F4706444EA01241C600DE0022030BD8D
:101CA000012313702424547003681D686D086D00AF
:101CB0001D6003681C6870470068016841F00101FD
:101CC00001602020507000211170002030BD000004
:101CD0000649087810B9064801210170002205491B
:101CE000054B0A7001201870704700001101002098
:101CF0000100002074000020750000200146002033
:101D00000A0001D1012070470F2918BF1729F9D007
:101D10001B291CBF1D291E29F4D0704738B5082186
:101D200000F018F80446102100F014F80221C50054
:101D300000F010F845EA04150446022100F00AF804
:101D400045EA840545EA4005012100F003F8054312
:101D5000E8B232BD4FF09040FEF74BBF10B50128FE
:101D6000124C014614D0A27990420ED1217851B97B
:101D7000FFF7C4FF18B1607908B9012121712078FB
:101D80002070002010BD481EFAE7A0710320F7E77D
:101D9000A022A171A27000210122054BE1706170A7
:101DA0006171E27103201970EAE700BF7000002042
:101DB000100100202DE9F84305464FF0000828687F
:101DC000DFF80C62010353D5F06C0024C10009D484
:101DD000F06C40F08050F0640124F06C00F0805012
:101DE00000900098DFF8EC71386840F4807038603B
:101DF000FFF76AFA81463868C10508D4FFF764FA2C
:101E0000A0EB09000328F6D34FF003082BE0DFF81E
:101E1000C871386810F440701CBF296C88420BD020
:101E20003868396841F48031396020F440703A688C
:101E300022F480323A603860C0070ED5FFF744FACA
:101E400081463868810708D4FFF73EFAA0EB090005
:101E500041F289318842F4D3D6E73A68286C22F4FB
:101E6000407202433A601CB1F06C20F08050F06484
:101E70002878C10705D5F26F6868920840EA8202A7
:101E8000F2672978880705D5F16FA86821F00C0161
:101E90000143F1672978480705D5F16FE86821F01B
:101EA00030010143F1672978080705D5F16F2869EA
:101EB00021F0C0010143F1672978880605D5F16F4B
:101EC000686921F440610143F1672978480605D526
:101ED000F16FA86921F440510143F16729780806A0
:101EE00005D5F16FE86921F440410143F1672968A4
:101EF000C80505D5F16F286A21F440310143F16727
:101F00002968880505D5F16F686A21F440210143ED
:101F1000F167296848050AD5F16FA86A21F44011D4
:101F20000143F167A96AB1F5801F00F04AF82968FA
:101F300008050AD5F16FE86A21F440010143F16711
:101F4000E96AB1F5800F00F03CF82968C8040AD5A9
:101F5000F16F286B21F040710143F167296BB1F1FA
:101F6000807F00F02EF82968880408D5F16F686B2F
:101F700021F040610143F167696B00F020F82968A6
:101F8000480408D5F16FA86B21F040610143F16767
:101F9000A96B00F014F8296808040DD5F16FE86BFF
:101FA00021F040510143F167E96BB1F1805F03D14A
:101FB000306840F4803030604046BDE8F283B1F1D3
:101FC000006F03D1306840F480103060704700002B
:101FD0000C1002400070004090100240FEE7FEE747
:101FE000FEE7FEE7FEE77047704770471648C18876
:101FF000491E8AB212B9012101700A21C1800189EA
:10200000491E8AB212B90121417019210181418909
:10201000491E8AB212B901218170642141814FF4B5
:102020007A72C189491E8BB213B90121017111461F
:10203000C1818189491E8BB213B90121C17011463A
:10204000818100F003B800006000002002490A68A6
:10205000886882180A6070475000002030B400255C
:1020600012E050F8042BD30744BF4A44521E091F04
:10207000042942F8045BFAD213468C0744BF15804A
:102080009B1CC90748BF1D7050F8041B0029E8D1EC
:1020900030BC704710B5074979441831064C7C4470
:1020A000163404E00A68081D114488470146A1421D
:1020B000F8D110BD2C000000480000004EF68851F9
:1020C000CEF20001086840F470000860BFF34F8F43
:1020D000BFF36F8F4FF00070E1EE100A7047000001
:1020E0007DFFFFFF9C000000780000200000000042
:1020F0009FEBFFFFB8010000460000000000002039
:102100000248016841F470010160704788ED00E009
:102110000000000000000000010203040607080997
:1021200000F00DF8002801D0FFF7B4FFAFF30080F6
:102130000020AFF30080FFF745F900F002F801201E
:10214000704700F001B800000746384600F002F87A
:10215000FBE7000080B5AFF30080024A11001820B1
:10216000ABBEFBE7260002000548014603B4684603
:1021700080F30988AFF30080FFF7A0FFFFF7D0FFDF
:10218000A5EDF5FE01488047014800470121000800
:1021900069210008FFF7FEBFFFF7FEBFFFF7FEBF94
:1021A000FFF7FEBFFFF7FEBFFFF7FEBFFFF7FEBF63
:1021B000FFF7FEBFFFF7FEBFFFF7FEBFFFF7FEBF53
:1021C000FFF7FEBFFFF7FEBFFFF7FEBFFFF7FEBF43
:1021D000FFF7FEBFFFF7FEBFFFF7FEBFFFF7FEBF33
:1021E000FFF7FEBFFFF7FEBFFFF7FEBFFFF7FEBF23
:1021F000FFF7FEBFFFF7FEBFFFF7FEBFFFF7FEBF13
:10220000FFF7FEBFFFF7FEBFFFF7FEBFFFF7FEBF02
:10221000FFF7FEBFFFF7FEBFFFF7FEBFFFF7FEBFF2
:10222000FFF7FEBFFFF7FEBFFFF7FEBFFFF7FEBFE2
:10223000FFF7FEBFFFF7FEBFFFF7FEBFFFF7FEBFD2
:10224000FFF7FEBFFFF7FEBFFFF7FEBFFFF7FEBFC2
:10225000FFF7FEBFFFF7FEBFFFF7FEBFFFF7FEBFB2
:10226000FFF7FEBFFFF7FEBFFFF7FEBFFFF7FEBFA2
:10227000FFF7FEBFFFF7FEBFFFF7FEBFFFF7FEBF92
:10228000FFF7FEBFFFF7FEBFFFF7FEBFFFF7FEBF82
:10229000FFF7FEBFFFF7FEBFFFF7FEBFFFF7FEBF72
:1022A000FFF7FEBFFFF7FEBFFFF7FEBF0001AD0067
:1022B0000010FD000001FC000124F4F9000C0A00EC
:0F22C00019006400E803F4010300A0FD00FE0113
:040000050800216965
:00000001FF
