:020000040800F2
:10000000B80B0020C57C0008F1790008F3790008DE
:1000100000000000000000000000000000000000E0
:10002000000000000000000000000000F57900085A
:100030000000000000000000F7790008F9790008CE
:100040006726000800000000872B00088B2B0008A3
:100050008F2B0008EF4100085F440008BF750008BF
:10006000000000008B7B00089B7C0008A77C000838
:10007000417A0008E57C0008E77C000800000000E9
:10008000E97C0008EB7C0008ED7C0008EF7C0008B0
:10009000F17C0008F37C0008F57C0008F77C000880
:1000A000F97C0008FB7C0008FD7C0008617A0008F0
:1000B000FF7C0008017D0008000000000000000037
:1000C0000000000000000000000000000000000030
:1000D0000000000000000000000000000000000020
:1000E000000000000000000000000000E003E0034A
:1000F000E003E003E003E003E003E003C003C00328
:10010000C001C001C001C001C0010000000000002A
:10011000E003E003E0030000000000000000000036
:100120003C1E3C1E3C1E3C1E3C1E3C1E3C1E000059
:1001300000000000000000000000000000000000BF
:1001400000000000000000000000000000000000AF
:1001500000000000CE01CE03DE039E039C039C073B
:10016000FF3FFF7F3807380F780F780F780EFFFFBB
:10017000FFFFF01EF01CE01CE03CE03DE039000019
:100180000000000000000000FC03FE0FEE1FE01E58
:10019000E01EE01EE01EE01FE00FE007F003FC01A0
:1001A000FE01FE01FE01FE01FE01FE01FE3DFC3FDF
:1001B000F00FE001E001000000000000033E07F73F
:1001C0008FE78EE79EE3BCE3B8E7F8E7F0F7E03FA0
:1001D000C001FF03FF07F307F30FF31EF33CF338EF
:1001E000F3787FF03FE00000000000000000000016
:1001F000E007F80F780F781F781F781F780FF00F3F
:10020000E00F801FC37FC3FBE7F3F7F1F7F0FFF0C8
:100210007FF03EF87F7CFF3FEF1F000000000000F2
:1002200000000000E003E003E003E003E003C0039C
:10023000C0010000000000000000000000000000FD
:1002400000000000000000000000000000000000AE
:1002500000000000000000003F007C00F001E00111
:10026000C003C00780078007800F000F000F000F3A
:10027000000F000F000F800F80078007C007C0032A
:10028000E001F0017C003F000F000000007E001F35
:10029000C007C003E001F001F000F000F8007800B2
:1002A00078007800780078007800F800F000F0001E
:1002B000F001E001C003C007001F007E00780000CD
:1002C000E003C003C001CE39FF3F7F3F200370032E
:1002D000F807780F3C1F38060000000000000000FF
:1002E000000000000000000000000000000000000E
:1002F00000000000000000000000000000000000FE
:10030000C001C001C001C001C001C001C001FFFFA8
:10031000FFFFC001C001C001C001C001C001000059
:1003200000000000000000000000000000000000CD
:1003300000000000000000000000000000000000BD
:1003400000000000000000000000E003E003E00304
:10035000E003E001E001E001C001800300000000D3
:10036000000000000000000000000000000000008D
:100370000000FE3FFE3F0000000000000000000003
:10038000000000000000000000000000000000006D
:10039000000000000000000000000000000000005D
:1003A000000000000000000000000000000000004D
:1003B0000000E003E003E003E003000000000000B1
:1003C000000000000F000F001E001E003C003C005B
:1003D00078007800F000F000E001E001C003C00305
:1003E00080078007000F000F001E001E003C003C2D
:1003F0000078007800F00000F007F80F7C1F3E3E08
:100400001E3C1F7C1F7C0F780F780F780F780F78B9
:100410000F780F781F7C1F7C1E3C3E3E7C1FF80F20
:10042000F00700000000000000000000F000F007EE
:10043000F03FF03FF001F001F001F001F001F001B8
:10044000F001F001F001F001F001F001F001F00124
:10045000F001FF3FFF3F000000000000000000002F
:10046000E00FF83F7C3C3C003E003E003E003C007C
:100470003C007C00F800F001E003C0078007000F9B
:10048000001E003E003CFE3FFE3F0000000000005A
:1004900000000000F00FF81F7C1C3E003E003E00F4
:1004A0003C003C00F800F00FF80F7C003E001E00FE
:1004B0001E001E001E003E007C1CF81FE01F0000F6
:1004C00000000000000000007800F800F800F801CB
:1004D000F803F807F807780F781E781E783C7878CC
:1004E0007878FFFFFFFF78007800780078007800C8
:1004F000780000000000000000000000FC1FFC1F4E
:10050000FC1F001E001E001E001E001EE01FF81F24
:10051000FC007C003E003E001E003E003E003C0011
:100520007C1CF81FE01F000000000000000000001D
:10053000FC01FE078E0F001F001E003E003C003C29
:10054000F83DFC3F3E7F1F7E0F3C0F3C0F3C0F3CB5
:100550000F3E1F1E3E1FFC0FF003000000000000B6
:1005600000000000FF3FFF3FFF3F0F001E001E0086
:100570003C0038007800F000F000E001E001C0032A
:10058000C0038007800F800F000F001F001F0000B6
:100590000000000000000000F807FC0F3E1F1E1EB8
:1005A0001E3E1E3E1E1E3C1FF80FF007F80FFC1EDD
:1005B0003E3E1F3C1F7C0F7C0F7C1F3C3E3FFC1FC0
:1005C000F00700000000000000000000F007F80F36
:1005D0007C1E3E3C1E3C1F7C1F7C1F7C1F7C1F3CE6
:1005E0003F3EFF1FEF071F001E001E003E003C00A5
:1005F000F838F03FE01F000000000000000000009D
:10060000000000000000000000000000E003E00324
:10061000E003E00300000000000000000000000014
:100620000000E003E003E003E0030000000000003E
:1006300000000000000000000000000000000000BA
:10064000E003E003E003E00300000000000000001E
:10065000000000000000E003E003E003E003E0012D
:10066000E001E001C0038003000000000000000082
:100670000000000003000F003F00FC00F003C00F6B
:10068000003F00FE003FC00FF003FC003F000F00E2
:100690000300000000000000000000000000000057
:1006A000000000000000000000000000000000004A
:1006B000FFFFFFFF000000000000FFFFFFFF000042
:1006C000000000000000000000000000000000002A
:1006D00000000000000000000000000000E000F842
:1006E000007E801FE007F8017E001F007E00F801F9
:1006F000E007801F007E00F800E00000000000001E
:1007000000000000F01FFC3F3E381F381F381E005D
:100710001E003C007800F000E001C003C003C007E9
:10072000C007000000000000C007C007C0070000AD
:100730000000000000000000F803FE0F1E1F0F3E27
:100740007F3CFF78EF79C773C7F38FF38FF38FF395
:100750009FF39FF3FF73FF7BF779003C1C1FFC0F97
:10076000F80300000000000000000000000000008E
:100770000000E003E003F007F007F007780F780FC0
:100780007C0E3C1E3C1E3E3CFE3FFF3F1F780F7818
:100790000FF007F007F0000000000000000000006C
:1007A000000000000000F83FFC3F3E3C1E3C1E3CA9
:1007B0001E3C3E3C7C3CF03FF83F7E3C1F3C1F3CD7
:1007C0000F3C0F3C1F3CFE3FF83F000000000000C4
:1007D00000000000000000000000FF01FF07871F6D
:1007E000003E003C007C00780078007800780078BB
:1007F000007C007C003E003F831FFF07FF010000DC
:100800000000000000000000000000000000F07F79
:10081000FC7F7E781F781F780F780F780F780F781D
:100820000F780F780F780F781F781E787E78F87F12
:10083000E07F000000000000000000000000000059
:100840000000FF3FFF3F003E003E003E003E003EF6
:10085000003EFE3FFE3F003E003E003E003E003EAA
:10086000003EFF3FFF3F00000000000000000000CE
:10087000000000000000FF1FFF1F001E001E001EE2
:10088000001E001E001EFF1FFF1F001E001E001E78
:10089000001E001E001E001E001E000000000000C2
:1008A00000000000000000000000FE03FF0F871F93
:1008B000003E007C007C007800F800F87FF87FF8AC
:1008C0000F780F7C0F7C0F3E8F1FFF0FFE03000081
:1008D00000000000000000000000000000001F7C7D
:1008E0001F7C1F7C1F7C1F7C1F7C1F7C1F7CFF7F4D
:1008F000FF7F1F7C1F7C1F7C1F7C1F7C1F7C1F7C3D
:100900001F7C00000000000000000000000000004C
:100910000000FF3FFF3FE003E003E003E003E003EC
:10092000E003E003E003E003E003E003E003E003AF
:10093000E003FF3FFF3F0000000000000000000058
:10094000000000000000FC1FFC1F7C007C007C00FD
:100950007C007C007C007C007C007C007C007C00B7
:1009600078007800F838F03FC03F00000000000039
:10097000000000000000000000001F3C1E3C3C3C4A
:10098000783CF03CE03DE03FC03F803FC03FE03F6F
:10099000F03DF03C783C7C3C3E3C1F3C0F3C000072
:1009A0000000000000000000000000000000003E09
:1009B000003E003E003E003E003E003E003E003E47
:1009C000003E003E003E003E003E003E003EFF3F37
:1009D000FF3F0000000000000000000000000000D9
:1009E00000001FF81FFC1FFC3FFE3FFE3FFE7FFF85
:1009F00077FF77FFF7F7E7F7E7F3E7F3C7F307F0DA
:100A000007F007F007F00000000000000000000001
:100A10000000000000000F7C0F7C0F7E0F7F0F7F17
:100A20008F7F8F7FCF7FEF7BEF79FF79FF78FF7824
:100A30007F783F783F781F781F7800000000000023
:100A400000000000000000000000F007FC1F3E3E18
:100A50001F7C0F780F780FF80FF80FF80FF80FF8CA
:100A60000FF80F780F781F7C3E3EFC1FF007000048
:100A70000000000000000000000000000000FC3F3B
:100A8000FF3F1F3E0F3E0F3E0F3E0F3E1F3E3F3EBD
:100A9000FC3FF03F003E003E003E003E003E003E78
:100AA000003E000000000000000000000000000008
:100AB0000000F007FC1F3E3E1F7C0F780F780FF8F8
:100AC0000FF80FF80FF80FF80FF80F780F781F7C5A
:100AD0003E3EFC1FF8077C003F000F0003000000B3
:100AE000000000000000F03FFC3F7E3C3E3C1E3C0E
:100AF0001E3C3E3C3C3CFC3CF03FE03FF03DF83CC3
:100B00007C3C3E3C1E3C1F3C0F3C000000000000B3
:100B100000000000000000000000FC07FE1F0E3E69
:100B2000003C003C003C003EC01FF80FFE037F006D
:100B30001F000F000F001F203E3CFC3FF01F000075
:100B40000000000000000000000000000000FFFFA7
:100B5000FFFFE003E003E003E003E003E003E00362
:100B6000E003E003E003E003E003E003E003E0036D
:100B7000E003000000000000000000000000000092
:100B800000000F7C0F7C0F7C0F7C0F7C0F7C0F7C98
:100B90000F7C0F7C0F7C0F7C0F7C0F7C1E3C1E3C5F
:100BA0003E3EFC1FF00700000000000000000000B7
:100BB00000000000000007F007F007F80F780F7C36
:100BC0001E3C1E3C1E3E3C1E3C1F781F780FF80F3B
:100BD000F007F007F007E003E0030000000000006A
:100BE0000000000000000000000003E003F003F03C
:100BF00007F0E7F3E7F3E7F3E773F77BF77FFF7FB0
:100C00007F7F7F7F7E7F7E3F3E3E3E3E3E3E0000BA
:100C1000000000000000000000000000000007F8D5
:100C20000F7C1E3E3E3E3C1FF80FF007E007E0033E
:100C3000E003F007F80F7C0F7C1E3E3C1F780F7816
:100C40000FF00000000000000000000000000000A5
:100C5000000007F807780F7C1E3C1E3E3C1F780FF3
:100C6000F80FF007E003E003E003E003E003E00334
:100C7000E003E003E00300000000000000000000CB
:100C8000000000000000FF7FFF7F0F001F003E00FC
:100C90007C00F800F000E001E003C007800F000FC7
:100CA000001E003E007CFF7FFF7F00000000000070
:100CB00000000000FF07800780078007800780078B
:100CC00080078007800780078007800780078007EC
:100CD00080078007800780078007800780078007DC
:100CE0008007FF07FF07000000780078003C003C09
:100CF000001E001E000F000F80078007C003C00306
:100D0000E001E001F000F000780078003C003C00D9
:100D10001E001E000F000F0007000000F07FF00013
:100D2000F000F000F000F000F000F000F000F00043
:100D3000F000F000F000F000F000F000F000F00033
:100D4000F000F000F000F000F000F07FF07F000015
:100D5000C000C001C001E003E003F007F00778071E
:100D6000780F380F3C1E3C1E1E3C1E3C0F380F787F
:100D700007780000000000000000000000000000F4
:100D80000000000000000000000000000000000063
:100D90000000000000000000000000000000000053
:100DA0000000000000000000000000000000FFFF45
:100DB000FFFF000000000000F00000000000000045
:100DC0000000000000000000000000000000000023
:100DD0000000000000000000000000000000000013
:100DE0000000000000000000000000000000000003
:100DF0000000000000000000F80FFC3F7C3C3E00BB
:100E00003E003E00FE07FE1F3E3E3E7C3E783E7C9E
:100E10007E7CFF3FCF1F00000000000000000000AC
:100E2000003C003C003C003C003C003CF83DFE3FE8
:100E30003E3F1F3E0F3C0F3C0F3C0F3C0F3C0F3C16
:100E40001F3C1E3C3E3FFC3FF03B0000000000000A
:100E50000000000000000000000000000000000092
:100E6000FE03FF0F871F003E003E003C007C007C1D
:100E7000007C003C003E003E871FFF0FFE03000089
:100E800000000000000000001F001F001F001F00E6
:100E90001F001F00FF07FF1F3F3E1F3C1F7C1F7CE2
:100EA0001F7C1F781F781F7C1F7C3F3C7F3EFF1FED
:100EB000DF0F000000000000000000000000000044
:100EC0000000000000000000F803FC0F3E1F1E3E63
:100ED0001F3C1F7CFF7FFF7F007C007C003C003EAE
:100EE000071FFF0FFE0300000000000000000000CD
:100EF000FF01E103C003C007C007C007FF7FFF7FFA
:100F0000C007C007C007C007C007C007C007C007A9
:100F1000C007C007C007C007C007000000000000EE
:100F200000000000000000000000000000000000C1
:100F3000EF07FF1F7F3E1F3C1F7C1F7C1F781F7821
:100F40001F781F7C1F7C3F3C7F3EFF1FDF0F1E0072
:100F50001E001E007C38F83F003C003C003C003C7A
:100F6000003C003CFC3DFE3F9E3F1F3F1F3E1F3CA0
:100F70001F3C1F3C1F3C1F3C1F3C1F3C1F3C1F3C99
:100F80001F3C00000000000000000000F001F00124
:100F90000000000000000000E07FE07FE001E001D1
:100FA000E001E001E001E001E001E001E001E00139
:100FB000E001E001E001000000000000000000008E
:100FC000F800F8000000000000000000F83FF83FC3
:100FD000F800F800F800F800F800F800F800F80051
:100FE000F800F800F800F800F800F800F800F00049
:100FF000F071E07F003C003C003C003C003C003CC9
:101000001F3C3E3C7C3CF83CF03DE03DC03FC03FD7
:10101000E03FF03DF83C7C3C3E3C1F3C1F3C000068
:101020000000000000000000F07FF001F001F0017E
:10103000F001F001F001F001F001F001F001F00128
:10104000F001F001F001F001F001F001F001F00118
:10105000F00100000000000000000000000000009F
:1010600000000000000000009EF7FFFFFFFFFFFFF1
:10107000E7FBE7F9C7F1C7F1C7F1C7F1C7F1C7F15E
:10108000C7F1C7F1C7F10000000000000000000038
:10109000000000000000000000000000FC3DFE3FDA
:1010A0009E3F1F3F1F3E1F3C1F3C1F3C1F3C1F3CE1
:1010B0001F3C1F3C1F3C1F3C1F3C00000000000069
:1010C0000000000000000000000000000000000020
:1010D000F007FC1F3E3E1F3C1F7C0F780F780F78F7
:1010E0000F780F781F7C1F3C3E3EFC1FF00700006E
:1010F00000000000000000000000000000000000F0
:1011000000000000F83DFE3F3E3F1F3E0F3C0F3CFD
:101110000F3C0F3C0F3C0F3C1F3C1E3E3E3FFC3F34
:10112000F83F003C003C003C003C003C000000005C
:101130000000000000000000EE07FE1F7E3E1E3C87
:101140001E7C1E781E781E781E781E781E7C3E7CC3
:101150007E3EFE1FDE0F1E001E001E001E001E0033
:101160000000000000000000000000007F1FFF1FC3
:10117000E71FC71F871F001F001F001F001F001F42
:10118000001F001F001F001F001F000000000000C4
:10119000000000000000000000000000000000004F
:1011A000FC07FE1F0E1E003E003E003FE01FFC0736
:1011B000FE003E001E001E003E3CFC3FF01F0000F3
:1011C0000000000000000000000000000000800798
:1011D00080078007FF7FFF7F8007800780078007E9
:1011E000800780078007800780078007C007FF030C
:1011F000FF010000000000000000000000000000EF
:1012000000000000000000001E3C1E3C1E3C1E3C76
:101210001E3C1E3C1E3C1E3C1E3C1E3C3E3C7E3C7E
:10122000FE3EFE1FDE0F0000000000000000000078
:1012300000000000000000000000000007F00F7830
:101240000F781E3C1E3C1E3E3C1E3C1E780F780F45
:10125000F00FF007F007E003E003000000000000DB
:10126000000000000000000000000000000000007E
:1012700003F0E3F1E3F3E7F3F7F3F7F3F77F777FB7
:101280007F7F7F7F7F7F3E3E3E3E3E3E3E3E000074
:10129000000000000000000000000000000000004E
:1012A000000000000F7C1E3E3C3E3C1FF80FF00784
:1012B000F007E003F007F807F80F7C1E3E3E1F3CE6
:1012C0001F78000000000000000000000000000087
:1012D000000000000000000007F80F780F7C1E3CA3
:1012E0001E3C3C1E3C1E3C1F780FF80FF007F00719
:1012F000E003E003C003C003C0038007800F007F4A
:10130000000000000000000000000000FF3FFF3F61
:101310001F003E007C00F800F001E003C007800FD2
:10132000001F001E003CFF7FFF7F00000000000048
:1013300000000000FE01E003C003C003C003C003BF
:10134000E001E001E001C001C003803F803FC00335
:10135000C001E001E001E001C003C003C003C0031D
:10136000E003FE017E000000C001C001C001C00119
:10137000C001C001C001C001C001C001C001C00165
:10138000C001C001C001C001C001C001C001C00155
:10139000C001C001C001C001C0010000C03FE003A6
:1013A000E001E001E001E001C001C003C003C001B1
:1013B000E001FE00FE00E001C001C003C003C00167
:1013C000E001E001E001E001E003C03F003F000078
:1013D000000000000000000000000000000000000D
:1013E000000000000000073FC77FE773FFF17EF0B9
:1013F00000000000000000000000000000000000ED
:1014000000000000FDB5B2B03A98049102A93B2259
:10141000885400200D9024A8401C2F900DE00498C3
:10142000329A90470490002801D100F001FF0D98F6
:10143000401C0D903398401C33903398017800295C
:1014400010D02529EBD100200790089009900A9030
:101450000B900C900021022401201490082012907F
:10146000339D05E00D9800F0E5FE08001499014356
:101470006D1C28782028F8D023280BD02B2804D0E6
:101480002D2804D0302808D00AE02143F0E70800D6
:101490000421ECE708000821E9E708001021E6E74D
:1014A0002A280FD1349802681068121D349B1A60E4
:1014B0000F90002804D542420F92080004210143F6
:1014C0006D1C12E000200F90654A09E00F9B9342CB
:1014D00005DA9E00F3185B00181830380F906D1C69
:1014E00028780300303B0A2BF0D328782E2803D02D
:1014F0000020C0430E9027E06D1C28782A2808D1D0
:10150000349800680268001D349B18600E926D1CB0
:101510001AE02D2802D12D226D1C00E000220020AF
:101520000E900CE0002A09D10E9B4D4EB34205DA15
:101530009E00F3185B00181830380E906D1C287848
:101540000300303B0A2BEDD302A801872E7831002F
:1015500041487844FF30C01C00F052FF002801D001
:101560006D1C00E0002602A83A214654405C682821
:1015700004D1287868280BD1622005E06C2807D1B7
:1015800028786C2804D1712002A93A2288546D1C55
:1015900015A80690287869460870681C339068463C
:1015A00002781000253833D01C3800D118E2001F13
:1015B000022800D814E2133801D100F065FD093883
:1015C00000D10DE2801E01D100F0FBFD401E01D1D3
:1015D00000F0A8FD401E022800D801E2001F01D142
:1015E00000F0A0FD401F00D153E1401E01D100F0EA
:1015F0004BFD401E00D1F3E0C01E10D0801E01D173
:1016000000F042FDC01E01D100F03EFD00F0E4FDFF
:10161000252015A908701498079000F0E8FD34986B
:1016200000680468001D349908600594002C00D0FF
:10163000C2E002A83B21405C002800D1B5E00024B4
:10164000E44306487844143000F002FF201A01D029
:1016500000F0EEFD00F0CBFDC8640000FC6400006B
:10166000CBCCCC0C01236A4602A9280000F0ADFEC9
:10167000002801D000F0DCFD641EF3D13295079DF7
:1016800015AC002D0FD0329E227802A9300000F058
:101690008BFE002802D4641C6D1EF5D13296002802
:1016A00001D000F0C5FD3020694608700A9C002C6E
:1016B0000DDD329D01236A4602A9280000F085FE57
:1016C000002801D000F0B4FD641EF3D13295059CD2
:1016D000089D002D0FD0329E227802A9300000F024
:1016E00063FE002802D4641C6D1EF5D132960028DA
:1016F00001D000F09DFD302769460F700B9C002C37
:101700000DDD329D01236A4602A9280000F05DFE2E
:10171000002801D000F08CFD641EF3D132950598AD
:1017200008994418099D002D0FD0329E227802A9F5
:10173000300000F039FE002802D4641C6D1EF5D183
:101740003296002801D000F073FD684607700C9CAB
:10175000002C0DDD329D01236A4602A9280000F00D
:1017600034FE002801D000F063FD641EF3D13295F1
:1017700002A83821405C400700D45EE6202069467C
:1017800008700198002800DC57E6019C329D012377
:101790006A4602A9280000F018FE002801D000F0D7
:1017A00047FD641EF3D1329547E640487844FF3048
:1017B000C01E059000F01BFD0E9D002D03D52000DE
:1017C00000F06AFE09E02A000021200000F070FE0F
:1017D000002801D0001B00E02800089000F007FD61
:1017E000349800680268001D349908600020C043E6
:1017F0000021104002AA03C215A80590069A3C23B6
:1018000002A803C8002904D1002802D10E9C002C94
:1018100015D05B1E05072D0F3035EEB23A2E08DAD3
:10182000D55400090C072043090904D1002802D12E
:1018300005E02735F4E7059CD518AC42E9D33C20F8
:10184000C01A0890D11805910E99884208DA081A32
:101850000A9002A8018FAA4A0A40028700F0C7FC3A
:10186000002901D400F0C3FC02A93822895C1422AB
:101870000A40102A01D000F0BAFC0F99079A891A81
:101880000A9A891A081A002801DC00F0B0FC00F05E
:10189000F9FB02A83B21415C002909D00024E44364
:1018A0004B487844FF302B30CEE600BFC8620000C2
:1018B0003A21405C62286AD0682819D06A2845D04D
:1018C0006C2806D071284FD0742831D07A2821D0C6
:1018D0006FE0349800680168001D349A1060002998
:1018E0007AD10024E4433B487844FF301738ABE614
:1018F000349800680168001D349A1060002905D1F1
:101900000024E44333487844CA309DE60D980880AB
:1019100000F06DFC349800680168001D349A106076
:10192000002959D10024E4432A487844A6308BE6A4
:10193000349800680168001D349A106000294BD16A
:101940000024E443234878448A307DE634980068D4
:101950000268001D34990860002A13D10024E44372
:101960001C4878446E306FE6349800680268001DA9
:1019700034990860002A05D10024E44315487844CE
:10198000523061E60D98C11703C200F030FC349864
:1019900000680168001D349A1060002905D10024F8
:1019A000E4430C4878442C304EE60D98087000F063
:1019B0001EFC349800680168001D349A10600029EC
:1019C0000AD10024E4430348784408303CE600BFD1
:1019D000586100006C6100000D98086000F007FC81
:1019E00034980368DB1D072083433498036003CBDE
:1019F000349D2B6002AB03C32023C80F04D007988B
:101A00002D2115AB19540DE002A8008F204204D0FF
:101A100007982B2115AB195404E0C00704D507988B
:101A200015A90B54401C079015A807994318059356
:101A300024AD02A8C0C8684600782021014368464A
:101A40008170612909D00E98002801D5062003E095
:101A500003D1672901D114980E9002A803C8080089
:101A60004C006415641C0ED109030CD003200890AF
:101A7000613A1A2A03D22349794488310FE0224976
:101A8000794484310BE0002C0ED100030CD10320EB
:101A90000890613A1A2A1DD31C4979446E310322F9
:101AA000180000F02BFDA2E301AA02A803C800F071
:101AB00032FD02AA03C268468078612813D10598D6
:101AC00030210170811C059169460978612905D191
:101AD000782104E00E4979443631E0E7582141701D
:101AE0000798801C079002A803C893A20CCA024062
:101AF0000B400FD1002A0DD10024002661E100BF68
:101B0000EFFF000074600000746000007860000067
:101B10007060000068468078612800D099E00E98D7
:101B2000002801D5212000E0401C13901398401C90
:101B30002E90300039000022002300F001FD02A8A1
:101B400030C802D28020000645400198001F019055
:101B500024A90A7024A8461C2E98002832DD2E9F46
:101B600020002900002280235B0300F002FD29D819
:101B70001C2200F017FD04000D0000F04BFD2E901C
:101B8000FF1F002F09DD00F07FFD02000B00200089
:101B9000290000F0E6FD04000D00F01D07212E9A3B
:101BA000002A0ADD491E08D4401E13071B0F0370CC
:101BB0001211F5E7401E00220270491EFAD5C61D1B
:101BC000002FCDDC24A82F99711A24AA551C139A32
:101BD0000C00914200DD1400002C33D48C4205DA55
:101BE000411C095D082901DB0F2100E000212200D2
:101BF00024AB9B1801E0641E5B1E521E1E788E42B1
:101C0000F9D00F2904D1411C895C491C401C815426
:101C1000002A04D524AD641C0198001D0190611EAA
:101C200010D46A186846007813783033DEB23A2E42
:101C300001DBC318C6331370491E521E0029F3D5A9
:101C4000694608700E98002800D4B9E0601E0E9016
:101C5000B6E07F007F08019868494843684900F072
:101C6000F7FD019007200199401A002805DD0200C8
:101C70003000390000F072FB0AE042420020614966
:101C800000F06CFB02000B003000390000F00FFE8A
:101C90006A469278662A02D1019A0A3200E0062248
:101CA0000E9B9A18142A00DD142224AB30241C70D9
:101CB0005C1C02E030A803C8139A002A40DD30AB58
:101CC00003C3139230A803C800F0B6FC2E9006465A
:101CD0000834042530000A2100F0CEFD0F0030004A
:101CE0000A2100F0C9FD06003037601E0770300081
:101CF0000A2100F0C1FD0F0030000A2100F0BCFDF8
:101D00000600A41E303727706D1EE3D108341398E7
:101D1000083813900028CDDD2E9800F0A5FC0200B5
:101D20000B0030A803C800F01CFD0022364B00F069
:101D30001FFE30AA03C2C5E7FFFFFFFFFFFFFF7FC3
:101D40002F98201A24A94D1C04E0401E0199491E19
:101D500001916D1C29783029F7D069468978662968
:101D600002D10199491C06E069468978652901D1AB
:101D7000149900E000210E9A5418A04200DA441E83
:101D8000002C1DD4844204DA285D342801DD392179
:101D900000E030212200681E831801E0641E5B1EF3
:101DA000521E1E788E42F9D0392902D1A95C491CF5
:101DB000A954002A04D50500641C0198401C019018
:101DC000019E1395684600786946487000F092FEBF
:101DD000406A0078694608700E9D20B2002804DC35
:101DE000149C054878441030139068468078662823
:101DF0000CD1761C24E000BF905D000097750000B8
:101E0000A08601000000F03F84D7974168468078A3
:101E1000672846D130B20321C943884247DBA84234
:101E200045DA761C02A8008F1299C0B2084203D18D
:101E300020B2A84200DC050030B22D1A00D50025E2
:101E400037B2002F00DDBAE00898411C089130211C
:101E5000059A1154002D05DC02A8008F1299C0B21A
:101E6000084206D00898411C089169460978059AED
:101E700011547842854200DA6E4236B270420B90BD
:101E8000AD1920B2854200DA2C0024B20994220058
:101E900013990598089BC01800F030FB281B0C9084
:101EA000DAE068464078612818D170201BE020B243
:101EB000A84206DA02A9098F129AC9B2114200D1CA
:101EC00005006D1E00D5002568464078672802D1C0
:101ED0006520694607E04520694604E06846407889
:101EE000412801D1502048700898411C089113994D
:101EF0000978059A11541398411C002D05DC02A89D
:101F0000008F129AC0B2104219D00898421C089251
:101F10006A461278059B1A54002D10DD641E20B20B
:101F2000854200DA2C0022B20598089BC01800F008
:101F3000E5FA24B2089800190890281B0B90059820
:101F40000899401869464978017031B2002903D4D4
:101F50002B214170871C03E02D224270871C4E42CA
:101F6000002412AD300008E00A2100F071FC30AA14
:101F700003C229703098641C6D1C00B20028F3DC89
:101F8000012C08DC6846407820210143652902D1F4
:101F9000302038707F1C002C09D1302038707F1C15
:101FA00007E0641E12A8005D303038707F1C002CE2
:101FB000F7DC059808994018381A09904CE020B2CF
:101FC00031B288421DDA22B213990598089BC018D5
:101FD00000F094FA24B2089800190890391B0B916C
:101FE000002D05DC02A9098F129AC9B2114206D050
:101FF00069460978059A11540998401C09900C9576
:102000002AE032B213990598089BC01800F076FABE
:102010000898C0190890A41B002D05DC02A9098F9F
:10202000129AC9B2114205D0411C0891694609783B
:10203000059A115420B2854200DA2C0022B213987E
:10204000C1190598089BC01800F058FA24B20898E6
:1020500000190890281B0B9002A83821405C14211D
:102060000140102900D0C2E00798089940180B9948
:102070004018099940180C9940180F99884200DBC4
:10208000B5E0081A0A90B2E002AA3A20105C622871
:1020900008D068280ED06A2814D06C281DD071286A
:1020A00010D01AE0349801680868091D349B196043
:1020B000C0B218E0349801680868091D349B1960A3
:1020C00080B210E034980368DB1D07208343349806
:1020D000036003CB349C236006E0349801680868F1
:1020E000091D349B1960002102AB03C3108F1299A4
:1020F000C0B208425BD002A803C8002901D1002861
:1021000055D0684600782021014378294FD107989F
:1021100015A930220A54401C421C07926A461278C4
:102120000A5444E002AA3A20105C622808D06828C9
:102130000ED06A2814D06C281DD0712810D01AE057
:10214000349801680868091D349B196040B218E092
:10215000349801680868091D349B196000B210E0CA
:1021600034980368DB1D072083433498036003CB56
:10217000349D2B6006E0349801680868091D349B83
:102180001960C11702AB03C3002902DA07982D2199
:1021900009E0108F204202D007982B2103E0C007EE
:1021A00005D50798202115AA1154401C079015A8A1
:1021B0000799401805906846017802A800F03CF89D
:1021C00015E014980790349800680168001D349A4F
:1021D000106015A801700AE0252015A90870149850
:1021E000079068460078002801D04A7007940F983D
:1021F0000799401A0A99401A0899401A0B99401AEF
:102200000999401A0C99401A019002A83821405CA3
:10221000400701D5FFF733FA20206946087001987E
:10222000002801DCFFF72BFA019C329DFFF71AFA18
:102230000020C04335B0F0BDF2B586B0040025697A
:102240006F2901D1082707E008462021014378299A
:1022500001D00A2700E010273C2603CC083C04AA42
:1022600003C26A46127E642A03D06A46127E692A35
:1022700009D1002907DA04A803C800220023121A92
:102280008B4104A80CC004A803C800290DD1002864
:102290000BD1206B002808D1082F3DD13820205CBD
:1022A000000739D53B26302035E00294009504A87C
:1022B00030C8761E0196200029003A00FB1700F076
:1022C0001FFC3032D0B23A280DDA00988255200037
:1022D00029003A00FB1700F013FC04000D0007D1A1
:1022E000002C05D10AE06846007E8218AF32ECE788
:1022F0000298C068009989198842DAD3029C009D2F
:10230000082F09D13820205C000705D5A85D3028AA
:1023100002D0761E3020A8553C20801BA061A91950
:10232000E160216B884206DA081A2062208F1C497E
:102330000140218710E000290ED53821615C14226C
:102340000A40102A08D1616B6269891A226A891AC7
:10235000081A002800DD206207B0F0BDF8B500269D
:10236000104F04000D00009214E0C00707D53200A2
:102370003B002000290000F0FBFA04000D0000984B
:10238000401000903000390032003B0000F0F0FABD
:1023900006000F0000980028E7D120002900F4BDB6
:1023A000EFFF00000000244010B503000C001100F6
:1023B000A0689847A060002804D0E06A401CE06252
:1023C000002010BD0020C04310BDF8B50024002B34
:1023D00011D007000E0014001D002178B068B84726
:1023E000B060002809D0F06A401CF0620020641C34
:1023F0006D1EF2D104002000F2BD0020C043F9E7B9
:10240000C9B202788A4203D0401C002AF9D10020C8
:10241000704730B501684118446862088A188368BB
:10242000E40704D54C461B1901E0641C09D1914214
:1024300003D00C7864B2491C01E00C3030BD0D783B
:10244000491C1D705B1C002CEFD4641EF7D5EEE711
:1024500080B5002801D100BF07A006490B68002BFA
:1024600003D022220021984701E000F087FB2220C0
:1024700002BD0000B0070020636F6E737472616963
:102480006E742068616E646C65723A2062616420CB
:102490006D65737361676500431C0178401C0942D8
:1024A000FBD1C01A70470268531C0360117070475B
:1024B000C9B2521E05D30378401C8B42F9D1401E8D
:1024C0007047002070472E0070B4103A03D378C9CB
:1024D000103A78C0FBD2530701D318C918C001D5F0
:1024E00008C908C0D20704D30B880380891C801C4C
:1024F000002A01D50B78037070BC70478B0701D19F
:102500008307E1D0124205D00B78491C0370401CB0
:10251000521EF9D1704710B5144600F002F822603F
:1025200010BD4A0053155B1C08D0520D06D0032382
:102530001B02FE3AD21A1305C91A704700227047CF
:1025400030B4012464054D00EC420BD85D00EC4230
:1025500008D80C001C4364000443144304D299427D
:1025600000D1904230BC7047FCD08B42FAD18242FD
:10257000F8E730B4012464054D00EC420BD85D004F
:10258000EC4208D80C001C4364000443144304D2FA
:102590008B4200D1824230BC7047FCD09942FAD1C4
:1025A0009042F8E7124217D40023DB435B0D9C46B0
:1025B0004B005B0D06D0634504D09B18634502D2E7
:1025C0001205891870476246090D1143090500205C
:1025D00000B500BF00BF00BD52424B005B0DF1D003
:1025E0005B1C5B05EED25B0D934102D91205891A83
:1025F00070470BD10B031B13C90FC907821C0020A6
:1026000043411343E4D912051143E1E7C90FC90758
:102610000020DDE7F4464A1805D200F00FF801D596
:1026200080174008604700F009F80121C907884277
:1026300000D90800404260474A1812D2400DC90232
:1026400008430121C9070843520D40210901521ACC
:10265000521C06D452421F3201D4D0407047C017DA
:10266000704700207047FEE7010042221201D21E8F
:10267000004207D002D4521E0018FCD5C10A400502
:1026800012058918704700000100EED54042F4465B
:10269000FFF7EBFF0122D20711436047F0B4012599
:1026A000ED070F005F404FD48B4200D1824205D925
:1026B0008446100062468C4619006346DF184C18A9
:1026C000640D7F0D3AD0661C760537D0E61B352E9B
:1026D00034DCDB022B43DB0A0C0DC9022943C9128F
:1026E000202E0DDB1700203E06D01F00F741F340DF
:1026F0005F400026012A7741C01871410DD217E0D2
:102700001700F741F2405740F3415A40B340F340BD
:102710005A400026801859410AD3A21C52050FD0F6
:10272000C207012F724117004008CB071843490820
:10273000641C24054208AF4170416141F0BC704700
:10274000641C21050020F9E76B4010E06B40ABE70B
:10275000F742F3D1E943F1E72442EFD10020002111
:10276000ECE7F0B40125ED070F005F40EED40C005C
:10277000871A9C4105D2C01BA141D219634169400F
:102780006B40AE0ADF184C18F442E1D2640D7F0DA5
:10279000E2D0E61B362ED1DCDB022B43DB0AA4465B
:1027A0000C0DC9022943C90A012E28DC04D1D60721
:1027B0005208DF073A435B08EF0A7642904199419D
:1027C00014D039423BD1B61940414941761C3942B7
:1027D00004D1761C001849413942FAD0B943674602
:1027E000B74208D9A41B24052143A7E70042EAD138
:1027F0003642E8D1A2E7E40AE10700209EE7202E56
:102800000BDD203E1F00F340F7415F40012A00220C
:1028100057417E42984191410BE01700F741F24049
:102820005740F3415A40B340F3405A407E429041F2
:1028300099410A0303D2641EB61940414941002759
:10284000641E24054208AE4178416141F0BC7047E6
:10285000CA0F00D0494203105A400DD004B500D32E
:10286000404200F009F8009AD20701D349421242CF
:1028700000D5404204BD0000094214D088420FD365
:102880000122030C01D100041204002300185B4153
:102890008B4200D35B1A5241F8D3190010007047E5
:1028A00001000020704708B500F06EF908BDF0B4D3
:1028B0000E005E400125ED072E40B446AE0ADF183B
:1028C0004C18F4423BD2F74241D2640D43D07F0D05
:1028D00038D0E41BC902DB0229432B43CF0ADB0AB1
:1028E0000600B61A9F4104D2641EB6197F41B6187D
:1028F0005F416812800D24180018844222DCE80C25
:102900000021B6197F41B61A9F4102D2B6185F4125
:102910003F1C40414941F4D3241C21DD2405B61954
:102920007F41B61A9F4105D33743C6073743002678
:10293000012F7041614166463143F0BC7047FCD1C4
:10294000F74205D20020C14349054908F3E704D006
:102950000020C143F1E77F0DFAD000206146ECE78B
:102960002442FAD1401C61410F03F6D30020E2E774
:10297000F0B50E005E400125ED072E40B446AE0ACC
:10298000DF184C18F44208D2F7420ED2640D01D081
:102990007F0D12D100206146F0BD05D1F74201D86C
:1029A0007F0D05D10020C143F0BDFBD1640DF9D0EE
:1029B0000020C143490549088FE0E419C902DB0240
:1029C00029432B43DB0A460DC00231438E4630B407
:1029D00087B295B27D432E0CADB2140C7C43A41982
:1029E000260C240425439CB27C43A419190C79437A
:1029F000270CC919A4B20F043C43090C000C97B270
:102A000047432E0CBE193543ADB2170C4743360C65
:102A1000BF19A6B2BF193E043543240C3E0C36192B
:102A20009FB24743BF19BCB23E0C89191F0C4743E4
:102A30007F183E043443390C704680B297B2474346
:102A40002E0CBE193543ADB2170C4743360CBF19D7
:102A5000A6B2BF193E043543240C3E0C36199FB272
:102A60004743BF19BCB23E0C89191F0C47437F185E
:102A70003E043443390C77463F0C90B278432E0C19
:102A800080190604ADB22E43050CA0B22D18120C0D
:102A90007A435019020C80B2240CA4189AB27A43DB
:102AA000121914042043120C89181B0C7B43C918FB
:102AB00030BCEF0A394203D1B61940414941641E86
:102AC0006F12BF0DE41B0BDBFF19BC4211DA2405AA
:102AD00000274208AE417841614166463143F0BD6E
:102AE000641C05D1401C6141CF0201D34908F4E7C1
:102AF00050E75DE701487047000000000C0200202D
:102B000012422DD0994231D970B500251B4209D00F
:102B10000C00002112E01100FFF7AEFE0A000021B8
:102B2000002370BD0942F6D00024012649186441F3
:102B3000944200D3A41A7641F8D33100012601E073
:102B4000764109D2001864416D41A41A9D41F7D223
:102B5000A4185D41B619F5D3300022002B0070BDDA
:102B60001B42CFD108B500F011F808BD01D1904249
:102B7000CAD202000B0000210020704780B501205E
:102B800000F006F801BDFEE77047FEE77047FEE77C
:102B900080B500BF00BF024A11001820ABBEFBE7A2
:102BA00026000200000000000000000000000000FD
:102BB0000000000000000000000000000000000015
:102BC00000000000000000000000000C000C000CE1
:102BD000000C000C000C000C000C000C000C000C95
:102BE0000000000C000C0000000000000000001BB2
:102BF000001B001B001B001B000000000000000069
:102C000000000000000000000000000000000000C4
:102C100000008019801980198019C07FC07F801939
:102C20000033C07FC07F0033003300330033000027
:102C3000000000000000001E003F807580650074E9
:102C4000003C001E00078005806580658075003FA0
:102C5000001E0004000400000000007000D840D8EE
:102C6000C0D880D900730006000C801BC036C06637
:102C7000C046C00680030000000000000000001EE7
:102C8000003F003300330033001E000CC03CC06620
:102C9000806380618063C03E801C000000000000F3
:102CA0000000000C000C000C000C000C00000000E8
:102CB0000000000000000000000000000000000014
:102CC0000000000080000001000300060006000470
:102CD000000C000C000C000C000C000C00040006A2
:102CE0000006000300018000002000100018000C06
:102CF000000C0004000600060006000600060006A0
:102D00000004000C000C0018001000200000000C53
:102D1000002D003F001E00330000000000000000F6
:102D200000000000000000000000000000000000A3
:102D3000000000000000000C000C000C000CC0FFA4
:102D4000C0FF000C000C000C000C00000000000094
:102D50000000000000000000000000000000000073
:102D60000000000000000000000000000000000C57
:102D7000000C000400040008000000000000000037
:102D800000000000000000000000001E001E000007
:102D90000000000000000000000000000000000033
:102DA0000000000000000000000000000000000023
:102DB000000000000000000C000C000000000000FB
:102DC00000000003000300030006000600060006E2
:102DD000000C000C000C000C00180018001800007B
:102DE000000000000000001E003F00338061806191
:102DF0008061806D806D8061806180610033003F03
:102E0000001E00000000000000000006000E001E72
:102E10000036002600060006000600060006000632
:102E20000006000600060000000000000000001E72
:102E3000003F807380618061800100030006000C08
:102E4000001800300060807F807F000000000000DC
:102E50000000001C003E006300630003000E000E33
:102E600000038001800180618073003F001E00002C
:102E70000000000000000006000E000E001E001EF4
:102E80000016003600360066807F807F0006000650
:102E900000060000000000000000007F007F0060CE
:102EA00000600060006E007F8063800180018061AF
:102EB0008073003F001E0000000000000000001EA4
:102EC000003F803380610060006E007F807380610E
:102ED000806180618033003F001E00000000000020
:102EE0000000807F807F8001000300030006000651
:102EF000000C000C000C000800180018001800005E
:102F0000000000000000001E003F806380618061BF
:102F10000021001E003F8061806180618061003F70
:102F2000001E0000000000000000001E003F0073B3
:102F30008061806180618073803F801D800180613D
:102F40000073003F001E00000000000000000000B1
:102F5000000000000000000C000C00000000000059
:102F6000000000000000000C000C00000000000049
:102F7000000000000000000000000000000C000C39
:102F800000000000000000000000000C000C000425
:102F90000004000800000000000000008000800322
:102FA000000E003800600038000E80038000000032
:102FB0000000000000000000000000000000000011
:102FC0000000807F807F00000000807F807F000005
:102FD00000000000000000000000000000000000F1
:102FE0000000000000400070001C00078001000786
:102FF000001C007000400000000000000000000005
:103000000000001F803FC071C060C000C00180038D
:103010000007000E000C000C0000000C000C00006B
:10302000000000000000001E003F803180718063BE
:10303000806F806D806D806F806700600032003E21
:10304000001C0000000000000000000E000E001B2D
:10305000001B001B001B80318031803F803F80318E
:10306000C060C060C0600000000000000000007C84
:10307000007E0063006300630063007E007E0063E7
:10308000806180618063007F007E0000000000009E
:103090000000001E003F8031806100600060006021
:1030A00000600060006080618031003F001E000011
:1030B000000000000000007C007F006380638061EE
:1030C0008061806180618061806100630063007E57
:1030D000007C0000000000000000807F807F006016
:1030E000006000600060007F007F006000600060A2
:1030F0000060807F807F0000000000000000807F73
:10310000807F0060006000600060007F007F0060E2
:1031100000600060006000600060000000000000CF
:103120000000001E003F8031806100600060006090
:1031300080638063806180618031803F001E000079
:10314000000000000000806180618061806180611A
:103150008061807F807F806180618061806180612B
:1031600080610000000000000000003F003F000CF4
:10317000000C000C000C000C000C000C000C000CEF
:10318000000C003F003F0000000000000000800134
:103190008001800180018001800180018001800127
:1031A000806180618073003F001E0000000000000D
:1031B0000000C0608061006300660066006C0078FB
:1031C000007C00660066006380618061C060000072
:1031D000000000000000006000600060006000600F
:1031E0000060006000600060006000600060807F40
:1031F000807F0000000000000000C071C071C07B33
:10320000C07AC06AC06AC06EC064C060C060C0607E
:10321000C060C060C060000000000000000080715D
:103220008071807980798079806D806D806D806516
:103230008067806780678063806300000000000013
:103240000000001E003F003380618061806180616A
:1032500080618061806180610033003F001E00005A
:10326000000000000000007E007F806380618061BC
:1032700080618063007F007E00600060006000600D
:1032800000600000000000000000001E003F00334E
:10329000806180618061806180618061806580671C
:1032A0000033803F401E0000000000000000007E50
:1032B000007F8063806180618063007F007E0066A4
:1032C0000063006380618061C06000000000000056
:1032D0000000000E001F8031803100300038001ED9
:1032E00000078003806180618031003F001E000084
:1032F000000000000000C0FFC0FF000C000C000C2C
:10330000000C000C000C000C000C000C000C000C5D
:10331000000C0000000000000000806180618061FE
:103320008061806180618061806180618061806195
:103330008073003F001E0000000000000000C0601D
:10334000C060C060803180318031001B001B001BD9
:10335000001B000E000E000E000400000000000024
:103360000000C0C0C0C0C0C0C0C0C0C0C0CC804C85
:10337000804C805E8052805280738061806100004A
:10338000000000000000C0C0806080610033003B8E
:10339000001E000C000C001E001F003B80718061AD
:1033A000C0C00000000000000000C0C0806180615B
:1033B00000330033001E001E000C000C000C000C3B
:1033C000000C000C000C0000000000000000803F1A
:1033D000803F8001000300030006000C000C001871
:1033E000001800300060807F807F00000000000037
:1033F000000F000F000C000C000C000C000C000C67
:10340000000C000C000C000C000C000C000C000C5C
:10341000000F000F0000001800180018000C000C2E
:10342000000C000C00060006000600060003000366
:103430000003000000000000001E001E0006000641
:10344000000600060006000600060006000600064C
:103450000006000600060006001E001E0000000C0C
:10346000000C001E001200330033806180610000F8
:10347000000000000000000000000000000000004C
:10348000000000000000000000000000000000003C
:10349000000000000000000000000000000000002C
:1034A000E0FF0000000000380018000C00000000E1
:1034B000000000000000000000000000000000000C
:1034C00000000000000000000000000000000000FC
:1034D0000000001F803F80618001801F803F80616D
:1034E0008063807FC03800000000000000000060A2
:1034F000006000600060006E007F8073806180610A
:10350000806180618073007F006E00000000000019
:1035100000000000000000000000001E003F80735B
:1035200080610060006080618073003F001E0000C9
:103530000000000000008001800180018001801DEA
:10354000803F807380618061806180618073803F93
:10355000801D0000000000000000000000000000CE
:103560000000001E003F00738061807F807F00604C
:103570008071003F001E0000000000000000C00736
:10358000C00F000C000C807F807F000C000C000C32
:10359000000C000C000C000C000C000000000000EF
:1035A0000000000000000000801D803F80738061EB
:1035B0008061806180618073803F801D80018063B5
:1035C000007F003E00000060006000600060006F4F
:1035D000807F8071806180618061806180618061B5
:1035E00080610000000000000000000600060000EE
:1035F0000000003E003E0006000600060006000631
:10360000000600060006000000000000000600069C
:1036100000000000003E003E000600060006000616
:10362000000600060006000600060046007E003C7C
:103630000000006000600060006080610063006660
:10364000006C007C0076006300638061C060000055
:10365000000000000000003E003E000600060006DC
:10366000000600060006000600060006000600062A
:103670000006000000000000000000000000000044
:10368000000080DDC0FFC0CEC0CCC0CCC0CCC0CC60
:10369000C0CCC0CCC0CC0000000000000000000086
:1036A000000000000000006F807F807180618061F9
:1036B00080618061806180618061000000000000A5
:1036C00000000000000000000000001E003F8073AA
:1036D00080618061806180618073003F001E000016
:1036E000000000000000000000000000006E007FED
:1036F000807380618061806180618073007F006E73
:103700000060006000600060000000000000000039
:10371000801D803F807380618061806180618073E3
:10372000803F801D80018001800180010000000039
:103730000000000000000067803F003900300030CA
:103740000030003000300030003000000000000089
:1037500000000000000000000000001E803F8061AB
:103760000060007F803F80018061007F001E0000BC
:103770000000000000000000000800180018007F92
:10378000007F001800180018001800180018801F8B
:10379000800F00000000000000000000000000009A
:1037A00000008061806180618061806180618061F2
:1037B0008063807F803D000000000000000000006A
:1037C000000000000000C060803180318031001BAB
:1037D000001B001B000E000E000600000000000091
:1037E0000000000000000000000080DD80DD80DDC2
:1037F0000055005500550077007700220022000098
:1038000000000000000000000000000000008061D7
:1038100000330033001E000C000C001E0033003388
:1038200080610000000000000000000000000000B7
:1038300080618061803100330033001B001B001B5E
:10384000000E000E000E001C007C00700000000046
:10385000000000000000C07FC07F80010003000660
:10386000000C00180030C07FC07F00000000000086
:103870008003800700060006000600060006000E12
:10388000001C001C000E00060006000600060006D4
:1038900080078003000600060006000600060006FA
:1038A00000060006000600060006000600060006E8
:1038B00000060006000600060038003C000C000C64
:1038C000000C000C000C000E00070007000E000C9E
:1038D000000C000C000C000C003C00380000000044
:1038E000000000000000000000008038807F0047DA
:1038F00000000000000000000000000000000000C8
:1039000010B5040001D1012010BD3D20205C00282D
:1039100004D13C216054200000F0F4FCFFE70220B9
:103920003D216054211D206800F08AFA01204821C1
:1039300060543E2160543F21605440216054412135
:103940006054422160544321605444216054452115
:10395000605446216054472160543D21605400204A
:1039600010BD10B5040001D1012010BD3D20205C28
:10397000002804D13C216054200000F06FFDCEE708
:1039800038B50400002901D13E2010E0042901D1FE
:103990003F200CE0082901D1402008E00C2901D18A
:1039A000412004E0102901D1422000E04320205CA6
:1039B000012801D0012032BD0220002901D13E2280
:1039C00010E0042901D13F220CE0082901D1402256
:1039D00008E00C2901D1412204E0102901D1422242
:1039E00000E04322A0540122206800F0F3FB22688B
:1039F000134814498A4207D0824205D0124B9A429A
:103A000002D0124B9A4204D1536C80252D021D43E3
:103A10005564236801228B4204D00D498B4201D0AA
:103A2000834207D199684C480840062805D0110404
:103A3000884202D0186802431A60002032BD00009C
:103A400000400140002C014000440140004801407A
:103A50000004004070B504000D000022B1E038B54C
:103A60000400002901D13E2010E0042901D13F20AB
:103A70000CE0082901D1402008E00C2901D14120A7
:103A800004E0102901D1422000E04320205C0128FD
:103A900001D0012032BD0220002902D13E23E05492
:103AA00050E0042905D13F22A0542068C2680423B5
:103AB0000EE0082905D14022A0542068C2680823DE
:103AC00006E00C292ED14122A0542068C2681023A0
:103AD0001343C3600122206800F07CFB22681F486A
:103AE0001F498A4207D0824205D01E4B9A4202D01B
:103AF0001D4B9A4204D1536C80252D021D43556401
:103B0000236801228B4204D018498B4201D08342A2
:103B10001DD199681048084006281BD0110488421E
:103B200018D014E0102902D14222A054D2E7432336
:103B3000E0540A0006D00429B7D00829BDD00C29CA
:103B4000C3D0C7E72268D3681843D060C2E71868BB
:103B500002431A60002032BD07000100004001400E
:103B6000002C014000440140004801400004004096
:103B700004000D0006D0042D0BD0082D10D00C2D04
:103B800015D01CE02068C168304A0A40C260606AF3
:103B900013E02068C1682E4A0A40C260A06A0CE0A7
:103BA0002068C1682B4A0A40C260E06A05E02068CC
:103BB000C168294A0A40C260206B00F08DFC0022D7
:103BC0002900206800F006FB2268244824491E4B87
:103BD0009A4208D01B4B9A4205D0224B9A4202D0FF
:103BE000214B9A4209D1136A0B4006D1136A034054
:103BF00003D1536C1D4E1E4056642268136A19404F
:103C000006D1116A084003D1106801218843106071
:103C10000120002D01D13E2110E0042D01D13F21D2
:103C20000CE0082D01D1402108E00C2D01D14121EB
:103C300004E0102D01D1422100E043216054002016
:103C400070BD000000400140002C0140FFFDFFFF5F
:103C5000FFFBFFFFFFF7FFFFFFEFFFFF4404000044
:103C6000111100000044014000480140FF7FFFFFA8
:103C7000F1B53C23C05C012801D10220F2BD012036
:103C8000009B3C24185508273C4EC5020C00002A16
:103C90000AD0042A18D0082A28D00C2A36D0102A94
:103CA00046D0142A54D064E00098006800F000F96F
:103CB0000098006881690F438761816904229143FC
:103CC0008161816922690EE00098006800F02AF99C
:103CD0000098006881690D43856181690E408661A5
:103CE0008169226912020A43826142E000980068F9
:103CF00000F04CF900980068C1690F43C761C169C1
:103D000004229143C161C16922690EE000980068F4
:103D100000F06EF900980068C1690D43C561C16982
:103D20000E40C661C169226912020A43C26120E0E5
:103D30000098006800F092F900980068416D0F4308
:103D40004765416D042291434165416D22690EE052
:103D50000098006800F0AEF900980068416D0D43CE
:103D60004565416D0E404665416D226912020A4368
:103D70004265002000993C228854F2BDFFFBFFFF02
:103D800070B504003C20205C012801D1022070BDE8
:103D900026003C360125357002203D22A0542068C3
:103DA0008268264B13408360086802003CD01028CC
:103DB0003AD0202838D0302836D040282DD050286E
:103DC0001DD0602822D0702803D06B0398420AD0FF
:103DD0002EE0CB684A688968206800F0CFF9206837
:103DE0008168772208E0CB684A688968206800F01B
:103DF000C5F920688168AA030A43826018E0CA688E
:103E00004968206800F08AF950210EE0CA684968C4
:103E1000206800F094F9602107E0CA6849682068CA
:103E200000F07CF9402100E00100206800F09CF9DE
:103E30003D2025540020307070BD00008800CEFF6A
:103E4000F0B506687F4A804B804C814DA84201D076
:103E5000A04206D17027BE4337004E683E43A842B9
:103E60000BD0A04209D07B4CA04206D0984204D08F
:103E7000904202D08D4CA04203D1774C3440CE68A2
:103E800026438024A6434C69344304608C68C46292
:103E90000C688462A84206D0984204D0904202D0B6
:103EA000824A904201D10969016301214161F0BD5B
:103EB000F8B5026A01239A430262036A4268846980
:103EC0007B4D25400C682C4300940224A3438C684E
:103ED0001C435C4B5C4D5E4EB04206D0A84204D001
:103EE000984202D0714FB8420CD10827BC4327003A
:103EF000CC683C430427BC43B04206D0A84204D05F
:103F0000984202D0694B984205D1534B13404D69FA
:103F10001D438A692A434260009A8261496841636D
:103F20000462F1BD70B5026A10239A430262026A0C
:103F300043688469744D25400C6824022C43202575
:103F4000AA438D682D011543414A904208D1802231
:103F500095432E00CA68150135434022954308E079
:103F6000394A904205D0374A904202D04F4A904297
:103F700006D1814A1A404B698E691E43B300134330
:103F80004360846149688163056270BD70B5026AEF
:103F90005E4B13400362046A4268C369444D1D408E
:103FA0000B682B435A4D25408C6824022C43284D26
:103FB000A84207D1574D2540CC6826022E43564CC7
:103FC000344008E0204DA84205D01E4DA84202D042
:103FD000364DA84206D16E4D15404A698E6916438A
:103FE00032012A434260C3614968C163046270BD03
:103FF00030B5026A5B4B13400362036A4268C469CE
:10400000414D25400C6824022C43624D1D408B68B5
:104010001B032B430E4DA84208D00B4DA84205D0E0
:10402000084DA84202D0214DA84204D15A4D154056
:104030004A6992012A434260C4614968016403628B
:1040400030BD000000440140004001400004004039
:10405000002C014000200040FFFCFFFF70B54F4ADC
:10406000036A13400362046A4368456D4C4E2E4058
:104070000D6835434B4E26408C68240434434A4E29
:10408000B04208D0494EB04205D0494EB04202D0AD
:10409000484EB04203D11A404B691B0213434360A0
:1040A000456549688165046270BD000000480140B3
:1040B0008CFFFEFF30B5026A3F4B13400362036A78
:1040C0004268446D3D4D25400C6824022C433C4D14
:1040D0001D408B681B052B43334DA84208D0334D40
:1040E000A84205D0324DA84202D0324DA84204D198
:1040F000344D15404A6992022A434260446549683A
:10410000C165036230BD0000FF8CFFFEFFFEFFFFB4
:10411000FFFDFFFFFFF7FFFFFFFBFFFF30B5036A67
:10412000046A0125AC4304628469F025AC431201A2
:10413000224382610A2293431943016230BD30B5A4
:10414000036A1024A34303628469036A1F4D254058
:1041500012032A438261A022934309011943016299
:1041600030BD0000FFEFFFFF8268174B134019437B
:1041700007220A4382607047FFF3FFFF30B584686F
:10418000134D254029430A4319021143816030BD74
:10419000FFCFFFFFFFDFFFFFFFBFFFFFFFFFFEFFC0
:1041A0008FFFFEFFFFFFFDFF002C0140004001409C
:1041B0000044014000480140FFFFEFFFFF8FFFFE7A
:1041C000FFFFDFFFFFFFFBFF8FFFCFFFFF0FFFFFB3
:1041D000FF00FFFF10B5C906C90E036A01248C4019
:1041E000A3430362036A8A401A43026210BDFEE7DA
:1041F00080B59148012142680A43426042681140FB
:10420000009100998021490502680A430260006814
:10421000014000910098C020C00000F0B1F901BD3C
:1042200038B586B004001422002101A800F0B6F9C8
:1042300020686449884234D17E4880214903C2689D
:104240000A43C260C26811400091009901210268CE
:104250000A4302600268114000910099022102683D
:104260000A4302600068014000910098102001900C
:10427000032402940025039501A9A020C00500F0A5
:1042800097F96E4801900294039501A96C4800F0DB
:104290008FF9002200210C2000F067FA0C2000F0BA
:1042A00069FA07B030BD10B586B0040014220021B1
:1042B00001A800F073F920686249884220D10220E9
:1042C0005C4C2168014321602168084000900098FF
:1042D000C020800001901220029001200390002055
:1042E00004900620059001A9554800F061F980204E
:1042F0008003A1680143A160A16808400090009874
:1043000006B010BD81B001684B484F4A914201D1BF
:10431000C10C0DE04D4A914205D1022102680A43C9
:104320000260006808E04A4A914208D180214902AF
:1043300042680A434260406801400091009801B021
:10434000704770B586B0040014220021684600F062
:1043500025F925683A4801210222364C00233A4EBD
:10436000B54208D12568154325602468144005949A
:10437000059C08240AE0354EB5420CD1256815434A
:104380002560246814400594059C10240094019233
:10439000029303930FE02E498D4210D121681143FF
:1043A0002160216811400591059951030091019206
:1043B0000293039305210491694600F0F9F806B0D1
:1043C00070BD00000024014010B586B00400142226
:1043D000002101A800F0E2F820681E49884226D199
:1043E00014488021C901C2680A43C260C2681140F2
:1043F00000910099042102680A43026000680140AC
:10440000009100983020019002200290002003903B
:1044100004900120059001A90F4800F0C9F800227E
:1044200000211B2000F0A1F91B2000F0A3F906B029
:1044300010BD0000341002403C1002400210000089
:104440000004005000540040002C014000040040D3
:104450000040014000380140000800507047FEE76E
:10446000F0B5002809D00100243100222523C35CC7
:10447000022B04D00423C3630A700120F0BD03683B
:104480001C680E25AC431C60446C334B25681D40F2
:104490002560046825680126B54325602D4C2568F4
:1044A000AC464025475D1C253D400127AF40654691
:1044B0002F432760C46C856C6C60046D002C06D0A3
:1044C00024682340046D2360836D446D636025235D
:1044D000C6540A700020F0BDF8B500210024012662
:1044E0002522825C022A03D00421C16301242EE02C
:1044F000026813680E25AB43136002681368B34368
:104500001360436C144A1D6815401D60114B1D68F3
:10451000AC464025475D1C253D400127AF40654620
:104520002F431F60C36C856C6B60036D002B06D03E
:104530001B681A40036D1A60826D436D5A60252214
:10454000865424228154816B002900D088472000A2
:10455000F2BD000004000240FFFEFFFF10B5002482
:104560000B480168820D0A430260002000F028F920
:10457000002801D0012401E0FFF73AFE200010BD21
:1045800004490A68044B1340184308607047000050
:104590000020024000000140FFF9FFFF10B50400B9
:1045A000080011000200200000F032F9200010BDC8
:1045B000FEB500222CE0052602E0574FB842FAD1A2
:1045C000AE402643009C2660544C2568DC432540C1
:1045D0004E68F60300D51D43504E35607568254082
:1045E0004F68BF0300D51D4375604D4D2E682640B2
:1045F0004D68ED0200D51E43494D2E606E68344073
:104600004E68B60202D526001C0034436C60521C72
:104610000B681C00D44072D0012595402B40F6D089
:1046200054000327A740FE4301964E68012E05D093
:10463000022E03D0112E01D0122E0ED18768019EBA
:104640003E40CF68A740374387604668AE434D6819
:10465000EF06FF0F974037434760C568019E2E4025
:104660008D68A5403543C5604D68022D01D0122DDF
:1046700019D1D508AD0045192E6A029697001C265F
:104680003E406F463E70029EB4460F276E46367817
:10469000B7406646BE43B4460F696E463678B740AB
:1046A000664637432F6207680326019D3D404F68E9
:1046B0003740BC4627006446BC402C4304604C682D
:1046C000E400A4D5174C9508AD0064190094246843
:1046D000D70018253D400F27AF40BC43A027FF055A
:1046E000B84201D100266BE70F4FB84201D1012635
:1046F00066E70E4FB84200D05FE7022660E7F7BDDD
:104700000069084000D00120C0B27047002A01D0E3
:104710008161704781627047000C00508018024030
:1047200000180240601802400004005000080050C9
:1047300010B5C20018231340FF249C40E2438907B0
:10474000090E9940030004D419489B089B00C01827
:1047500006E0184B0007000F083880088000181882
:1047600003681A401143016010BD80B5FFF7E0FFF8
:1047700001BD0000010005D40121C006C00E81402A
:104780000D480160704710B5401E802149048842E1
:1047900001D3012010BD094C606003210020C043FB
:1047A000FFF7C6FF0020A0600721216010BD0000B8
:1047B00000E400E01CED00E000E100E010E000E0BB
:1047C00070B5060000240F4D2978002916D0FA2074
:1047D0008000FEF751F801000B480068FEF74CF826
:1047E000FFF7D1FF002809D1042E07D200223100A3
:1047F0000020C043FFF7B9FFAE6000E001242000B5
:1048000070BD00BF800100208C010020002200BF8D
:10481000094202D0491E4254FCD1704738B5040009
:1048200014D0250080356868002803D12870200046
:10483000FFF7CAFD242068602068016801229143C7
:104840000160200000F0F2F9012801D1012032BD01
:10485000A06A002802D0200000F0A8FA2068416871
:10486000084A0A404260206881682A229143816098
:10487000FFE72068016801220A430260200000F07F
:10488000FDFA32BDFFB7FFFFF1B584B01C008030E8
:1048900001904068202870D10D000FD0684602803A
:1048A000002A0BD080277F0104988068B84207D186
:1048B00004980069002803D1E80701D501205DE0D4
:1048C00001980078012858D001200199087000262D
:1048D0000198C66021200199486000F0A1FB04996D
:1048E0005431029169460988029A11806946098803
:1048F000029A518004998968B94203D104990969DF
:10490000002901D029000025019A1670049E029406
:1049100007000C0010E021788162641C07E0306819
:10492000002CF8D12988C905C90D8162AD1C300061
:1049300054304188491E418030005430408800285E
:104940000AD0029800903B0000228021300000F045
:10495000D1FA0028E3D009E030003B000299009131
:104960000022402100F0C6FA002801D0032005E013
:10497000202001994860002000E0022005B0F0BD31
:10498000F8B584B0040020680190C169206802680D
:104990000198806800909E4B0B4025005C352020DC
:1049A00020261640029620260E4003960026002B55
:1049B0000FD1039B002B12D0029B002B03D1009B35
:1049C000DB0000D483E06969002901D0200088471A
:1049D0001BE1009B8F4F1F4002D18F4B134076D0BD
:1049E000CB0707D5D30505D50123019F3B622F6B6C
:1049F0003B432B638B0709D5009BDB0706D50223BE
:104A000027683B622B6B04271F432F630423194243
:104A100008D0009FFF0705D527683B622B6B022754
:104A20001F432F630B070CD5029B002B03D1009B68
:104A3000784F1F4005D0082327683B622F6B3B430C
:104A40002B638301194006D0510104D521680B6204
:104A5000296B08432863286B00282ED00398002870
:104A60000AD00298002802D10098C00004D56969D4
:104A7000002901D020008847286B402721688968D9
:104A8000394002D1282101401CD0200000F09AFAC0
:104A9000206881680F4011D0816840229143816075
:104AA000286A00280AD05D498163286AFFF714FD4F
:104AB000002802D0286A816B8847A6E0200000F019
:104AC000B5FAA2E0200000F0B1FA2E639DE02B6958
:104AD000012B5FD1102319425CD01A425AD00199A0
:104AE0000B621021C9432268926852062DD52A6AAA
:104AF00013685B689BB2002BE8D05C27E75BBB4286
:104B0000E4DA6B8012681268024018D122681268D9
:104B1000434B134022681360226893680127BB430C
:104B20009360226893684027BB439360E8622E61DC
:104B30002068026811400160286AFFF791FC5C2040
:104B4000205A6988411A89B220E05C22A25A6B88F7
:104B5000D21A6B461A806A88002A56D06A46128892
:104B6000002A52D0226812682E4B1340226813602C
:104B7000226893682C4F1F409760E8622E616E6137
:104B8000206802681140016068460188200000F03A
:104B90004EFA3AE0C303194208D0009F7F0205D5C0
:104BA00001980362200000F043FA2EE0830480277E
:104BB00039420AD0174002D1009F1F4005D0A96991
:104BC000002922D0200088471FE0402739420DD01D
:104BD00017400BD021680968402291432268116078
:104BE000A862AE61200000F024FA0EE00B4005D070
:104BF000500003D5200000F01DFA06E0C80104D5DE
:104C0000002A02D5200000F016FA05B0F0BD000021
:104C10000F080000010000102001000405500008EA
:104C2000FFFEFFFFDFFEFFFFFEFFFFEFF8B5040012
:104C300000270025206801688E4A0A40A1681143B8
:104C400022690A4361691143E2690A43616E1143B3
:104C500001604168884A0A40E16811434160816807
:104C60009E4A0A40A1691143226A0A438260C16ACE
:104C70000F229143626A0A43C262994A1021994BFA
:104C8000984208D110688007800F1ED0022810D0EB
:104C900011D303280BE0944B984210D110680C22DA
:104CA000024012D0042A06D0082A02D00C2A04D0CE
:104CB0000CE002210AE0042108E0082106E08B4A0A
:104CC000904202D08A4A904200D1002131A6B348D6
:104CD00080221202E36993422AD1002906D00229D8
:104CE00008D004291FD0082920D049E000F07DFC1D
:104CF000002846D061680091616A4900715AFDF749
:104D0000BBFD40000099490840180099FDF7B4FD2B
:104D100080B201001039A24A914231D2024000070C
:104D2000400F104324E000F01FFCE1E71000E1E732
:104D3000002906D0022908D004291CD008291DD03A
:104D40001EE000F052FC00281BD061680091616AEF
:104D50004900715AFDF790FD0099490840180099E3
:104D6000FDF78AFD80B2010010398D4A914207D2C9
:104D70002168C86005E000F0F7FBE4E71000E4E715
:104D80000125200068300121418001808760C760D3
:104D90002800F2BD010002000400060008000A001D
:104DA0000C00100020004000800000012821415C20
:104DB000C90706D501684A687A4B1340C26A1A438C
:104DC0004A602821415C890706D501684A68764B0C
:104DD0001340026B1A434A602821415C490706D5FB
:104DE00001684A68714B1340426B1A434A6028219C
:104DF000415C090706D501684A686D4B1340826B18
:104E00001A434A602821415CC90606D501688A68B0
:104E1000684B1340C26B1A438A602821415C8906A3
:104E200006D501688A68644B1340026C1A438A6095
:104E30002821415C490611D501684A685F4B13403F
:104E4000426C1A434A60426C80235B039A4205D14C
:104E50004A685B4B1340826C1A434A602821415CCC
:104E6000090606D501684A68634B1340C06C1843B5
:104E700048607047F369FFCFFFCFFFFFF8B504002C
:104E800000258030C56000F0CBF807005B4E20683D
:104E90000068000709D500963B00002280218903A5
:104EA000200000F027F800280DD120680068400796
:104EB0000BD500963B0000228021C903200000F0A2
:104EC00019F8002801D00320F2BD210080312020F4
:104ED00048608860E5660D700020F2BDFFF4FF11A8
:104EE0005410024000380140004400400048004097
:104EF000004C0040FEB5089F8024240100250600D8
:104F000001916846027002933068C06901990140BE
:104F10000198814201D1012000E000206946097812
:104F2000884238D10020C0438742EDD000F078F8A5
:104F30000299401A874201D3002F11D130680168CD
:104F40002F4A0A40026030688168012291438160E3
:104F50003000803020214160816005700320FEBD5B
:104F6000306800684007CFD53068C0692040CBD09A
:104F70003068046230680168214A0A400260306883
:104F8000816801229143816030008030202141609E
:104F90008160C160E1E70020FEBD00000024F40054
:104FA000F0FF0000FFFFFDFFFFFFFEFFFFFFFBFF25
:104FB000FF7FFFFFFFEFFFFFFFDFFFFFFFFFEFFFC1
:104FC000FFFF9FFF01680A68134B13400B600168E5
:104FD0008A68124B13408B60C16E012904D10168AD
:104FE0000A6810239A430A602021882281500021F8
:104FF000C166016770470000FFFFF7FFFFFFFF0179
:105000005FFEFFFF80B5806A0100563100220A81F1
:105010000A8000F00BF801BDDFFEFFFFFEFFFFEF8F
:1050200001484068704700BF80010020704770470A
:105030007047704770477047FEB507001BD0A84CFB
:105040003878C00719D5A16838200840E168802564
:10505000AD02102808D18807800F032806D0796890
:105060006808814234D13BE00828F8D12068054027
:1050700003D07868002800D1B7E1387880077BD565
:10508000A06838210140E268B948BA4D10294ED1D4
:105090009207920F022A4CD0F968002900D196E0BD
:1050A000216808403969014321602068A10D01434E
:1050B0002160FFF7B5FF3E0007002068400500D5DE
:1050C0007DE0FFF7ADFFC01B0328F6D30320FEBD34
:1050D000A022D202914207D1216882000A432260B5
:1050E00021680843206007E02068A349014021604F
:1050F0002068A24901402160786800280BD0FFF7A2
:105100008FFF060020682840B7D1FFF789FF801B7A
:105110006528F7D3DAE7FFF783FF06002068284009
:10512000ABD0FFF77DFF801B6528F7D3CEE70029C2
:10513000B2D12268520502D5FA68002A3ED06268D0
:1051400015407A6912022A43626000290ED1216853
:105150000840396901432160A64801212268920470
:10516000520F9140FDF788FBA3490860A3480068EF
:10517000FFF726FB002821D10225387800070AD541
:10518000A06838210140182931D1206E284002D072
:10519000B869002812D03878400700D4A9E0002070
:1051A0000190A06838210140202942D1E06D0540DE
:1051B00000D19EE0B868002800D09AE015E1606850
:1051C000054070690002284360603700D4E720681A
:1051D0008B4901402160FFF723FF0500206840054F
:1051E000CAD5FFF71DFF401B0328F7D36EE7B86948
:1051F0000028206E0ED0012101432166FFF710FF29
:105200000600206E2840C6D1FFF70AFF801B032846
:10521000F7D35BE7012188432066FFF701FF060013
:10522000206E2840B7D0FFF7FBFE801B0328F7D382
:105230004CE7E806E16B014008D1E16B0143E16313
:10524000E16B084000900098012001906D4D2868A6
:10525000C00512D4A00D0090286800990143296070
:10526000FFF7DEFE060028680099014005D1FFF730
:10527000D7FE801B0328F6D328E7B8680121012850
:1052800005D00528E06D06D104220243E265E06DF9
:105290000143E16505E08843E065E06D0421884352
:1052A000E0650226B86800280CD0FFF7B9FE0500BB
:1052B000E06D304016D1FFF7B3FE401BA64988428F
:1052C000F6D303E7FFF7ACFE0500E06D304009D0F0
:1052D000FFF7A6FE401BA0498842F6D3F6E600BFC2
:1052E000001002400198002803D0E06B9B49014068
:1052F000E163F86900287AD0A16838220A40102AB0
:1053000054D08026B60496490228206838D101403E
:105310002160FFF785FE05002068304005D0FFF7CB
:105320007FFE401B0328F7D3D0E6E0688D4901409B
:10533000386A0843796A0143B86A00020843F96A87
:105340000143386B0843E060206871080143216025
:10535000E068F1000143E160FFF762FE05002068AC
:10536000304044D1FFF75CFE401B0328F7D3ADE685
:10537000FFC7FFFFFF80FFFFFFFFFEFFFFFFFBFFF9
:1053800001402160E06803218843E060E0689E49B5
:105390000140E160FFF744FE05002068304026D060
:1053A000FFF73EFE401B0328F7D38FE601281CD0F1
:1053B000E0688107890F3A6A914216D17021014055
:1053C0007A6A914211D1FE21C9010140BA6A1202E2
:1053D00091420AD1F82189030140FA6A914204D12D
:1053E000400F4007396B884201D00120FEBD0020EC
:1053F000FEBD00000024F4008C0100208801002084
:10540000FFFEFFFF00700040F8B5070066D0009176
:105410007E4800684007400F884218D27B4C2068C5
:1054200007218843009901432160FFF7F9FD009DA2
:10543000060020684007400FA84207D0FFF7F0FDA4
:10544000801B45498842F4D30320F2BD009539689A
:10545000704C022001420CD0490704D5A168E0221B
:10546000D2010A43A260A168694A0A40B96811439F
:10547000A1600725ED433978C90732D5796801293C
:1054800018D12068800329D5A06828400143A16075
:10549000FFF7C6FD3E000700A06838210140706894
:1054A000C00081421CD0FFF7BBFDC01B2A498842C7
:1054B000F2D3C9E7022902D12068800103E0002964
:1054C00003D120684005DFD408E0032903D1226E10
:1054D0001040D9D102E0E26D1040D5D10120F2BDDB
:1054E00037000098494909684907490F884217D28F
:1054F0004648006805400098284344490860FFF783
:105500008FFD009D0600414800684007400FA842FB
:1055100006D0FFF785FD801B0F498842F3D393E740
:105520003878400705D5A0683B490140F868084332
:10553000A06000F019F83949A2681205120F920014
:10554000895CC906C90EC8403549086035480068FD
:10555000FFF736F9F2BD000089130000FFFFFFEFEF
:10556000FFFFFFFE8C80C11F30B507212F48294C5B
:105570003823A2681A4006D123680122DB0A1940A9
:105580008A4011001EE04208A5681D40082D01D187
:10559000100030BDA5681D40102D16D1E368E568E8
:1055A0002D092940491C7F259B079B0F032B00D108
:1055B0001000FDF761F9E168090A0D406843E168F0
:1055C000490F491CFDF758F930BDA0681840202844
:1055D00002D18020000230BDA0680340182B02D108
:1055E000FA20C00130BD002030BD0F4801680C48D2
:1055F00000680F4A4904490F8900515CC906C90E69
:10560000C840704700000000FFFFFEEF002002408E
:10561000FFF0FFFF00100240FF8FFFFF8C7B0008B0
:105620008C01002088010020081002400024F400B2
:10563000507C0008F0B59BB0FEF790FF00F030FB07
:1056400014216846FFF7E2F80426AA4801683143AE
:1056500001600168314005910599016801220A4302
:1056600002600168CA07D20F0592059902210268FB
:105670000A4302600068014005910598A027FF05D4
:10568000002220213800FFF741F89B4D00228021A5
:105690002800FFF73BF8F0020090002401940294E8
:1056A00069462800FEF784FF202000900120019029
:1056B0000294039469463800FEF77AFFC020800008
:1056C00000900194029469463800FEF771FF802033
:1056D0000090012001900294039469462800FEF78F
:1056E00067FF68460021002200230EC0C84DC9484C
:1056F000286030076860AC60EC608020000628619C
:105700006E612C83AC760120E861202168546C62C4
:10571000AC622C216C542C636C633C216C54EC64A3
:10572000280000F088FB002801D000F063FBBA4895
:105730000090012001906946280000F0A1FD00289A
:1057400001D000F057FBB54800906946280000F0F2
:1057500097FD002801D000F04DFBB148009069464C
:10576000280000F08DFD002801D000F043FB17A8B1
:1057700000210022002300264EC068460EC01C21D6
:1057800010A8FFF743F8342103A8FFF73FF8A54816
:10579000A5490860084644608460D84EC66004612C
:1057A00044618461FEF7ACF8002801D000F022FBD0
:1057B00080204001179017A99B48FEF7E1FA0028C6
:1057C00001D000F017FB9848FEF7CBF8002801D075
:1057D00000F010FB0094019402946946924800F096
:1057E000EBFE002801D000F005FB60201090119422
:1057F00012941394149415941694042210A98A48B0
:10580000FEF736FA002801D000F0F4FA039404946D
:1058100005940694079480208001089009940A94C6
:105820000B9400030C900D940E940F9403A97E48E2
:1058300000F0F3FE002801D000F0DCFA7A48FEF711
:1058400080FD0AA800210022002300278EC06846A0
:105850000EC01C21FEF7DAFFCD48CE49086008468D
:1058600044608460C66004618461FEF749F80028E2
:1058700001D000F0BFFA802040010A900AA9C54873
:10588000FEF77EFA002801D000F0B4FAC148FEF716
:1058900068F8002801D000F0ADFA0094029469463F
:1058A000BC4800F089FE002801D000F0A3FA602077
:1058B0000390049405940794002203A9B548FEF7C9
:1058C000D7F9002801D000F095FAB248FEF739FD6B
:1058D0000AA80021002200238EC068460EC01C21A9
:1058E000FEF794FF34210EA8FEF790FFAA4FAB48B5
:1058F00004E000BF341002400008005038607C60B3
:10590000BC60FE603C617C61BC613800FDF7F8FF63
:10591000002801D000F06EFA802040010A900AA908
:105920003800FEF72DFA002801D000F063FA3800A5
:10593000FEF717F8002801D000F05CFA00940294FA
:105940006946380000F038FE002801D000F052FA15
:105950006020039004940594069407940894099495
:10596000002203A93800FEF783F9002801D000F0D7
:1059700041FA0E940F941094119412948020800197
:10598000139014941A940EA9380000F046FE0028D3
:1059900001D000F02FFA3800FEF7D3FC2E00643659
:1059A000B548B06196208001F06134627462B462DF
:1059B0000C20F06234637463B463F46334642800CD
:1059C0007C30FEF72BFF002801D000F013FA0021F5
:1059D00028007C3000F0A5FE002801D000F00AFA73
:1059E000002128007C3000F0B5FE002801D000F036
:1059F00001FA28007C3000F077FE002801D000F08A
:105A0000F9F99E488621490068509D480EE000BF84
:105A100010000020002401401000001000020024AB
:105A200000000140002C01405C060020691848601D
:105A300086204000281884600120862149006918CA
:105A4000C86086204000281804618620400028187D
:105A50004461862040002818846186204000281870
:105A6000C46186204000281804628620400028185F
:105A700000F0CEFE002801D000F0BCF90021862005
:105A80004000281801F098F8002801D000F0B2F981
:105A9000002186204000281801F0ABF8002801D032
:105AA00000F0A8F980208000FEF76AFDB04886214A
:105AB00049006918C86486204000281804658620BB
:105AC000400028184465FA239B000A226DA1280093
:105AD0007C30FEF7D9FE6848016820220A43026044
