:020000040800F2
:1000000060060020E93A0008353800083738000853
:1000100000000000000000000000000000000000E0
:100020000000000000000000000000003938000857
:1000300000000000000000003B3800083D380008C8
:100040001B130008000000002F18000833180008D8
:1000500037180008572B0008AF390008BF3A0008CE
:1000600000000000CB3A0008F93A0008FB3A00080B
:10007000FD3A0008FF3A0008013B000800000000BC
:10008000033B0008053B0008073B0008093B00084C
:100090000B3B00080D3B00080F3B0008113B00081C
:1000A000133B0008153B0008173B0008193B0008EC
:1000B000853800081B3B0008FDB5B2B03A980491A2
:1000C00002A93B22885400200D9024A8401C2F90A8
:1000D0000DE00498329A90470490002801D100F076
:1000E00001FF0D98401C0D903398401C33903398BD
:1000F0000178002910D02529EBD100200790089025
:1001000009900A900B900C90002102240120149079
:1001100008201290339D05E00D9800F0E5FE0800E0
:10012000149901436D1C28782028F8D023280BD07F
:100130002B2804D02D2804D0302808D00AE02143F1
:10014000F0E708000421ECE708000821E9E70800CF
:100150001021E6E72A280FD1349802681068121D92
:10016000349B1A600F90002804D542420F92080079
:10017000042101436D1C12E000200F90654A09E044
:100180000F9B934205DA9E00F3185B001818303875
:100190000F906D1C28780300303B0A2BF0D3287891
:1001A0002E2803D00020C0430E9027E06D1C287835
:1001B0002A2808D1349800680268001D349B186012
:1001C0000E926D1C1AE02D2802D12D226D1C00E02C
:1001D000002200200E900CE0002A09D10E9B4D4E0B
:1001E000B34205DA9E00F3185B00181830380E9001
:1001F0006D1C28780300303B0A2BEDD302A8018741
:100200002E78310041487844FF30C01C00F052FF86
:10021000002801D06D1C00E0002602A83A214654B7
:10022000405C682804D1287868280BD1622005E05A
:100230006C2807D128786C2804D1712002A93A22B1
:1002400088546D1C15A80690287869460870681CAB
:100250003390684602781000253833D01C3800D11E
:1002600018E2001F022800D814E2133801D100F070
:1002700065FD093800D10DE2801E01D100F0FBFDC3
:10028000401E01D100F0A8FD401E022800D801E266
:10029000001F01D100F0A0FD401F00D153E1401E1E
:1002A00001D100F04BFD401E00D1F3E0C01E10D084
:1002B000801E01D100F042FDC01E01D100F03EFDC4
:1002C00000F0E4FD252015A908701498079000F0AF
:1002D000E8FD349800680468001D349908600594AE
:1002E000002C00D0C2E002A83B21405C002800D1D5
:1002F000B5E00024E44306487844143000F002FFDF
:10030000201A01D000F0EEFD00F0CBFD38360000E1
:100310006C360000CBCCCC0C01236A4602A9280025
:1003200000F0ADFE002801D000F0DCFD641EF3D12A
:100330003295079D15AC002D0FD0329E227802A970
:10034000300000F08BFE002802D4641C6D1EF5D135
:100350003296002801D000F0C5FD302069460870B3
:100360000A9C002C0DDD329D01236A4602A928005B
:1003700000F085FE002801D000F0B4FD641EF3D12A
:100380003295059C089D002D0FD0329E227802A93F
:10039000300000F063FE002802D4641C6D1EF5D10D
:1003A0003296002801D000F09DFD302769460F707D
:1003B0000B9C002C0DDD329D01236A4602A928000A
:1003C00000F05DFE002801D000F08CFD641EF3D12A
:1003D0003295059808994418099D002D0FD0329E3A
:1003E000227802A9300000F039FE002802D4641CF3
:1003F0006D1EF5D13296002801D000F073FD6846DD
:1004000007700C9C002C0DDD329D01236A4602A969
:10041000280000F034FE002801D000F063FD641EC7
:10042000F3D1329502A83821405C400700D45EE643
:100430002020694608700198002800DC57E6019CDE
:10044000329D01236A4602A9280000F018FE002808
:1004500001D000F047FD641EF3D1329547E64048D5
:100460007844FF30C01E059000F01BFD0E9D002D4E
:1004700003D5200000F06AFE09E02A0000212000D8
:1004800000F070FE002801D0001B00E0280008905A
:1004900000F007FD349800680268001D3499086078
:1004A0000020C0430021104002AA03C215A80590F5
:1004B000069A3C2302A803C8002904D1002802D1CF
:1004C0000E9C002C15D05B1E05072D0F3035EEB2AB
:1004D0003A2E08DAD55400090C072043090904D143
:1004E000002802D105E02735F4E7059CD518AC4279
:1004F000E9D33C20C01A0890D11805910E99884282
:1005000008DA081A0A9002A8018FAA4A0A4002874C
:1005100000F0C7FC002901D400F0C3FC02A9382276
:10052000895C14220A40102A01D000F0BAFC0F990D
:10053000079A891A0A9A891A081A002801DC00F019
:10054000B0FC00F0F9FB02A83B21415C002909D076
:100550000024E4434B487844FF302B30CEE600BF04
:10056000383400003A21405C62286AD0682819D0EB
:100570006A2845D06C2806D071284FD0742831D015
:100580007A2821D06FE0349800680168001D349A01
:10059000106000297AD10024E4433B487844FF30BE
:1005A0001738ABE6349800680168001D349A106073
:1005B000002905D10024E44333487844CA309DE63D
:1005C0000D98088000F06DFC349800680168001DEB
:1005D000349A1060002959D10024E4432A48784411
:1005E000A6308BE6349800680168001D349A1060CC
:1005F00000294BD10024E443234878448A307DE627
:10060000349800680268001D34990860002A13D1EC
:100610000024E4431C4878446E306FE63498006848
:100620000268001D34990860002A05D10024E443C3
:1006300015487844523061E60D98C11703C200F0A6
:1006400030FC349800680168001D349A106000295D
:1006500005D10024E4430C4878442C304EE60D9834
:10066000087000F01EFC349800680168001D349A80
:10067000106000290AD10024E4430348784408307C
:100680003CE600BFC8320000DC3200000D98086074
:1006900000F007FC34980368DB1D0720834334987F
:1006A000036003CB349D2B6002AB03C32023C80F30
:1006B00004D007982D2115AB19540DE002A8008F26
:1006C000204204D007982B2115AB195404E0C00731
:1006D00004D5079815A90B54401C079015A8079935
:1006E0004318059324AD02A8C0C8684600782021AD
:1006F000014368468170612909D00E98002801D510
:10070000062003E003D1672901D114980E9002A8B6
:1007100003C808004C006415641C0ED109030CD0FA
:1007200003200890613A1A2A03D223497944883178
:100730000FE02249794484310BE0002C0ED10003F4
:100740000CD103200890613A1A2A1DD31C49794420
:100750006E310322180000F02BFDA2E301AA02A8CB
:1007600003C800F032FD02AA03C2684680786128FF
:1007700013D1059830210170811C059169460978D3
:10078000612905D1782104E00E4979443631E0E74A
:10079000582141700798801C079002A803C893A2B3
:1007A0000CCA02400B400FD1002A0DD100240026B4
:1007B00061E100BFEFFF0000E4310000E431000020
:1007C000E8310000E031000068468078612800D000
:1007D00099E00E98002801D5212000E0401C1390DC
:1007E0001398401C2E90300039000022002300F0A6
:1007F00001FD02A830C802D28020000645400198C1
:10080000001F019024A90A7024A8461C2E980028D5
:1008100032DD2E9F20002900002280235B0300F0A0
:1008200002FD29D81C2200F017FD04000D0000F085
:100830004BFD2E90FF1F002F09DD00F07FFD020011
:100840000B002000290000F0E0FD04000D00F01D69
:1008500007212E9A002A0ADD491E08D4401E1307DC
:100860001B0F03701211F5E7401E00220270491E93
:10087000FAD5C61D002FCDDC24A82F99711A24AA01
:10088000551C139A0C00914200DD1400002C33D447
:100890008C4205DA411C095D082901DB0F2100E0CB
:1008A0000021220024AB9B1801E0641E5B1E521E37
:1008B0001E788E42F9D00F2904D1411C895C491C55
:1008C000401C8154002A04D524AD641C0198001DED
:1008D0000190611E10D46A1868460078137830338E
:1008E000DEB23A2E01DBC318C6331370491E521E06
:1008F0000029F3D5694608700E98002800D4B9E0A5
:10090000601E0E90B6E07F007F080198684948435A
:10091000684900F0F1FD019007200199401A002874
:1009200005DD02003000390000F072FB0AE04242AF
:100930000020614900F06CFB02000B003000390020
:1009400000F009FE6A469278662A02D1019A0A32BC
:1009500000E006220E9B9A18142A00DD142224AB14
:1009600030241C705C1C02E030A803C8139A002AD3
:1009700040DD30AB03C3139230A803C800F0B6FCCF
:100980002E9006460834042530000A2100F0C8FDE8
:100990000F0030000A2100F0C3FD06003037601E52
:1009A000077030000A2100F0BBFD0F0030000A2163
:1009B00000F0B6FD0600A41E303727706D1EE3D18F
:1009C00008341398083813900028CDDD2E9800F0D5
:1009D000A5FC02000B0030A803C800F016FD0022A1
:1009E000364B00F019FE30AA03C2C5E7FFFFFFFF38
:1009F000FFFFFF7F2F98201A24A94D1C04E0401E02
:100A00000199491E01916D1C29783029F7D069465A
:100A10008978662902D10199491C06E069468978DE
:100A2000652901D1149900E000210E9A5418A042C2
:100A300000DA441E002C1DD4844204DA285D3428D8
:100A400001DD392100E030212200681E831801E019
:100A5000641E5B1E521E1E788E42F9D0392902D1C7
:100A6000A95C491CA954002A04D50500641C0198FE
:100A7000401C0190019E13956846007869464870B5
:100A800000F08CFE406A0078694608700E9D20B226
:100A9000002804DC149C0548784410301390684604
:100AA000807866280CD1761C24E000BF002F00005F
:100AB00097750000A08601000000F03F84D79741A1
:100AC00068468078672846D130B20321C9438842FE
:100AD00047DBA84245DA761C02A8008F1299C0B203
:100AE000084203D120B2A84200DC050030B22D1A22
:100AF00000D5002537B2002F00DDBAE00898411C70
:100B000008913021059A1154002D05DC02A8008FB0
:100B10001299C0B2084206D00898411C0891694653
:100B20000978059A11547842854200DA6E4236B24D
:100B300070420B90AD1920B2854200DA2C0024B22D
:100B40000994220013990598089BC01800F030FB07
:100B5000281B0C90DAE068464078612818D1702094
:100B60001BE020B2A84206DA02A9098F129AC9B284
:100B7000114200D105006D1E00D500256846407861
:100B8000672802D16520694607E04520694604E0F0
:100B900068464078412801D1502048700898411C8F
:100BA000089113990978059A11541398411C002D46
:100BB00005DC02A8008F129AC0B2104219D0089822
:100BC000421C08926A461278059B1A54002D10DDCB
:100BD000641E20B2854200DA2C0022B20598089BE0
:100BE000C01800F0E5FA24B2089800190890281BF4
:100BF0000B9005980899401869464978017031B200
:100C0000002903D42B214170871C03E02D22427060
:100C1000871C4E42002412AD300008E00A2100F08B
:100C20006BFC30AA03C229703098641C6D1C00B2A2
:100C30000028F3DC012C08DC6846407820210143C1
:100C4000652902D1302038707F1C002C09D130205A
:100C500038707F1C07E0641E12A8005D30303870C9
:100C60007F1C002CF7DC059808994018381A099069
:100C70004CE020B231B288421DDA22B213990598B5
:100C8000089BC01800F094FA24B208980019089044
:100C9000391B0B91002D05DC02A9098F129AC9B2EC
:100CA000114206D069460978059A11540998401CEA
:100CB00009900C952AE032B213990598089BC01848
:100CC00000F076FA0898C0190890A41B002D05DCE6
:100CD00002A9098F129AC9B2114205D0411C08918C
:100CE00069460978059A115420B2854200DA2C0031
:100CF00022B21398C1190598089BC01800F058FA41
:100D000024B2089800190890281B0B9002A83821DB
:100D1000405C14210140102900D0C2E007980899D6
:100D200040180B994018099940180C9940180F99D0
:100D3000884200DBB5E0081A0A90B2E002AA3A2025
:100D4000105C622808D068280ED06A2814D06C285D
:100D50001DD0712810D01AE0349801680868091D68
:100D6000349B1960C0B218E0349801680868091D06
:100D7000349B196080B210E034980368DB1D0720B3
:100D800083433498036003CB349C236006E034989B
:100D900001680868091D349B1960002102AB03C378
:100DA000108F1299C0B208425BD002A803C8002974
:100DB00001D1002855D068460078202101437829C8
:100DC0004FD1079815A930220A54401C421C0792A3
:100DD0006A4612780A5444E002AA3A20105C62285B
:100DE00008D068280ED06A2814D06C281DD071282D
:100DF00010D01AE0349801680868091D349B196006
:100E000040B218E0349801680868091D349B1960E5
:100E100000B210E034980368DB1D07208343349848
:100E2000036003CB349D2B6006E0349801680868AA
:100E3000091D349B1960C11702AB03C3002902DAF4
:100E400007982D2109E0108F204202D007982B210E
:100E500003E0C00705D50798202115AA1154401CAE
:100E6000079015A80799401805906846017802A8D0
:100E700000F03CF815E01498079034980068016879
:100E8000001D349A106015A801700AE0252015A9EC
:100E900008701498079068460078002801D04A70BE
:100EA00007940F980799401A0A99401A0899401A0E
:100EB0000B99401A0999401A0C99401A019002A8FE
:100EC0003821405C400701D5FFF733FA20206946FE
:100ED00008700198002801DCFFF72BFA019C329D75
:100EE000FFF71AFA0020C04335B0F0BDF2B586B066
:100EF000040025696F2901D1082707E00846202151
:100F00000143782901D00A2700E010273C2603CCB2
:100F1000083C04AA03C26A46127E642A03D06A46C9
:100F2000127E692A09D1002907DA04A803C8002221
:100F30000023121A8B4104A80CC004A803C800297E
:100F40000DD100280BD1206B002808D1082F3DD1EE
:100F50003820205C000739D53B26302035E002944C
:100F6000009504A830C8761E0196200029003A009A
:100F7000FB1700F019FC3032D0B23A280DDA009895
:100F80008255200029003A00FB1700F00DFC0400F8
:100F90000D0007D1002C05D10AE06846007E8218BA
:100FA000AF32ECE70298C068009989198842DAD319
:100FB000029C009D082F09D13820205C000705D530
:100FC000A85D302802D0761E3020A8553C20801B1A
:100FD000A061A919E160216B884206DA081A206233
:100FE000208F1C490140218710E000290ED53821AF
:100FF000615C14220A40102A08D1616B6269891A67
:10100000226A891A081A002800DD206207B0F0BDA4
:10101000F8B50026104F04000D00009214E0C00740
:1010200007D532003B002000290000F0F5FA04004B
:101030000D000098401000903000390032003B0055
:1010400000F0EAFA06000F0000980028E7D120001F
:101050002900F4BDEFFF00000000244010B503009C
:101060000C001100A0689847A060002804D0E06A36
:10107000401CE062002010BD0020C04310BDF8B548
:101080000024002B11D007000E0014001D00217851
:10109000B068B847B060002809D0F06A401CF06220
:1010A0000020641C6D1EF2D104002000F2BD00205F
:1010B000C043F9E7C9B202788A4203D0401C002A33
:1010C000F9D10020704730B50168411844686208C2
:1010D0008A188368E40704D54C461B1901E0641C98
:1010E00009D1914203D00C7864B2491C01E00C3064
:1010F00030BD0D78491C1D705B1C002CEFD4641EA4
:10110000F7D5EEE780B5002801D100BF07A006495A
:101110000B68002B03D022220021984701E000F049
:1011200081FB222002BD000054020020636F6E7319
:10113000747261696E742068616E646C65723A20C5
:10114000626164206D65737361676500431C01789B
:10115000401C0942FBD1C01A70470268531C03604F
:1011600011707047C9B2521E05D30378401C8B42E0
:10117000F9D1401E7047002070472E0070B4103A1D
:1011800003D378C9103A78C0FBD2530701D318C9EA
:1011900018C001D508C908C0D20704D30B88038042
:1011A000891C801C002A01D50B78037070BC704725
:1011B0008B0701D18307E1D0124205D00B78491C7F
:1011C0000370401C521EF9D1704710B5144600F050
:1011D00002F8226010BD4A0053155B1C08D0520D66
:1011E00006D003231B02FE3AD21A1305C91A704710
:1011F0000022704730B4012464054D00EC420BD846
:101200005D00EC4208D80C001C4364000443144306
:1012100004D2994200D1904230BC7047FCD08B423E
:10122000FAD18242F8E730B4012464054D00EC4263
:101230000BD85D00EC4208D80C001C43640004434A
:10124000144304D28B4200D1824230BC7047FCD0A0
:101250009942FAD19042F8E7124217D40023DB43B7
:101260005B0D9C464B005B0D06D0634504D09B187C
:10127000634502D21205891870476246090D114371
:101280000905002000B500BF00BF00BD52424B0061
:101290005B0DF1D05B1C5B05EED25B0D934102D977
:1012A0001205891A70470BD10B031B13C90FC9070D
:1012B000821C002043411343E4D912051143E1E7A6
:1012C000C90FC9070020DDE7F4464A1805D200F02F
:1012D0000FF801D580174008604700F009F8012198
:1012E000C907884200D90800404260474A1812D214
:1012F000400DC90208430121C9070843520D40218E
:101300000901521A521C06D452421F3201D4D04055
:101310007047C017704700207047FEE70100422267
:101320001201D21E004207D002D4521E0018FCD572
:10133000C10A400512058918704700000100EED56A
:101340004042F446FFF7EBFF0122D207114360470A
:101350008B4200D1824205D98446100062468C46F9
:1013600019006346DF184C18640D7F0D3AD0661CD7
:10137000760537D0E61B352E34DCDB022B43DB0A47
:101380000C0DC9022943C912202E0DDB1700203E87
:1013900006D01F00F741F3405F400026012A774145
:1013A000C01871410DD217E01700F741F2405740C5
:1013B000F3415A40B340F3405A4000268018594147
:1013C0000AD3A21C52050FD0C207012F7241170089
:1013D0004008CB0718434908641C24054208AF4164
:1013E00070416141F0BC7047641C21050020F9E7A1
:1013F0006B4010E06B40ABE7F742F3D1E943F1E714
:101400002442EFD100200021ECE7F0B40125ED07E4
:101410000F005F40EED40C00871A9C4105D2C01B20
:10142000A141D219634169406B40AE0ADF184C18E4
:10143000F442E1D2640D7F0DE2D0E61B362ED1DC02
:10144000DB022B43DB0AA4460C0DC9022943C90A5F
:10145000012E28DC04D1D6075208DF073A435B0887
:10146000EF0A76429041994114D039423BD1B619E6
:1014700040414941761C394204D1761C001849414B
:101480003942FAD0B9436746B74208D9A41B2405AC
:101490002143A7E70042EAD13642E8D1A2E7E40AB5
:1014A000E10700209EE7202E0BDD203E1F00F340C9
:1014B000F7415F40012A002257417E429841914105
:1014C0000BE01700F741F2405740F3415A40B34058
:1014D000F3405A407E42904199410A0303D2641E70
:1014E000B619404149410027641E24054208AE4117
:1014F00078416141F0BC7047CA0F00D049420310E7
:101500005A400DD004B500D3404200F009F8009ACB
:10151000D20701D34942124200D5404204BD000027
:10152000094214D088420FD30122030C01D10004D8
:101530001204002300185B418B4200D35B1A524116
:10154000F8D319001000704701000020704708B55B
:1015500000F06EF908BDF0B40E005E400125ED0705
:101560002E40B446AE0ADF184C18F4423BD2F74284
:1015700041D2640D43D07F0D38D0E41BC902DB0299
:1015800029432B43CF0ADB0A0600B61A9F4104D237
:10159000641EB6197F41B6185F416812800D241889
:1015A0000018844222DCE80C0021B6197F41B61AEB
:1015B0009F4102D2B6185F413F1C40414941F4D3DC
:1015C000241C21DD2405B6197F41B61A9F4105D39D
:1015D0003743C60737430026012F704161416646F5
:1015E0003143F0BC7047FCD1F74205D20020C14323
:1015F00049054908F3E704D00020C143F1E77F0D16
:10160000FAD000206146ECE72442FAD1401C614147
:101610000F03F6D30020E2E7F0B50E005E4001258F
:10162000ED072E40B446AE0ADF184C18F44208D23B
:10163000F7420ED2640D01D07F0D12D10020614619
:10164000F0BD05D1F74201D87F0D05D10020C1437F
:10165000F0BDFBD1640DF9D00020C1434905490814
:101660008FE0E419C902DB0229432B43DB0A460D54
:10167000C00231438E4630B487B295B27D432E0C02
:10168000ADB2140C7C43A419260C240425439CB24F
:101690007C43A419190C7943270CC919A4B20F046F
:1016A0003C43090C000C97B247432E0CBE1935433E
:1016B000ADB2170C4743360CBF19A6B2BF193E0492
:1016C0003543240C3E0C36199FB24743BF19BCB2B8
:1016D0003E0C89191F0C47437F183E043443390CD4
:1016E000704680B297B247432E0CBE193543ADB257
:1016F000170C4743360CBF19A6B2BF193E04354339
:10170000240C3E0C36199FB24743BF19BCB23E0CA5
:1017100089191F0C47437F183E043443390C774620
:101720003F0C90B278432E0C80190604ADB22E43C4
:10173000050CA0B22D18120C7A435019020C80B27D
:10174000240CA4189AB27A43121914042043120CE0
:1017500089181B0C7B43C91830BCEF0A394203D1EE
:10176000B61940414941641E6F12BF0DE41B0BDBEB
:10177000FF19BC4211DA240500274208AE41784126
:10178000614166463143F0BD641C05D1401C614196
:10179000CF0201D34908F4E750E75DE701487047FD
:1017A000000000005000002012422DD0994231D993
:1017B00070B500251B4209D00C00002112E0110079
:1017C000FFF7AEFE0A000021002370BD0942F6D0EB
:1017D0000024012649186441944200D3A41A76419A
:1017E000F8D33100012601E0764109D200186441A6
:1017F0006D41A41A9D41F7D2A4185D41B619F5D3E5
:10180000300022002B0070BD1B42CFD108B500F084
:1018100011F808BD01D19042CAD202000B0000218C
:101820000020704780B5012000F006F801BDFEE7FA
:101830007047FEE77047FEE780B500BF00BF024A71
:1018400011001820ABBEFBE72600020038B50400EB
:1018500014D0250080356868002803D12870200046
:1018600000F027FC24206860206801680122914371
:101870000160200000F0B2F9012801D1012032BD41
:10188000A06A002802D0200000F066FA20684168B3
:10189000084A0A404260206881682A229143816098
:1018A000FFE72068016801220A430260200000F07F
:1018B000B9FA32BDFFB7FFFFFEB504002268D06958
:1018C000116893680093BE4B034025005C352026C9
:1018D0000E4001962026064002960026002B0FD1CE
:1018E000029B002B12D0019B002B03D1009BDB003D
:1018F00000D48CE06969002901D020008847F7BD39
:10190000009BB04F1F4003D1AF4B0B4000D17EE096
:10191000C30706D5CB0504D5012313622A6B1343F5
:101920002B630422830708D5009BDB0705D5022320
:1019300027683B622B6B13432B63104208D0009B3C
:10194000DB0705D523681A622A6B022313432B6336
:1019500002070CD5019A002A03D1009A994B134033
:1019600005D0082223681A622B6B1A432A6380224F
:101970001201104007D0480105D520680262286B8B
:10198000202101432963286B002836D002980028C3
:101990000AD00198002802D10098C00004D56969D6
:1019A000002901D020008847286B402721688968DA
:1019B000394002D12821014024D0200000F0F8FA5B
:1019C00020688068074019D0EFF31080012181F36F
:1019D000108821688A6840239A438A6080F31088BF
:1019E000286A00280AD079498163286A00F0DCFB64
:1019F000002802D0286A816B8847F7BD200000F0DC
:101A000015FCF7BD200000F011FC2E63F7BD2B691B
:101A1000012B00D090E01023184200D0194200D1D1
:101A20008AE013621020C04321688968490649D5BD
:101A3000296A0A68526892B2002AE7D05C23E35A06
:101A40009A42E3DA6A8009680968890634D4EFF3B8
:101A50001081012282F31088226813685C4F1F40B6
:101A6000176081F31088EFF31081012282F3108850
:101A7000226893680127BB43936081F31088EFF3DA
:101A80001081012282F31088226893684027BB43AB
:101A9000936081F310882021E9622E61EFF31081B9
:101AA000012282F31088226813681840106081F3C5
:101AB0001088286A00F03CFB5C20205A6988411A93
:101AC00089B235E05C21615A6A88891A6A461180B8
:101AD0006988002972D06946098800296ED0EFF321
:101AE0001081012282F3108822681368394F1F4049
:101AF000176081F31088EFF31081012282F31088C0
:101B000022689368344F1F40976081F3108820212A
:101B1000E9622E616E61EFF31081012282F3108879
:101B2000226813681840106081F3108868460188A5
:101B3000200000F07CFBF7BD80235B03184207D038
:101B4000009F7F0204D51362200000F071FBF7BDF7
:101B5000DA00802318420AD00B4002D1009B1340C8
:101B600005D0A969002929D020008847F7BD402366
:101B7000184214D00B4012D0EFF31080012181F3F2
:101B8000108821680A6840239A430A6080F310880D
:101B90002020A862AE61200000F04BFBF7BD0240A0
:101BA00005D04A0003D5200000F044FBF7BDC0017A
:101BB00004D5002902D5200000F03DFBF7BD000050
:101BC0000F08000001000010200100041D20000883
:101BD000FFFEFFFFDFFEFFFFFEFFFFEFF8B5050092
:101BE00000270024286801688D4A0A40A96811432B
:101BF0002A690A4369691143EA690A430260416834
:101C0000A04A0A40E9681143416081689E4A0A403F
:101C1000A96911432A6A0A438260C16A0F2291436B
:101C20006A6A0A43C262994A1021994B984208D1C4
:101C300010688007800F1ED0022810D011D303280F
:101C40000BE0944B984210D110680C22024012D045
:101C5000042A06D0082A02D00C2A04D00CE0022163
:101C60000AE0042108E0082106E08B4A904202D0F5
:101C70008A4A904200D1002131A68948802212026E
:101C8000EB69934229D1002906D0022908D0042902
:101C90001ED008291FD048E000F0A3FD002845D041
:101CA00069680091696A4900715AFFF739FC400080
:101CB0000099490840180099FFF732FC01001039DB
:101CC000B04A914231D202400007400F104324E055
:101CD00000F046FDE2E71000E2E7002906D0022905
:101CE00008D004291CD008291DD01EE000F079FD81
:101CF00000281BD069680091696A4900715AFFF792
:101D00000FFC0099490840180099FFF709FC0100F1
:101D100010399C4A914208D280B22968C86005E017
:101D200000F01EFDE4E71000E4E70124280068301D
:101D30000121418001808760C7602000F2BD000062
:101D4000010002000400060008000A000C00100058
:101D500020004000800000012821415CC90706D511
:101D600001684A68884B1340C26A1A434A602821B6
:101D7000415C890706D501684A68844B1340026BB1
:101D80001A434A602821415C490706D501684A6820
:101D90007F4B1340426B1A434A602821415C09077C
:101DA00006D501684A687B4B1340826B1A434A6030
:101DB0002821415CC90606D501688A68764B134024
:101DC000C26B1A438A602821415C890606D50168E6
:101DD0008A68724B1340026C1A438A602821415C66
:101DE000490611D501684A686D4B1340426C1A438D
:101DF0004A60426C80235B039A4205D14A68694B72
:101E00001340826C1A434A602821415C090606D5BA
:101E100001684A68644B1340C06C184348607047BF
:101E2000F369FFCFF8B5040000258030C56000F0ED
:101E3000FDFC07005D4E20680068000709D500968C
:101E40003B00002280218903200000F02BF80028AD
:101E50000DD12068006840070BD500963B0000229A
:101E60008021C903200000F01DF8002801D00320C4
:101E7000F2BD21008031202048608860E5660D7049
:101E80000020F2BDFFCFFFFFFFF4FF11541002400E
:101E9000003801400044004000480040004C004031
:101EA0000024F400FEB5089F8024240100250600CC
:101EB00001916846027002933068C069019901403F
:101EC0000198814201D1012000E000206946097893
:101ED000884254D10020C0438742EDD000F0A6FCD8
:101EE0000299401A874201D3002F1FD1EFF31080CF
:101EF000012181F3108831680A68454B13400B605B
:101F000080F31088EFF31080012181F3108831688D
:101F10008A6801239A438A6080F3108830008030F9
:101F200020214160816005700320FEBD306800689B
:101F30004007C1D53068C0692040BDD03068046218
:101F4000EFF31080012181F3108831680A68304B6B
:101F500013400B6080F31088EFF31080012181F3B0
:101F6000108831688A6801239A438A6080F3108858
:101F700030008030202141608160C160D3E70020C3
:101F8000FEBD0000F0FF0000FFFFFDFFFFFFFEFFB2
:101F9000FFFFFBFFFF7FFFFFFFEFFFFFFFDFFFFF05
:101FA000FFFFEFFFFFFF9FFFFFFFF7FFFFFFFF01B7
:101FB00010B5EFF31081012282F3108802681368D4
:101FC000144C1C40146081F31088EFF3108101223F
:101FD00082F31088026893680F4C1C40946081F370
:101FE0001088C16E01290BD1EFF31081012282F319
:101FF0001088026813681024A343136081F31088CB
:102000002021882281500021C166016710BD000097
:102010005FFEFFFFDFFEFFFFFEFFFFEF80B5806A80
:102020000100563100220A810A8000F0FFF801BD4C
:1020300080B53A48012142680A4342604268114033
:10204000009100998021490502680A4302600068F6
:10205000014000910098C020C00000F0FFFB01BDCE
:1020600010B586B004001422002101A800F004FC81
:1020700020682B4988421AD12A4880214903C26826
:102080000A43C260C26811400091009902210268AF
:102090000A43026000680840009000980191032004
:1020A00002900020039001A91F4800F0EFFB06B04A
:1020B00010BD10B586B004001422002101A800F064
:1020C000DBFB20681949884226D11649802080020E
:1020D0008A6802438A608A68104000900098012054
:1020E0000A6802430A6009680140009100990C21C6
:1020F000019102210291002103910491059001A90F
:10210000A020C00500F0C2FB002200211C2000F02E
:10211000AAFC1C2000F0ACFC06B010BD3C10024034
:1021200000240140341002400004005000440040EC
:10213000F0B5002809D00100243100222523C35C1A
:10214000022B04D00423C3630A700120F0BD03688E
:102150001C680E25AC431C60446C334B25681D4045
:102160002560046825680126B54325602D4C256847
:10217000AC464025475D1C253D400127AF406546E4
:102180002F432760C46C856C6C60046D002C06D0F6
:1021900024682340046D2360836D446D63602523B0
:1021A000C6540A700020F0BDF8B5002100240126B5
:1021B0002522825C022A03D00421C16301242EE07F
:1021C000026813680E25AB43136002681368B343BB
:1021D0001360436C144A1D6815401D60114B1D6847
:1021E000AC464025475D1C253D400127AF40654674
:1021F0002F431F60C36C856C6B60036D002B06D092
:102200001B681A40036D1A60826D436D5A60252267
:10221000865424228154816B002900D088472000F5
:10222000F2BD000004000240FFFEFFFF7047704750
:102230007047704770477047FEB507001BD0A84C29
:102240003878C00719D5A16838200840E168802592
:10225000AD02102808D18807800F032806D07968BE
:102260006808814234D13BE00828F8D12068054055
:1022700003D07868002800D1B5E1387880077BD595
:10228000A06838210140E268B948BA4D10294ED102
:102290009207920F022A4CD0F968002900D196E0EB
:1022A000216808403969014321602068A10D01437C
:1022B000216000F0BBFA3E0007002068400500D511
:1022C0007DE000F0B3FAC01B0328F6D30320FEBD67
:1022D000A022D202914207D1216882000A432260E3
:1022E00021680843206007E02068A349014021607D
:1022F0002068A24901402160786800280BD000F0D6
:1023000095FA060020682840B7D100F08FFA801BAC
:102310006528F7D3DAE700F089FA0600206828403C
:10232000ABD000F083FA801B6528F7D3CEE70029F5
:10233000B2D12268520502D5FA68002A3ED06268FE
:1023400015407A6912022A43626000290ED1216881
:102350000840396901432160A448012122689204A0
:10236000520F9140FFF7DCF8A1490860A1480068CE
:1023700000F0A4FB002821D10225387800070AD5F7
:10238000A06838210140182931D1206E284002D0A0
:10239000B869002812D03878400700D4A9E000209E
:1023A0000190A06838210140202942D1E06D05400C
:1023B00000D19EE0B868002800D09AE013E1606880
:1023C000054070690002284360603700D4E7206848
:1023D00089490140216000F029FA05002068400584
:1023E000CAD500F023FA401B0328F7D36EE7B8697B
:1023F0000028206E0ED001210143216600F016FA5C
:102400000600206E2840C6D100F010FA801B032879
:10241000F7D35BE701218843206600F007FA060046
:10242000206E2840B7D000F001FA801B0328F7D3B4
:102430004CE7E806E16B014008D1E16B0143E16341
:10244000E16B084000900098012001906B4D2868D6
:10245000C00512D4A00D009028680099014329609E
:1024600000F0E4F9060028680099014005D100F069
:10247000DDF9801B0328F6D328E7B868012101287D
:1024800005D00528E06D06D104220243E265E06D27
:102490000143E16505E08843E065E06D0421884380
:1024A000E0650226B86800280CD000F0BFF90500EE
:1024B000E06D304016D100F0B9F9401BA4498842C4
:1024C000F6D303E700F0B2F90500E06D304009D023
:1024D00000F0ACF9401B9E498842F6D3F6E600BFF7
:1024E000001002400198002803D0E06B9949014098
:1024F000E163F869002855D0A16838220A40102A03
:1025000052D08026B60494490228206838D1014070
:10251000216000F08BF905002068304005D000F004
:1025200085F9401B0328F7D3D0E6E0688B490140CA
:10253000386A0843796A0143B86A00020843F96AB5
:102540000143386B0843E060206871080143216053
:10255000E068F1000143E16000F068F905002068DF
:1025600030401FD100F062F9401B0328F7D3ADE6DD
:10257000FFC7FFFFFF80FFFFFFFFFEFFFFFFFBFF27
:102580000140216000F052F905002068304005D07C
:1025900000F04CF9401B0328F7D397E6E068984910
:1025A0000140E1600020FEBD01281CD0E0688107E9
:1025B000890F3A6A914216D1702101407A6A91429C
:1025C00011D1FE21C9010140BA6A120291420AD119
:1025D000F82189030140FA6A914204D1400F400773
:1025E000396B8842DED00120FEBD00000024F400DB
:1025F0004C00002048000020FFFEFFFF007000405C
:10260000F8B5070066D000917E4800684007400F8B
:10261000884218D27B4C20680721884300990143E7
:10262000216000F003F9009D060020684007400F7C
:10263000A84207D000F0FAF8801B45498842F4D33D
:102640000320F2BD00953968704C022001420CD085
:10265000490704D5A168E022D2010A43A260A1681B
:10266000694A0A40B9681143A1600725ED433978EA
:10267000C90732D57968012918D12068800329D586
:10268000A06828400143A16000F0D0F83E00070098
:10269000A068382101407068C00081421CD000F061
:1026A000C5F8C01B2A498842F2D3C9E7022902D1E2
:1026B0002068800103E0002903D120684005DFD4B1
:1026C00008E0032903D1226E1040D9D102E0E26D67
:1026D0001040D5D10120F2BD370000984949096862
:1026E0004907490F884217D24648006805400098BC
:1026F00028434449086000F099F8009D06004148CD
:1027000000684007400FA84206D000F08FF8801BF9
:102710000F498842F3D393E73878400705D5A0687E
:102720003B490140F8680843A06000F019F83949B6
:10273000A2681205120F9200895CC906C90EC84032
:10274000354908603548006800F0B8F9F2BD00006E
:1027500089130000FFFFFFEFFFFFFFFE8C80C11F0A
:1027600030B507212F48294C3823A2681A4006D1DA
:1027700023680122DB0A19408A4011001EE042084A
:10278000A5681D40082D01D1100030BDA5681D4071
:10279000102D16D1E368E5682D092940491C7F25D5
:1027A0009B079B0F032B00D11000FEF7B9FEE168D9
:1027B000090A0D406843E168490F491CFEF7B0FE65
:1027C00030BDA0681840202802D18020000230BD12
:1027D000A0680340182B02D1FA20C00130BD0020B0
:1027E00030BD0F4801680C4800680F4A4904490F82
:1027F0008900515CC906C90EC8407047000000003E
:10280000FCFFFEEF00200240FFF0FFFF001002403F
:10281000FF8FFFFFB03900084C0000204800002067
:10282000081002400024F400743A0008014840688F
:10283000704700BF4000002010B500240B4801681D
:10284000820D0A430260032000F038F9002801D00D
:10285000012401E0FFF7ECFB200010BD04490A68E9
:10286000044B1340184308607047000000200240EA
:1028700000000140FFF9FFFF10B50400080011003F
:102880000200200000F040F9200010BDFFB500223A
:102890000F2302932CE0052602E05E4FB842FAD1E6
:1028A000AE402643009C26605B4C2568DC432540F7
:1028B0004E68F60200D51D43574E356075682540B9
:1028C0004F68BF0200D51D437560544D6E682640A9
:1028D0004D68AD0300D51E43504D6E602E683440E8
:1028E0004E68F60302D526001C0034432C60521CAF
:1028F0000B681C00D44078D0012595402B40F6D0C1
:1029000054000327A740FE4301964E68B707BF0F48
:10291000012F03D0B607B60F022E0ED18768019E95
:102920003E40CF68A740374387604668AE434D6856
:10293000EF06FF0F9740374347600D79AD07AD0FA6
:10294000032D25D0C568019E2E408D68A5403543D6
:10295000C5600D79AD07AD0F022D19D1D508AD00B9
:1029600045192E6A039697001C263E406F463E701E
:10297000039EB446029F6E463678B7406646BE4315
:10298000B4460F696E463678B740664637432F62C5
:1029900007680326019D3D404F683740BC4627002D
:1029A0006446BC402C4304604C68350425409ED0EE
:1029B0001B4C9508AD00641900942468D7001825B5
:1029C0003D40029FAF40BC43A027FF05B84201D164
:1029D000002665E7134FB84201D1012660E7124F88
:1029E000B84200D059E702265AE7FFBD0069084007
:1029F00000D00120C0B27047002A01D08161704729
:102A00008162704742690B0013401B0491431943D4
:102A100081617047000C005000180240801802408D
:102A200060180240000400500008005010B5C200B9
:102A300018231340FF249C40E2438907090E994064
:102A4000030004D419489B089B00C01806E0184BEB
:102A50000007000F083880088000181803681A4023
:102A60001143016010BD80B5FFF7E0FF01BD00001C
:102A7000010005D40121C006C00E81400D4801604F
:102A8000704710B5401E80214904884201D30120BF
:102A900010BD094C606003210020C043FFF7C6FF52
:102AA0000020A0600721216010BD000000E400E0CC
:102AB0001CED00E000E100E010E000E070B5060071
:102AC00000240F4D2978002916D0FA208000FEF747
:102AD00027FD01000B480068FEF722FDFFF7D1FF3C
:102AE000002809D1042E07D2002231000020C04363
:102AF000FFF7B9FFAE6000E00124200070BD00BF09
:102B0000400000204C0000201206130A1A43130C48
:102B10001A4300BF094205D0830705D00270401C4C
:102B2000491EF9D1704700001300103906D330B4A4
:102B30001400150010393CC0FCD230BC490700D34A
:102B40000CC000D504C0890002D30280801C00297B
:102B500000D502707047FEE710B5042319404369A1
:102B600007248C40A3438A401A43426110BDFEB53E
:102B7000050000260096002D01D10120FEBD2C008D
:102B800054346068002804D12800FFF769FAA66071
:102B9000267028688168C90014D48168724A0A4086
:102BA0008021490511438160704800687049FEF733
:102BB000B7FC401C400001E00098401E00900098C7
:102BC0000028F9D1296888681027C00007D46068F8
:102BD00038436060A06801220243A2600126886831
:102BE00062683A4000D0B9E0400700D5B6E06068BE
:102BF000604A02400220104360608868C00772D4B7
:102C0000286B002801D03A0200E000222869002841
:102C100002D54000400800E078040190A87E6B4691
:102C20001870AB68287E800318436B7EDB03034378
:102C300068460078400318430243E8681043019A4D
:102C400002432C20285C400010432022AA5C012A69
:102C50000FD16A461278002A03D1020038031043CC
:102C600007E06268202313436360A26801231343D3
:102C7000A3606A6A002A05D0E0235B001340034387
:102C8000A86A1843CA683C4B13401843C860686878
:102C9000810F8907E86C08433C21695C012907D151
:102CA000296C0143686C0843A96C01430120084367
:102CB00029680A69314B1340184308616868C021CC
:102CC000090688420FD0494288420CD0802109066B
:102CD000884208D02A490B682A4A1A40F0239B03ED
:102CE000034013430B606A6B00212868FFF734FF31
:102CF000AA6B25492868FFF72FFF29690F20C043D9
:102D0000002904D129688A6A104388620CE07A0499
:102D1000914209D129688A6AEA69521E5207D20E85
:102D20009040E26802438A62286841690220C043F9
:102D30004907490F6A6B914207D10021A160616880
:102D400008400121014361600CE0616808400743CD
:102D500067600126A0683043A06003E06068074315
:102D6000676001263000FEBDE8FFFF7F4C000020B9
:102D7000400D0300FFFEFFFF0102FEFF02FCFF1FEC
:102D800008270140FFFFC3FF04FFFF07F1B585B02F
:102D900000206A465070019005985422805C0128FA
:102DA00001D1022021E105985430029001250570DF
:102DB00005980668B068400700D509E101910598BB
:102DC000006903900198406804908949894A8A48BB
:102DD00080231B06049C022C039C00D1CEE09C4265
:102DE00001D0844207D101980068B46A4003400BC7
:102DF0002043B06280E0019800680F24470302D1AD
:102E00004000C50E47E0284244D1870743D404253B
:102E1000284201D002253EE0070701D503253AE00C
:102E2000C70638D4850601D5052534E0450601D509
:102E3000062530E0050601D507252CE0C50501D59E
:102E4000082528E0850501D5092524E0450501D59B
:102E50000A2520E0050501D50B251CE0C50401D598
:102E60000C2518E0850401D50D2514E0450401D595
:102E70000E2510E0050401D50F250CE0C50301D592
:102E8000102508E0850301D5112504E0400301D594
:102E9000122500E000250498C006C00E6F46387069
:102EA0000298C768BC46684607780F20B840674656
:102EB00087436846007885403D430298C560019885
:102EC0004068059DED6987087F1CBD4214D3019DB4
:102ED0002D68C006C00E6F463870B76ABC4668469B
:102EE00007780F20B84067468743A80E044068461D
:102EF000007884403C43B46201988068019C256856
:102F0000059C24682D026669AE4328403B4D054070
:102F10003543656101980468234061D01368C84354
:102F20001840374B9C4217D180231B04184257D1BD
:102F30001468214008430343136032480068324953
:102F4000FEF7EEFA401C0C2148430190019800283E
:102F500046D00198401EF8E72C4B9C4202D18023BA
:102F60005B0404E02A4B9C423AD18023DB031842E5
:102F700036D1146821400843034327E09C4201D026
:102F8000844206D101980068B46A4003400B844330
:102F9000B46201980468234022D01368C8431840E3
:102FA000174B9C4203D1136819401A4B0CE0174B86
:102FB0009C4203D113681940174B05E0144B9C4207
:102FC0000ED113681940154B03400B43136007E003
:102FD000029840682021014302984160684645708C
:102FE0000020029908706846407806B0F0BD0000E5
:102FF000FFFF3FFE082701400400008000FFFF079D
:10300000001000B04C000020400D0300004000B84C
:10301000002000B4FFFF7FFFFFFFFFFEFFFFBFFFA9
:10302000F8B586B0FFF708FC00F0E9F8142200219B
:1030300001A8FFF721FC0426904801683143016094
:103040000168314000910099016801220A43026041
:103050000168CA07D20F00920099022102680A4350
:1030600002600068014000910098A025ED05002253
:1030700020212800FFF7C0FCF002019000240294F8
:10308000039401A97E48FFF701FC20270197012046
:1030900002900394049401A92800FFF7F7FB0C2287
:1030A00000216846FFF7E8FB764D77482860300737
:1030B0006860AC60EC602C616E612C83AC760120A2
:1030C000E861EC556C62AC622C216C542C636C632F
:1030D000AC633C216C54EC642800FFF748FD0028E9
:1030E00001D000F0EBF86948009001940294694621
:1030F0002800FFF74BFE002801D000F0DFF8644EF7
:1031000064483060962080017060B460F46034617F
:103110000C207061B461F46134627462B462300096
:10312000FEF794FB002801D000F0C8F80021300021
:1031300000F0EBF8002801D000F0C0F800213000CA
:1031400000F0FCF8002801D000F0B8F8300000F0E2
:10315000BFF8002801D000F0B1F8EFF31080012192
:1031600081F310884B490A6817430F6080F3108879
:10317000002300220E2100BF51A000F041F9404E73
:103180008027BF0144480078002801D042490C70D4
:1031900042480078002801D040490C70404800782F
:1031A000002810D03E490C7039003000FFF71EFC9B
:1031B000002808D101203B49087039003000FFF792
:1031C00015FC0028F9D038480078002806D0364988
:1031D0000C706420285C401C6421685433480078DB
:1031E00033490978884201D000F072F931480078FB
:1031F0000128C7D12F490C7000F08EF9C2E710B535
:1032000098B0342200210BA8FFF736FB10220021D2
:103210006846FFF731FB1C22002104A8FFF72CFBB6
:103220008020800000F0E2F902200B90FE300E902A
:1032300000240F944020109012940BA8FEF7FCFF7E
:10324000002801D000F03AF8072000900194029481
:10325000039400216846FFF7D3F9002801D072B625
:10326000FEE7154804900694099404A800F0E4F9D8
:10327000002801D072B6FEE718B010BD341002402D
:103280000008005024010020002401400002002416
:1032900094000020004400408800002089000020A5
:1032A0008A000020160000208B0000208B010020E7
:1032B00058020020120000200240000072B6FEE713
:1032C0000D0A42756F6E67696F726E6F210D0A008D
:1032D00030B5010080310A78012A01D1022030BDC9
:1032E00001220A7024224A600268136814680125CA
:1032F000AC43146000224266224C1C40006804600B
:10330000202048600A70002030BD70B50400250000
:1033100080352878012801D1022070BD0120287055
:103320002420686020680668026801239A430260CE
:1033300020688268D200D208114317E070B50400FB
:10334000250080352878012801D1022070BD012098
:1033500028702420686020680668026801239A4368
:10336000026020688268084B134019438160200086
:1033700000F00CF8206806602020686000202870AB
:1033800070BD0000FFFFFFDFFFFFFFF1F8B5040095
:10339000606E002802D10120012517E020688168B5
:1033A0000901490F00918068410F00BF0CA600BFC2
:1033B00009A7785CC000715CFEF79EF805000098D4
:1033C000385CC0000099715CFEF796F82100683106
:1033D0004D800880F1BD00000101010307010000DC
:1033E0000804020408010101EFF31081012282F3B5
:1033F0001088026880231343036081F310887047AC
:10340000FAB583B0050014000020694608706846CC
:103410008689007C002800D1B61C00F046F8012205
:1034200028490B784F78BB4201D1019201E000237B
:103430000193B6B2864232D200220295224F0EE0AC
:10344000029B9B5C002B01D1012C07D14D787B5551
:103450006D1CEBB2642B00DB00254D70521C6B46DB
:103460009B899A42ECDB6A46127C002A10D14A788A
:103470000D24BC54521CD4B2642C00DB00220A245C
:10348000D5B27C55521CD3B2642B00DB00224A70AB
:103490000198002805D00D48FFF7A6FF01E0684617
:1034A00002706846007805B0F0BD064841780078A3
:1034B0000300814201D2581A02E06420401AC01869
:1034C00080B2704789010020F001002000440040D4
:1034D00070B54048017C427C3F4B1B783F4CE65C1A
:1034E0000125242E04D1012124220270012207E0AB
:1034F000012905D18654521C0A2E01D18574002160
:10350000017442745B1CD8B2642800DB002332488B
:103510000370002070BD000038B53148802189015A
:10352000002501222B4C6378522B1AD0532B1BD031
:10353000542B1DD0552B1FD0562B29D0572B3CD0A8
:10354000582B42D0722B0CD0732B0DD0742B0FD074
:10355000752B11D0762B1BD0772B2ED0782B34D017
:1035600035E0FFF749FA05E00022FFF745FA01E0F0
:10357000FFF748FA657529E06575E27523001E338B
:103580000A220521A01C00F009F9E08BA0831EE0AF
:10359000A07D012801D1502200E04E2211A120007F
:1035A000243000F027F9207601230022217E20001C
:1035B0002430FFF725FFA57509E0230020330A22F8
:1035C0000521A01C00F0EAF801E06275E575A5741C
:1035D000002032BD00000020580200208C01002095
:1035E00000080050247625630A00000010B50E4C38
:1035F00021680E4A0A4002432260610D884210D1C0
:103600000B480068062148430A49FDF789FF401C22
:1036100000E0401E6169490503D50028F9D1032067
:1036200010BD002010BD000000700040FFF9FFFF3A
:103630004C00002040420F00FEB5040000206A4606
:1036400010704E4D2168890355D5019080204005AA
:10365000296B014008D1296B01432963296B08407C
:10366000019001980120019045480068A90D01438F
:1036700043480160FFF7DAF8060041480068C005DA
:1036800005D4FFF7D3F8801B0328F6D323E0296D78
:10369000C020800008403B4F00280ED0A16988421E
:1036A0000BD0286D3840296D802252020A432A65CA
:1036B000296D354A0A402A652865C0070FD5FFF7EE
:1036C000B5F80600286D800709D4FFF7AFF8801B16
:1036D0002E498842F6D303206946087004E0286D1D
:1036E0000740A069384328650198002803D0286B5B
:1036F0002749014029632078C00705D5A86C03211C
:10370000884361680143A9642078800705D5A86CC7
:103710000C218843A1680143A9642078800605D55F
:10372000A86C1C490140E0680843A8648020C001DF
:10373000216801400DD0A96C8900890862690A439B
:10374000AA6461690204914203D1296882000A4394
:103750002A60216809050DD5A96C0F4A0A40216924
:103760001143A9642169814204D12868802149025A
:103770000143296068460078FEBD00000C1002403D
:1037800000700040FFFCFFFFFFFFFEFF89130000F9
:10379000FFFFFFEFFFCFFFFFFF3FFFFFFFB500245D
:1037A0000020002100260FE000930A235943491905
:1037B0003039641CE4B2009B1B5D6D462D7AAB4230
:1037C00001D0002B00D101266B461B799C420BDAFD
:1037D000009B05E01D5D2F00303F0A2FE4D3012040
:1037E000050035432D06F5D0020001D1039A118062
:1037F00004B0F0BD0CB418B583B004000A0006A8EC
:10380000029001940020009002AB01A9084878447E
:103810001E30FCF751FC0021019A1170002801D4E0
:103820000198001B04B0019910BC03B0084700BF09
:103830002BD9FFFFFEE7FEE77047704710B500F099
:1038400079F8334933488288531801221C0401D186
:1038500002700A238380C3885B181C0401D1427064
:103860001923C38003895B181C0401D1827064236F
:103870000381438959180B0402D1C270FA218900CF
:10388000418110BD38B52448C369202213400DD0B2
:1038900003681A400AD0446A204A1378204DEC5439
:1038A0005B1CDCB2642C00DB0023137003688022F5
:1038B000134011D0C3691A400ED01A4A13781A4C1B
:1038C0002478A34218D0194CE45C84625B1CDCB2FF
:1038D000642C00DB00231370026840210A4003D0EF
:1038E000C2690A4000D001628168C90700D5C06979
:1038F0000F48FDF7E1FF31BDEFF31081012282F3A4
:103900001088026880239A43026081F31088E3E7FD
:10391000FFFF000088000020004400408B010020D1
:103920008C010020890100208A010020F001002084
:10393000940000200248416802788918416070476D
:1039400040000020686A6C747A4C00007072696EE6
:1039500074665F733A20256E20646973616C6C6FC6
:10396000776564007072696E74663A2062616420E3
:10397000256E20617267756D656E74007072696E78
:1039800074665F733A2062616420257320617267F8
:10399000756D656E74000000000000006E616E00C1
:1039A0004E414E00696E6600494E46003000FEE70B
:1039B0000000000000000000000000000000000007
:1039C00000000000000000000000000000000000F7
:1039D00001000000020000000300000004000000DD
:1039E00006000000070000000800000009000000B9
:1039F00070B40123002413E00168001D194202D0B5
:103A00004D466918491E0C60091D121F042AFAD27E
:103A10000D00960701D50C80AD1C1A4000D02C700B
:103A20000268001D002AE7D170BC704710B5074935
:103A300079441831064C7C44163404E0081D0A68A9
:103A4000891888470100A142F8D110BD0800000084
:103A5000240000009DFFFFFFC8010000940000202B
:103A60000000000063D6FFFFB700000094000000D4
:103A70000000002000000000000000000000000026
:103A80000000000001000000020000000300000030
:103A90000400000000F00DF8002801D0FFF7C6FF79
:103AA00000BF00BF002000BF00BFFFF7B9FA00F061
:103AB00002F80120704780B500F002F801BDFEE772
:103AC00007463846FDF7B8FEFBE7FEE70548014626
:103AD00003B4684680F3098800BF00BF00BF00BF81
:103AE000FFF7D8FFA5EDF5FE0148804701480047E4
:103AF0001D3B0008CD3A0008FEE7FEE7FEE7FEE7C3
:103B0000FEE7FEE7FEE7FEE7FEE7FEE7FEE7FEE78D
:103B1000FEE7FEE7FEE7FEE7FEE7FEE7704700E6AA
:103B200000FEFFDC000001F9000004FC001E24F48C
:103B3000001E3B00081E3B00081E3B00081E3B0009
:103B4000081E3B00081E3B00081E3B0008F8FF0B48
:103B50007A1100081E3B00081E3B0008FAFFFA001D
:093B6000070A0019006400E803E3
:0400000508003ACDE8
:00000001FF
